:1000000002000375819F1202FDE582600302006F0A
:10001000787579007A547B007C1E7D00EC4D601C65
:1000200088828983E493A3A882A9838A828B83F040
:10003000A3AA82AB831CBCFFE31D80E07582007520
:1000400083007C547D00EC4D600AE4F0A31CBCFFEF
:10005000F51D80F27582007583007C007D00EC4DFB
:10006000600AE4F0A31CBCFFF51D80F212007412BC
:10007000226A80FE2200000000000001010101A1AF
:1000800000A60000000000000039303333733F0049
:10009000000000020EEE4572726F723A20436F75D7
:1000A0006C64206E6F742066696E6420424D4D3121
:1000B00035302073656E736F722028436869702035
:1000C00049443A20307825303258290D0A005072C0
:1000D000657373207265737461727420746F20632A
:1000E0006865636B20616761696E210D00444F4E46
:1000F00045212043686970204944203D20307825FF
:100100003032580D0A00424D4D31353020696E694C
:100110007469616C697A6564207375636365737370
:1001200066756C6C792120436869702049443A20D7
:100130003078253032580D0A00436F6D6D616E6462
:100140003A20257300526573706F6E73653A2025EF
:10015000730D0A0041542B44564944303030300D61
:100160000A006D61737465725F6D657373676165B5
:100170005F6175746F5F6D6F64653A2025730D0A5A
:1001800000253033642C253033642C253031642C29
:100190002530316400253031642C253032642C2523
:1001A0006C642C25342E31660A00663A2530346C96
:1001B000642C2064313A25642C2064323A25642C66
:1001C00020626F756E645F646563746563743A2062
:1001D00025640D0A004175746F206D6F646520669B
:1001E000696E6973686564210D0A000D0A45464D04
:1001F000384C423132204A44592D343020536C61FE
:10020000766520546573742E0D0A0041542B5645B3
:10021000520D0A0041542B424155440D0A004154ED
:100220002B524649440D0A0041542B445649440D73
:100230000A0041542B5246433030320D0A004154DB
:100240002B504F57450D0A0041542B434C53530D2F
:100250000A0041542B44564944454631310D0A00A9
:100260004D617374657220736179733A2025730D43
:100270000A00253033642C253033642C25632C256B
:10028000303164004A6F79737469636B205265631F
:1002900065697665643A205678203D2025642C20D7
:1002A0005679203D2025642C204F72646572203DD4
:1002B0002025632C204175746F203D2025640D0A94
:1002C000002A2A2A20424144204D455353414745A4
:1002D000202A2A2A3A2025730D0A00302C30302C8F
:1002E0002530346C642C25342E31660A0000000061
:1002F00000920A063FDB0FC93F920A863F75A700AE
:100300007597DE7597AD75FF8075EF0675A710754B
:10031000C12075A70075A90075A900E5A930E7FB04
:1003200075A90375A903E5A930E7FB43A4C043A55C
:100330000643A60175E10375E20075E34175D40734
:1003400075D5F9759810758DE6858D8B53890F439A
:100350008920D28ED299D2A075A21175A1E075F82C
:100360000175A71075C00075D4FF75D5FF43F3085C
:10037000D2C2D2AF75A70075820022AA82438E40F6
:100380007592B87593FF8592948593957591047BCA
:1003900000C3EB9A500BE59130E7FB53917F0B8044
:1003A000F075910022AA82AB837C007D00C3EC9A99
:1003B000ED9B502B7E00BE0400501D7582FAC002DA
:1003C000C003C004C005C00612037BD006D005D010
:1003D00004D003D0020E80DE0CBC00D10D80CE22F2
:1003E0008582A310FF0280FB85A38222AA8243029A
:1003F00080C2908A821203E07582001203E0D290DC
:1004000022AA8253027FC2908A821203E08524824C
:100410001203E0D29022900018E4F0900019F090BE
:10042000001AF090001BF090001CE4F090001DF00A
:1004300090001EF090001FF0900020E4F09000214A
:10044000F0900022F0900023F0900024E4F090005F
:1004500025F0900026F0900027F07A00BA020050B4
:1004600027EA2418FBE43400FC745D2AF582C002FC
:10047000C003C0041203ECAD82D004D003D0028BC1
:10048000828C83EDF00A80D47A00BA04005027EA07
:10049000241AFBE43400FC74622AF582C002C00313
:1004A000C0041203ECAD82D004D003D0028B828C46
:1004B00083EDF00A80D47A00BA0A005027EA241E9D
:1004C000FBE43400FC74682AF582C002C003C00457
:1004D0001203ECAD82D004D003D0028B828C83ED6A
:1004E000F00A80D4900018E0900008F0900019E025
:1004F00090000AF090001CE0900009F090001DE0D0
:1005000090000BF0900027E0900014F0900026E09F
:10051000900015F0900023E0FA53027F8A037A00DE
:10052000900022E0FC7D00900016EC4AF0ED4BA319
:10053000F022D29090000A1203A575248275824B96
:1005400012040190000A1203A575240175824B1252
:1005500004019000051203A57582401203ECAA82E3
:10056000BA320280348A037C00C003C0047496C08F
:10057000E07400C0E07480C0E0122A28E58124FB0A
:10058000F58174CEC0E07400C0E07480C0E0122A2F
:100590002815811581158180E97B00C002C003C048
:1005A00002C00374EDC0E07400C0E07480C0E012CB
:1005B0002A28E58124FBF58175240075824C1204FC
:1005C0000175247F75825112040175240E758252C3
:1005D0001204011204167406C0E07401C0E07480B5
:1005E000C0E0122A28E58124FBF58122ACF0122616
:1005F000B2FAA31226B2FBBA0006BBF0030208321D
:10060000AC25AD26AE278C828D838EF01226B2FCEF
:10061000A31226B2FD4C600A90002AECF0A3EDF084
:10062000801C900016E0FCA3E0FD4C600A90002ABC
:10063000ECF0A3EDF0800790002AE4F0A3F0900026
:100640002AE0FCA3E0FD4C7003020827900016E0AE
:10065000FEA3E0FFE4F8EFC85403A2E0C813C813F8
:10066000A2E0C813C813C8F9EE030354C0FFEE0399
:1006700003543F48F87E008C788D79757A00757B3D
:10068000008E828F8388F0E9C002C003122968AC13
:1006900082E58324C0FD8C068D078E28EFF5293373
:1006A00095E0F52AF52B8C068D078E78EFF57933DA
:1006B00095E0F57AF57B852882852983852AF0E502
:1006C0002BC004C0051226CE85822885832985F09B
:1006D0002AF52B900015E0FE3395E0FFF8F97578C8
:1006E00080E4F579F57AF57B852882852983852A4A
:1006F000F0E52BC006C007C000C001122968858242
:100700007885837985F07AF57BD001D000D007D049
:10071000068E828F8388F0E91226CE858228858313
:100720002985F02AF52BD005D004900014E0FEE4D2
:100730005401A2E0CE13CE13CE8E78F5793395E036
:10074000F57AF57BED3395E0FE8C828D838EF01289
:1007500026CEAC82AD83AEF0FFEC2528FCED35292A
:10076000FDEE352AFEEF352BFF75780075790275A1
:100770007A00757B008C828D838EF0EF122968AC35
:1007800082AD83AEF0FF74102EFEE43FFF900009AF
:10079000E0F83395E0F974A028F8E4398878F57921
:1007A0003395E0F57AF57B8C828D838EF0EF1226FF
:1007B000CE757800757910757A00757B00122968FE
:1007C00085827885837985F07AF57BD003D002EB3A
:1007D0003395E0FC8A828B838CF01226CE757800EC
:1007E000757920757A00757B00122968AA82AB831F
:1007F000900008E0FC3395E0C40354F8CCC403CC6B
:100800006CCC54F8CC6CFDEC2AF582ED3BF583758D
:100810007810E4F579122CBDE5828583F0900028EC
:10082000F0A3E5F0F08014900028E4F0A37480F0C9
:100830008009900028E4F0A37480F0900028E0FA8A
:10084000A3E08A82F58322ACF01226B2FAA3122624
:10085000B2FBBA0006BBF003020A8BAC2CAD2DAE86
:100860002E8C828D838EF01226B2FCA31226B2FD4E
:100870004C600A90002EECF0A3EDF0801C90001666
:10088000E0FCA3E0FD4C600A90002EECF0A3EDF03C
:10089000800790002EE4F0A3F090002EE0FCA3E08F
:1008A000FD4C7003020A80900016E0FEA3E0FFE416
:1008B000F8EFC85403A2E0C813C813A2E0C813C8D5
:1008C00013C8F9EE030354C0FFEE0303543F48F886
:1008D0007E008C788D79757A00757B008E828F838F
:1008E00088F0E9C002C003122968AC82E58324C005
:1008F000FD8C068D078E2FEFF5303395E0F531F541
:10090000328C068D078E78EFF5793395E0F57AF520
:100910007B852F828530838531F0E532C004C005A8
:100920001226CE85822F85833085F031F5329000F6
:1009300015E0FE3395E0FFF8F9757880E4F579F578
:100940007AF57B852F828530838531F0E532C006CC
:10095000C007C000C0011229688582788583798527
:10096000F07AF57BD001D000D007D0068E828F833D
:1009700088F0E91226CE85822F85833085F031F507
:1009800032D005D004900014E0FEE45401A2E0CE81
:1009900013CE13CE8E78F5793395E0F57AF57BEDAD
:1009A0003395E0FE8C828D838EF01226CEAC82AD24
:1009B00083AEF0FFEC252FFCED3530FDEE3531FE3A
:1009C000EF3532FF757800757902757A00757B0016
:1009D0008C828D838EF0EF122968AC82AD83AEF0ED
:1009E000FF90000BE0F83395E0F974A028F8E439A3
:1009F0008878F5793395E0F57AF57B74102EFEE46E
:100A00003F8C828D838EF01226CE7578007579101A
:100A1000757A00757B0012296885827885837985CF
:100A2000F07AF57BD003D002EB3395E0FC8A828B21
:100A3000838CF01226CE757800757920757A007552
:100A40007B00122968AA82AB8390000AE0FC3395F0
:100A5000E0C40354F8CCC403CC6CCC54F8CC6CFD8B
:100A6000EC2AF582ED3BF583757810E4F579122CCC
:100A7000BDE5828583F090002CF0A3E5F0F08014B2
:100A800090002CE4F0A37480F0800990002CE4F036
:100A9000A37480F090002CE0FAA3E08A82F5832210
:100AA00085823685833785F0387582421203ECAD36
:100AB00082758243C0051203ECAE82758244C00683
:100AC0001203ECAF82758245C0071203ECA8827551
:100AD0008248C0001203ECA982758249C00112034A
:100AE000ECAA82D001D000D007D006D0055305F87B
:100AF000EDC423541FFDEE3395E0C42354E0CEC46F
:100B000023CE6ECE54E0CE6EFB7C00900030ED4ED6
:100B1000F0EC4BA3F05307F8EFC423541FFFE83366
:100B200095E0C42354E0C8C423C868C854E0C8682A
:100B3000FB7C00900032EF48F0EC4BA3F05301FC3B
:100B4000E90303543FF9E45403A2E0CA13CA13A211
:100B5000E0CA13CA13CAFB7C00900034E94AF0ECE7
:100B60004BA3F0752534752600752700900030756D
:100B7000F0001205ECAA82AB838536828537838527
:100B800038F0EA122CA4A3EB122CA4AA33AB34AC99
:100B900035752C34752D00752E0090003275F000DF
:100BA000C002C003C004120847AD82AE83D004D097
:100BB00003D0028A828B838CF0ED122CA4A3EE0268
:100BC0002CA4AA82AB83ACF0FD75A72075930C759D
:100BD000C8107594008A788B798C7A8D7B90A200EE
:100BE00075F04A740412273CAA82AB83ACF0FD7501
:100BF0007818E4F579F57AF57B8A828B838CF0EDB1
:100C000012273CAA82AB83ACF0FDE4C39AFAE49BC2
:100C1000FB74019CE49D8A958B96D2C943944075E0
:100C2000A70022AA8275A72010C90280FB8A9275AC
:100C3000A70022AA82AB83ACF08A828B838CF0124D
:100C400026B2FD60188D82C002C003C004120C23BE
:100C5000D004D003D0020ABA00DF0B80DC2275A7D3
:100C60002010C80280FB53C83F85928275A70022DE
:100C700075A7207A007B0020C82675A7007582140E
:100C8000C002C00312037BD003D00275A7200ABAAA
:100C900000010BBAA8E1BB61DE75A70075820A22CC
:100CA000C2C853C83F85928275A70022AA82AB832F
:100CB000ACF07D008A068B078C00C002C003C00424
:100CC000C005C006C007C000120C70A982D000D0B9
:100CD00007D006D005D004D003D002B90A0A8A8210
:100CE0008B838CF0E4022CA4C3ED953950180D8E43
:100CF000828F8388F0E9122CA4A3AE82AF838E0288
:100D00008F03880480B48A828B838CF0E4022CA445
:100D100075A720A2C875A70022AA82AB837C007D9C
:100D200000C3EC9AED9B50477E00BE04005039C0D2
:100D300002C003C004C005C006120D10E433D00683
:100D4000D005D004D003D0026001227582FAC0021F
:100D5000C003C004C005C00612037BD006D005D076
:100D600004D003D0020E80C20CBC00B50D80B222AC
:100D7000AA82AB83ACF0C002C003C004C002C003AF
:100D8000C0047439C0E07401C0E07480C0E0122A6D
:100D900028E58124FAF581C2A09000051203A5D0B0
:100DA00004D003D0028A828B838CF0120C33753905
:100DB0001390007C75F040120CAC90000A1203A551
:100DC000D2A0747CC0E07400C0E07440C0E0744500
:100DD000C0E07401C0E07480C0E0122A28E58124DC
:100DE000FAF58122C2A090000A1203A59001547561
:100DF000F080120C3390000A1203A553C83FD2A012
:100E000022AA8274075AF5F005F07401800225E0E9
:100E1000D5F0FBFBEAC4540FFA24FC4022EA2A2A4C
:100E2000900E2473020E30020E34020E38020E3C75
:100E3000EB42A422EB42A522EB42A622EB429C22EB
:100E4000AA8274075AF5F005F07401800225E0D5F6
:100E5000F0FBF4FBEAC4540FFA24FC4022EA2A2AED
:100E6000900E6473020E70020E74020E78020E7CF5
:100E7000EB52A422EB52A522EB52A622EB529C226B
:100E800075A700C2EF75B28075BC2075B91E75E8F4
:100E90000075DF3F75B300D2EF22AA828578F00596
:100EA000F07401800225E0D5F0FBFB75A720BA00A5
:100EB00002800ABA0102800FBA021E8014EBF4FA13
:100EC00052F1EB42D48012EBF4FA52F2EB42D580AD
:100ED00008EBF4FA52F3EB42CC75A700228582BBF3
:100EE000C2EDD2EC30EDFD85BD8285BE8322C020EF
:100EF000C0E0C0F0C082C083C002C003C004C0050F
:100F0000C006C007C000C001C0D075D00075A710D2
:100F1000C2C775D2C475D3FF900066E02401F0A368
:100F2000E03400F0900066E0FAA3E0FBBAE821BBF1
:100F3000031E900066E4F0A3F01224B8AA82AB83EB
:100F4000900000EAF0A3EBF0EB3395E0A3F0A3F000
:100F5000900054E02401F0A3E03400F0900054E04D
:100F6000FAA3E0FBBA640ABB0007900054E4F0A3C4
:100F7000F0900059E0FA900054E0FBA3E0FC7D0003
:100F8000C3EB9AEC9D501390005AE0FA6006D2A190
:100F9000C2A2800AC2A1D2A28004C2A1C2A29000B1
:100FA00058E0FA7D00C3EB9AEC9D501390005BE093
:100FB000FA6006D2A4C2A3800AC2A4D2A38004C24B
:100FC000A4C2A3900056E02401F0A3E03400F09006
:100FD0000056E0FAA3E0FBBAD00EBB070B90005618
:100FE000E4F0A3F0D296D29790005DE0FA9000561C
:100FF000E0FBA3E0FC7D00EAB50306EDB50402C208
:101000009690005CE0FA7D00B50306EDB50402C2DF
:1010100097D0D0D001D000D007D006D005D004D0D2
:1010200003D002D083D082D0F0D0E0D02032900024
:101030005D7401F090005C74FAF09000C81203A592
:1010400090005D74FAF0D2959000C81203A57A0062
:101050007B00C3EA9459EB64809480501E90000595
:10106000C002C0031203A5D003D00290005CE014BC
:1010700090005CF00ABA00DA0B80D79000C8120327
:10108000A57A007B00C3EA949FEB64809480501E95
:10109000900005C002C0031203A5D003D002900047
:1010A0005DE01490005DF00ABA00DA0B80D7900082
:1010B000C81203A57A007B00C3EA9441EB648094D4
:1010C00080501E900005C002C0031203A5D003D0BB
:1010D0000290005CE01490005CF00ABA00DA0B8029
:1010E000D79001F41203A5C2959000C81203A590F1
:1010F000005D7401F090005C7401F022AA82AB8361
:10110000C374889A74938BF063F08095F0401074E8
:10111000E0957974AE857AF063F08095F050049094
:1011200000012290000022758224120E0175822394
:10113000120E01758222120E01758221120E0175A6
:101140008217120E01758216120E01758215120E8B
:1011500001758210120E01758230120E40757803EF
:10116000758201120E9A757804758201120E9A1218
:101170000E805389F0438901C28CC296C297C295F2
:1011800022AA82AB8390005A7401F090005B740134
:10119000F09000587432F09000597432F08A828BCB
:1011A000831203A590005AE4F090005BF090005881
:1011B000F0900059F022AA82AB8390005A7401F09B
:1011C00090005BE4F09000587450F0C002C00390AF
:1011D000006AE0C0E0A3E0C0E0A3E0C0E0A3E0C09C
:1011E000E090000075F0A0744212288EAC82AD83AE
:1011F000AEF0FFE58124FCF5818C828D838EF0EFCB
:10120000122EE9E582D003D002900059F08A828B39
:10121000831203A590005AE4F090005BF090005810
:10122000F0900059F02290005AE4F090005BF090AA
:101230000058743CF090006AE0C0E0A3E0C0E0A376
:10124000E0C0E0A3E0C0E090000075F070744212CE
:10125000288EAA82AB83ACF0FDE58124FCF5818A5F
:10126000828B838CF0ED122EE9E582900059F022FA
:10127000900068E0F578A3E0F57990625512294076
:10128000E5828583F09000682419F0743635F0A368
:10129000F0900068E0FAA3E08A82F58322121270CF
:1012A0007578A6E4F579122A49E5828583F02455FC
:1012B000F582E435F0F5832290003AE4F0A3F0A340
:1012C000F0A3F090003EF0A3E4F0A3F0A3F07A00C6
:1012D000BA0A0040030213A275333875340075351D
:1012E0000090003675F000C002120AA0900036E0AF
:1012F000FBA3E0FC8B828C83122D9585823A85833B
:101300003B85F03CF53D90003AE0FFA3E0F8A3E018
:10131000F9A3E0FBC03AC03BC03CC03D8F8288834C
:1013200089F0EB1229BAAB82AC83ADF0FEE58124E3
:10133000FCF58190003AEBF0A3ECF0A3EDF0A3EE06
:10134000F0900038E0FBA3E0FC8B828C83122D959B
:1013500085823A85833B85F03CF53D90003EE0FF79
:10136000A3E0F8A3E0F9A3E0FBC03AC03BC03CC057
:101370003D8F82888389F0EB1229BAAB82AC83ADB2
:10138000F0FEE58124FCF58190003EEBF0A3ECF04B
:10139000A3EDF0A3EEF09000011203A5D0020A0223
:1013A00012D090003EE0FAA3E0FBA3E0FCA3E0FD36
:1013B000E4C0E0C0E074C8C0E07441C0E08A828B41
:1013C000838CF0ED122DA2AA82AB83ACF0FDE581F7
:1013D00024FCF58190003AE0FEA3E0FFA3E0F8A32F
:1013E000E0F9C002C003C004C005E4C0E0C0E0747E
:1013F000C8C0E07441C0E08E828F8388F0E9122D6E
:10140000A285827085837185F072F573E58124FC75
:10141000F581D005D004D003D0028A828B838CF072
:10142000ED122A96AA82AB83ACF0FDC002C003C0C5
:1014300004C00590000075F034744312288EAA820F
:10144000AB83ACF0FDE58124FCF58174DBC0E07476
:101450000FC0E07449C0E07440C0E08A828B838C86
:10146000F0ED122DA2AA82AB83ACF0FDE58124FC45
:10147000F581900042EAF0A3EBF0A3ECF0A3EDF0CD
:10148000C002C003C004C005E4C0E0C0E0C0E0C0CA
:10149000E08A828B838CF0ED122835AE82E58124C0
:1014A000FCF581D005D004D003D002EE6032E4C058
:1014B000E0C0E074B4C0E07443C0E08A828B838CE7
:1014C000F0ED1229BAAA82AB83ACF0FDE58124FCD1
:1014D000F581900042EAF0A3EBF0A3ECF0A3EDF06D
:1014E000900042E0FAA3E0FBA3E0FCA3E0FDC00211
:1014F000C003C004C005E4C0E0C0E074B4C0E07440
:1015000043C0E08A828B838CF0ED122805AE82E521
:101510008124FCF581D005D004D003D002EE6032E6
:10152000E4C0E0C0E074B4C0E07443C0E08A828BE1
:10153000838CF0ED122D8AAA82AB83ACF0FDE5819D
:1015400024FCF581900042EAF0A3EBF0A3ECF0A3B9
:10155000EDF0900042E0FAA3E0FBA3E0FCA3E08AF8
:10156000828B838CF0229000487401F0E4A3F0E4B5
:10157000F53EF53FC3E53E9414E53F64809480401A
:1015800003021808900048E0FCA3E0FD4C70030241
:101590001808C004C0051212B8AE82AF83ACF0FDCB
:1015A00090006EEEF0A3EFF0A3ECF0A3EDF0C0041A
:1015B000C005120D10E433D005D004D005D004705E
:1015C000030216E9C004C005120C5EAE82D005D03D
:1015D00004BE2102800302168A75391390007C75BF
:1015E000F040120CAC90007C75F040122EC1AF821E
:1015F000AA83BF0B05BA000280030216E9747CC0FF
:10160000E07400C0E07440C0E07462C0E07401C0E7
:10161000E07480C0E0122A28E58124FAF58174463E
:10162000C0E07400C0E0E4C0E0744AC0E07400C0F0
:10163000E0E4C0E0744AC0E07400C0E0E4C0E074DC
:101640004AC0E07400C0E0E4C0E07481C0E074010E
:10165000C0E07480C0E0747CC0E07400C0E07440FE
:10166000C0E01227D7E58124EEF581900046E0FF27
:10167000A3E0FA4F600B9000487401F0E4A3F080FF
:1016800068900048E4F0A3F0805FBE405C90006E7C
:10169000E0C0E0A3E0C0E0A3E0C0E0A3E0C0E090D1
:1016A0000000E0C0E0A3E0C0E0A3E0C0E0A3E0C031
:1016B000E0C03EC03FC004C0057495C0E07401C0E6
:1016C000E07480C0E0747CC0E07400C0E07440C08E
:1016D000E0122D44E58124EEF5819000051203A56A
:1016E00090007C75F040120C33121226758209129C
:1016F0000EDDE5828583F0900004F0A3E5F0F0753F
:10170000820A120EDDAA82AB83900006EAF0A3EBF8
:10171000F0900004E0FCA3E0FD8A798B7A8C828D46
:10172000831210FCAA82AB83C002C003C002C003B4
:10173000900006E0C0E0A3E0C0E0900004E0C0E05C
:10174000A3E0C0E0900000E0C0E0A3E0C0E0A3E0C0
:10175000C0E0A3E0C0E074AAC0E07401C0E07480FF
:10176000C0E0122A28E58124F3F581D003D002904D
:101770000000E0FCA3E0FDA3E0FEA3E0FFC3EC94C7
:10178000DCED9414EE9400EF64809480403D900171
:101790002CC002C0031211819000641203A5121024
:1017A0002ED003D002053EE4B53E02053F90006412
:1017B000C002C0031203A5121226D003D00290006B
:1017C000007401F0E4A3F0A3F0A3F0BA0105BB009C
:1017D0000280030215749001F412118190006412CA
:1017E00003A512129D85827885837990025812296B
:1017F00040AA82AB8375785AE4F5798A828B83128A
:1018000028651211B602157474D5C0E07401C0E0E9
:101810007480C0E0122A28158115811581221226B4
:10182000B2F543A31226B2F544AC40AD41AE428CB2
:10183000828D838EF01226B2FCA31226B2FD900098
:101840005EE0FEA3E0FFE543C39EF582E5449FF51D
:1018500083C004C005122931858278858379900080
:1018600064122940AE82AF8390005EE0F578A3E079
:10187000F5798E828F83122CBDE5828583F0D005A9
:10188000D00490004CF0A3E5F0F0900060E0FEA3DF
:10189000E0FFECC39EF582ED9FF583C004C0051206
:1018A0002931858278858379900064122940AE823F
:1018B000AF83900060E0F546A3E0F5478546788564
:1018C00047798E828F83122CBDAE82AF83D005D034
:1018D0000490005EE0FAA3E0FBE543C39AF549E516
:1018E000449BF54AECC39546F543ED9547F5449086
:1018F0000058E4F0900059F0C374059EE464808FB2
:10190000F063F08095F0E433F54570030219F99027
:10191000004CE0FAA3E0FBC3EA9405EB64809480FA
:1019200040030219F9900058EEF08E828F83C004B4
:10193000C005C006C007122D95AA82AB83A8F0F996
:1019400090006AE0C0E0A3E0C0E0A3E0C0E0A3E054
:10195000C0E08A828B8388F0E912288EAA82AB834A
:10196000A8F0F9E58124FCF5818A828B8388F0E96F
:10197000122EE9858248D007D006D005D004900009
:1019800059E548F0C3E49543E464808544F063F08E
:101990008095F0500B90005AE4F090005BF0805975
:1019A00090005A7401F090005B7401F0854882C089
:1019B00004C005C006C00712295DA882A983AAF049
:1019C000FBC000C001C002C00390666675F086745B
:1019D0003F12288EAA82AB83A8F0F9E58124FCF59A
:1019E000818A828B8388F0E9122EE9E582D007D0C4
:1019F00006D005D004900059F090004CE0F54FA3BC
:101A0000E0F550C37405954FE464808550F063F0B1
:101A10008095F0E433F5487003021AC2C3EE9405D2
:101A2000EF648094804003021AC2C004C005900095
:101A300058E54FF0854F82855083C006C007122DB0
:101A400095AC82AD83AAF0FB90006AE0C0E0A3E011
:101A5000C0E0A3E0C0E0A3E0C0E08C828D838AF008
:101A6000EB12288EAA82AB83ACF0FDE58124FCF555
:101A700081D007D0068A828B838CF0EDC004C0052C
:101A8000C006C007122EE9E582D007D006D005D0E7
:101A900004900059F0C3E49549E46480854AF063FA
:101AA000F08095F0D005D004500D90005A7401F0EC
:101AB00090005BE4F0800B90005AE4F090005B74BF
:101AC00001F0E548700122E545700122C3E4954329
:101AD000E464808544F063F08095F04003021EFFCB
:101AE00090005AE4F090005BF0C3E49549E4648010
:101AF000854AF063F08095F04003021D458C788D97
:101B000079900064C004C005C006C007122940AA2D
:101B100082AB83D007D006D005D0048546788547B0
:101B200079900064C002C003C004C005C006C007AD
:101B3000122940A882A983757802E4F57988828900
:101B400083122CBDA882A983D007D006D005D0046B
:101B5000D003D002C3E89AE964808BF063F08095EB
:101B6000F05003021C54C004C005900058EEF090E1
:101B7000006AE0F54BA3E0F54CA3E0F54DA3E0F5DA
:101B80004E8E828F83C006C007122D95AA82AB832A
:101B9000ACF0FDC002C003C004C005854B82854C7B
:101BA00083854DF0E54E12288EAA82AB83ACF0FD02
:101BB000E58124FCF581D007D006C004C005C0062D
:101BC000C007C002C003C004C00590000075F0C883
:101BD000744212288E85824B85834C85F04DF54EDC
:101BE000E58124FCF581D007D006D005D004EE2590
:101BF0004FF582EF3550F583C006C007122D95AA28
:101C000082AB83ACF0FDC002C003C004C005854BAD
:101C100082854C83854DF0E54E122DA2AA82AB83BE
:101C2000ACF0FDE58124FCF581D007D0068A828BDB
:101C3000838CF0EDC004C005C006C007122EE9E594
:101C400082D007D006D005D004900059F0D005D03E
:101C500004021EFFC004C005900058E54FF090003C
:101C60006AE0F54BA3E0F54CA3E0F54DA3E0F54E9B
:101C7000854F82855083C006C007122D95AA82AB7E
:101C800083ACF0FDC002C003C004C005854B828553
:101C90004C83854DF0E54E12288EAA82AB83ACF0C2
:101CA000FDE58124FCF581D007D006C004C005C045
:101CB00006C007C002C003C004C00590000075F054
:101CC000C8744212288E85824B85834C85F04DF571
:101CD0004EE58124FCF581D007D006D005D004EE76
:101CE000254FF582EF3550F583C006C007122D95BC
:101CF000AA82AB83ACF0FDC002C003C004C005855E
:101D00004B82854C83854DF0E54E122DA2AA82AB05
:101D100083ACF0FDE58124FCF581D007D0068A82F2
:101D20008B838CF0EDC004C005C006C007122EE9FD
:101D3000E582D007D006D005D004900059F0D00538
:101D4000D004021EFF8C788D79900064C004C00519
:101D5000C006C007122940AA82AB83D007D006D0A4
:101D600005D004854678854779900064C002C00399
:101D7000C004C005C006C007122940A882A9837507
:101D80007802E4F57988828983122CBDA882A98320
:101D9000D007D006D005D004D003D002C3E89AE91A
:101DA00064808BF063F08095F05003021E56C004EF
:101DB000C0058E788F79900064C004C005C006C04D
:101DC00007122940AA82AB83D007D006EE254FF533
:101DD00078EF3550F5798A828B83C006C007122CC4
:101DE000BDAA82D007D006D005D004900058EAF0F2
:101DF0008E828F83C006C007122D95AA82AB83AC5A
:101E0000F0FD90006AE0C0E0A3E0C0E0A3E0C0E025
:101E1000A3E0C0E08A828B838CF0ED12288EAA8228
:101E2000AB83ACF0FDE58124FCF581D007D0068AB8
:101E3000828B838CF0EDC004C005C006C007122E53
:101E4000E9E582D007D006D005D004900059F0D043
:101E500005D004021EFFC004C005854F7885507967
:101E6000900064C004C005C006C007122940AA82C1
:101E7000AB83D007D006EE254FF578EF3550F579D6
:101E80008A828B83C006C007122CBDAA82D007D0DD
:101E900006D005D004900058EAF0854F8285508323
:101EA000C006C007122D95AA82AB83ACF0FD90004E
:101EB0006AE0C0E0A3E0C0E0A3E0C0E0A3E0C0E0CF
:101EC0008A828B838CF0ED12288EAA82AB83ACF0D1
:101ED000FDE58124FCF581D007D0068A828B838CB6
:101EE000F0EDC004C005C006C007122EE9E582D09F
:101EF00007D006D005D004900059F0D005D004E5F5
:101F00004420E7012290005A7401F090005B7401B4
:101F1000F0C3E49549E46480854AF063F08095F06D
:101F200040030220F98C788D79900064C006C007C8
:101F3000122940AA82AB83D007D006854678854710
:101F400079900064C002C003C006C007122940A8EF
:101F500082A983757802E4F57988828983122CBD81
:101F6000A882A983D007D006D003D002C3E89AE99B
:101F700064808BF063F08095F0500302203A90006B
:101F800058EEF090006AE0F54BA3E0F54CA3E0F5C5
:101F90004DA3E0F54E8E828F83C006C007122D95AB
:101FA000AA82AB83A8F0F9C002C003C000C00185BB
:101FB0004B82854C83854DF0E54E12288EAA82AB6C
:101FC00083A8F0F9E58124FCF581C002C003C000BC
:101FD000C00190000075F0C8744212288E85824BB3
:101FE00085834C85F04DF54EE58124FCF581D007C5
:101FF000D006EE254FF582EF3550F583122D95AAC8
:1020000082AB83A8F0F9C002C003C000C001854BB9
:1020100082854C83854DF0E54E122DA2AA82AB83BA
:10202000A8F0F9E58124FCF5818A828B8388F0E9A8
:10203000122EE9E582900059F022900058E54FF009
:1020400090006AE0F54BA3E0F54CA3E0F54DA3E06A
:10205000F54E854F82855083C006C007122D95AA84
:1020600082AB83A8F0F9C002C003C000C001854B59
:1020700082854C83854DF0E54E12288EAA82AB8373
:10208000A8F0F9E58124FCF581C002C003C000C0BE
:102090000190000075F0C8744212288E85824B852D
:1020A000834C85F04DF54EE58124FCF581D007D0B9
:1020B00006EE254FF582EF3550F583122D95AA8255
:1020C000AB83A8F0F9C002C003C000C001854B82F9
:1020D000854C83854DF0E54E122DA2AA82AB83A8D4
:1020E000F0F9E58124FCF5818A828B8388F0E9127E
:1020F0002EE9E582900059F0228C788D7990006469
:10210000C006C007122940AA82AB83D007D006853B
:102110004678854779900064C002C003C006C007B6
:10212000122940AC82AD83757802E4F5798C828DFA
:1021300083122CBDAC82AD83D007D006D003D00271
:10214000C3EC9AED64808BF063F08095F05003024D
:1021500021DC8E788F79900064C006C00712294078
:10216000AA82AB83D007D006EE254FF578EF355025
:10217000F5798A828B83C006C007122CBDAA82D053
:1021800007D006900058EAF090006AE0F54BA3E013
:10219000F54CA3E0F54DA3E0F54E8E828F83122D12
:1021A00095A882A983AAF0FBC000C001C002C003A9
:1021B000854B82854C83854DF0E54E12288EAA8290
:1021C000AB83ACF0FDE58124FCF5818A828B838CA6
:1021D000F0ED122EE9E582900059F022854F7885C6
:1021E0005079900064C006C007122940AA82AB83D0
:1021F000D007D006EE254FF578EF3550F5798A8275
:102200008B83122CBDAA82900058EAF090006AE0FD
:10221000FAA3E0FBA3E0FCA3E0FD854F8285508399
:10222000C002C003C004C005122D95AE82AF83A8C2
:10223000F0F9D005D004D003D002C006C007C0001A
:10224000C0018A828B838CF0ED12288EAA82AB8328
:10225000ACF0FDE58124FCF5818A828B838CF0ED66
:10226000122EE9E582900059F02290004EE4F0A38E
:10227000F0900050E4F0A3F0900052E4F0A3F07569
:1022800051301211271205329001F41203A574EB9C
:10229000C0E07401C0E07480C0E0122A28158115E6
:1022A000811581902580E4F5F0120BC2120DE490A7
:1022B000020B75F080120D7090021475F080120DF3
:1022C0007090021E75F080120D7090022875F080DB
:1022D000120D7090023275F080120D7090023E75F2
:1022E000F080120D7090024875F080120D7090020F
:1022F0005275F080120D70C2A1C2A2C2A4C2A37412
:1023000031B5510C12102E9003E81203A57551300F
:10231000900052E0FAA3E0FB4A600A1215669000B2
:1023200052E4F0A3F01212B8AA82AB83ACF0FD9095
:10233000006EEAF0A3EBF0A3ECF0A3EDF0120D10A9
:1023400050BD120C5EAA82BA210280030224597584
:10235000391390007C75F040120CAC90007C75F045
:1023600040122EC1AB82AC83BB0B05BC00028003C4
:10237000022435747CC0E07400C0E07440C0E07496
:1023800060C0E07402C0E07480C0E0122A28E581D9
:1023900024FAF5817452C0E07400C0E0E4C0E07437
:1023A00051C0E07400C0E07440C0E07450C0E074FC
:1023B00000C0E0E4C0E0744EC0E07400C0E0E4C0DF
:1023C000E07472C0E07402C0E07480C0E0747CC04D
:1023D000E07400C0E07440C0E01227D7E58124EE2D
:1023E000F581E551FB3395E0FC900052E0C0E0A39D
:1023F000E0C0E0C003C004900050E0C0E0A3E0C033
:10240000E090004EE0C0E0A3E0C0E07484C0E0745F
:1024100002C0E07480C0E0122A28E58124F5F5812D
:1024200075405075410075420090004E75F00012E5
:10243000181E0222FF747CC0E07400C0E07440C02B
:10244000E074C1C0E07402C0E07480C0E0122A28C9
:10245000E58124FAF5810222FFBA400280030222BC
:10246000FF90006EE0C0E0A3E0C0E0A3E0C0E0A306
:10247000E0C0E0900000E0C0E0A3E0C0E0A3E0C066
:10248000E0A3E0C0E074DBC0E07402C0E07480C090
:10249000E0747CC0E07400C0E07440C0E0122D44E1
:1024A000E58124F2F5819000051203A590007C756A
:1024B000F040120C330222FFE4F510F511F512F58D
:1024C00013F514F515F516C3E5159405E5166480A6
:1024D00094804003022663758A00758C00C28D20AB
:1024E000B0FD30B0FDD28CA91430B008108D028040
:1024F000F80980F520B008108D0280F80980F5C237
:102500008C898212295DA982AA83ABF0FCC001C02C
:1025100002C003C00490000075F080744712288E3A
:1025200085821785831885F019F51AE58124FCF555
:1025300081858C8212295DA982AF83A8F0FAC0013F
:10254000C007C000C00290000075F08074431228DC
:102550008EAA82AB83ACF0FDE58124FCF581C0023C
:10256000C003C004C0058517828518838519F0E56E
:102570001A1229BA85821785831885F019F51AE58C
:102580008124FCF581AF8A78008F828883122D9593
:10259000AF82A883A9F0FAC007C000C001C00285BD
:1025A00017828518838519F0E51A1229BAAA82AB19
:1025B00083ACF0FDE58124FCF581C002C003C004BA
:1025C000C00590F4FC75F032743412288EAA82ABE8
:1025D00083ACF0FDE58124FCF581751400C002C0D8
:1025E00003C004C00590000075F020744112288ECD
:1025F000AA82AB83ACF0FDE58124FCF581C002C06A
:1026000003C004C00590000075F080743F122DA235
:10261000AA82AB83ACF0FDE58124FCF581851082B4
:102620008511838512F0E513C002C003C004C00504
:10263000122F4C1229BAAA82AB83ACF0FDE581249B
:10264000FCF5818A828B838CF0ED122EF18582104D
:1026500085831185F012F5130515E4B515020516ED
:102660000224C78510828511838512F0E513122F8D
:102670004CAA82AB83ACF0FDE4C0E0C0E074A0C023
:10268000E07440C0E08A828B838CF0ED122DA2AA08
:1026900082AB83ACF0FDE58124FCF5818A828B83DB
:1026A0008CF0ED122EF185821085831185F012F5E4
:1026B000132220F71430F6148883A88220F507E649
:1026C000A88375830022E280F7E49322E022AAF037
:1026D000FBE5828578F0A4FCADF0E5838578F0A475
:1026E0002DFDE435F0FEE5828579F0A42DFDE5F0C1
:1026F0003EFEE433FFEA8578F0A42EFEE5F03FFFCE
:10270000E5838579F0A42EFEE5F03FFFE582857A2A
:10271000F0A42EFEE5F03FFFEB8578F0A42FFFEA52
:102720008579F0A42FFFE583857AF0A42FFFE58259
:10273000857BF0A42F8EF08D838C8222FB7A20E49F
:10274000FCFDFEFFE5822582F582E58333F583E516
:10275000F033F5F0EB33FB4017DAE98042E58225F0
:1027600082F582E58333F583E5F033F5F0EB33FB57
:10277000EC33FCED33FDEE33FEEF33FFEC9578EDFB
:102780009579EE957AEF957B4013EC9578FCED9575
:1027900079FDEE957AFEEF957BFF438201DABEEB81
:1027A00022AA08AB09AC0A8A828B838CF01226B26B
:1027B000FA0508E4B5080205098A8222858208859F
:1027C000830985F00A850B69850C6A850D6B850E7A
:1027D0006C9027A1023189C00F85810FE50F24F885
:1027E000F56CE50F24FBF8860808860908860AE5DB
:1027F0000F24F8F8866908866A08866B9027A1126C
:102800003189D00F22FFA88118181235B9D2D133DF
:10281000E6400730E70B7582012220E7067582004B
:1028200022C2D112359BE97003F5822230D101B367
:10283000E433F58222FFA88118181235B9D2D133BA
:10284000E6400730E70B7582002220E7067582011B
:1028500022C2D112359BE97003F5822220D101B347
:10286000E433F582227A10E4FBFCE58225E0F58270
:10287000E58333F583EB33FBEC33FCEB9578F5F034
:10288000EC95794006FCABF0438201DADD2212368A
:1028900066BC0003023605EF60FA30D502B2D1E51E
:1028A00083B4FF0302361BE582B4FF0302361B2507
:1028B0008340072482400B02360524831450030210
:1028C000361BF582EA8DF0A4A8F0EA8EF0A428F871
:1028D000E435F0F9EB8DF0A428E935F0F9E433CADA
:1028E0008FF0A429F9EA35F0FAEBF88EF0A429F973
:1028F000EA35F0FAE433FBEC8DF0A429F9EA35F07F
:10290000FAE43BFBE88FF0A42AFAEB35F0FBE43362
:10291000CCFD8EF0A42AFAEB35F0FBE43CFCED8F05
:10292000F0A42BFBEC35F0FC20E703123633023524
:10293000E4E58330E709F4F583E582F4F582A32228
:10294000E5828578F0A4C582C0F08579F0A4D0F046
:1029500025F0C5838578F0A42583F58322E4AC8235
:10296000FBFAF9748602369DFBC2D530E715D2D545
:10297000E4C39582F582E49583F583E495F0F5F060
:10298000E49BFBE57B30E717B2D5E4C39578F57897
:10299000E49579F579E4957AF57AE4957BF57BEB26
:1029A00012273C30D513FBE4C39582F582E495836E
:1029B000F583E495F0F5F0E49B221236667900E5A4
:1029C00083B58202800D50031236A7E583C395823A
:1029D0001236C1E5D0C465D020E117EA2DFAEB3EEE
:1029E000FBEC3FFC500974011236C1EC4480FC0240
:1029F00035E4C3EA9DFAEB9EFBEC9FFC500FC3E469
:102A000099F9E49AFAE49BFBE49CFCB2D1123633C8
:102A10000235E402409085826785836885F0698588
:102A20001D6A902A13023AE3C00F85810FE50F2437
:102A3000FBF56AE50F24FBF8866708866808866957
:102A4000902A13123AE3D00F22E578457960467A4E
:102A500001E57825E0F578E579334012F579E582EE
:102A60009578E583957940030A80E6C3E57913F507
:102A700079E57813F578C3E5829578F5F0E58395E7
:102A8000794005F58385F082C3E57913F579E5781A
:102A900013F578DAE12285827485837585F076F501
:102AA00077E574457545768577F0C2F745F0701C7B
:102AB000E570457145728573F0C2F745F0700D758C
:102AC0001B21E4F51C900000E4F5F022857082855E
:102AD00071838572F0E5731240A5AE82AF83A8F0D2
:102AE000F98574828575838576F0E577C006C00721
:102AF000C000C0011240A5AA82AB83ACF0FDD0019A
:102B0000D000D007D006C002C003C004C0058E822A
:102B10008F8388F0E9122835AA82E58124FCF581AB
:102B2000EA6003022BFBC070C071C072C073857471
:102B3000828575838576F0E577122DA2AA82AB8314
:102B4000ACF0FDE58124FCF5818A828B838CF0ED6D
:102B50001240A8AA82AB83ACF0FDC002C003C0043F
:102B6000C005E4C0E0C0E0C0E0C0E08570828571CF
:102B7000838572F0E573122835AE82E58124FCF579
:102B800081D005D004D003D002EE7003022C9CC08B
:102B900002C003C004C005E4C0E0C0E0C0E0C0E083
:102BA0008574828575838576F0E577122835AE8247
:102BB000E58124FCF581D005D004D003D002EEB429
:102BC0000100E433FE600A7EDB7F0F7849794080A4
:102BD000087EDB7F0F784979C0C006C007C000C0FF
:102BE000018A828B838CF0ED1229BAAA82AB83AC66
:102BF000F0FDE58124FCF581022C9CC074C075C0F9
:102C000076C0778570828571838572F0E573122DA9
:102C1000A2AE82AF83A8F0F9E58124FCF5818E8213
:102C20008F8388F0E91240A8AE82AF83A8F0F98EB6
:102C3000028F038804E9B2E7FDC002C003C004C0EC
:102C400005E4C0E0C0E0C0E0C0E085748285758323
:102C50008576F0E577122835AE82E58124FCF58192
:102C6000D005D004D003D002EE600A7EDB7F0F785F
:102C7000C979BF80087EDB7F0F78C9793FC006C065
:102C800007C000C0018A828B838CF0ED1229BAAA9A
:102C900082AB83ACF0FDE58124FCF5818A828B83D5
:102CA0008CF0ED2220F71030F6118883A88220F5F1
:102CB00007F6A88375830022F280F7F022C2D5E5DB
:102CC0008330E70DD2D5E4C39582F582E49583F590
:102CD00083E57930E70DB2D5E4C39578F578E495CE
:102CE00079F57912286530D50BE4C39582F582E435
:102CF0009583F58322AA82AB52AC53AD548B828C60
:102D0000838DF0EA122CA40552E4B5520205532239
:102D100085825285835385F054855567855668852D
:102D2000576985586A902CF5123AE3AA82AB83ACB6
:102D300052AD53AE548C828D838EF0E4122CA48A53
:102D4000828B8322C00F85810FE50F24F8F56AE599
:102D50000F24FBF88652088653088654E50F24F8A2
:102D6000F88667088668088669902CF5123AE3AA07
:102D700082AB83AC52AD53AE548C828D838EF0E423
:102D8000122CA48A828B83D00F22A8811818C6B275
:102D9000E7C60229BAAC83AB827A007900748E024E
:102DA0002F5512366630D502B2D1BF0009BC0003E0
:102DB00002362802361BBC0003023605E583B4FF49
:102DC0000BE582B4FF03023628023605E582B4FF24
:102DD0000302361BC395835007247F400B02360540
:102DE000248014500302361BC0E0E4CCCBCAF98D1A
:102DF000788E798F7AEF54F0C4F57B758306857BE6
:102E0000F0EB84F582E9C4F9EAC4FAEBC4FBEC54B4
:102E10000FC47803D6FC18EBD6FB18EAD6FA8582E5
:102E2000F0EDA4A8F0FD8582F0EEA428FEE435F0D4
:102E3000F88582F0EFA428FFE435F0F8E99DF9EA7F
:102E40009EFAEB9FFBEC98FCAD78AE79AF7A30E759
:102E5000101582E92DF9EA3EFAEB3FFBE43CFC80D9
:102E6000EDC082D58398C3E933F9EA33FAEB33FB3B
:102E7000EC33FCC3E99DEA9EEB9FEC9400B3E413B2
:102E8000F9D002D0E0C44AFAD003D0E0C44BFBD062
:102E900004D0E0F5F0540FC44CFCD082158230F41D
:102EA0000FD3EC13FCEB13FBEA13FAE913F90582D9
:102EB000E930E70A74012AFAE43BFBE43CFC023502
:102EC000FCAA82AB83ACF07D007E008A828B838C6F
:102ED000F01226B2FFA3AA82AB83EF60070DBD00FC
:102EE000EA0E80E78D828E83227F8612442EF58241
:102EF00022124453C3749E9582403979001236C120
:102F000030D126E9F42401F582EAF43400F583EBAC
:102F1000F43400F5F0ECF43400700AE582458345A2
:102F2000F0700122E430E70F22EC20E71489828A56
:102F3000838BF02230D10AE4F582F583F5F07480BA
:102F40002274FFF582F583F5F0747F22FCABF0AAC2
:102F500083A982749EF582C2D1EC30E716D2D1E902
:102F6000F42401F9EAF43400FAEBF43400FBECF455
:102F70003400FC1236330235E4855982855A8312B7
:102F80004689858268E568600A0562E4B5620605DF
:102F9000638002D20B856882227A007B00300B05A9
:102FA0007890760022C002C003122F79AC82D00341
:102FB000D002BC0002802DBC08028014BC09028033
:102FC00023BC0A02801EBC0D028019BC2021801483
:102FD000EA4B60D11ABAFF011B156274FFB5620299
:102FE000156380C1EA4B60BDEA2490F8760022ECBC
:102FF0007009EA2490F87600D20B22ECB56707EA54
:103000002490F8760022C3EA940FEB940050968A3D
:10301000058B060ABA00010BED2490F8A604022FD6
:10302000A5AA827B7FC3EA648094B0401174B98AF8
:10303000F063F08095F04006EA24D0FB8030C3EACC
:10304000648094C1401174C68AF063F08095F040AA
:103050000674C92AFB8017C3EA648094E1400F74A8
:10306000E68AF063F08095F0400474A92AFBC3EB74
:10307000956450038B822275827F22AA82755E003E
:10308000755F007560007561008A00E6FA60148A59
:1030900082C000123021AB82D000C3EB95644003A4
:1030A0000880E886038B82C000123021AA82D000FB
:1030B000C3E5649A4050856478757900757A007527
:1030C0007B00855E82855F838560F0E561C002C01C
:1030D000001226CEAB82AC83ADF0FED000D0028BC6
:1030E0005E8C5F8D608E61E4FBFCFDEA255EFAEB91
:1030F000355FFBEC3560FCED3561FD8A5E8B5F8CE6
:10310000608D6108809D855E82855F838560F0E5C6
:103110006122AA82755E00755F00756000756100AE
:103120008A00E6FB60228B82C003C000123021AC13
:1031300082D000D003C3EC9564400DBB2D02800803
:10314000BB2B0280030880DA88028603BB2D03D3E1
:103150008001C3920EBB2D028003BB2B010A8A8221
:1031600012307B300E13C3E4955EFAE4955FFBE406
:103170009560FCE49561FD8008AA5EAB5FAC60AD34
:10318000618A828B838CF0ED2285825985835AE493
:10319000F562F563F566C20BAA69AB6AAC6B8A820D
:1031A0008B838CF01226B2FD74012AF569E43BF59D
:1031B0006A8C6BEDFA7003023592BA250280030225
:1031C000352BD20AC208756400756500C20CC20DA9
:1031D000AB69AC6AAD6B8B828C838DF01226B2FA30
:1031E000A3AB82AC838B698C6A8D6B8B828C838D55
:1031F000F01226B2F5678A06BE300040168A06EE47
:1032000024C6400FE56575F00AA4FEEA24D02EF529
:103210006580C38A06BE6100400A8A06EE248540A6
:10322000035302DFBA250280ADBA2A028057BA42A0
:10323000028048BA43028052BA440302334EBA4570
:1032400003023364BA4603023364BA4703023364A9
:10325000BA490302334EBA4C028025BA4E030233F8
:10326000B9BA4F03023354BA53028020BA5503024D
:10327000334CBA580302335C0233E1D2080231D630
:10328000D2090231D6D20C0231D6D20D200C17E56C
:103290006C24FDF8886C86030886040886051818D7
:1032A0008B5B8C5C8D5DE565700B300D047B018064
:1032B000027BFF8B65756400C3E56495655005125C
:1032C0002F79AA82300B07E56470030233E1EA60CC
:1032D0001ABA2002800DBA09028008BA0D028003D2
:1032E000BA0A03300D05E565B5641FE56460C920C1
:1032F0000C120566AB5BAC5CAD5D8B828C838DF094
:10330000E4122CA47564000233E1BA081CE5646081
:10331000A7200C11AB5BAC5CAD5D1BBBFF011C8B34
:103320005B8C5C8D5D1564808F200C1BAB5BAC5C93
:10333000AD5D8B828C838DF0EA122CA40BBB000157
:103340000C8B5B8C5C8D5D05640232B8C20A7564BF
:103350000A0233E1C20A7564080233E1C20A7564E5
:10336000100233E1122F997890E66075200C72E517
:103370006C24FDF8886C866D08866E08866F1818B8
:10338000856D5B856E5C856F5D90009075F0401279
:103390004465AE82AF83ABF0FC856D82856E83851C
:1033A0006FF0EE122CA4A3EF122CA4A3EB122CA40A
:1033B000A3EC122CA405668028E56C24FDF8886C2B
:1033C000860308860408860518188B5B8C5C8D5D67
:1033D0008B828C838DF0E562122CA4A3E563122C02
:1033E000A4E564700302352B122F997890E67003E0
:1033F00002352B300C0302352BE56C24FDF8886C6C
:10340000860308860408860518188B5B8C5C8D5D26
:103410000566200A030234A4300935855B6D855C9E
:103420006E855D6F758290123112AE82AF83ABF004
:10343000FC856D82856E83856FF0EE122CA4A3EF60
:10344000122CA4A3EB122CA4A3EC122CA402352B57
:10345000300826855B6D855C6E855D6F7582901288
:103460003112AE82AF83ABF0FC856D82856E8385B1
:103470006FF0EE122CA402352B855B6D855C6E859A
:103480005D6F758290123112AE82AF83ABF0FC8516
:103490006D82856E83856FF0EE122CA4A3EF122C43
:1034A000A402352B300934855B6D855C6E855D6FBC
:1034B00075829012307BAE82AF83ABF0FC856D825B
:1034C000856E83856FF0EE122CA4A3EF122CA4A3BB
:1034D000EB122CA4A3EC122CA48050300825855BA1
:1034E0006D855C6E855D6F75829012307BAE82AFAC
:1034F00083ABF0FC856D82856E83856FF0EE122CB8
:10350000A48028855B6D855C6E855D6F75829012E9
:10351000307BAE82AF83ABF0FC856D82856E838598
:103520006FF0EE122CA4A3EF122CA4200B03023197
:1035300098AB69AC6AAD6B8B828C838DF01226B22E
:10354000FEA3AB82AC838B698C6A8D6BEEFA700341
:10355000023198BA25E18B828C838DF01226B2FA63
:10356000BA6E028003BA4ECFE56C24FDF8886C86F3
:103570000208860608860718188A5B8E5C8F5D8AAB
:10358000828E838FF0E562122CA4A3E563122CA433
:1035900080A5AA667B008A828B83227901AA82E6B3
:1035A0008F82B5821318E6B5F00E18E6B5830918B8
:1035B000E68A82B58202790022B4800FE5F0700AB3
:1035C000E5837006E58270027F00EFB6801518B6BD
:1035D000001018B6000B18B600060808087600227E
:1035E00008080822B98003EA13B34010EA2401FA5C
:1035F000E43BFBE43CFC50047C800582BC000EBB39
:10360000000BBA0008E4F5F0F583F58222A2D1E5BB
:1036100082138CF092F78B838A8222E4F583F58201
:1036200075F080F4A2D11322E4F583F58275F0C021
:10363000747F227804EC7011E58224F8500AF58238
:10364000E4C9CACBFCD8EF22EC7820058220E7132E
:10365000D5820122C3E933F9EA33FAEB33FBEC33C9
:10366000FCD8EA158222AA82AB83A2F73392D160FA
:1036700002D2F7F582ACF0E58124F9F8E6FD08E620
:10368000FE0886F008E6A2F73392D56002D2F7F57D
:1036900083AFF022FCABF0AA83A982749EC2D1F55D
:1036A000821236330235E4E582C583F582A2D13336
:1036B000A2D592D11392D5ECCFFCEBCEFBEACDFA9A
:1036C000226040F82582500274FFF582E824F85009
:1036D0001ECCCBCAF9E4CC24F85014CBCAF9E4CB05
:1036E00024F8500BCAF9E4CA24F8500379002224C4
:1036F000086010F8C3EC13FCEB13FBEA13FAE913B0
:10370000F9D8F122AA827415C0E07437C0E0C0591C
:10371000C05A8A82220560E4B56002056122AA824D
:1037200074302AFA24C6500A74072AFA300F034369
:1037300002208A82023704E582FAC4540FF582C05F
:103740000212371ED002740F5AF58202371EAA5B8E
:10375000AB5CAC5DAD5EAE5F756620EE2EFEED231C
:103760005401FF4206EA2AFAEB33FBEC33FCED335B
:10377000FDC3EE95624008EEC39562FE430201D59B
:1037800066D98A5B8B5C8C5D8D5E8E5F22789CE651
:1037900024D075F00AA4FA789DE624D02AFA789B02
:1037A0008603BB2D04C3E49AFA756201C3E4648006
:1037B0008AF063F08095F050297566038A0374F6E9
:1037C0002566401C0562E566142490F8E5662490A1
:1037D000F98704A604772E1BEBFA6004056680DEE9
:1037E0008B02EA30E70D789186037892A6037891F0
:1037F000762E0AE564600AE56404FB2562F56280C2
:1038000005301A02056278908603E4BB2D0104FBA3
:10381000700620150330160205623013030238D4F7
:10382000301457EB600C75822DC002123704D002A1
:10383000801C30150C75822BC002123704D0028018
:103840000D30160A758220C002123704D00278911A
:103850008604BC2E0C758230C002123704D00215CB
:1038600063AC631563C3E5629C400302391875823B
:1038700030C002123704D00280E7AC631563C3E5A1
:10388000629C500C758220C002123704D00280EA7C
:1038900078908604BC2D0C75822DC002123704D09E
:1038A00002801C30150C75822BC002123704D00226
:1038B000800D30160A758220C002123704D00278BB
:1038C000918604BC2E52758230C002123704D00299
:1038D00015638044EB600E75822DC002123704D050
:1038E000021563802030150E75822BC0021237043A
:1038F000D0021563800F30160C758220C00212377B
:1039000004D002156378918603BB2E0C758230C0FB
:1039100002123704D0021563756601C21CE56624E5
:1039200090F88603BB45030239D5BB2E348A03C306
:10393000E464808BF063F08095F0500F758230C0A6
:1039400003123704D0031B8B0280E48B02D21CE5E8
:10395000647038201A030239D575822E123704801C
:1039600074301C278A03EB30E71FC3E4648085644E
:10397000F063F08095F0500C758230C0031237046C
:10398000D00315640B8B0280DD8B02301C0EC3E468
:1039900064808564F063F08095F05021E5662490A2
:1039A000F886038B82C002123704D002301C0EE569
:1039B000662490F88603BB2E02800215641563C34B
:1039C000E464808564F063F08095F04003201C057A
:1039D000056602391DC3E464808564F063F0809558
:1039E000F0500A758230123704156480E830130FE6
:1039F000AA631563EA600875822012370480F122F9
:103A0000E5647003301A0D74072564FAE563C39A00
:103A1000F5638006E56324FAF563756600789086A1
:103A200002BA2B0F20150C789076202016057566AB
:103A3000010563201319AA63C3E464808AF063F06C
:103A40008095F0500A758220123704156380E7C212
:103A50001CE5662490F88602BA00028069BA451F08
:103A6000300F027665C3E464808564F063F080956E
:103A7000F0500A758230123704156480E8D21CC3F6
:103A8000E5669402E433FA7014EA700EC3E46480CD
:103A90008564F063F08095F04003301C16E56624E1
:103AA00090F886028A82123704E56624FD501215CA
:103AB00064800E7402B56609301A0675822E1237BC
:103AC000040566023A51301319AA63C3E464808A7C
:103AD000F063F08095F0500A758220123704156368
:103AE00080E72285825985835AE4F560F561AA67EB
:103AF000AB68AC698A828B838CF01226B2FD7401AC
:103B00002AF567E43BF5688C69EDFA700302408999
:103B1000BA25028003024081C213C214C215C21624
:103B2000C217C218C219C21AC210C211C2127562DB
:103B3000007563007564FFAB67AC68AD698B828C00
:103B4000838DF01226B2FAA3AB82AC838B678C68AC
:103B50008D69BA25078A8212370480928A06BE30A0
:103B600000402E8A06EE24C6402774FFB56413E594
:103B70006375F00AA4FEEA24D02EF56370BFD21458
:103B800080BBE56475F00AA4FEEA24D02EF56480BB
:103B9000ACBA2E0A74FFB564A4756400809F8A06CF
:103BA000BE6100400E8A06EE248540075302DFD234
:103BB0000F8002C20FBA20028075BA2303023C3E76
:103BC000BA2A03023C43BA2B02805FBA2D02805509
:103BD000BA4202805FBA4303023C88BA4403023D02
:103BE000C3BA4503023DDDBA4603023DD9BA4703D5
:103BF000023DE1BA4903023DC3BA4C02803BBA4ED2
:103C000003023DE5BA4F03023DCABA5003023D5CD0
:103C1000BA5303023CACBA5503023DCFBA58030273
:103C20003DD4023E0FD213023B3DD215023B3DD2A2
:103C300016023B3DD218023B3DD219023B3DD21A3F
:103C4000023B3D74FFB5642030180BE56A14F88818
:103C50006A8663023B3DE56A24FEF8886A860608A8
:103C60008607188E63023B3D30180BE56A14F8880E
:103C70006A8664023B3DE56A24FEF8886A86060887
:103C80008607188E64023B3D30180AE56A14F888EE
:103C90006A8602800FE56A24FEF8886A8603088631
:103CA00004188B028A82123704023E14E56A24FD4E
:103CB000F8886A860308860408860518188B5B8CCA
:103CC0005C8D5D8B828C838DF0122EC1AB82AC83B8
:103CD0008B6574FFB5640385656420131DC3E565BA
:103CE00095635016E563C39565F563AB631563EBA8
:103CF000600875822012370480F1855B82855C83C1
:103D0000855DF01226B2FBFA6029AB641564C3E44A
:103D100064808BF063F08095F050188A821237042B
:103D2000AB5BAC5CAD5D0BBB00010C8B5B8C5C8D4D
:103D30005D80C7201303023E14C3E565956340030D
:103D4000023E14E563C39565F563AB631563EB70E1
:103D500003023E1475822012370480EEE56A24FDCA
:103D6000F8886A860308860408860518188B5B8C19
:103D70005C8D5DE55DFB30E7047A438013EB5460B6
:103D800060047A50800AEB30E6047A4980027A585F
:103D90008A82C00212370475823A12370475823063
:103DA000123704758278123704D002BA4902800BA8
:103DB000BA50028006855C82123737855B821237E3
:103DC000378051D21775620A804A7562088045753E
:103DD000620A8040756210803BD2108037D2118019
:103DE00033D212802FE56A24FDF8886A860308869C
:103DF0000408860518188B5B8C5C8D5D8B828C8328
:103E00008DF0E560122CA4A3E561122CA480058A34
:103E100082123704201006201103301270E56A2444
:103E2000FCF8886A86030886040886050886061852
:103E300018188B5B8C5C8D5D8E5EE55BE55CE55DEB
:103E4000E55E8B828C838DF0EE12468B74FFB56439
:103E500003756406301227747F555EFB8B5FE55F48
:103E6000EB2BFB8B5FE55D30E7067401455FF55F8B
:103E7000E55F246840067499255F4002D211301135
:103E800006123A00023AEE12378D023AEEE56270FF
:103E900003023AEE7B9530182BE56A14F8886AE63F
:103EA000FC3395E0FDFEFF8C5B8D5C8E5D8F5E20AC
:103EB000175EAC5B7D007E007F008C5B8D5C8E5D51
:103EC0008F5E804C30191FE56A24FCF8886A8604EE
:103ED0000886050886060886071818188C5B8D5C0E
:103EE0008E5D8F5E802AE56A24FEF8886A86040863
:103EF000860518ED3395E0FEFF8C5B8D5C8E5D8F43
:103F00005E20170CAC5BAD5C7E007F008E5D8F5E2B
:103F1000301A43E55B455C455D455E60397408B524
:103F2000620C758230C003123704D00380287410ED
:103F3000B56223758230C003123704D003300F0CF2
:103F4000758278C003123704D003800A758258C086
:103F500003123704D003301725AC5BAD5CAE5DE5D2
:103F60005EFF30E717C3E49CFCE49DFDE49EFEE4A5
:103F70009FFF8C5B8D5C8E5D8F5E8002C2177565C6
:103F800000D21B8B00755F00C00012374ED000209E
:103F90001B0DE55FC4FCE6FD4CF61888038002A605
:103FA0005F0565B21BE55B455C455D455E70D68887
:103FB00003E563700375630120141A201317E56588
:103FC00004FCC39563500E758220C003123704D0E1
:103FD00003156380E930170E75822DC00312370474
:103FE000D00315638024E565602030150E75822BA3
:103FF000C003123704D0031563800F30160C75828E
:1040000020C003123704D003156320131EAC6315C0
:1040100063C3E5659C50273014047C3080027C200B
:104020008C82C003123704D00380E2C3E565956338
:104030005009E563C39565F56380037563008B00E4
:10404000AB651565EB6022B21B201B0A08E6C45461
:104050000FFB8B5F80078603740F5BF55F855F82C4
:10406000C00012371ED00080D7201303023AEEABF7
:10407000631563EB7003023AEE75822012370480F9
:10408000EE8A82123704023AEE85608285618322CD
:10409000AA82BA0A0810990280FB75990D1099023C
:1040A00080FB8A9922C2E72285825985835A85F04E
:1040B0005BF55CE4F565F566855982855A83855B19
:1040C000F0E55C1240A585825D85835E85F05FF535
:1040D00060E4C0E0C0E07480C0E0743FC0E0855D93
:1040E00082855E83855FF0E560122805AC82E581FC
:1040F00024FCF581EC602AC05DC05EC05FC06090AA
:10410000000075F080743F122DA285825D85835E6C
:1041100085F05FF560E58124FCF581756502E4F5C5
:104120006674A3C0E07430C0E07489C0E0743EC01F
:10413000E0855D82855E83855FF0E560122805ACD1
:1041400082E58124FCF581EC700302422EC05DC043
:104150005EC05FC0609067AF75F03B743F12288E01
:10416000AC82AD83AEF0FFE58124FCF581E4C0E0D4
:10417000C0E0C0E0743FC0E08C828D838EF0EF120F
:104180002D8AAC82AD83AEF0FFE58124FCF581E49D
:10419000C0E0C0E0C0E0743FC0E08C828D838EF050
:1041A000EF122D8AAC82AD83AEF0FFE58124FCF5E1
:1041B00081C05DC05EC05FC0608C828D838EF0EF79
:1041C0001229BA85826785836885F069F56AE58179
:1041D00024FCF58174D7C0E074B3C0E074DDC0E0A6
:1041E000743FC0E0855D82855E83855FF0E5601287
:1041F00029BAAC82AD83AEF0FFE58124FCF581C025
:1042000004C005C006C0078567828568838569F09C
:10421000E56A122DA285825D85835E85F05FF5607B
:10422000E58124FCF5810565E4B565020566855DDB
:1042300082855E83855FF0E5601240A5AC82AD8328
:10424000AEF0FFE4C0E0C0E07480C0E07439C0E0CC
:104250008C828D838EF0EF122835AC82E58124FCB0
:10426000F581EC600BAC5DAD5EAE5FAF600243917B
:10427000C05DC05EC05FC060855D82855E83855F16
:10428000F0E56012288E85826185836285F063F592
:1042900064E58124FCF581C061C062C063C06490A4
:1042A000869175F05074BD12288EAA82AB83A8F057
:1042B000F9E58124FCF58174F6C0E07410C0E07467
:1042C000F1C0E074BEC0E08A828B8388F0E91229D5
:1042D000BAAA82AB83A8F0F9E58124FCF581C0611C
:1042E000C062C063C0648A828B8388F0E912288E22
:1042F000AA82AB83A8F0F9E58124FCF581C05DC0FA
:104300005EC05FC0608A828B8388F0E912288E8548
:10431000826785836885F069F56AE58124FCF5810B
:1043200074D3C0E074CCC0E074B4C0E0743FC0E0AB
:104330008561828562838563F0E5641229BAAA8269
:10434000AB83A8F0F9E58124FCF581C002C003C06D
:1043500000C0018567828568838569F0E56A122D52
:10436000A2AA82AB83A8F0F9E58124FCF581C00202
:10437000C003C000C001855D82855E83855FF0E576
:10438000601229BAAC82AD83AEF0FFE58124FCF562
:1043900081C374019565E464808566F063F080955F
:1043A000F05004EFB2E7FFAA65E566CA25E0CA331C
:1043B000CA25E0CA33FBEA24EDF582EB3402F5832B
:1043C000E493FAA3E493FBA3E493F8A3E493F9C082
:1043D00002C003C000C0018C828D838EF0EF1229D1
:1043E000BAAC82AD83AEF0FFE58124FCF581C00458
:1043F000C005C006C007E4C0E0C0E0C0E0C0E08582
:104400005982855A83855BF0E55C122835AA82E5DE
:104410008124FCF581D007D006D005D004EA6004E1
:10442000EFB2E7FF8C828D838EF0EF227F9E1244E5
:104430005330D103023605C3EF9582500974FFF55E
:10444000F0F583F5822279001236C189828A838B46
:10445000F0EC22AA82AB83A2F73392D16002D2F7AA
:10446000F582ACF022AA82AB83ACF075740075754E
:1044700000C21F8A058B068C078D828E838FF012F7
:1044800026B2F8B820028003B809070DBD00EA0E75
:1044900080E78D028E038F04B82D0DD21D74012D7F
:1044A000FAE43EFB8F04800EC21DB82B0974012D67
:1044B000FAE43EFB8F04757000757100757200752B
:1044C00073008A058B068C078D828E838FF01226EF
:1044D000B2F8F9B930004005E824C650128D828E3A
:1044E000838FF01226B2F8B82E02800302459A8D0F
:1044F000828E838FF01226B2F9B92E05D21F0245A3
:1045000092C005C006C007C005C006C007C001C0F4
:1045100070C071C072C07390000075F020744112B9
:10452000288E85827085837185F072F573E581240C
:10453000FCF581D001D007D006D005E93395E0FD28
:10454000E924D0F582ED34FFF583122D95AD82AECE
:1045500083AFF0F9C005C006C007C005C006C0079C
:10456000C0018570828571838572F0E5731229BA66
:1045700085827085837185F072F573E58124FCF581
:1045800081D007D006D005D007D006D005301F0255
:1045900015740DBD00010E0244C85300DF8D828EDC
:1045A000838FF0E8122CA4B8456274012DFAE43E22
:1045B000FB8F048A828B838CF01226B2FDBD2D09FD
:1045C000D21E0ABA000D0B800AC21EBD2B050ABA04
:1045D00000010B7575008A828B838CF01226B2FD68
:1045E000FEBE3000401D8D06EE24C64016E57575F2
:1045F000F00AA4F575ED24D02575F5750ABA00D634
:104600000B80D3301E06C3E49575F575E5742575EA
:10461000F575E5756055E57530E728C070C071C067
:1046200072C07390CCCD75F0CC743D12288E85820B
:104630007085837185F072F573E58124FCF5810541
:104640007580CFC070C071C072C07390000075F0EB
:1046500020744112288E85827085837185F072F5F1
:1046600073E58124FCF581157580A7301D0F8570D9
:1046700070857171857272E573B2E7F5738570822A
:104680008571838572F0E57322E473C0E0F845829A
:10469000458345F07009F5F0FBFCFDFE024759E843
:1046A00023A2F792E0F8A982AA83D2F7ABF07C00AC
:1046B0007E07C3749798404074FF2EFE740A89F0F9
:1046C000A4F985F082740A8AF0A4FA85F083740A4A
:1046D0008BF0A4FB740529F9EA3582FAEB3583FBEC
:1046E000740035F0FCC3EC13FCEB13FBEA13FAE99E
:1046F00013F908EC70EF80BAE8C3947FF88B838ECF
:10470000F0E4FBFCFDFEFF08C3E933F9EA33FAE508
:104710008333F583EB3BD4FBEC3CD4FCED3DD4FD83
:10472000EE3ED4FEEF3FD4FF602D05F074052BD490
:10473000FBE43CD4FCE43DD4FDE43ED4FEE43FD4B1
:10474000FF758204C3EF13FFEE13FEED13FDEC13B0
:10475000FCEB13FBD582EDD8AF7890D0E020E704D6
:10476000762B8002762D087906E7C4540F4430F684
:1047700008B90603762E08E7540F4430F60819B935
:1047800002E7764508E5F020E704762B8004762DD5
:10479000F4040875F00A844430F608E5F04430F675
:1047A00008E4F690009075F0402200000000000040
:00000001FF
