:10000000020003758150120151E582600302006F06
:10001000780079007A007B007C007D00EC4D601C4C
:1000200088828983E493A3A882A9838A828B83F040
:10003000A3AA82AB831CBCFFE31D80E07582007520
:1000400083007C007D00EC4D600AE4F0A31CBCFF43
:10005000F51D80F27582007583007C007D00EC4DFB
:10006000600AE4F0A31CBCFFF51D80F212015012DF
:1000700004AE80FE436F6D6D616E643A202573009F
:10008000526573706F6E73653A2025730D0A0041D7
:10009000542B44564944303030300D0A000D0A4587
:1000A000464D384C423132204A44592D3430205389
:1000B0006C61766520546573742E0D0A0041542BD3
:1000C0005645520D0A0041542B424155440D0A0039
:1000D00041542B524649440D0A0041542B44564981
:1000E000440D0A0041542B5246430D0A0041542B43
:1000F000504F57450D0A0041542B434C53530D0AA2
:100100000041542B44564944414242410D0A004D9E
:10011000617374657220736179733A2025730D0AD7
:10012000002A2A2A20424144204D45535341474545
:10013000202A2A2A282564293A2025730D0A002519
:100140003035750A003C4E4F20464C4F41543E001E
:100150002275A7007597DE7597AD75FF8075EF0660
:1001600075A71075C12075A70075A90075A900E5D0
:10017000A930E7FB75A90375A903E5A930E7FB439F
:10018000A41143A60175E10175E20075E34175987C
:1001900010758DE6858D8B53890F438920D28ED2C1
:1001A00099D2A075820022AA82438E407592B875BA
:1001B00093FF8592948593957591047B00C3EB9A88
:1001C000500BE59130E7FB53917F0B80F075910068
:1001D00022AA82AB837C007D00C3EC9AED9B502B5E
:1001E0007E00BE0400501D7582FAC002C003C00428
:1001F000C005C0061201A7D006D005D004D003D098
:10020000020E80DE0CBC00D10D80CE22AA82AB8310
:10021000ACF0FD75A72075930C75C8107594008A15
:10022000128B138C148D1590A20075F04A74041271
:100230000687AA82AB83ACF0FD751218E4F513F5BE
:1002400014F5158A828B838CF0ED120687AA82AB97
:1002500083ACF0FDE4C39AFAE49BFB74019CE49D3B
:100260008A958B96D2C943944075A70022AA8275BD
:10027000A72010C90280FB8A9275A70022AA82AB30
:1002800083ACF08A828B838CF012066BFD60188D34
:1002900082C002C003C00412026DD004D003D00299
:1002A0000ABA00DF0B80DC2275A72010C80280FB91
:1002B00053C83F85928275A7002275A7207A007BDC
:1002C0000020C82675A700758214C002C003120161
:1002D000A7D003D00275A7200ABA00010BBAA8E183
:1002E000BB61DE75A70075820A22C2C853C83F856C
:1002F000928275A70022AA82AB83ACF07D008A06A9
:100300008B078C00C002C003C004C005C006C00734
:10031000C0001202BAA982D000D007D006D005D002
:1003200004D003D002B90A0A8A828B838CF0E402DB
:100330000722C3ED950950180D8E828F8388F0E94E
:10034000120722A3AE82AF838E028F03880480B48B
:100350008A828B838CF0E402072275A720A2C875DD
:10036000A70022AA82AB837C007D00C3EC9AED9BA0
:1003700050477E00BE04005039C002C003C004C014
:1003800005C00612035AE433D006D005D004D003CA
:10039000D0026001227582FAC002C003C004C00509
:1003A000C0061201A7D006D005D004D003D0020E9B
:1003B00080C20CBC00B50D80B222AA82AB83ACF027
:1003C000C002C003C004C002C003C0047474C0E013
:1003D0007400C0E07480C0E0120701E58124FAF5E2
:1003E00081C2A09000051201D1D004D003D0028AAE
:1003F000828B838CF012027D75091390003775F0A3
:10040000401202F690000A1201D1D2A07437C0E067
:100410007400C0E07440C0E07480C0E07400C0E0CC
:100420007480C0E0120701E58124FAF58122C2A0A0
:1004300090000A1201D190008F75F08012027D9019
:10044000000A1201D153C83FD2A022AA8274075ACF
:10045000F5F005F07401800225E0D5F0FBFBEAC45D
:10046000540FFA24FC4022EA2A2A90046E730204F4
:100470007A02047E020482020486EB42A422EB424A
:10048000A522EB42A622EB429C22C2A1D2A2C2A488
:10049000D2A322D2A1C2A2D2A4C2A322C2A1D2A21A
:1004A000D2A4C2A322D2A1C2A2C2A4D2A3229001EA
:1004B000F41201D1749DC0E07400C0E07480C0E00B
:1004C000120701158115811581902580E4F5F01240
:1004D000020C12042E9000BD75F0801203BA900039
:1004E000C675F0801203BA9000D075F0801203BA7E
:1004F0009000DA75F0801203BA9000E475F0801273
:1005000003BA9000ED75F0801203BA9000F775F011
:10051000801203BA90010175F0801203BAC2A1C221
:10052000A2C2A4C2A37A007B00758224C002C003C9
:1005300012044B75822312044B75822212044B75F0
:10054000822112044B12048A9007D01201D11204A6
:10055000939007D01201D112049C9007D01201D1C0
:100560001204A59007D01201D112035AD003D00271
:1005700050B7C002C0031202A8AC82D003D002BCA4
:100580002102800302061775091390003775F040A9
:10059000C002C0031202F690003775F0401207D077
:1005A000AD82AE83D003D002BD072FBE002CC002A7
:1005B000C0037437C0E07400C0E07440C0E0740F42
:1005C000C0E07401C0E07480C0E0120701E581243E
:1005D000FAF581D003D00202052990003775F0406A
:1005E000C002C0031207D0AD82AE83C005C006743E
:1005F00037C0E07400C0E07440C0E07421C0E07413
:1006000001C0E07480C0E0120701E58124F8F581A3
:10061000D003D002020529BC40028003020529C094
:1006200002C003C002C003743FC0E07401C0E074A4
:1006300080C0E07437C0E07400C0E07440C0E012D5
:10064000078AE58124F8F581D003D0020ABA0001B7
:100650000B900005C002C0031201D190003775F065
:100660004012027DD003D00202052920F71430F693
:10067000148883A88220F507E6A88375830022E208
:1006800080F7E49322E022FB7A20E4FCFDFEFFE504
:10069000822582F582E58333F583E5F033F5F0EBCF
:1006A00033FB4017DAE98042E5822582F582E58353
:1006B00033F583E5F033F5F0EB33FBEC33FCED334E
:1006C000FDEE33FEEF33FFEC9512ED9513EE95142E
:1006D000EF95154013EC9512FCED9513FDEE951476
:1006E000FEEF9515FF438201DABEEB22020E18855C
:1006F000823085833185F0328511339006EC020813
:1007000081C008858108E50824FBF533E50824FB52
:10071000F886300886310886329006EC120881D0BF
:10072000082220F71030F6118883A88220F507F6FA
:10073000A88375830022F280F7F022AA82AB0AAC6C
:100740000BAD0C8B828C838DF0EA120722050AE434
:10075000B50A02050B2285820A85830B85F00C857C
:100760000D30850E31850F3285103390073B12080E
:1007700081AA82AB83AC0AAD0BAE0C8C828D838ECA
:10078000F0E41207228A828B8322C008858108E563
:100790000824F8F533E50824FBF8860A08860B08D8
:1007A000860CE50824F8F8863008863108863290F1
:1007B000073B120881AA82AB83AC0AAD0BAE0C8C4E
:1007C000828D838EF0E41207228A828B83D00822E6
:1007D000AA82AB83ACF07D007E008A828B838CF092
:1007E00012066BFFA3AA82AB83EF60070DBD00EA80
:1007F0000E80E78D828E8322AA827409C0E074087D
:10080000C0E0C022C0238A82220529E4B52902055E
:100810002A22AA8274302AFA24C6500A74072AFAB5
:100820003000034302208A820207F8E582FAC454AA
:100830000FF582C002120812D002740F5AF582021C
:100840000812AA24AB25AC26AD27AE28752F20EEC2
:100850002EFEED235401FF4206EA2AFAEB33FBECAD
:1008600033FCED33FDC3EE952B4008EEC3952BFE14
:10087000430201D52FD98A248B258C268D278E28DB
:1008800022858222858323E4F529F52AAA30AB311B
:10089000AC328A828B838CF012066BFD74012AF5D0
:1008A00030E43BF5318C32EDFA7003020E11BA25BB
:1008B000028003020E09C204C205C206C207C208B2
:1008C000C209C20AC20BC201C202C203752B007563
:1008D0002C00752DFFAB30AC31AD328B828C838D0B
:1008E000F012066BFAA3AB82AC838B308C318D3265
:1008F000BA25078A821207F880928A06BE30004025
:100900002E8A06EE24C6402774FFB52D13E52C75FC
:10091000F00AA4FEEA24D02EF52C70BFD20580BBCD
:10092000E52D75F00AA4FEEA24D02EF52D80ACBA90
:100930002E0A74FFB52DA4752D00809F8A06BE6116
:1009400000400E8A06EE248540075302DFD2008065
:1009500002C200BA20028075BA23030209DCBA2A57
:10096000030209E1BA2B02805FBA2D028055BA4218
:1009700002805FBA4303020A26BA4403020B61BA3B
:100980004503020B7BBA4603020B77BA4703020BFF
:100990007FBA4903020B61BA4C02803BBA4E030294
:1009A0000B83BA4F03020B68BA5003020AFABA5318
:1009B00003020A4ABA5503020B6DBA5803020B72BE
:1009C000020BADD2040208DBD2060208DBD207021A
:1009D00008DBD2090208DBD20A0208DBD20B0208CC
:1009E000DB74FFB52D2030090BE53314F88833860E
:1009F0002C0208DBE53324FEF888338606088607D8
:100A0000188E2C0208DB30090BE53314F888338686
:100A10002D0208DBE53324FEF888338606088607B6
:100A2000188E2D0208DB30090AE53314F888338666
:100A300002800FE53324FEF8883386030886041805
:100A40008B028A821207F8020BB2E53324FDF88884
:100A500033860308860408860518188B248C258D98
:100A6000268B828C838DF01207D0AB82AC838B2EC9
:100A700074FFB52D03852E2D20041DC3E52E952C66
:100A80005016E52CC3952EF52CAB2C152CEB6008DD
:100A90007582201207F880F18524828525838526BA
:100AA000F012066BFBFA6029AB2D152DC3E46480B0
:100AB0008BF063F08095F050188A821207F8AB240F
:100AC000AC25AD260BBB00010C8B248C258D26801C
:100AD000C7200403020BB2C3E52E952C4003020B82
:100AE000B2E52CC3952EF52CAB2C152CEB70030224
:100AF0000BB27582201207F880EEE53324FDF888EA
:100B000033860308860408860518188B248C258DE7
:100B100026E526FB30E7047A438013EB546060043B
:100B20007A50800AEB30E6047A4980027A588A8249
:100B3000C0021207F875823A1207F8758230120760
:100B4000F87582781207F8D002BA4902800BBA50C1
:100B500002800685258212082B85248212082B80AC
:100B600051D208752B0A804A752B088045752B0ACF
:100B70008040752B10803BD2018037D2028033D267
:100B800003802FE53324FDF88833860308860408A4
:100B9000860518188B248C258D268B828C838DF0EE
:100BA000E529120722A3E52A12072280058A82126C
:100BB00007F820010620020330035AE53324FCF82D
:100BC00088338603088604088605088606181818E0
:100BD0008B248C258D268E27752445752501752639
:100BE0008085243485253585263674012534FEE438
:100BF0003535FFAB368E248F258B2685348285359F
:100C0000838536F012066BFBFA700302088C8A8229
:100C10001207F880CCE52B700302088C7B5030095A
:100C20002BE53314F88833E6FC3395E0FDFEFF8CAA
:100C3000248D258E268F2720085EAC247D007E0023
:100C40007F008C248D258E268F27804C300A1FE54F
:100C50003324FCF88833860408860508860608864F
:100C6000071818188C248D258E268F27802AE533A7
:100C700024FEF88833860408860518ED3395E0FED7
:100C8000FF8C248D258E268F2720080CAC24AD25C3
:100C90007E007F008E268F27300B43E524452545B7
:100CA00026452760397408B52B0C758230C00312B5
:100CB00007F8D00380287410B52B23758230C00349
:100CC0001207F8D00330000C758278C0031207F8C1
:100CD000D003800A758258C0031207F8D003300889
:100CE00025AC24AD25AE26E527FF30E717C3E49CED
:100CF000FCE49DFDE49EFEE49FFF8C248D258E2662
:100D00008F278002C208752E00D20C8B0075280038
:100D1000C000120842D000200C0DE528C4FCE6FDFE
:100D20004CF61888038002A628052EB20CE524454F
:100D3000254526452770D68803E52C7003752C01C0
:100D400020051A200417E52E04FCC3952C500E75BF
:100D50008220C0031207F8D003152C80E930080E5A
:100D600075822DC0031207F8D003152C8024E52EC0
:100D7000602030060E75822BC0031207F8D00315D1
:100D80002C800F30070C758220C0031207F8D003A7
:100D9000152C20041EAC2C152CC3E52E9C5027309E
:100DA00005047C3080027C208C82C0031207F8D0BE
:100DB0000380E2C3E52E952C5009E52CC3952EF552
:100DC0002C8003752C008B00AB2E152EEB6022B20D
:100DD0000C200C0A08E6C4540FFB8B2880078603FE
:100DE000740F5BF528852882C000120812D000809D
:100DF000D720040302088CAB2C152CEB70030208DF
:100E00008C7582201207F880EE8A821207F8020899
:100E10008C852982852A8322AA82BA0A081099021F
:100E200080FB75990D10990280FB8A9922000000C1
:00000001FF
