:100000000200037581A312031DE582600302006FE5
:1000100078FA79027A597B007C237D00EC4D601CD4
:1000200088828983E493A3A882A9838A828B83F040
:10003000A3AA82AB831CBCFFE31D80E07582007520
:1000400083007C597D00EC4D600AE4F0A31CBCFFEA
:10005000F51D80F27582007583007C007D00EC4DFB
:10006000600AE4F0A31CBCFFF51D80F212007412BC
:10007000244080FE2200000000000000000000007C
:100090000000000210244572726F723A20436F759F
:1000A0006C64206E6F742066696E6420424D4D3121
:1000B00035302073656E736F722028436869702035
:1000C00049443A20307825303258290D0A005072C0
:1000D000657373207265737461727420746F20632A
:1000E0006865636B20616761696E210D00444F4E46
:1000F00045212043686970204944203D20307825FF
:100100003032580D0A00424D4D31353020696E694C
:100110007469616C697A6564207375636365737370
:1001200066756C6C792120436869702049443A20D7
:100130003078253032580D0A00436F6D6D616E6462
:100140003A20257300526573706F6E73653A2025EF
:10015000730D0A0041542B44564944303030300D61
:100160000A006D61737465725F6D657373676165B5
:100170005F6175746F5F6D6F64653A2025730D0A5A
:1001800000253033642C253033642C253031642C29
:100190002530316400253031642C253032642C2523
:1001A0006C642C253035642C25342E31660A0066AB
:1001B0003A2530346C642C2064313A25642C206458
:1001C000323A25642C20626F756E645F64656374D7
:1001D0006563743A2025640D0A004175746F206DC3
:1001E0006F64652066696E6973686564210D0A0035
:1001F0000D0A45464D384C423132204A44592D347F
:100200003020536C61766520546573742E0D0A009E
:1002100041542B5645520D0A0041542B424155443E
:100220000D0A0041542B524649440D0A0041542BFB
:10023000445649440D0A0041542B52464330303253
:100240000D0A0041542B504F57450D0A0041542BC5
:10025000434C53530D0A0041542B445649444546E0
:1002600031310D0A00253033642C253033642C25C0
:10027000632C25303164004A6F79737469636B2095
:1002800052656365697665643A205678203D20257D
:10029000642C205679203D2025642C204F72646503
:1002A00072203D2025632C204175746F203D202550
:1002B000640D0A002A2A2A20424144204D45535306
:1002C000414745202A2A2A3A2025730D0A00302C5E
:1002D00030302C2530346C642C253035642C25349A
:1002E0002E31660A0025730D0A0000000000920AF4
:1002F000063FDB0FC93F920A863F00000000000066
:1003000001010101A100A6000000000000000000A2
:1003100039303333733F0000000001000075A7003F
:100320007597DE7597AD75FF8075EF0675A710752B
:10033000C12075A70075A90075A900E5A930E7FBE4
:1003400075A90375A903E5A930E7FB43A4C043A53C
:100350000643A60175E10375E20075E34175D40714
:1003600075D5F9759810758DE6858D8B53890F437A
:100370008920D28ED299D2A075A21175A1E075F80C
:100380000175A71075C00075D4FF75D5FF43F3083C
:10039000D2C2D2AF75A70075820022AA82438E40D6
:1003A0007592B87593FF8592948593957591047BAA
:1003B00000C3EB9A500BE59130E7FB53917F0B8024
:1003C000F075910022AA82AB837C007D00C3EC9A79
:1003D000ED9B502B7E00BE0400501D7582FAC002BA
:1003E000C003C004C005C00612039BD006D005D0D0
:1003F00004D003D0020E80DE0CBC00D10D80CE22D2
:100400008582A310FF0280FB85A38222AA82430279
:1004100080C2908A82120400758200120400D29079
:1004200022AA8253027FC2908A821204008524820B
:10043000120400D29022900018E4F0900019F0907D
:10044000001AF090001BF090001CE4F090001DF0EA
:1004500090001EF090001FF0900020E4F09000212A
:10046000F0900022F0900023F0900024E4F090003F
:1004700025F0900026F0900027F07A00BA02005094
:1004800027EA2418FBE43400FC745D2AF582C002DC
:10049000C003C00412040CAD82D004D003D0028B80
:1004A000828C83EDF00A80D47A00BA04005027EAE7
:1004B000241AFBE43400FC74622AF582C002C003F3
:1004C000C00412040CAD82D004D003D0028B828C05
:1004D00083EDF00A80D47A00BA0A005027EA241E7D
:1004E000FBE43400FC74682AF582C002C003C00437
:1004F00012040CAD82D004D003D0028B828C83ED29
:10050000F00A80D4900018E0900008F0900019E004
:1005100090000AF090001CE0900009F090001DE0AF
:1005200090000BF0900027E0900014F0900026E07F
:10053000900015F0900023E0FA53027F8A037A00BE
:10054000900022E0FC7D00900016EC4AF0ED4BA3F9
:10055000F022D29090000A1203C575248275824B56
:1005600012042190000A1203C575240175824B12F2
:1005700004219000051203C575824012040CAA8262
:10058000BA320280348A037C00C003C0047496C06F
:10059000E07400C0E07480C0E0122C8EE58124FB82
:1005A000F58174CEC0E07400C0E07480C0E0122C0D
:1005B0008E15811581158180E97B00C002C003C0C2
:1005C00002C00374EDC0E07400C0E07480C0E012AB
:1005D0002C8EE58124FBF58175240075824C120474
:1005E0002175247F75825112042175240E75825263
:1005F0001204211204367406C0E07401C0E0748055
:10060000C0E0122C8EE58124FBF58122ACF012288B
:1006100095FAA3122895FBBA0006BBF00302085214
:10062000AC25AD26AE278C828D838EF0122895FCEA
:10063000A3122895FD4C600A90002AECF0A3EDF07F
:10064000801C900016E0FCA3E0FD4C600A90002A9C
:10065000ECF0A3EDF0800790002AE4F0A3F0900006
:100660002AE0FCA3E0FD4C7003020847900016E06E
:10067000FEA3E0FFE4F8EFC85403A2E0C813C813D8
:10068000A2E0C813C813C8F9EE030354C0FFEE0379
:1006900003543F48F87E008C7C8D7D757E00757F0D
:1006A000008E828F8388F0E9C002C003122BCEAC8B
:1006B00082E58324C0FD8C068D078E28EFF5293353
:1006C00095E0F52AF52B8C068D078E7CEFF57D33B2
:1006D00095E0F57EF57F852882852983852AF0E5DA
:1006E0002BC004C0051228B185822885832985F096
:1006F0002AF52B900015E0FE3395E0FFF8F9757CA4
:1007000080E4F57DF57EF57F852882852983852A1D
:10071000F0E52BC006C007C000C001122BCE8582B9
:100720007C85837D85F07EF57FD001D000D007D019
:10073000068E828F8388F0E91228B185822885830E
:100740002985F02AF52BD005D004900014E0FEE4B2
:100750005401A2E0CE13CE13CE8E7CF57D3395E00E
:10076000F57EF57FED3395E0FE8C828D838EF01261
:1007700028B1AC82AD83AEF0FFEC2528FCED352925
:10078000FDEE352AFEEF352BFF757C00757D027579
:100790007E00757F008C828D838EF0EF122BCEACA5
:1007A00082AD83AEF0FF74102EFEE43FFF9000098F
:1007B000E0F83395E0F974A028F8E439887CF57DF9
:1007C0003395E0F57EF57F8C828D838EF0EF1228D5
:1007D000B1757C00757D10757E00757F00122BCE83
:1007E00085827C85837D85F07EF57FD003D002EB0A
:1007F0003395E0FC8A828B838CF01228B1757C00E3
:10080000757D20757E00757F00122BCEAA82AB838A
:10081000900008E0FC3395E0C40354F8CCC403CC4A
:100820006CCC54F8CC6CFDEC2AF582ED3BF583756D
:100830007C10E4F57D122F23E5828583F09000285B
:10084000F0A3E5F0F08014900028E4F0A37480F0A9
:100850008009900028E4F0A37480F0900028E0FA6A
:10086000A3E08A82F58322ACF0122895FAA312281D
:1008700095FBBA0006BBF003020AABAC2CAD2DAE63
:100880002E8C828D838EF0122895FCA3122895FD64
:100890004C600A90002EECF0A3EDF0801C90001646
:1008A000E0FCA3E0FD4C600A90002EECF0A3EDF01C
:1008B000800790002EE4F0A3F090002EE0FCA3E06F
:1008C000FD4C7003020AA0900016E0FEA3E0FFE4D6
:1008D000F8EFC85403A2E0C813C813A2E0C813C8B5
:1008E00013C8F9EE030354C0FFEE0303543F48F866
:1008F0007E008C7C8D7D757E00757F008E828F835F
:1009000088F0E9C002C003122BCEAC82E58324C07C
:10091000FD8C068D078E2FEFF5303395E0F531F520
:10092000328C068D078E7CEFF57D3395E0F57EF5F4
:100930007F852F828530838531F0E532C004C00584
:100940001228B185822F85833085F031F5329000F1
:1009500015E0FE3395E0FFF8F9757C80E4F57DF550
:100960007EF57F852F828530838531F0E532C006A4
:10097000C007C000C001122BCE85827C85837D8597
:10098000F07EF57FD001D000D007D0068E828F8315
:1009900088F0E91228B185822F85833085F031F502
:1009A00032D005D004900014E0FEE45401A2E0CE61
:1009B00013CE13CE8E7CF57D3395E0F57EF57FED7D
:1009C0003395E0FE8C828D838EF01228B1AC82AD1F
:1009D00083AEF0FFEC252FFCED3530FDEE3531FE1A
:1009E000EF3532FF757C00757D02757E00757F00E6
:1009F0008C828D838EF0EF122BCEAC82AD83AEF065
:100A0000FF90000BE0F83395E0F974A028F8E43982
:100A1000887CF57D3395E0F57EF57F74102EFEE43D
:100A20003F8C828D838EF01228B1757C00757D100D
:100A3000757E00757F00122BCE85827C85837D8537
:100A4000F07EF57FD003D002EB3395E0FC8A828BF9
:100A5000838CF01228B1757C00757D20757E007541
:100A60007F00122BCEAA82AB8390000AE0FC339564
:100A7000E0C40354F8CCC403CC6CCC54F8CC6CFD6B
:100A8000EC2AF582ED3BF583757C10E4F57D122FA1
:100A900023E5828583F090002CF0A3E5F0F080142C
:100AA00090002CE4F0A37480F0800990002CE4F016
:100AB000A37480F090002CE0FAA3E08A82F58322F0
:100AC00085823685833785F03875824212040CADF5
:100AD00082758243C00512040CAE82758244C00642
:100AE00012040CAF82758245C00712040CA88275EF
:100AF0008248C00012040CA982758249C001120408
:100B00000CAA82D001D000D007D006D0055305F83A
:100B1000EDC423541FFDEE3395E0C42354E0CEC44E
:100B200023CE6ECE54E0CE6EFB7C00900030ED4EB6
:100B3000F0EC4BA3F05307F8EFC423541FFFE83346
:100B400095E0C42354E0C8C423C868C854E0C8680A
:100B5000FB7C00900032EF48F0EC4BA3F05301FC1B
:100B6000E90303543FF9E45403A2E0CA13CA13A2F1
:100B7000E0CA13CA13CAFB7C00900034E94AF0ECC7
:100B80004BA3F0752534752600752700900030754D
:100B9000F00012060CAA82AB8385368285378385E6
:100BA00038F0EA122F0AA3EB122F0AAA33AB34ACA7
:100BB00035752C34752D00752E0090003275F000BF
:100BC000C002C003C004120867AD82AE83D004D057
:100BD00003D0028A828B838CF0ED122F0AA3EE02DF
:100BE0002F0AAA82AB83ACF0FD75A72075930C7514
:100BF000C8107594008A7C8B7D8C7E8D7F90A200BE
:100C000075F04A740412291FAA82AB83ACF0FD75FB
:100C10007C18E4F57DF57EF57F8A828B838CF0ED80
:100C200012291FAA82AB83ACF0FDE4C39AFAE49BBD
:100C3000FB74019CE49D8A958B96D2C943944075C0
:100C4000A70022AA8275A72010C90280FB8A92758C
:100C5000A70022AA82AB83ACF08A828B838CF0122D
:100C60002895FD60188D82C002C003C004120C4399
:100C7000D004D003D0020ABA00DF0B80DC2275A7B3
:100C80002010C80280FB53C83F85928275A70022BE
:100C900075A7207A007B0020C82675A700758214EE
:100CA000C002C00312039BD003D00275A7200ABA6A
:100CB00000010BBAA8E1BB61DE75A70075820A22AC
:100CC000C2C853C83F85928275A70022AA82AB830F
:100CD000ACF07D008A068B078C00C002C003C00404
:100CE000C005C006C007C000120C90A982D000D079
:100CF00007D006D005D004D003D002B90A0A8A82F0
:100D00008B838CF0E4022F0AC3ED953950180D8EB9
:100D1000828F8388F0E9122F0AA3AE82AF838E02FE
:100D20008F03880480B48A828B838CF0E4022F0ABC
:100D300075A720A2C875A70022AA82AB837C007D7C
:100D400000C3EC9AED9B50477E00BE04005039C0B2
:100D500002C003C004C005C006120D30E433D00643
:100D6000D005D004D003D0026001227582FAC002FF
:100D7000C003C004C005C00612039BD006D005D036
:100D800004D003D0020E80C20CBC00B50D80B2228C
:100D9000AA82AB83ACF0C002C003C004C002C0038F
:100DA000C0047439C0E07401C0E07480C0E0122C4B
:100DB0008EE58124FAF581C2A09000051203C5D00A
:100DC00004D003D0028A828B838CF0120C537539C5
:100DD0001390008075F040120CCC90000A1203C5ED
:100DE000D2A07480C0E07400C0E07440C0E07445DC
:100DF000C0E07401C0E07480C0E0122C8EE5812454
:100E0000FAF58122C2A090000A1203C59001547520
:100E1000F080120C5390000A1203C553C83FD2A0B1
:100E200022AA8274075AF5F005F07401800225E0C9
:100E3000D5F0FBFBEAC4540FFA24FC4022EA2A2A2C
:100E4000900E4473020E50020E54020E58020E5CB5
:100E5000EB42A422EB42A522EB42A622EB429C22CB
:100E6000AA8274075AF5F005F07401800225E0D5D6
:100E7000F0FBF4FBEAC4540FFA24FC4022EA2A2ACD
:100E8000900E8473020E90020E94020E98020E9C35
:100E9000EB52A422EB52A522EB52A622EB529C224B
:100EA00075A700C2EF75B28075BC2075B91E75E8D4
:100EB0000075DF3F75B300D2EF22AA82857CF00572
:100EC000F07401800225E0D5F0FBFB75A720BA0085
:100ED00002800ABA0102800FBA021E8014EBF4FAF3
:100EE00052F1EB42D48012EBF4FA52F2EB42D5808D
:100EF00008EBF4FA52F3EB42CC75A700228582BBD3
:100F0000C2EDD2EC30EDFD85BD8285BE832290001E
:100F100036E4F0A3F0A3F0A3F0C2A57A00C3EA641C
:100F20008094984003020FADD2A590003AE4F0906F
:100F3000003AE0FBC364809484500990003AE024B6
:100F400001F080EB900036E0FBA3E0FCA3E0FDA302
:100F5000E0FEEB2BFBEC33FCED33FDEE33FE9000BB
:100F600036EBF0A3ECF0A3EDF0A3EEF030A61E906C
:100F70000036E0FBA3E0FCA3E0FDA3E0FE9000361A
:100F800074014BF0A3ECF0A3EDF0A3EEF0C2A5903A
:100F9000003AE4F090003AE0FBC364809484500986
:100FA00090003AE02401F080EB0A020F1DD2A590D8
:100FB000003AE4F090003AE0FAC364809484500967
:100FC00090003AE02401F080EBC2A590003AE4F0F2
:100FD00090003AE0FAC364809484500990003AE0AB
:100FE0002401F080EB900036E0FAA3E0FBA3E0FCE4
:100FF000A3E0FD757C40757D42757E0F757F008A8C
:10100000828B838CF0ED122B40AA82AB83ACF0FD77
:10101000757C0AE4F57DF57EF57F8A828B838CF002
:10102000ED02291FC020C0E0C0F0C082C083C00212
:10103000C003C004C005C006C007C000C001C0D0C6
:1010400075D00075A710C2C775D2C475D3FF9000C4
:101050006BE02401F0A3E03400F090006BE0FAA311
:10106000E0FBBAE828BB032590006BE4F0A3F09006
:101070000079E0FA6017122698AA82AB83900000EC
:10108000EAF0A3EBF0EB3395E0A3F0A3F090006D52
:10109000E02401F0A3E03400F090006DE0FAA3E05A
:1010A000FBBA2021BB4E1E90006DE4F0A3F090002F
:1010B00079E0FA6010120F0EE5828583F090007AD5
:1010C000F0A3E5F0F0900059E02401F0A3E0340033
:1010D000F0900059E0FAA3E0FBBA640ABB00079065
:1010E0000059E4F0A3F090005EE0FA900059E0FBB4
:1010F000A3E0FC7D00C3EB9AEC9D501390005FE0F1
:10110000FA6006D2A1C2A2800AC2A1D2A28004C201
:10111000A1C2A290005DE0FA7D00C3EB9AEC9D5065
:1011200013900060E0FA6006D2A4C2A3800AC2A4B1
:10113000D2A38004C2A4C2A390005BE02401F0A368
:10114000E03400F090005BE0FAA3E0FBBAD00EBB05
:10115000070B90005BE4F0A3F0D296D29790006268
:10116000E0FA90005BE0FBA3E0FC7D00EAB503063B
:10117000EDB50402C296900061E0FA7D00B5030669
:10118000EDB50402C297D0D0D001D000D007D00670
:10119000D005D004D003D002D083D082D0F0D0E0EC
:1011A000D020329000627401F090006174FAF090E7
:1011B00000C81203C590006274FAF0D2959000C87E
:1011C0001203C57A007B00C3EA9459EB64809480D3
:1011D000501E900005C002C0031203C5D003D00208
:1011E000900061E014900061F00ABA00DA0B80D739
:1011F0009000C81203C57A007B00C3EA949FEB6499
:10120000809480501E900005C002C0031203C5D018
:1012100003D002900062E014900062F00ABA00DA93
:101220000B80D79000C81203C57A007B00C3EA94F4
:1012300041EB64809480501E900005C002C00312F0
:1012400003C5D003D002900061E014900061F00A61
:10125000BA00DA0B80D79001F41203C5C295900052
:10126000C81203C59000627401F09000617401F02F
:1012700022AA82AB83C374E09A74AE8BF063F080D1
:1012800095F0401074E0957D74AE857EF063F0803B
:1012900095F05004900001229000002275822412E3
:1012A0000E21758223120E21758222120E21758263
:1012B00021120E21758217120E21758216120E212F
:1012C000758215120E21758210120E217582301250
:1012D0000E60758225120E21758226120E60757CB5
:1012E00003758201120EBA757C04758201120EBA62
:1012F000120EA05389F0438901C28CC296C297C2D4
:1013000095C2A522AA82AB8390005F7401F0900081
:10131000607401F090005D7432F090005E7432F001
:101320008A828B831203C590005FE4F0900060F026
:1013300090005DF090005EF022AA82AB8390005F87
:101340007401F0900060E4F090005D7450F0C00211
:10135000C003900071E0C0E0A3E0C0E0A3E0C0E003
:10136000A3E0C0E090000075F0A07442122A71ACB6
:1013700082AD83AEF0FFE58124FCF5818C828D8304
:101380008EF0EF12314FE582D003D00290005EF074
:101390008A828B831203C590005FE4F0900060F0B6
:1013A00090005DF090005EF02290005FE4F090000D
:1013B00060F090005D743CF0900071E0C0E0A3E04C
:1013C000C0E0A3E0C0E0A3E0C0E090000075F070D2
:1013D0007442122A71AA82AB83ACF0FDE58124FC31
:1013E000F5818A828B838CF0ED12314FE58290007B
:1013F0005EF02290006FE0F57CA3E0F57D906255F1
:10140000122B23E5828583F090006F2419F0743647
:1014100035F0A3F090006FE0FAA3E08A82F5832212
:101420001213F3757CA6E4F57D122CAFE58285835B
:10143000F02455F582E435F0F5832290003FE4F086
:10144000A3F0A3F0A3F0900043F0A3E4F0A3F0A373
:10145000F07A00BA0A00400302152575333D753451
:101460000075350090003B75F000C002120AC09074
:10147000003BE0FBA3E0FC8B828C83122FFB858278
:101480003A85833B85F03CF53D90003FE0FFA3E0CB
:10149000F8A3E0F9A3E0FBC03AC03BC03CC03D8FDD
:1014A00082888389F0EB122C20AB82AC83ADF0FEF6
:1014B000E58124FCF58190003FEBF0A3ECF0A3ED77
:1014C000F0A3EEF090003DE0FBA3E0FC8B828C8368
:1014D000122FFB85823A85833B85F03CF53D9000D9
:1014E00043E0FFA3E0F8A3E0F9A3E0FBC03AC03B70
:1014F000C03CC03D8F82888389F0EB122C20AB82E8
:10150000AC83ADF0FEE58124FCF581900043EBF067
:10151000A3ECF0A3EDF0A3EEF09000011203C5D010
:10152000020A021453900043E0FAA3E0FBA3E0FC9C
:10153000A3E0FDE4C0E0C0E074C8C0E07441C0E0D6
:101540008A828B838CF0ED123008AA82AB83ACF0D8
:10155000FDE58124FCF58190003FE0FEA3E0FFA3C0
:10156000E0F8A3E0F9C002C003C004C005E4C0E095
:10157000C0E074C8C0E07441C0E08E828F8388F000
:10158000E912300885827485837585F076F577E5F4
:101590008124FCF581D005D004D003D0028A828B4F
:1015A000838CF0ED122CFCAA82AB83ACF0FDC00260
:1015B000C003C004C00590000075F0347443122AC3
:1015C00071AA82AB83ACF0FDE58124FCF58174DB6C
:1015D000C0E0740FC0E07449C0E07440C0E08A828B
:1015E0008B838CF0ED123008AA82AB83ACF0FDE562
:1015F0008124FCF581900047EAF0A3EBF0A3ECF026
:10160000A3EDF0C002C003C004C005E4C0E0C0E028
:10161000C0E0C0E08A828B838CF0ED122A18AE8283
:10162000E58124FCF581D005D004D003D002EE6022
:1016300032E4C0E0C0E074B4C0E07443C0E08A8229
:101640008B838CF0ED122C20AA82AB83ACF0FDE5ED
:101650008124FCF581900047EAF0A3EBF0A3ECF0C5
:10166000A3EDF0900047E0FAA3E0FBA3E0FCA3E0C9
:10167000FDC002C003C004C005E4C0E0C0E074B413
:10168000C0E07443C0E08A828B838CF0ED1229E8BD
:10169000AE82E58124FCF581D005D004D003D002D0
:1016A000EE6032E4C0E0C0E074B4C0E07443C0E077
:1016B0008A828B838CF0ED122FF0AA82AB83ACF080
:1016C000FDE58124FCF581900047EAF0A3EBF0A34F
:1016D000ECF0A3EDF0900047E0FAA3E0FBA3E0FC00
:1016E000A3E08A828B838CF02290004D7401F0E499
:1016F000A3F0E4F53EF53FC3E53E9414E53F648076
:10170000948040030219DE90004DE0FCA3E0FD4C04
:1017100070030219DEC004C005120D30D005D004DC
:10172000400302184FC004C005120C7EAE82D005E3
:10173000D004BE210280030217EB7539139000809C
:1017400075F040120CCC90008075F040123127AF3C
:1017500082AA83BF0B05BA0002800302184F74806F
:10176000C0E07400C0E07440C0E07462C0E0740186
:10177000C0E07480C0E0122C8EE58124FAF58174FB
:101780004BC0E07400C0E0E4C0E0744FC0E07400FF
:10179000C0E0E4C0E0744FC0E07400C0E0E4C0E02A
:1017A000744FC0E07400C0E0E4C0E07481C0E07435
:1017B00001C0E07480C0E07480C0E07400C0E074D8
:1017C00040C0E01229BAE58124EEF58190004BE09B
:1017D000FFA3E0FA4F600B90004D7401F0E4A3F01A
:1017E000806D90004DE4F0A3F08064BE40619000F5
:1017F00075E0C0E0A3E0C0E0A3E0C0E0A3E0C0E08B
:10180000E4C0E0C0E0900000E0C0E0A3E0C0E0A3DE
:10181000E0C0E0A3E0C0E0C03EC03FC004C005742B
:1018200095C0E07401C0E07480C0E07480C0E074D2
:1018300000C0E07440C0E0122FAAE58124ECF581DD
:101840009000051203C590008075F040120C5312F1
:1018500013A9758209120EFDE5828583F0900004BC
:10186000F0A3E5F0F075820A120EFDAA82AB839018
:101870000006EAF0A3EBF0900004E0FCA3E0FD8A90
:101880007D8B7E8C828D83121271AA82AB83C00203
:10189000C003C002C003900006E0C0E0A3E0C0E0C7
:1018A000900004E0C0E0A3E0C0E0900000E0C0E0F1
:1018B000A3E0C0E0A3E0C0E0A3E0C0E074AFC0E0FC
:1018C0007401C0E07480C0E0122C8EE58124F3F531
:1018D00081D003D002900000E0FCA3E0FDA3E0FE75
:1018E000A3E0FFC3EC94DCED9414EE9400EF64806D
:1018F0009480403B900079E4F090012CC002C0033A
:101900001213049000641203C51211A3D003D00275
:10191000053EE4B53E02053F900064C002C00312DC
:1019200003C59000797401F01213A9D003D002BA54
:101930000105BB000280030216F79001F4121304A4
:101940009000641203C512143BAA82AB83ACF0FD75
:10195000900075EAF0A3EBF0A3ECF0A3EDF0121405
:101960002085827C85837D900258122B23AA82AB2E
:1019700083757C5AE4F57D8A828B83122A48121380
:101980003912143B85824085834185F042F54390AE
:101990000075E0FEA3E0FFA3E0FAA3E0FBC040C0B7
:1019A00041C042C0438E828F838AF0EB122FF0AA8F
:1019B00082AB83ACF0FDE58124FCF5818A828B83C8
:1019C0008CF0ED122892AA82AB83ACF0FD900075EA
:1019D000EAF0A3EBF0A3ECF0A3EDF00216F774DA53
:1019E000C0E07401C0E07480C0E0122C8E15811537
:1019F00081158122122895F547A3122895F548AC48
:101A000044AD45AE468C828D838EF0122895FCA3A2
:101A1000122895FD900063E0FEA3E0FFE547C39E1A
:101A2000F582E5489FF583C004C005122B1485821A
:101A30007C85837D900064122B23AE82AF8390005F
:101A400063E0F57CA3E0F57D8E828F83122F23E582
:101A5000828583F0D005D004900051F0A3E5F0F02A
:101A6000900065E0FEA3E0FFECC39EF582ED9FF5DC
:101A700083C004C005122B1485827C85837D900071
:101A800064122B23AE82AF83900065E0F54AA3E099
:101A9000F54B854A7C854B7D8E828F83122F23AE3A
:101AA00082AF83D005D004900063E0FAA3E0FBE5A9
:101AB00047C39AF54DE5489BF54EECC3954AF5476B
:101AC000ED954BF54890005DE4F090005EF0C37436
:101AD000059EE464808FF063F08095F0E433F5496F
:101AE0007003021BCF900051E0FAA3E0FBC3EA941D
:101AF00005EB648094804003021BCF90005DEEF004
:101B00008E828F83C004C005C006C007122FFBAAB7
:101B100082AB83A8F0F9900071E0C0E0A3E0C0E0E0
:101B2000A3E0C0E0A3E0C0E08A828B8388F0E912E2
:101B30002A71AA82AB83A8F0F9E58124FCF5818A99
:101B4000828B8388F0E912314F85824CD007D00612
:101B5000D005D00490005EE54CF0C3E49547E46402
:101B6000808548F063F08095F0500B90005FE4F0C2
:101B7000900060F0805990005F7401F090006074F4
:101B800001F0854C82C004C005C006C007122BC3FB
:101B9000A882A983AAF0FBC000C001C002C00390C4
:101BA000666675F086743F122A71AA82AB83A8F02C
:101BB000F9E58124FCF5818A828B8388F0E9123172
:101BC0004FE582D007D006D005D00490005EF0909B
:101BD0000051E0F553A3E0F554C374059553E46454
:101BE000808554F063F08095F0E433F54C70030287
:101BF0001C98C3EE9405EF648094804003021C9807
:101C0000C004C00590005DE553F085538285548380
:101C1000C006C007122FFBAC82AD83AAF0FB900078
:101C200071E0C0E0A3E0C0E0A3E0C0E0A3E0C0E05A
:101C30008C828D838AF0EB122A71AA82AB83ACF07E
:101C4000FDE58124FCF581D007D0068A828B838C48
:101C5000F0EDC004C005C006C00712314FE582D0C8
:101C600007D006D005D00490005EF0C3E4954DE4A3
:101C70006480854EF063F08095F0D005D004500D5F
:101C800090005F7401F0900060E4F0800B90005FC2
:101C9000E4F09000607401F0E54C700122E54970B9
:101CA0000122C3E49547E464808548F063F08095A1
:101CB000F040030220D590005FE4F0900060F0C394
:101CC000E4954DE46480854EF063F08095F0400328
:101CD000021F1B8C7C8D7D900064C004C005C00673
:101CE000C007122B23AA82AB83D007D006D005D021
:101CF00004854A7C854B7D900064C002C003C0040B
:101D0000C005C006C007122B23A882A983757C02D8
:101D1000E4F57D88828983122F23A882A983D007C6
:101D2000D006D005D004D003D002C3E89AE964807D
:101D30008BF063F08095F05003021E2AC004C005AA
:101D400090005DEEF0900071E0F54FA3E0F550A338
:101D5000E0F551A3E0F5528E828F83C006C00712D2
:101D60002FFBAA82AB83ACF0FDC002C003C004C04D
:101D700005854F828550838551F0E552122A71AA5C
:101D800082AB83ACF0FDE58124FCF581D007D00661
:101D9000C004C005C006C007C002C003C004C0051F
:101DA00090000075F0C87442122A7185824F8583B5
:101DB0005085F051F552E58124FCF581D007D0061D
:101DC000D005D004EE2553F582EF3554F583C006D7
:101DD000C007122FFBAA82AB83ACF0FDC002C00388
:101DE000C004C005854F828550838551F0E55212AD
:101DF0003008AA82AB83ACF0FDE58124FCF581D0EC
:101E000007D0068A828B838CF0EDC004C005C00623
:101E1000C00712314FE582D007D006D005D004901C
:101E2000005EF0D005D0040220D5C004C0059000AB
:101E30005DE553F0900071E0F54FA3E0F550A3E0AD
:101E4000F551A3E0F552855382855483C006C0073F
:101E5000122FFBAA82AB83ACF0FDC002C003C0040A
:101E6000C005854F828550838551F0E552122A7155
:101E7000AA82AB83ACF0FDE58124FCF581D007D0CC
:101E800006C004C005C006C007C002C003C004C02D
:101E90000590000075F0C87442122A7185824F8542
:101EA000835085F051F552E58124FCF581D007D0AF
:101EB00006D005D004EE2553F582EF3554F583C0E6
:101EC00006C007122FFBAA82AB83ACF0FDC002C094
:101ED00003C004C005854F828550838551F0E552CB
:101EE000123008AA82AB83ACF0FDE58124FCF581B9
:101EF000D007D0068A828B838CF0EDC004C005C069
:101F000006C00712314FE582D007D006D005D004B5
:101F100090005EF0D005D0040220D58C7C8D7D90A1
:101F20000064C004C005C006C007122B23AA82AB00
:101F300083D007D006D005D004854A7C854B7D90A0
:101F40000064C002C003C004C005C006C007122B55
:101F500023A882A983757C02E4F57D888289831297
:101F60002F23A882A983D007D006D005D004D003A0
:101F7000D002C3E89AE964808BF063F08095F0505A
:101F80000302202CC004C0058E7C8F7D900064C0AD
:101F900004C005C006C007122B23AA82AB83D0075A
:101FA000D006EE2553F57CEF3554F57D8A828B8380
:101FB000C006C007122F23AA82D007D006D005D0B2
:101FC0000490005DEAF08E828F83C006C007122F56
:101FD000FBAA82AB83ACF0FD900071E0C0E0A3E00F
:101FE000C0E0A3E0C0E0A3E0C0E08A828B838CF075
:101FF000ED122A71AA82AB83ACF0FDE58124FCF5D9
:1020000081D007D0068A828B838CF0EDC004C00596
:10201000C006C00712314FE582D007D006D005D0E8
:102020000490005EF0D005D0040220D5C004C005A5
:1020300085537C85547D900064C004C005C006C0F3
:1020400007122B23AA82AB83D007D006EE2553F5C7
:102050007CEF3554F57D8A828B83C006C007122F32
:1020600023AA82D007D006D005D00490005DEAF004
:10207000855382855483C006C007122FFBAA82AB0A
:1020800083ACF0FD900071E0C0E0A3E0C0E0A3E00D
:10209000C0E0A3E0C0E08A828B838CF0ED122A714D
:1020A000AA82AB83ACF0FDE58124FCF581D007D09A
:1020B000068A828B838CF0EDC004C005C006C00781
:1020C00012314FE582D007D006D005D00490005ED3
:1020D000F0D005D004E54820E7012290005F7401AC
:1020E000F09000607401F0C3E4954DE46480854E87
:1020F000F063F08095F040030222CF8C7C8D7D90C0
:102100000064C006C007122B23AA82AB83D007D07D
:1021100006854A7C854B7D900064C002C003C006E2
:10212000C007122B23A882A983757C02E4F57D8861
:10213000828983122F23A882A983D007D006D003D7
:10214000D002C3E89AE964808BF063F08095F05088
:102150000302221090005DEEF0900071E0F54FA3B5
:10216000E0F550A3E0F551A3E0F5528E828F83C0D5
:1021700006C007122FFBAA82AB83A8F0F9C002C0E9
:1021800003C000C001854F828550838551F0E55220
:10219000122A71AA82AB83A8F0F9E58124FCF581AB
:1021A000C002C003C000C00190000075F0C87442B6
:1021B000122A7185824F85835085F051F552E58151
:1021C00024FCF581D007D006EE2553F582EF355477
:1021D000F583122FFBAA82AB83A8F0F9C002C003DB
:1021E000C000C001854F828550838551F0E55212B1
:1021F0003008AA82AB83A8F0F9E58124FCF5818A36
:10220000828B8388F0E912314FE58290005EF022E4
:1022100090005DE553F0900071E0F54FA3E0F550BC
:10222000A3E0F551A3E0F552855382855483C0069F
:10223000C007122FFBAA82AB83A8F0F9C002C0032B
:10224000C000C001854F828550838551F0E5521250
:102250002A71AA82AB83A8F0F9E58124FCF581C03C
:1022600002C003C000C00190000075F0C8744212A3
:102270002A7185824F85835085F051F552E581247E
:10228000FCF581D007D006EE2553F582EF3554F5E5
:1022900083122FFBAA82AB83A8F0F9C002C003C04F
:1022A00000C001854F828550838551F0E552123080
:1022B00008AA82AB83A8F0F9E58124FCF5818A8223
:1022C0008B8388F0E912314FE58290005EF0228C1A
:1022D0007C8D7D900064C006C007122B23AA82ABC0
:1022E00083D007D006854A7C854B7D900064C00270
:1022F000C003C006C007122B23AC82AD83757C02DD
:10230000E4F57D8C828D83122F23AC82AD83D007C0
:10231000D006D003D002C3EC9AED64808BF063F05A
:102320008095F050030223B28E7C8F7D900064C0B4
:1023300006C007122B23AA82AB83D007D006EE2556
:1023400053F57CEF3554F57D8A828B83C006C00738
:10235000122F23AA82D007D00690005DEAF09000E9
:1023600071E0F54FA3E0F550A3E0F551A3E0F5527D
:102370008E828F83122FFBA882A983AAF0FBC00054
:10238000C001C002C003854F828550838551F0E5AE
:1023900052122A71AA82AB83ACF0FDE58124FCF5D0
:1023A000818A828B838CF0ED12314FE58290005E42
:1023B000F02285537C85547D900064C006C00712CE
:1023C0002B23AA82AB83D007D006EE2553F57CEFF2
:1023D0003554F57D8A828B83122F23AA8290005D6B
:1023E000EAF0900071E0FAA3E0FBA3E0FCA3E0FDBB
:1023F000855382855483C002C003C004C005122FD8
:10240000FBAE82AF83A8F0F9D005D004D003D00290
:10241000C006C007C000C0018A828B838CF0ED1219
:102420002A71AA82AB83ACF0FDE58124FCF5818A98
:10243000828B838CF0ED12314FE58290005EF022AA
:10244000900053E4F0A3F0900055E4F0A3F0900066
:1024500057E4F0A3F075553012129C12055290010A
:10246000F41203C574F0C0E07401C0E07480C0E0F1
:10247000122C8E158115811581902580E4F5F012BE
:102480000BE2120E0490021075F080120D90900273
:102490001975F080120D9090022375F080120D9046
:1024A00090022D75F080120D9090023775F0801219
:1024B0000D9090024375F080120D9090024D75F0D2
:1024C00080120D9090025775F080120D90C2A1C23B
:1024D000A2C2A4C2A37431B5550C1211A39003E893
:1024E0001203C5755530900057E0FAA3E0FB4A602F
:1024F0000A1216E9900057E4F0A3F012143BAA82E6
:10250000AB83ACF0FD900075EAF0A3EBF0A3ECF028
:10251000A3EDF0120D3050BD120C7EAA82BA21023A
:10252000800302260E75391390008075F040120C5E
:10253000CC90008075F040123127AB82AC83BB0B8E
:1025400005BC000280030225EA7457C0E07400C095
:10255000E0E4C0E07455C0E07400C0E07440C0E046
:102560007455C0E07400C0E0E4C0E07453C0E0748F
:1025700000C0E0E4C0E07465C0E07402C0E07480B4
:10258000C0E07480C0E07400C0E07440C0E0122974
:10259000BAE58124EEF581E555FB3395E0FC90002A
:1025A00057E0C0E0A3E0C0E0C003C004900055E0E5
:1025B000C0E0A3E0C0E0900053E0C0E0A3E0C0E0D2
:1025C0007477C0E07402C0E07480C0E0122C8EE525
:1025D0008124F5F5817544557545007546009000D8
:1025E0005375F0001219F40224D57480C0E0740011
:1025F000C0E07440C0E074B4C0E07402C0E0748015
:10260000C0E0122C8EE58124FAF5810224D5BA406F
:102610000280030224D5900075E0C0E0A3E0C0E092
:10262000A3E0C0E0A3E0C0E090007AE0C0E0A3E057
:10263000C0E0900000E0C0E0A3E0C0E0A3E0C0E0A4
:10264000A3E0C0E074CEC0E07402C0E07480C0E0DB
:102650007480C0E07400C0E07440C0E0122FAAE5AE
:102660008124F0F5817480C0E07400C0E07440C043
:10267000E074E5C0E07402C0E07480C0E0122C8E0B
:10268000E58124FAF58190000A1203C59000807557
:10269000F040120C530224D5E4F510F511F512F5B3
:1026A00013F514F515F516C3E5159405E5166480C4
:1026B00094804003022843758A00758C00C28D20E7
:1026C000B0FD30B0FDD28CA91430B008108D02805E
:1026D000F80980F520B008108D0280F80980F5C255
:1026E0008C8982122BC3A982AA83ABF0FCC001C0E3
:1026F00002C003C00490000075F0807447122A7174
:1027000085821785831885F019F51AE58124FCF573
:1027100081858C82122BC3A982AF83A8F0FAC001F5
:10272000C007C000C00290000075F0807443122AF8
:1027300071AA82AB83ACF0FDE58124FCF581C00277
:10274000C003C004C0058517828518838519F0E58C
:102750001A122C2085821785831885F019F51AE541
:102760008124FCF581AF8A78008F828883122FFB49
:10277000AF82A883A9F0FAC007C000C001C00285DB
:1027800017828518838519F0E51A122C20AA82ABCE
:1027900083ACF0FDE58124FCF581C002C003C004D8
:1027A000C00590F4FC75F0327434122A71AA82AB21
:1027B00083ACF0FDE58124FCF581751400C002C0F6
:1027C00003C004C00590000075F0207441122A7106
:1027D000AA82AB83ACF0FDE58124FCF581C002C088
:1027E00003C004C00590000075F080743F123008EB
:1027F000AA82AB83ACF0FDE58124FCF581851082D3
:102800008511838512F0E513C002C003C004C00522
:102810001231B2122C20AA82AB83ACF0FDE58124E8
:10282000FCF5818A828B838CF0ED12315785821002
:1028300085831185F012F5130515E4B5150205160B
:102840000226A78510828511838512F0E5131231C7
:10285000B2AA82AB83ACF0FDE4C0E0C0E074A0C0DB
:10286000E07440C0E08A828B838CF0ED123008AABD
:1028700082AB83ACF0FDE58124FCF5818A828B83F9
:102880008CF0ED12315785821085831185F012F599
:102890001322C2E72220F71430F6148883A882207E
:1028A000F507E6A88375830022E280F7E49322E02F
:1028B00022AAF0FBE582857CF0A4FCADF0E58385DF
:1028C0007CF0A42DFDE435F0FEE582857DF0A42D9D
:1028D000FDE5F03EFEE433FFEA857CF0A42EFEE544
:1028E000F03FFFE583857DF0A42EFEE5F03FFFE598
:1028F00082857EF0A42EFEE5F03FFFEB857CF0A400
:102900002FFFEA857DF0A42FFFE583857EF0A42FBD
:10291000FFE582857FF0A42F8EF08D838C8222FBD1
:102920007A20E4FCFDFEFFE5822582F582E5833313
:10293000F583E5F033F5F0EB33FB4017DAE980423D
:10294000E5822582F582E58333F583E5F033F5F002
:10295000EB33FBEC33FCED33FDEE33FEEF33FFECFA
:10296000957CED957DEE957EEF957F4013EC957C03
:10297000FCED957DFDEE957EFEEF957FFF43820198
:10298000DABEEB22AA08AB09AC0A8A828B838CF0F0
:10299000122895FA0508E4B5080205098A822285FD
:1029A000820885830985F00A850B6D850C6E850D7F
:1029B0006F850E709029840233EFC00F85810FE57B
:1029C0000F24F8F570E50F24FBF88608088609083F
:1029D000860AE50F24F8F8866D08866E08866F90E3
:1029E00029841233EFD00F22FFA881181812381F44
:1029F000D2D133E6400730E70B7582012220E7068B
:102A000075820022C2D1123801E97003F5822230AA
:102A1000D101B3E433F58222FFA881181812381FC0
:102A2000D2D133E6400730E70B7582002220E7065B
:102A300075820122C2D1123801E97003F582222089
:102A4000D101B3E433F582227A10E4FBFCE5822560
:102A5000E0F582E58333F583EB33FBEC33FCEB9558
:102A60007CF5F0EC957D4006FCABF0438201DADDAD
:102A7000221238CCBC000302386BEF60FA30D5026A
:102A8000B2D1E583B4FF03023881E582B4FF0302CB
:102A90003881258340072482400B02386B2483143D
:102AA0005003023881F582EA8DF0A4A8F0EA8EF096
:102AB000A428F8E435F0F9EB8DF0A428E935F0F915
:102AC000E433CA8FF0A429F9EA35F0FAEBF88EF076
:102AD000A429F9EA35F0FAE433FBEC8DF0A429F9E6
:102AE000EA35F0FAE43BFBE88FF0A42AFAEB35F084
:102AF000FBE433CCFD8EF0A42AFAEB35F0FBE43C8A
:102B0000FCED8FF0A42BFBEC35F0FC20E703123832
:102B10009902384AE58330E709F4F583E582F4F554
:102B200082A322E582857CF0A4C582C0F0857DF079
:102B3000A4D0F025F0C583857CF0A42583F58322FD
:102B4000F9E57C457D457E457F60777800C308E5E3
:102B50007F20E73BE57C25E0F57CE57D33F57DE5F1
:102B60007E33F57EE57F33F57FE582957CE58395C1
:102B70007DE5F0957EE9957F50D4C3E57F13F57F21
:102B8000E57E13F57EE57D13F57DE57C13F57CE5AB
:102B900082957CFCE583957DFDE5F0957EFEE995CB
:102BA0007F4007F98EF08D838C82C3E57F13F57F1C
:102BB000E57E13F57EE57D13F57DE57C13F57CD888
:102BC000CEE922E4AC82FBFAF97486023903FBC237
:102BD000D530E715D2D5E4C39582F582E49583F527
:102BE00083E495F0F5F0E49BFBE57F30E717B2D581
:102BF000E4C3957CF57CE4957DF57DE4957EF57EDA
:102C0000E4957FF57FEB12291F30D513FBE4C395C4
:102C100082F582E49583F583E495F0F5F0E49B2258
:102C20001238CC7900E583B58202800D5003123949
:102C30000DE583C39582123927E5D0C465D020E124
:102C400017EA2DFAEB3EFBEC3FFC500974011239F8
:102C500027EC4480FC02384AC3EA9DFAEB9EFBEC69
:102C60009FFC500FC3E499F9E49AFAE49BFBE49CBF
:102C7000FCB2D112389902384A0242F685826B853D
:102C8000836C85F06D851D6E902C79023D49C00FD7
:102C900085810FE50F24FBF56EE50F24FBF8866BAD
:102CA00008866C08866D902C79123D49D00F22E57C
:102CB0007C457D60467A01E57C25E0F57CE57D3349
:102CC0004012F57DE582957CE583957D40030A8081
:102CD000E6C3E57D13F57DE57C13F57CC3E58295C0
:102CE0007CF5F0E583957D4005F58385F082C3E5AD
:102CF0007D13F57DE57C13F57CDAE122858278850C
:102D0000837985F07AF57BE5784579457A857BF09E
:102D1000C2F745F0701CE574457545768577F0C2BD
:102D2000F745F0700D751B21E4F51C900000E4F5EB
:102D3000F0228574828575838576F0E57712289276
:102D4000AE82AF83A8F0F9857882857983857AF0A1
:102D5000E57BC006C007C000C001122892AA82AB62
:102D600083ACF0FDD001D000D007D006C002C00374
:102D7000C004C0058E828F8388F0E9122A18AA82C7
:102D8000E58124FCF581EA6003022E61C074C07500
:102D9000C076C077857882857983857AF0E57B1265
:102DA0003008AA82AB83ACF0FDE58124FCF5818A72
:102DB000828B838CF0ED12430BAA82AB83ACF0FDC7
:102DC000C002C003C004C005E4C0E0C0E0C0E0C071
:102DD000E08574828575838576F0E577122A18AED2
:102DE00082E58124FCF581D005D004D003D002EE29
:102DF0007003022F02C002C003C004C005E4C0E09B
:102E0000C0E0C0E0C0E0857882857983857AF0E50E
:102E10007B122A18AE82E58124FCF581D005D0040E
:102E2000D003D002EEB40100E433FE600A7EDB7F03
:102E30000F7849794080087EDB7F0F784979C0C0E0
:102E400006C007C000C0018A828B838CF0ED122C73
:102E500020AA82AB83ACF0FDE58124FCF581022F32
:102E600002C078C079C07AC07B85748285758385FD
:102E700076F0E577123008AE82AF83A8F0F9E581ED
:102E800024FCF5818E828F8388F0E912430BAE8299
:102E9000AF83A8F0F98E028F038804E9B2E7FDC082
:102EA00002C003C004C005E4C0E0C0E0C0E0C0E070
:102EB000857882857983857AF0E57B122A18AE823F
:102EC000E58124FCF581D005D004D003D002EE606A
:102ED0000A7EDB7F0F78C979BF80087EDB7F0F78A1
:102EE000C9793FC006C007C000C0018A828B838CAD
:102EF000F0ED122C20AA82AB83ACF0FDE58124FC1E
:102F0000F5818A828B838CF0ED2220F71030F61148
:102F10008883A88220F507F6A88375830022F280B3
:102F2000F7F022C2D5E58330E70DD2D5E4C3958210
:102F3000F582E49583F583E57D30E70DB2D5E4C3F2
:102F4000957CF57CE4957DF57D122A4830D50BE41F
:102F5000C39582F582E49583F58322AA82AB56ACB1
:102F600057AD588B828C838DF0EA122F0A0556E4F8
:102F7000B5560205572285825685835785F05885B8
:102F8000596B855A6C855B6D855C6E902F5B123D2D
:102F900049AA82AB83AC56AD57AE588C828D838ED6
:102FA000F0E4122F0A8A828B8322C00F85810FE5FD
:102FB0000F24F8F56EE50F24FBF8865608865708AF
:102FC0008658E50F24F8F8866B08866C08866D90A5
:102FD0002F5B123D49AA82AB83AC56AD57AE588CDD
:102FE000828D838EF0E4122F0A8A828B83D00F2287
:102FF000A8811818C6B2E7C6022C20AC83AB827A2F
:10300000007900748E0231BB1238CC30D502B2D1B7
:10301000BF0009BC000302388E023881BC000302E5
:10302000386BE583B4FF0BE582B4FF0302388E02F0
:10303000386BE582B4FF03023881C39583500724BF
:103040007F400B02386B2480145003023881C0E0AB
:10305000E4CCCBCAF98D7C8E7D8F7EEF54F0C4F525
:103060007F758306857FF0EB84F582E9C4F9EAC4B5
:10307000FAEBC4FBEC540FC47803D6FC18EBD6FB78
:1030800018EAD6FA8582F0EDA4A8F0FD8582F0EE6C
:10309000A428FEE435F0F88582F0EFA428FFE4359B
:1030A000F0F8E99DF9EA9EFAEB9FFBEC98FCAD7C09
:1030B000AE7DAF7E30E7101582E92DF9EA3EFAEBDE
:1030C0003FFBE43CFC80EDC082D58398C3E933F933
:1030D000EA33FAEB33FBEC33FCC3E99DEA9EEB9F4A
:1030E000EC9400B3E413F9D002D0E0C44AFAD00360
:1030F000D0E0C44BFBD004D0E0F5F0540FC44CFC3E
:10310000D082158230F40FD3EC13FCEB13FBEA13DF
:10311000FAE913F90582E930E70A74012AFAE43B77
:10312000FBE43CFC023862AA82AB83ACF07D007EFB
:10313000008A828B838CF0122895FFA3AA82AB832E
:10314000EF60070DBD00EA0E80E78D828E83227F3F
:1031500086124691F582221246B6C3749E9582402D
:1031600039790012392730D126E9F42401F582EAB1
:10317000F43400F583EBF43400F5F0ECF434007033
:103180000AE582458345F0700122E430E70F22EC26
:1031900020E71489828A838BF02230D10AE4F582F9
:1031A000F583F5F074802274FFF582F583F5F074F1
:1031B0007F22FCABF0AA83A982749EF582C2D1EC77
:1031C00030E716D2D1E9F42401F9EAF43400FAEB3D
:1031D000F43400FBECF43400FC12389902384A85D0
:1031E0005D82855E831248EC85826CE56C600A0521
:1031F00066E4B5660605678002D20B856C82227A8A
:10320000007B00300B057894760022C002C00312C8
:1032100031DFAC82D003D002BC0002802DBC08029A
:103220008014BC09028023BC0A02801EBC0D0280EF
:1032300019BC20218014EA4B60D11ABAFF011B157A
:103240006674FFB56602156780C1EA4B60BDEA246B
:1032500094F8760022EC7009EA2494F87600D20BF8
:1032600022ECB56B07EA2494F8760022C3EA940FA7
:10327000EB940050968A058B060ABA00010BED24E8
:1032800094F8A60402320BAA827B7FC3EA6480947E
:10329000B0401174B98AF063F08095F04006EA24DA
:1032A000D0FB8030C3EA648094C1401174C68AF0B8
:1032B00063F08095F0400674C92AFB8017C3EA6466
:1032C0008094E1400F74E68AF063F08095F040044A
:1032D00074A92AFBC3EB956850038B822275827F09
:1032E00022AA827562007563007564007565008AA4
:1032F00000E6FA60148A82C000123287AB82D000E6
:10330000C3EB956840030880E886038B82C00012F7
:103310003287AA82D000C3E5689A405085687C75E0
:103320007D00757E00757F0085628285638385647C
:10333000F0E565C002C0001228B1AB82AC83ADF0ED
:10334000FED000D0028B628C638D648E65E4FBFC42
:10335000FDEA2562FAEB3563FBEC3564FCED35657F
:10336000FD8A628B638C648D6508809D8562828591
:1033700063838564F0E56522AA8275620075630047
:103380007564007565008A00E6FB60228B82C003CD
:10339000C000123287AC82D000D003C3EC956840E5
:1033A0000DBB2D028008BB2B0280030880DA880247
:1033B0008603BB2D03D38001C3920EBB2D02800375
:1033C000BB2B010A8A821232E1300E13C3E49562EC
:1033D000FAE49563FBE49564FCE49565FD8008AA36
:1033E00062AB63AC64AD658A828B838CF0ED228521
:1033F000825D85835EE4F566F567F56AC20BAA6DAA
:10340000AB6EAC6F8A828B838CF0122895FD7401B1
:103410002AF56DE43BF56E8C6FEDFA70030237F818
:10342000BA25028003023791D20AC2087568007576
:103430006900C20CC20DAB6DAC6EAD6F8B828C831C
:103440008DF0122895FAA3AB82AC838B6D8C6E8DB8
:103450006F8B828C838DF0122895F56B8A06BE30B7
:103460000040168A06EE24C6400FE56975F00AA4EE
:10347000FEEA24D02EF56980C38A06BE6100400AA8
:103480008A06EE248540035302DFBA250280ADBAD6
:103490002A028057BA42028048BA43028052BA4494
:1034A000030235B4BA45030235CABA46030235CA27
:1034B000BA47030235CABA49030235B4BA4C02808E
:1034C00025BA4E0302361FBA4F030235BABA530269
:1034D0008020BA55030235B2BA58030235C202360B
:1034E00047D20802343CD20902343CD20C02343CAC
:1034F000D20D200C17E57024FDF88870860308862D
:103500000408860518188B5F8C608D61E569700B67
:10351000300D047B0180027BFF8B69756800C3E579
:1035200068956950051231DFAA82300B07E5687093
:1035300003023647EA601ABA2002800DBA090280F7
:1035400008BA0D028003BA0A03300D05E569B568B3
:103550001FE56860C9200C12056AAB5FAC60AD6105
:103560008B828C838DF0E4122F0A75680002364737
:10357000BA081CE56860A7200C11AB5FAC60AD61B8
:103580001BBBFF011C8B5F8C608D611568808F20D9
:103590000C1BAB5FAC60AD618B828C838DF0EA124B
:1035A0002F0A0BBB00010C8B5F8C608D61056802DC
:1035B000351EC20A75680A023647C20A75680802D3
:1035C0003647C20A7568100236471231FF7894E612
:1035D0006075200C72E57024FDF88870867108868D
:1035E00072088673181885715F85726085736190A3
:1035F000009475F0401246C8AE82AF83ABF0FC85F4
:1036000071828572838573F0EE122F0AA3EF122F59
:103610000AA3EB122F0AA3EC122F0A056A8028E5F1
:103620007024FDF88870860308860408860518183B
:103630008B5F8C608D618B828C838DF0E566122FA1
:103640000AA3E567122F0AE5687003023791123169
:10365000FF7894E67003023791300C03023791E54E
:103660007024FDF8887086030886040886051818FB
:103670008B5F8C608D61056A200A0302370A30096E
:1036800035855F71856072856173758294123378B8
:10369000AE82AF83ABF0FC8571828572838573F057
:1036A000EE122F0AA3EF122F0AA3EB122F0AA3EC9C
:1036B000122F0A023791300826855F718560728566
:1036C0006173758294123378AE82AF83ABF0FC8560
:1036D00071828572838573F0EE122F0A023791850D
:1036E0005F71856072856173758294123378AE82E2
:1036F000AF83ABF0FC8571828572838573F0EE1227
:103700002F0AA3EF122F0A023791300934855F7117
:103710008560728561737582941232E1AE82AF83E7
:10372000ABF0FC8571828572838573F0EE122F0AEF
:10373000A3EF122F0AA3EB122F0AA3EC122F0A8079
:1037400050300825855F718560728561737582943C
:103750001232E1AE82AF83ABF0FC85718285728359
:103760008573F0EE122F0A8028855F71856072855F
:1037700061737582941232E1AE82AF83ABF0FC8547
:1037800071828572838573F0EE122F0AA3EF122FD8
:103790000A200B030233FEAB6DAC6EAD6F8B828CD7
:1037A000838DF0122895FEA3AB82AC838B6D8C6E5B
:1037B0008D6FEEFA70030233FEBA25E18B828C83A3
:1037C0008DF0122895FABA6E028003BA4ECFE570DA
:1037D00024FDF88870860208860608860718188A6D
:1037E0005F8E608F618A828E838FF0E566122F0A6A
:1037F000A3E567122F0A80A5AA6A7B008A828B83C1
:10380000227901AA82E68F82B5821318E6B5F00EFE
:1038100018E6B5830918E68A82B58202790022B4D7
:10382000800FE5F0700AE5837006E58270027F0084
:10383000EFB6801518B6001018B6000B18B60006C3
:1038400008080876002208080822B98003EA13B3A2
:103850004010EA2401FAE43BFBE43CFC50047C8089
:103860000582BC000EBB000BBA0008E4F5F0F5833E
:10387000F58222A2D1E582138CF092F78B838A82A3
:1038800022E4F583F58275F080F4A2D11322E4F5E9
:1038900083F58275F0C0747F227804EC7011E582A4
:1038A00024F8500AF582E4C9CACBFCD8EF22EC78A0
:1038B00020058220E713D5820122C3E933F9EA33D8
:1038C000FAEB33FBEC33FCD8EA158222AA82AB83F5
:1038D000A2F73392D16002D2F7F582ACF0E58124F1
:1038E000F9F8E6FD08E6FE0886F008E6A2F733924E
:1038F000D56002D2F7F583AFF022FCABF0AA83A922
:1039000082749EC2D1F58212389902384AE582C586
:1039100083F582A2D133A2D592D11392D5ECCFFCFC
:10392000EBCEFBEACDFA226040F82582500274FF0C
:10393000F582E824F8501ECCCBCAF9E4CC24F85028
:1039400014CBCAF9E4CB24F8500BCAF9E4CA24F822
:10395000500379002224086010F8C3EC13FCEB1329
:10396000FBEA13FAE913F9D8F122AA82747BC0E0CA
:103970007439C0E0C05DC05E8A82220564E4B5642B
:1039800002056522AA8274302AFA24C6500A7407F6
:103990002AFA300F034302208A8202396AE582FA4A
:1039A000C4540FF582C002123984D002740F5AF544
:1039B00082023984AA5FAB60AC61AD62AE63756AA6
:1039C00020EE2EFEED235401FF4206EA2AFAEB33E5
:1039D000FBEC33FCED33FDC3EE95664008EEC3957A
:1039E00066FE430201D56AD98A5F8B608C618D6265
:1039F0008E632278A0E624D075F00AA4FA78A1E6B6
:103A000024D02AFA789F8603BB2D04C3E49AFA7562
:103A10006601C3E464808AF063F08095F0502975F4
:103A20006A038A0374F6256A401C0566E56A142455
:103A300094F8E56A2494F98704A604772E1BEBFA20
:103A40006004056A80DE8B02EA30E70D7895860314
:103A50007896A6037895762E0AE568600AE56804EC
:103A6000FB2566F5668005301A02056678948603A4
:103A7000E4BB2D0104FB7006201503301602056619
:103A8000301303023B3A301457EB600C75822DC0A3
:103A90000212396AD002801C30150C75822BC002CC
:103AA00012396AD002800D30160A758220C00212C7
:103AB000396AD00278958604BC2E0C758230C0021B
:103AC00012396AD0021567AC671567C3E5669C407A
:103AD00003023B7E758230C00212396AD00280E751
:103AE000AC671567C3E5669C500C758220C0021256
:103AF000396AD00280EA78948604BC2D0C75822D38
:103B0000C00212396AD002801C30150C75822BC09D
:103B10000212396AD002800D30160A758220C00266
:103B200012396AD00278958604BC2E52758230C054
:103B30000212396AD00215678044EB600E75822D3F
:103B4000C00212396AD0021567802030150E7582C6
:103B50002BC00212396AD0021567800F30160C751F
:103B60008220C00212396AD002156778958603BB9D
:103B70002E0C758230C00212396AD0021567756A40
:103B800001C21CE56A2494F88603BB4503023C3B52
:103B9000BB2E348A03C3E464808BF063F08095F01D
:103BA000500F758230C00312396AD0031B8B02801C
:103BB000E48B02D21CE5687038201A03023C3B7586
:103BC000822E12396A8074301C278A03EB30E71F7B
:103BD000C3E464808568F063F08095F0500C7582D2
:103BE00030C00312396AD00315680B8B0280DD8B5D
:103BF00002301C0EC3E464808568F063F08095F0A9
:103C00005021E56A2494F886038B82C00212396A37
:103C1000D002301C0EE56A2494F88603BB2E028085
:103C20000215681567C3E464808568F063F08095C9
:103C3000F04003201C05056A023B83C3E4648085D1
:103C400068F063F08095F0500A75823012396A1579
:103C50006880E830130FAA671567EA60087582204C
:103C600012396A80F122E5687003301A0D74072555
:103C700068FAE567C39AF5678006E56724FAF56791
:103C8000756A0078948602BA2B0F20150C7894760A
:103C900020201605756A010567201319AA67C3E479
:103CA00064808AF063F08095F0500A7582201239A2
:103CB0006A156780E7C21CE56A2494F88602BA0098
:103CC000028069BA451F300F027665C3E4648085BF
:103CD00068F063F08095F0500A75823012396A15E9
:103CE0006880E8D21CC3E56A9402E433FA7014EAEF
:103CF000700EC3E464808568F063F08095F0400343
:103D0000301C16E56A2494F886028A8212396AE524
:103D10006A24FD50121568800E7402B56A09301AC3
:103D20000675822E12396A056A023CB7301319AA49
:103D300067C3E464808AF063F08095F0500A75826E
:103D40002012396A156780E72285825D85835EE4EB
:103D5000F564F565AA6BAB6CAC6D8A828B838CF0D5
:103D6000122895FD74012AF56BE43BF56C8C6DED22
:103D7000FA70030242EFBA250280030242E7C2133F
:103D8000C214C215C216C217C218C219C21AC21072
:103D9000C211C2127566007567007568FFAB6BAC27
:103DA0006CAD6D8B828C838DF0122895FAA3AB825B
:103DB000AC838B6B8C6C8D6DBA25078A8212396A45
:103DC00080928A06BE3000402E8A06EE24C6402726
:103DD00074FFB56813E56775F00AA4FEEA24D02ED7
:103DE000F56770BFD21480BBE56875F00AA4FEEADF
:103DF00024D02EF56880ACBA2E0A74FFB568A4757D
:103E00006800809F8A06BE6100400E8A06EE248507
:103E100040075302DFD20F8002C20FBA2002807522
:103E2000BA2303023EA4BA2A03023EA9BA2B028097
:103E30005FBA2D028055BA4202805FBA4303023E48
:103E4000EEBA4403024029BA4503024043BA46038E
:103E500002403FBA4703024047BA4903024029BA29
:103E60004C02803BBA4E0302404BBA4F0302403033
:103E7000BA5003023FC2BA5303023F12BA550302BB
:103E80004035BA580302403A024075D213023DA3AE
:103E9000D215023DA3D216023DA3D218023DA3D2F1
:103EA00019023DA3D21A023DA374FFB56820301851
:103EB0000BE56E14F8886E8667023DA3E56E24FE5E
:103EC000F8886E8606088607188E67023DA33018AC
:103ED0000BE56E14F8886E8668023DA3E56E24FE3D
:103EE000F8886E8606088607188E68023DA330188B
:103EF0000AE56E14F8886E8602800FE56E24FEF8DF
:103F0000886E8603088604188B028A8212396A0238
:103F1000407AE56E24FDF8886E86030886040886DC
:103F20000518188B5F8C608D618B828C838DF012ED
:103F30003127AB82AC838B6974FFB56803856968F0
:103F400020131DC3E56995675016E567C39569F5AC
:103F500067AB671567EB600875822012396A80F1DC
:103F6000855F828560838561F0122895FBFA602960
:103F7000AB681568C3E464808BF063F08095F05003
:103F8000188A8212396AAB5FAC60AD610BBB00016D
:103F90000C8B5F8C608D6180C720130302407AC355
:103FA000E5699567400302407AE567C39569F5675F
:103FB000AB671567EB700302407A75822012396A8D
:103FC00080EEE56E24FDF8886E8603088604088678
:103FD0000518188B5F8C608D61E561FB30E7047A12
:103FE000438013EB546060047A50800AEB30E6049F
:103FF0007A4980027A588A82C00212396A75823AF6
:1040000012396A75823012396A75827812396AD02B
:1040100002BA4902800BBA500280068560821239CA
:104020009D855F8212399D8051D21775660A804A3C
:10403000756608804575660A8040756610803BD2BB
:10404000108037D2118033D212802FE56E24FDF814
:10405000886E860308860408860518188B5F8C60B6
:104060008D618B828C838DF0E564122F0AA3E56548
:10407000122F0A80058A8212396A20100620110345
:10408000301270E56E24FCF8886E860308860408FA
:1040900086050886061818188B5F8C608D618E6205
:1040A000E55FE560E561E5628B828C838DF0EE1261
:1040B00048EE74FFB56803756806301227747F55A3
:1040C00062FB8B63E563EB2BFB8B63E56130E706FB
:1040D00074014563F563E5632468400674992563BC
:1040E0004002D211301106123C66023D541239F3DF
:1040F000023D54E5667003023D547B9930182BE570
:104100006E14F8886EE6FC3395E0FDFEFF8C5F8D43
:10411000608E618F6220175EAC5F7D007E007F0045
:104120008C5F8D608E618F62804C30191FE56E242C
:10413000FCF8886E86040886050886060886071837
:1041400018188C5F8D608E618F62802AE56E24FE68
:10415000F8886E860408860518ED3395E0FEFF8C1E
:104160005F8D608E618F6220170CAC5FAD607E004A
:104170007F008E618F62301A43E55F45604561457F
:104180006260397408B5660C758230C00312396AF2
:10419000D00380287410B56623758230C0031239AD
:1041A0006AD003300F0C758278C00312396AD003CD
:1041B000800A758258C00312396AD003301725ACC3
:1041C0005FAD60AE61E562FF30E717C3E49CFCE4DD
:1041D0009DFDE49EFEE49FFF8C5F8D608E618F628B
:1041E0008002C217756900D21B8B00756300C00086
:1041F0001239B4D000201B0DE563C4FCE6FD4CF67B
:104200001888038002A6630569B21BE55F45604517
:1042100061456270D68803E56770037567012014F5
:104220001A201317E56904FCC39567500E758220A8
:10423000C00312396AD003156780E930170E758202
:104240002DC00312396AD00315678024E569602008
:1042500030150E75822BC00312396AD003156780A2
:104260000F30160C758220C00312396AD00315670F
:1042700020131EAC671567C3E5699C5027301404F2
:104280007C3080027C208C82C00312396AD003808B
:10429000E2C3E56995675009E567C39569F56780ED
:1042A000037567008B00AB691569EB6022B21B20B8
:1042B0001B0A08E6C4540FFB8B6380078603740F48
:1042C0005BF563856382C000123984D00080D720FB
:1042D0001303023D54AB671567EB7003023D547541
:1042E000822012396A80EE8A8212396A023D548530
:1042F000648285658322AA82BA0A0810990280FB2B
:1043000075990D10990280FB8A992285825D8583BB
:104310005E85F05FF560E4F569F56A855D82855E2E
:1043200083855FF0E56012289285826185836285CE
:10433000F063F564E4C0E0C0E07480C0E0743FC0A6
:10434000E08561828562838563F0E5641229E8ACCB
:1043500082E58124FCF581EC602AC061C062C06303
:10436000C06490000075F080743F1230088582614F
:1043700085836285F063F564E58124FCF5817569C8
:1043800002E4F56A74A3C0E07430C0E07489C0E050
:10439000743EC0E08561828562838563F0E56412C6
:1043A00029E8AC82E58124FCF581EC70030244919C
:1043B000C061C062C063C0649067AF75F03B743F7A
:1043C000122A71AC82AD83AEF0FFE58124FCF58149
:1043D000E4C0E0C0E0C0E0743FC0E08C828D838E1A
:1043E000F0EF122FF0AC82AD83AEF0FFE58124FC3C
:1043F000F581E4C0E0C0E0C0E0743FC0E08C828D95
:10440000838EF0EF122FF0AC82AD83AEF0FFE5812A
:1044100024FCF581C061C062C063C0648C828D835E
:104420008EF0EF122C2085826B85836C85F06DF504
:104430006EE58124FCF58174D7C0E074B3C0E074EC
:10444000DDC0E0743FC0E08561828562838563F0F2
:10445000E564122C20AC82AD83AEF0FFE58124FC34
:10446000F581C004C005C006C007856B82856C83DA
:10447000856DF0E56E12300885826185836285F076
:1044800063F564E58124FCF5810569E4B5690205FD
:104490006A8561828562838563F0E564122892AC47
:1044A00082AD83AEF0FFE4C0E0C0E07480C0E07491
:1044B00039C0E08C828D838EF0EF122A18AC82E531
:1044C0008124FCF581EC600BAC61AD62AE63AF643E
:1044D0000245F4C061C062C063C0648561828562C8
:1044E000838563F0E564122A71858265858366851C
:1044F000F067F568E58124FCF581C065C066C0679A
:10450000C06890869175F05074BD122A71AA82AB72
:1045100083A8F0F9E58124FCF58174F6C0E07410FD
:10452000C0E074F1C0E074BEC0E08A828B8388F082
:10453000E9122C20AA82AB83A8F0F9E58124FCF5CE
:1045400081C065C066C067C0688A828B8388F0E9D5
:10455000122A71AA82AB83A8F0F9E58124FCF581C7
:10456000C061C062C063C0648A828B8388F0E91234
:104570002A7185826B85836C85F06DF56EE58124EB
:10458000FCF58174D3C0E074CCC0E074B4C0E074B6
:104590003FC0E08565828566838567F0E568122CFB
:1045A00020AA82AB83A8F0F9E58124FCF581C00242
:1045B000C003C000C001856B82856C83856DF0E50A
:1045C0006E123008AA82AB83A8F0F9E58124FCF5CD
:1045D00081C002C003C000C00185618285628385FD
:1045E00063F0E564122C20AC82AD83AEF0FFE58170
:1045F00024FCF581C374019569E46480856AF063E5
:10460000F08095F05004EFB2E7FFAA69E56ACA2589
:10461000E0CA33CA25E0CA33FBEA24EAF582EB3468
:1046200002F583E493FAA3E493FBA3E493F8A3E4F1
:1046300093F9C002C003C000C0018C828D838EF04C
:10464000EF122C20AC82AD83AEF0FFE58124FCF5A7
:1046500081C004C005C006C007E4C0E0C0E0C0E0FF
:10466000C0E0855D82855E83855FF0E560122A1873
:10467000AA82E58124FCF581D007D006D005D004BC
:10468000EA6004EFB2E7FF8C828D838EF0EF227F29
:104690009E1246B630D10302386BC3EF95825009A3
:1046A00074FFF5F0F583F5822279001239278982AB
:1046B0008A838BF0EC22AA82AB83A2F73392D1607B
:1046C00002D2F7F582ACF022AA82AB83ACF0757807
:1046D00000757900C21F8A058B068C078D828E8338
:1046E0008FF0122895F8B820028003B809070DBD95
:1046F00000EA0E80E78D028E038F04B82D0DD21DC7
:1047000074012DFAE43EFB8F04800EC21DB82B0904
:1047100074012DFAE43EFB8F047574007575007505
:1047200076007577008A058B068C078D828E838FC5
:10473000F0122895F8F9B930004005E824C6501267
:104740008D828E838FF0122895F8B82E0280030296
:1047500047FD8D828E838FF0122895F9B92E05D2F0
:104760001F0247F5C005C006C007C005C006C00748
:10477000C001C074C075C076C07790000075F0208D
:104780007441122A7185827485837585F076F57778
:10479000E58124FCF581D001D007D006D005E933AE
:1047A00095E0FDE924D0F582ED34FFF583122FFB6F
:1047B000AD82AE83AFF0F9C005C006C007C005C02A
:1047C00006C007C0018574828575838576F0E5771C
:1047D000122C2085827485837585F076F577E581C6
:1047E00024FCF581D007D006D005D007D006D0052F
:1047F000301F0215780DBD00010E02472B5300DF5C
:104800008D828E838FF0E8122F0AB8456274012DD5
:10481000FAE43EFB8F048A828B838CF0122895FD8C
:10482000BD2D09D21E0ABA000D0B800AC21EBD2B77
:10483000050ABA00010B7579008A828B838CF0120D
:104840002895FDFEBE3000401D8D06EE24C64016A4
:10485000E57975F00AA4F579ED24D02579F5790A82
:10486000BA00D60B80D3301E06C3E49579F579E5FE
:10487000782579F579E5796055E57930E728C074D0
:10488000C075C076C07790CCCD75F0CC743D122A3F
:104890007185827485837585F076F577E58124FCD2
:1048A000F581057980CFC074C075C076C07790005F
:1048B0000075F0207441122A718582748583758594
:1048C000F076F577E58124FCF581157980A7301D18
:1048D0000F857474857575857676E577B2E7F5771B
:1048E0008574828575838576F0E57722E473C0E070
:1048F000F84582458345F07009F5F0FBFCFDFE02AA
:1049000049BCE823A2F792E0F8A982AA83D2F7ABC8
:10491000F07C007E07C3749798404074FF2EFE74AD
:104920000A89F0A4F985F082740A8AF0A4FA85F065
:1049300083740A8BF0A4FB740529F9EA3582FAEB3B
:104940003583FB740035F0FCC3EC13FCEB13FBEA7E
:1049500013FAE913F908EC70EF80BAE8C3947FF812
:104960008B838EF0E4FBFCFDFEFF08C3E933F9EA1C
:1049700033FAE58333F583EB3BD4FBEC3CD4FCED1D
:104980003DD4FDEE3ED4FEEF3FD4FF602D05F07424
:10499000052BD4FBE43CD4FCE43DD4FDE43ED4FE42
:1049A000E43FD4FF758204C3EF13FFEE13FEED1353
:1049B000FDEC13FCEB13FBD582EDD8AF7894D0E07F
:1049C00020E704762B8002762D087906E7C4540F81
:1049D0004430F608B90603762E08E7540F4430F643
:1049E0000819B902E7764508E5F020E704762B8040
:1049F00004762DF4040875F00A844430F608E5F0D6
:104A00004430F608E4F690009475F040220000006F
:00000001FF
