:100000000200037581A21202F4E582600302006F10
:10001000787579007A567B007C1A7D00EC4D601C67
:1000200088828983E493A3A882A9838A828B83F040
:10003000A3AA82AB831CBCFFE31D80E07582007520
:1000400083007C567D00EC4D600AE4F0A31CBCFFED
:10005000F51D80F27582007583007C007D00EC4DFB
:10006000600AE4F0A31CBCFFF51D80F212007412BC
:10007000223A80FE2200000000000001010101A1DF
:1000800000A60000000000000039303333733F0049
:10009000000000020EE54572726F723A20436F75E0
:1000A0006C64206E6F742066696E6420424D4D3121
:1000B00035302073656E736F722028436869702035
:1000C00049443A20307825303258290D0A005072C0
:1000D000657373207265737461727420746F20632A
:1000E0006865636B20616761696E210D00444F4E46
:1000F00045212043686970204944203D20307825FF
:100100003032580D0A00424D4D31353020696E694C
:100110007469616C697A6564207375636365737370
:1001200066756C6C792120436869702049443A20D7
:100130003078253032580D0A00436F6D6D616E6462
:100140003A20257300526573706F6E73653A2025EF
:10015000730D0A0041542B44564944303030300D61
:100160000A00253033642C253033642C253031646B
:100170002C2530316400253031642C253032642C3C
:10018000256C642C25342E31660A00663A253034FD
:100190006C642C2064313A25642C2064323A256446
:1001A0002C20626F756E645F646563746563743A76
:1001B0002025640D0A005475726E212121202564CA
:1001C0000D0A004175746F206D6F64652066696E5D
:1001D0006973686564210D0A000D0A45464D384C67
:1001E000423132204A44592D343020536C617665B7
:1001F00020546573742E0D0A0041542B5645520D40
:100200000A0041542B424155440D0A0041542B52DF
:100210004649440D0A0041542B445649440D0A00F6
:1002200041542B5246433030320D0A0041542B507A
:100230004F57450D0A0041542B434C53530D0A00B0
:1002400041542B44564944454631310D0A004D6115
:100250007374657220736179733A2025732C0D0ACB
:100260000021253033642C253033642C25642C2563
:1002700064004A6F79737469636B205265636569C2
:100280007665643A205678203D2025642C205679E6
:10029000203D2025642C204F72646572203D20256E
:1002A000642C204175746F203D2025642C20636EE2
:1002B000743A2025640D0A002A2A2A20424144204B
:1002C0004D455353414745202A2A2A3A2025730D8C
:1002D0000A00302C30302C2530346C642C25342E20
:1002E00031660A0000000000920A063FDB0FC93F9A
:1002F000920A863F75A7007597DE7597AD75FF80EA
:1003000075EF0675A71075C12075A70075A9007552
:10031000A900E5A930E7FB75A90375A903E5A93094
:10032000E7FB43A4C043A50643A60175E10375E2BC
:100330000075E34175D40775D5F9759810758DE68C
:10034000858D8B53890F438920D28ED299D2A07587
:10035000A21175A1E075F80175A71075C00075D4DC
:10036000FF75D5FF43F308D2C2D2AF75A7007582DF
:100370000022AA82438E407592B87593FF859294AD
:100380008593957591047B00C3EB9A500BE59130F2
:10039000E7FB53917F0B80F075910022AA82AB831B
:1003A0007C007D00C3EC9AED9B502B7E00BE0400C8
:1003B000501D7582FAC002C003C004C005C00612F9
:1003C0000372D006D005D004D003D0020E80DE0C1C
:1003D000BC00D10D80CE228582A310FF0280FB8558
:1003E000A38222AA82430280C2908A821203D77516
:1003F00082001203D7D29022AA8253027FC2908A2F
:10040000821203D78524821203D7D2902290001C37
:10041000E4F090001DF090001EF090001FF090009E
:1004200020E4F0900021F0900022F0900023F09062
:100430000024E4F0900025F0900026F0900027F0D2
:10044000900028E4F0900029F090002AF090002B12
:10045000F07A00BA02005027EA241CFBE43400FCC6
:10046000745D2AF582C002C003C0041203E3AD82AA
:10047000D004D003D0028B828C83EDF00A80D47A32
:1004800000BA04005027EA241EFBE43400FC746226
:100490002AF582C002C003C0041203E3AD82D00477
:1004A000D003D0028B828C83EDF00A80D47A00BA1C
:1004B0000A005027EA2422FBE43400FC74682AF581
:1004C00082C002C003C0041203E3AD82D004D00393
:1004D000D0028B828C83EDF00A80D490001CE090D7
:1004E0000008F090001DE090000AF0900020E090DD
:1004F0000009F0900021E090000BF090002BE090BC
:100500000014F090002AE0900015F0900027E0FA27
:1005100053027F8A037A00900026E0FC7D00900061
:1005200016EC4AF0ED4BA3F022D29090000A120391
:100530009C75248275824B1203F890000A12039C6A
:1005400075240175824B1203F890000512039C7507
:1005500082401203E3AA82BA320280348A037C000A
:10056000C003C0047496C0E07400C0E07480C0E0B2
:100570001229F6E58124FBF58174CEC0E07400C039
:10058000E07480C0E01229F615811581158180E99B
:100590007B00C002C003C002C00374EDC0E0740061
:1005A000C0E07480C0E01229F6E58124FBF5817576
:1005B000240075824C1203F875247F758251120352
:1005C000F875240E7582521203F812040D7406C0D9
:1005D000E07401C0E07480C0E01229F6E58124FBDC
:1005E000F58122ACF0122680FAA3122680FBBA0015
:1005F00006BBF003020829AC25AD26AE278C828D00
:10060000838EF0122680FCA3122680FD4C600A9097
:10061000002EECF0A3EDF0801C900016E0FCA3E0AF
:10062000FD4C600A90002EECF0A3EDF080079000E6
:100630002EE4F0A3F090002EE0FCA3E0FD4C70034C
:1006400002081E900016E0FEA3E0FFE4F8EFC85495
:1006500003A2E0C813C813A2E0C813C813C8F9EE78
:10066000030354C0FFEE0303543F48F87E008C7B25
:100670008D7C757D00757E008E828F8388F0E9C049
:1006800002C003122936AC82E58324C0FD8C068D9E
:10069000078E28EFF5293395E0F52AF52B8C068D8A
:1006A000078E7BEFF57C3395E0F57DF57E8528821E
:1006B000852983852AF0E52BC004C00512269C8578
:1006C000822885832985F02AF52B900015E0FE33DA
:1006D00095E0FFF8F9757B80E4F57CF57DF57E8586
:1006E0002882852983852AF0E52BC006C007C00033
:1006F000C00112293685827B85837C85F07DF57E5D
:10070000D001D000D007D0068E828F8388F0E91206
:10071000269C85822885832985F02AF52BD005D053
:1007200004900014E0FEE45401A2E0CE13CE13CEF8
:100730008E7BF57C3395E0F57DF57EED3395E0FE1F
:100740008C828D838EF012269CAC82AD83AEF0FF3E
:10075000EC2528FCED3529FDEE352AFEEF352BFF83
:10076000757B00757C02757D00757E008C828D83A3
:100770008EF0EF122936AC82AD83AEF0FF74102EEE
:10078000FEE43FFF900009E0F83395E0F974A028FB
:10079000F8E439887BF57C3395E0F57DF57E8C8235
:1007A0008D838EF0EF12269C757B00757C10757D15
:1007B00000757E0012293685827B85837C85F07DDD
:1007C000F57ED003D002EB3395E0FC8A828B838CDC
:1007D000F012269C757B00757C20757D00757E006F
:1007E000122936AA82AB83900008E0FC3395E0C45E
:1007F0000354F8CCC403CC6CCC54F8CC6CFDEC2A7C
:10080000F582ED3BF583757B10E4F57C122C8BE5CE
:10081000828583F090002CF0A3E5F0F08014900026
:100820002CE4F0A37480F0800990002CE4F0A37411
:1008300080F090002CE0FAA3E08A82F58322ACF0ED
:10084000122680FAA3122680FBBA0006BBF0030230
:100850000A82AC2CAD2DAE2E8C828D838EF01226AA
:1008600080FCA3122680FD4C600A900032ECF0A3BD
:10087000EDF0801C900016E0FCA3E0FD4C600A90B7
:100880000032ECF0A3EDF08007900032E4F0A3F02A
:10089000900032E0FCA3E0FD4C7003020A77900068
:1008A00016E0FEA3E0FFE4F8EFC85403A2E0C8138B
:1008B000C813A2E0C813C813C8F9EE030354C0FF5D
:1008C000EE0303543F48F87E008C7B8D7C757D00E1
:1008D000757E008E828F8388F0E9C002C0031229E2
:1008E00036AC82E58324C0FD8C068D078E2FEFF594
:1008F000303395E0F531F5328C068D078E7BEFF5C0
:100900007C3395E0F57DF57E852F828530838531BA
:10091000F0E532C004C00512269C85822F85833005
:1009200085F031F532900015E0FE3395E0FFF8F9DF
:10093000757B80E4F57CF57DF57E852F828530839F
:100940008531F0E532C006C007C000C0011229366B
:1009500085827B85837C85F07DF57ED001D000D0BB
:1009600007D0068E828F8388F0E912269C85822F1D
:1009700085833085F031F532D005D004900014E045
:10098000FEE45401A2E0CE13CE13CE8E7BF57C3371
:1009900095E0F57DF57EED3395E0FE8C828D838EBE
:1009A000F012269CAC82AD83AEF0FFEC252FFCED5F
:1009B0003530FDEE3531FEEF3532FF757B00757C4D
:1009C00002757D00757E008C828D838EF0EF12297A
:1009D00036AC82AD83AEF0FF90000BE0F83395E0CB
:1009E000F974A028F8E439887BF57C3395E0F57D2F
:1009F000F57E74102EFEE43F8C828D838EF01226DD
:100A00009C757B00757C10757D00757E0012293603
:100A100085827B85837C85F07DF57ED003D002EBDB
:100A20003395E0FC8A828B838CF012269C757B00C8
:100A3000757C20757D00757E00122936AA82AB83F5
:100A400090000AE0FC3395E0C40354F8CCC403CC16
:100A50006CCC54F8CC6CFDEC2AF582ED3BF583753B
:100A60007B10E4F57C122C8BE5828583F0900030BE
:100A7000F0A3E5F0F08014900030E4F0A37480F06F
:100A80008009900030E4F0A37480F0900030E0FA28
:100A9000A3E08A82F5832285823685833785F03804
:100AA0007582421203E3AD82758243C0051203E3EF
:100AB000AE82758244C0061203E3AF82758245C0E0
:100AC000071203E3A882758248C0001203E3A982DB
:100AD000758249C0011203E3AA82D001D000D00779
:100AE000D006D0055305F8EDC423541FFDEE339511
:100AF000E0C42354E0CEC423CE6ECE54E0CE6EFBD1
:100B00007C00900034ED4EF0EC4BA3F05307F8EF6F
:100B1000C423541FFFE83395E0C42354E0C8C42322
:100B2000C868C854E0C868FB7C00900036EF48F005
:100B3000EC4BA3F05301FCE90303543FF9E45403E5
:100B4000A2E0CA13CA13A2E0CA13CA13CAFB7C00EC
:100B5000900038E94AF0EC4BA3F075253875260073
:100B600075270090003475F0001205E3AA82AB836C
:100B70008536828537838538F0EA122C72A3EB1212
:100B80002C72AA33AB34AC35752C38752D00752E0C
:100B90000090003675F000C002C003C00412083E89
:100BA000AD82AE83D004D003D0028A828B838CF0D6
:100BB000ED122C72A3EE022C72AA82AB83ACF0FD74
:100BC00075A72075930C75C8107594008A7B8B7C73
:100BD0008C7D8D7E90A20075F04A740412270AAABB
:100BE00082AB83ACF0FD757B18E4F57CF57DF57E7A
:100BF0008A828B838CF0ED12270AAA82AB83ACF039
:100C0000FDE4C39AFAE49BFB74019CE49D8A958BF6
:100C100096D2C943944075A70022AA8275A72010D6
:100C2000C90280FB8A9275A70022AA82AB83ACF02E
:100C30008A828B838CF0122680FD60188D82C00220
:100C4000C003C004120C1AD004D003D0020ABA00A8
:100C5000DF0B80DC2275A72010C80280FB53C83F41
:100C600085928275A7002275A7207A007B0020C894
:100C70002675A700758214C002C003120372D00348
:100C8000D00275A7200ABA00010BBAA8E1BB61DE49
:100C900075A70075820A22C2C853C83F8592827523
:100CA000A70022AA82AB83ACF07D008A068B078C5A
:100CB00000C002C003C004C005C006C007C00012C7
:100CC0000C67A982D000D007D006D005D004D0038D
:100CD000D002B90A0A8A828B838CF0E4022C72C398
:100CE000ED953950180D8E828F8388F0E9122C72A1
:100CF000A3AE82AF838E028F03880480B48A828B76
:100D0000838CF0E4022C7275A720A2C875A700227C
:100D1000AA82AB837C007D00C3EC9AED9B50477E9A
:100D200000BE04005039C002C003C004C005C006A4
:100D3000120D07E433D006D005D004D003D00260F2
:100D400001227582FAC002C003C004C005C00612A9
:100D50000372D006D005D004D003D0020E80C20C9E
:100D6000BC00B50D80B222AA82AB83ACF0C002C039
:100D700003C004C002C003C0047439C0E07401C0E1
:100D8000E07480C0E01229F6E58124FAF581C2A062
:100D900090000512039CD004D003D0028A828B837A
:100DA0008CF0120C2A75391390007F75F040120CEC
:100DB000A390000A12039CD2A0747FC0E07400C00C
:100DC000E07440C0E07445C0E07401C0E07480C0CD
:100DD000E01229F6E58124FAF58122C2A090000AEA
:100DE00012039C90015475F080120C2A90000A1294
:100DF000039C53C83FD2A022AA8274075AF5F0057B
:100E0000F07401800225E0D5F0FBFBEAC4540FFA30
:100E100024FC4022EA2A2A900E1B73020E27020E9F
:100E20002B020E2F020E33EB42A422EB42A522EB43
:100E300042A622EB429C22AA8274075AF5F005F0E2
:100E40007401800225E0D5F0FBF4FBEAC4540FFAEC
:100E500024FC4022EA2A2A900E5B73020E67020EDF
:100E60006B020E6F020E73EB52A422EB52A522EB23
:100E700052A622EB529C2275A700C2EF75B2807574
:100E8000BC2075B91E75E80075DF3F75B300D2EF61
:100E900022AA82857BF005F07401800225E0D5F05E
:100EA000FBFB75A720BA0002800ABA0102800FBAC4
:100EB000021E8014EBF4FA52F1EB42D48012EBF4F0
:100EC000FA52F2EB42D58008EBF4FA52F3EB42CC43
:100ED00075A700228582BBC2EDD2EC30EDFD85BD49
:100EE0008285BE8322C020C0E0C0F0C082C083C023
:100EF00002C003C004C005C006C007C000C001C0D6
:100F0000D075D00075A710C2C775D2C475D3FF9035
:100F10000068E02401F0A3E03400F0900068E0FAFB
:100F2000A3E0FBBAE821BB031E900068E4F0A3F045
:100F3000122486AA82AB83900000EAF0A3EBF0EBC8
:100F40003395E0A3F0A3F0900056E02401F0A3E075
:100F50003400F0900056E0FAA3E0FBBA640ABB004C
:100F600007900056E4F0A3F090005BE0FA90005682
:100F7000E0FBA3E0FC7D00C3EB9AEC9D50139000D6
:100F80005CE0FA6006D2A1C2A2800AC2A1D2A2800D
:100F900004C2A1C2A290005AE0FA7D00C3EB9AEC11
:100FA0009D501390005DE0FA6006D2A4C2A3800AAF
:100FB000C2A4D2A38004C2A4C2A3900058E024011A
:100FC000F0A3E03400F0900058E0FAA3E0FBBAD0C0
:100FD0000EBB070B900058E4F0A3F0D296D2979086
:100FE000005FE0FA900058E0FBA3E0FC7D00EAB56A
:100FF0000306EDB50402C29690005EE0FA7D00B5EE
:101000000306EDB50402C297D0D0D001D000D007BE
:10101000D006D005D004D003D002D083D082D0F047
:10102000D0E0D0203290005F7401F090005E74FA3E
:10103000F09000C812039C90005F74FAF0D2959073
:1010400000C812039C7A007B00C3EA9459EB6480C9
:101050009480501E900005C002C00312039CD00370
:10106000D00290005EE01490005EF00ABA00DA0B45
:1010700080D79000C812039C7A007B00C3EA949F3B
:10108000EB64809480501E900005C002C0031203E0
:101090009CD003D00290005FE01490005FF00ABA89
:1010A00000DA0B80D79000C812039C7A007B00C343
:1010B000EA9441EB64809480501E900005C002C009
:1010C0000312039CD003D00290005EE01490005EF7
:1010D000F00ABA00DA0B80D79001F412039CC29593
:1010E0009000C812039C90005F7401F090005E7441
:1010F00001F022AA82AB83C374889A74938BF06345
:10110000F08095F0401074E0957C74AE857DF063BE
:10111000F08095F05004900001229000002275822A
:1011200024120DF8758223120DF8758222120DF823
:10113000758221120DF8758217120DF8758216123C
:101140000DF8758215120DF8758210120DF8758262
:1011500030120E37757B03758201120E91757B0478
:10116000758201120E91120E775389F0438901C2E4
:101170008CC296C297C29522AA82AB8390005C74FF
:1011800001F090005D7401F090005A7432F090000C
:101190005B7432F08A828B8312039C90005CE4F0D3
:1011A00090005DF090005AF090005BF022AA82ABB4
:1011B0008390005C7401F090005DE4F090005A743C
:1011C00050F0C002C00390006CE0C0E0A3E0C0E0BB
:1011D000A3E0C0E0A3E0C0E090000075F0A074427E
:1011E00012285CAC82AD83AEF0FFE58124FCF58172
:1011F0008C828D838EF0EF122EB7E582D003D00261
:1012000090005BF08A828B8312039C90005CE4F078
:1012100090005DF090005AF090005BF02290005C2E
:10122000E4F090005DF090005A745AF090006CE089
:10123000C0E0A3E0C0E0A3E0C0E0A3E0C0E0900015
:101240000075F0B4744212285CAA82AB83ACF0FD46
:10125000E58124FCF5818A828B838CF0ED122EB718
:10126000E58290005BF02290006AE0F57BA3E0F558
:101270007C90625512290EE5828583F090006A24E5
:1012800019F0743635F0A3F090006AE0FAA3E08A12
:1012900082F58322121267757BA6E4F57C122A1769
:1012A000E5828583F02455F582E435F0F5832290BC
:1012B000003EE4F0A3F0A3F0A3F0900042F0A3E41A
:1012C000F0A3F0A3F07A00BA190040030213997555
:1012D000333C75340075350090003A75F000C0025B
:1012E000120A9790003AE0FBA3E0FC8B828C8312F9
:1012F0002D6385823A85833B85F03CF53D90003E29
:10130000E0FFA3E0F8A3E0F9A3E0FBC03AC03BC0D4
:101310003CC03D8F82888389F0EB122988AB82AC78
:1013200083ADF0FEE58124FCF58190003EEBF0A357
:10133000ECF0A3EDF0A3EEF090003CE0FBA3E0FCAA
:101340008B828C83122D6385823A85833B85F03CAA
:10135000F53D900042E0FFA3E0F8A3E0F9A3E0FB35
:10136000C03AC03BC03CC03D8F82888389F0EB12FD
:101370002988AB82AC83ADF0FEE58124FCF5819039
:101380000042EBF0A3ECF0A3EDF0A3EEF09000012F
:1013900012039CD0020A0212C7900042E0FAA3E0B6
:1013A000FBA3E0FCA3E0FDE4C0E0C0E074C8C0E043
:1013B0007441C0E08A828B838CF0ED122D70AA827A
:1013C000AB83ACF0FDE58124FCF58190003EE0FEAE
:1013D000A3E0FFA3E0F8A3E0F9C002C003C004C08B
:1013E00005E4C0E0C0E074C8C0E07441C0E08E8293
:1013F0008F8388F0E9122D7085827385837485F060
:1014000075F576E58124FCF581D005D004D003D0B4
:10141000028A828B838CF0ED122A64AA82AB83ACA1
:10142000F0FDC002C003C004C00590000075F03498
:10143000744312285CAA82AB83ACF0FDE58124FCE6
:10144000F58174DBC0E0740FC0E07449C0E0744003
:10145000C0E08A828B838CF0ED122D70AA82AB8360
:10146000ACF0FDE58124FCF581900046EAF0A3EBA9
:10147000F0A3ECF0A3EDF0C002C003C004C005E48B
:10148000C0E0C0E0C0E0C0E08A828B838CF0ED1247
:101490002803AE82E58124FCF581D005D004D00379
:1014A000D002EE6032E4C0E0C0E074B4C0E0744347
:1014B000C0E08A828B838CF0ED122988AA82AB83EC
:1014C000ACF0FDE58124FCF581900046EAF0A3EB49
:1014D000F0A3ECF0A3EDF0900046E0FAA3E0FBA34C
:1014E000E0FCA3E0FDC002C003C004C005E4C0E00E
:1014F000C0E074B4C0E07443C0E08A828B838CF097
:10150000ED1227D3AE82E58124FCF581D005D0040D
:10151000D003D002EE6032E4C0E0C0E074B4C0E0BA
:101520007443C0E08A828B838CF0ED122D58AA821E
:10153000AB83ACF0FDE58124FCF581900046EAF038
:10154000A3EBF0A3ECF0A3EDF0900046E0FAA3E0EB
:10155000FBA3E0FCA3E08A828B838CF02290004CFA
:101560007401F0E4A3F0E4F53EF53FC3E53E9414C6
:10157000E53F6480948040030217D890004CE0FC63
:10158000A3E0FD4C70030217D8C004C0051212AFCF
:10159000AE82AF83ACF0FD900018EEF0A3EFF0A3A5
:1015A000ECF0A3EDF0C004C005120D07E433D00544
:1015B000D004D005D00470030216BFC004C00512C9
:1015C0000C55AE82D005D004BE2102800302166005
:1015D00075391390007F75F040120CA390007F7551
:1015E000F040122E8FAF82AA83BF0C05BA00028092
:1015F000030216BF744AC0E07400C0E0E4C0E074A7
:101600004EC0E07400C0E0E4C0E0744EC0E074007E
:10161000C0E0E4C0E0744EC0E07400C0E0E4C0E0AC
:101620007462C0E07401C0E07480C0E0747FC0E008
:101630007400C0E07440C0E01227A5E58124EEF5F7
:101640008190004AE0FFA3E0FA4F600B90004C74D9
:1016500001F0E4A3F0806890004CE4F0A3F0805F18
:10166000BE405C900018E0C0E0A3E0C0E0A3E0C092
:10167000E0A3E0C0E0900000E0C0E0A3E0C0E0A391
:10168000E0C0E0A3E0C0E0C03EC03FC004C00574BD
:1016900076C0E07401C0E07480C0E0747FC0E07484
:1016A00000C0E07440C0E0122D12E58124EEF58107
:1016B00090000512039C90007F75F040120C2A12D6
:1016C000121D758209120ED4E5828583F090000404
:1016D000F0A3E5F0F075820A120ED4AA82AB8390D3
:1016E0000006EAF0A3EBF0900004E0FCA3E0FD8A22
:1016F0007C8B7D8C828D831210F3AA82AB83C00217
:10170000C003C002C003900006E0C0E0A3E0C0E058
:10171000900004E0C0E0A3E0C0E0900000E0C0E082
:10172000A3E0C0E0A3E0C0E0A3E0C0E0748BC0E0B1
:101730007401C0E07480C0E01229F6E58124F3F55D
:1017400081D003D002900000E0FCA3E0FDA3E0FE06
:10175000A3E0FFC374189C74159DE49EE464808F1D
:10176000F063F08095F0502490012CC002C0031269
:101770001178121025D003D002053EE4B53E0205D3
:101780003FC002C00312121DD003D002BA0105BB34
:101790000002800302156B121294AA82AB838A7B2B
:1017A0008B7C900258C002C00312290EAC82AD831C
:1017B000757B5AE4F57C8C828D831228331211AD2F
:1017C00074B6C0E07401C0E07480C0E01229F6E590
:1017D0008124FBF58102156B74C3C0E07401C0E085
:1017E0007480C0E01229F615811581158122122618
:1017F00080F543A3122680F544AC40AD41AE428C47
:10180000828D838EF0122680FCA3122680FD90002C
:1018100060E0FEA3E0FFE543C39EF582E5449FF54B
:1018200083C004C0051228FF85827B85837C9000DD
:101830006412290EAE82AF83900060E0F57BA3E0D6
:10184000F57C8E828F83122C8BE5828583F0D00508
:10185000D004900050F0A3E5F0F0900062E0FEA309
:10186000E0FFECC39EF582ED9FF583C004C0051236
:1018700028FF85827B85837C90006412290EAE82CE
:10188000AF83900062E0F546A3E0F54785467B858F
:10189000477C8E828F83122C8BAE82AF83D005D093
:1018A00004900060E0FAA3E0FBE543C39AF549E544
:1018B000449BF54AECC39546F543ED9547F54490B6
:1018C000005AE4F090005BF0C374059EE464808FDE
:1018D000F063F08095F0E433F54570030219C99088
:1018E0000050E0FAA3E0FBC3EA9405EB6480948027
:1018F00040030219C990005AEEF08E828F83C00413
:10190000C005C006C007122D63AA82AB83A8F0F9F8
:1019100090006CE0C0E0A3E0C0E0A3E0C0E0A3E082
:10192000C0E08A828B8388F0E912285CAA82AB83AC
:10193000A8F0F9E58124FCF5818A828B8388F0E99F
:10194000122EB7858248D007D006D005D00490006B
:101950005BE548F0C3E49543E464808544F063F0BC
:101960008095F0500B90005CE4F090005DF08059A1
:1019700090005C7401F090005D7401F0854882C0B5
:1019800004C005C006C00712292BA882A983AAF0AB
:10199000FBC000C001C002C00390666675F086748B
:1019A0003F12285CAA82AB83A8F0F9E58124FCF5FC
:1019B000818A828B8388F0E9122EB7E582D007D026
:1019C00006D005D00490005BF0900050E0F54FA3E6
:1019D000E0F550C37405954FE464808550F063F0E2
:1019E0008095F0E433F5487003021A92C3EE940533
:1019F000EF648094804003021A92C004C0059000F6
:101A00005AE54FF0854F82855083C006C007122DDE
:101A100063AC82AD83AAF0FB90006CE0C0E0A3E071
:101A2000C0E0A3E0C0E0A3E0C0E08C828D838AF038
:101A3000EB12285CAA82AB83ACF0FDE58124FCF5B7
:101A400081D007D0068A828B838CF0EDC004C0055C
:101A5000C006C007122EB7E582D007D006D005D049
:101A60000490005BF0C3E49549E46480854AF06328
:101A7000F08095F0D005D004500D90005C7401F01A
:101A800090005DE4F0800B90005CE4F090005D74E9
:101A900001F0E548700122E545700122C3E4954359
:101AA000E464808544F063F08095F04003021ECF2B
:101AB00090005CE4F090005DF0C3E49549E464803C
:101AC000854AF063F08095F04003021D158C7B8DF4
:101AD0007C900064C004C005C006C00712290EAA8D
:101AE00082AB83D007D006D005D00485467B8547DE
:101AF0007C900064C002C003C004C005C006C007DB
:101B000012290EA882A983757B02E4F57C8882895C
:101B100083122C8BA882A983D007D006D005D004CD
:101B2000D003D002C3E89AE964808BF063F080951B
:101B3000F05003021C24C004C00590005AEEF0903F
:101B4000006CE0F54BA3E0F54CA3E0F54DA3E0F508
:101B50004E8E828F83C006C007122D63AA82AB838C
:101B6000ACF0FDC002C003C004C005854B82854CAB
:101B700083854DF0E54E12285CAA82AB83ACF0FD64
:101B8000E58124FCF581D007D006C004C005C0065D
:101B9000C007C002C003C004C00590000075F0C8B3
:101BA000744212285C85824B85834C85F04DF54E3E
:101BB000E58124FCF581D007D006D005D004EE25C0
:101BC0004FF582EF3550F583C006C007122D63AA8A
:101BD00082AB83ACF0FDC002C003C004C005854BDE
:101BE00082854C83854DF0E54E122D70AA82AB8321
:101BF000ACF0FDE58124FCF581D007D0068A828B0C
:101C0000838CF0EDC004C005C006C007122EB7E5F6
:101C100082D007D006D005D00490005BF0D005D06C
:101C200004021ECFC004C00590005AE54FF090009A
:101C30006CE0F54BA3E0F54CA3E0F54DA3E0F54EC9
:101C4000854F82855083C006C007122D63AA82ABE0
:101C500083ACF0FDC002C003C004C005854B828583
:101C60004C83854DF0E54E12285CAA82AB83ACF024
:101C7000FDE58124FCF581D007D006C004C005C075
:101C800006C007C002C003C004C00590000075F084
:101C9000C8744212285C85824B85834C85F04DF5D3
:101CA0004EE58124FCF581D007D006D005D004EEA6
:101CB000254FF582EF3550F583C006C007122D631E
:101CC000AA82AB83ACF0FDC002C003C004C005858E
:101CD0004B82854C83854DF0E54E122D70AA82AB68
:101CE00083ACF0FDE58124FCF581D007D0068A8223
:101CF0008B838CF0EDC004C005C006C007122EB760
:101D0000E582D007D006D005D00490005BF0D00566
:101D1000D004021ECF8C7B8D7C900064C004C00573
:101D2000C006C00712290EAA82AB83D007D006D006
:101D300005D00485467B85477C900064C002C003C3
:101D4000C004C005C006C00712290EA882A9837569
:101D50007B02E4F57C88828983122C8BA882A9837C
:101D6000D007D006D005D004D003D002C3E89AE94A
:101D700064808BF063F08095F05003021E26C0044F
:101D8000C0058E7B8F7C900064C004C005C006C077
:101D90000712290EAA82AB83D007D006EE254FF595
:101DA0007BEF3550F57C8A828B83C006C007122CEE
:101DB0008BAA82D007D006D005D00490005AEAF052
:101DC0008E828F83C006C007122D63AA82AB83ACBC
:101DD000F0FD90006CE0C0E0A3E0C0E0A3E0C0E054
:101DE000A3E0C0E08A828B838CF0ED12285CAA828B
:101DF000AB83ACF0FDE58124FCF581D007D0068AE9
:101E0000828B838CF0EDC004C005C006C007122E83
:101E1000B7E582D007D006D005D00490005BF0D0A3
:101E200005D004021ECFC004C005854F7B85507CC1
:101E3000900064C004C005C006C00712290EAA8223
:101E4000AB83D007D006EE254FF57BEF3550F57C00
:101E50008A828B83C006C007122C8BAA82D007D03F
:101E600006D005D00490005AEAF0854F8285508351
:101E7000C006C007122D63AA82AB83ACF0FD9000B0
:101E80006CE0C0E0A3E0C0E0A3E0C0E0A3E0C0E0FD
:101E90008A828B838CF0ED12285CAA82AB83ACF033
:101EA000FDE58124FCF581D007D0068A828B838CE6
:101EB000F0EDC004C005C006C007122EB7E582D001
:101EC00007D006D005D00490005BF0D005D004E523
:101ED0004420E7012290005C7401F090005D7401E1
:101EE000F0C3E49549E46480854AF063F08095F09E
:101EF00040030220C98C7B8D7C900064C006C00723
:101F000012290EAA82AB83D007D00685467B85476F
:101F10007C900064C002C003C006C00712290EA84E
:101F200082A983757B02E4F57C88828983122C8BDD
:101F3000A882A983D007D006D003D002C3E89AE9CB
:101F400064808BF063F08095F0500302200A9000CB
:101F50005AEEF090006CE0F54BA3E0F54CA3E0F5F1
:101F60004DA3E0F54E8E828F83C006C007122D630D
:101F7000AA82AB83A8F0F9C002C003C000C00185EB
:101F80004B82854C83854DF0E54E12285CAA82ABCE
:101F900083A8F0F9E58124FCF581C002C003C000EC
:101FA000C00190000075F0C8744212285C85824B15
:101FB00085834C85F04DF54EE58124FCF581D007F5
:101FC000D006EE254FF582EF3550F583122D63AA2A
:101FD00082AB83A8F0F9C002C003C000C001854BEA
:101FE00082854C83854DF0E54E122D70AA82AB831D
:101FF000A8F0F9E58124FCF5818A828B8388F0E9D9
:10200000122EB7E58290005BF02290005AE54FF067
:1020100090006CE0F54BA3E0F54CA3E0F54DA3E098
:10202000F54E854F82855083C006C007122D63AAE6
:1020300082AB83A8F0F9C002C003C000C001854B89
:1020400082854C83854DF0E54E12285CAA82AB83D5
:10205000A8F0F9E58124FCF581C002C003C000C0EE
:102060000190000075F0C8744212285C85824B858F
:10207000834C85F04DF54EE58124FCF581D007D0E9
:1020800006EE254FF582EF3550F583122D63AA82B7
:10209000AB83A8F0F9C002C003C000C001854B8229
:1020A000854C83854DF0E54E122D70AA82AB83A836
:1020B000F0F9E58124FCF5818A828B8388F0E912AE
:1020C0002EB7E58290005BF0228C7B8D7C900064C3
:1020D000C006C00712290EAA82AB83D007D006859E
:1020E000467B85477C900064C002C003C006C007E1
:1020F00012290EAC82AD83757B02E4F57C8C828D57
:1021000083122C8BAC82AD83D007D006D003D002D3
:10211000C3EC9AED64808BF063F08095F05003027D
:1021200021AC8E7B8F7C900064C006C00712290E04
:10213000AA82AB83D007D006EE254FF57BEF355052
:10214000F57C8A828B83C006C007122C8BAA82D0B2
:1021500007D00690005AEAF090006CE0F54BA3E03F
:10216000F54CA3E0F54DA3E0F54E8E828F83122D42
:1021700063A882A983AAF0FBC000C001C002C0030B
:10218000854B82854C83854DF0E54E12285CAA82F2
:10219000AB83ACF0FDE58124FCF5818A828B838CD6
:1021A000F0ED122EB7E58290005BF022854F7B8523
:1021B000507C900064C006C00712290EAA82AB832F
:1021C000D007D006EE254FF57BEF3550F57C8A829F
:1021D0008B83122C8BAA8290005AEAF090006CE05C
:1021E000FAA3E0FBA3E0FCA3E0FD854F82855083CA
:1021F000C002C003C004C005122D63AE82AF83A825
:10220000F0F9D005D004D003D002C006C007C0004A
:10221000C0018A828B838CF0ED12285CAA82AB838A
:10222000ACF0FDE58124FCF5818A828B838CF0ED96
:10223000122EB7E58290005BF022900052E4F0A3EA
:10224000F0900054E4F0A3F0E4F551F552F553F5A5
:102250005412111E1205299001F412039C74D9C066
:10226000E07401C0E07480C0E01229F61581158188
:102270001581902580E4F5F0120BB9120DDB900169
:10228000F975F080120D6790020275F080120D67EB
:1022900090020C75F080120D6790021675F0801296
:1022A0000D6790022075F080120D6790022C75F07A
:1022B00080120D6790023675F080120D6790024013
:1022C00075F080120D67C2A1C2A2C2A4C2A374019C
:1022D000B55306E4B554028002800E121025900317
:1022E000E812039CE4F553F554E551455260081299
:1022F000155DE4F551F5521212AFAA82AB83ACF032
:10230000FD900018EAF0A3EBF0A3ECF0A3EDF012BF
:102310000D0750BA120C55AA82BA2102800302247A
:102320002775391390007F75F040120CA390007F41
:1023300075F040122E8FAB82AC83BB0C05BC000243
:102340008003022403747FC0E07400C0E07440C0C6
:10235000E0744EC0E07402C0E07480C0E01229F660
:10236000E58124FAF5817451C0E07400C0E0744046
:10237000C0E07453C0E07400C0E07440C0E0745426
:10238000C0E07400C0E0E4C0E07452C0E07400C07B
:10239000E0E4C0E07461C0E07402C0E07480C0E0BA
:1023A000747FC0E07400C0E07440C0E01227A5ABA9
:1023B00082AC83E58124EEF581C003C004C051C026
:1023C00052C053C054900054E0C0E0A3E0C0E0907D
:1023D0000052E0C0E0A3E0C0E07472C0E07402C04C
:1023E000E07480C0E01229F6E58124F3F5817540A0
:1023F0005475410075420090005275F0001217EEBE
:102400000222CE747FC0E07400C0E07440C0E0746B
:10241000B8C0E07402C0E07480C0E01229F6E58123
:1024200024FAF5810222CEBA400280030222CE9025
:102430000018E0C0E0A3E0C0E0A3E0C0E0A3E0C07B
:10244000E0900000E0C0E0A3E0C0E0A3E0C0E0A3B3
:10245000E0C0E074D2C0E07402C0E07480C0E074F8
:102460007FC0E07400C0E07440C0E0122D12E5812E
:1024700024F2F58190000512039C90007F75F040D6
:10248000120C2A0222CEE4F510F511F512F513F51F
:1024900014F515F516C3E5159405E51664809480CA
:1024A0004003022631758A00758C00C28D20B0FD74
:1024B00030B0FDD28CA91430B008108D0280F8091C
:1024C00080F520B008108D0280F80980F5C28C8953
:1024D0008212292BA982AA83ABF0FCC001C002C0E2
:1024E00003C00490000075F080744712285C858258
:1024F0001785831885F019F51AE58124FCF5818587
:102500008C8212292BA982AF83A8F0FAC001C007E0
:10251000C000C00290000075F080744312285CAACD
:1025200082AB83ACF0FDE58124FCF581C002C003E1
:10253000C004C0058517828518838519F0E51A1235
:10254000298885821785831885F019F51AE5812475
:10255000FCF581AF8A78008F828883122D63AF8269
:10256000A883A9F0FAC007C000C001C00285178285
:102570008518838519F0E51A122988AA82AB83ACE5
:10258000F0FDE58124FCF581C002C003C004C00554
:1025900090F4FC75F032743412285CAA82AB83ACE0
:1025A000F0FDE58124FCF581751400C002C003C074
:1025B00004C00590000075F020744112285CAA82C6
:1025C000AB83ACF0FDE58124FCF581C002C003C003
:1025D00004C00590000075F080743F122D70AA822F
:1025E000AB83ACF0FDE58124FCF58185108285117B
:1025F000838512F0E513C002C003C004C005122F8A
:102600001A122988AA82AB83ACF0FDE58124FCF57F
:10261000818A828B838CF0ED122EBF858210858398
:102620001185F012F5130515E4B5150205160224FF
:10263000958510828511838512F0E513122F1AAA51
:1026400082AB83ACF0FDE4C0E0C0E074A0C0E074F5
:1026500040C0E08A828B838CF0ED122D70AA82AB91
:1026600083ACF0FDE58124FCF5818A828B838CF0BC
:10267000ED122EBF85821085831185F012F513228D
:1026800020F71430F6148883A88220F507E6A88383
:1026900075830022E280F7E49322E022AAF0FBE5B2
:1026A00082857BF0A4FCADF0E583857BF0A42DFD55
:1026B000E435F0FEE582857CF0A42DFDE5F03EFEDC
:1026C000E433FFEA857BF0A42EFEE5F03FFFE583CF
:1026D000857CF0A42EFEE5F03FFFE582857DF0A429
:1026E0002EFEE5F03FFFEB857BF0A42FFFEA857C13
:1026F000F0A42FFFE583857DF0A42FFFE582857E82
:10270000F0A42F8EF08D838C8222FB7A20E4FCFDD6
:10271000FEFFE5822582F582E58333F583E5F0331C
:10272000F5F0EB33FB4017DAE98042E5822582F5CC
:1027300082E58333F583E5F033F5F0EB33FBEC33DF
:10274000FCED33FDEE33FEEF33FFEC957BED957C36
:10275000EE957DEF957E4013EC957BFCED957CFD31
:10276000EE957DFEEF957EFF438201DABEEB22AA55
:1027700008AB09AC0A8A828B838CF0122680FA059A
:1027800008E4B5080205098A822285820885830942
:1027900085F00A850B6C850C6D850D6E850E6F902E
:1027A000276F023157C00F85810FE50F24F8F56FB1
:1027B000E50F24FBF8860808860908860AE50F2439
:1027C000F8F8866C08866D08866E90276F12315770
:1027D000D00F22FFA8811818123587D2D133E640D6
:1027E0000730E70B7582012220E70675820022C2BE
:1027F000D1123569E97003F5822230D101B3E43397
:10280000F58222FFA8811818123587D2D133E6400D
:102810000730E70B7582002220E70675820122C28D
:10282000D1123569E97003F5822220D101B3E43376
:10283000F582227A10E4FBFCE58225E0F582E5834F
:1028400033F583EB33FBEC33FCEB957BF5F0EC9548
:102850007C4006FCABF0438201DADD22123634BC48
:1028600000030235D3EF60FA30D502B2D1E583B46C
:10287000FF030235E9E582B4FF030235E925834011
:10288000072482400B0235D324831450030235E918
:10289000F582EA8DF0A4A8F0EA8EF0A428F8E435D9
:1028A000F0F9EB8DF0A428E935F0F9E433CA8FF0A4
:1028B000A429F9EA35F0FAEBF88EF0A429F9EA3503
:1028C000F0FAE433FBEC8DF0A429F9EA35F0FAE4F0
:1028D0003BFBE88FF0A42AFAEB35F0FBE433CCFDA8
:1028E0008EF0A42AFAEB35F0FBE43CFCED8FF0A46B
:1028F0002BFBEC35F0FC20E7031236010235B2E584
:102900008330E709F4F583E582F4F582A322E582BA
:10291000857BF0A4C582C0F0857CF0A4D0F025F0C2
:10292000C583857BF0A42583F58322E4AC82FBFA82
:10293000F9748602366BFBC2D530E715D2D5E4C3F5
:102940009582F582E49583F583E495F0F5F0E49BB8
:10295000FBE57E30E717B2D5E4C3957BF57BE495C4
:102960007CF57CE4957DF57DE4957EF57EEB122784
:102970000A30D513FBE4C39582F582E49583F58391
:10298000E495F0F5F0E49B221236347900E583B546
:102990008202800D5003123675E583C3958212368C
:1029A0008FE5D0C465D020E117EA2DFAEB3EFBECB1
:1029B0003FFC5009740112368FEC4480FC0235B2A2
:1029C000C3EA9DFAEB9EFBEC9FFC500FC3E499F920
:1029D000E49AFAE49BFBE49CFCB2D1123601023586
:1029E000B202405E85826A85836B85F06C851D6DC1
:1029F0009029E1023AB1C00F85810FE50F24FBF564
:102A00006DE50F24FBF8866A08866B08866C9029B2
:102A1000E1123AB1D00F22E57B457C60467A01E5B0
:102A20007B25E0F57BE57C334012F57CE582957BE8
:102A3000E583957C40030A80E6C3E57C13F57CE5DD
:102A40007B13F57BC3E582957BF5F0E583957C40B0
:102A500005F58385F082C3E57C13F57CE57B13F5F2
:102A60007BDAE12285827785837885F079F57AE5CE
:102A70007745784579857AF0C2F745F0701CE573A3
:102A8000457445758576F0C2F745F0700D751B21CC
:102A9000E4F51C900000E4F5F022857382857483D0
:102AA0008575F0E576124073AE82AF83A8F0F985A4
:102AB00077828578838579F0E57AC006C007C00003
:102AC000C001124073AA82AB83ACF0FDD001D000EC
:102AD000D007D006C002C003C004C0058E828F8319
:102AE00088F0E9122803AA82E58124FCF581EA60D6
:102AF00003022BC9C073C074C075C0768577828508
:102B000078838579F0E57A122D70AA82AB83ACF0D8
:102B1000FDE58124FCF5818A828B838CF0ED1240E7
:102B200076AA82AB83ACF0FDC002C003C004C0052E
:102B3000E4C0E0C0E0C0E0C0E085738285748385B6
:102B400075F0E576122803AE82E58124FCF581D08C
:102B500005D004D003D002EE7003022C6AC002C07C
:102B600003C004C005E4C0E0C0E0C0E0C0E0857779
:102B7000828578838579F0E57A122803AE82E58133
:102B800024FCF581D005D004D003D002EEB40100BE
:102B9000E433FE600A7EDB7F0F7849794080087E4F
:102BA000DB7F0F784979C0C006C007C000C0018A2A
:102BB000828B838CF0ED122988AA82AB83ACF0FD66
:102BC000E58124FCF581022C6AC077C078C079C009
:102BD0007A8573828574838575F0E576122D70AEE3
:102BE00082AF83A8F0F9E58124FCF5818E828F8382
:102BF00088F0E9124076AE82AF83A8F0F98E028F9A
:102C0000038804E9B2E7FDC002C003C004C005E4C4
:102C1000C0E0C0E0C0E0C0E0857782857883857938
:102C2000F0E57A122803AE82E58124FCF581D00517
:102C3000D004D003D002EE600A7EDB7F0F78C97922
:102C4000BF80087EDB7F0F78C9793FC006C007C010
:102C500000C0018A828B838CF0ED122988AA82AB96
:102C600083ACF0FDE58124FCF5818A828B838CF0B6
:102C7000ED2220F71030F6118883A88220F507F6A0
:102C8000A88375830022F280F7F022C2D5E5833055
:102C9000E70DD2D5E4C39582F582E49583F583E50B
:102CA0007C30E70DB2D5E4C3957BF57BE4957CF5EC
:102CB0007C12283330D50BE4C39582F582E49583EA
:102CC000F58322AA82AB55AC56AD578B828C838D8F
:102CD000F0EA122C720555E4B5550205562285829C
:102CE0005585835685F05785586A85596B855A6C8A
:102CF000855B6D902CC3123AB1AA82AB83AC55AD03
:102D000056AE578C828D838EF0E4122C728A828BA1
:102D10008322C00F85810FE50F24F8F56DE50F24A0
:102D2000FBF88655088656088657E50F24F8F8867E
:102D30006A08866B08866C902CC3123AB1AA82ABE3
:102D400083AC55AD56AE578C828D838EF0E4122C39
:102D5000728A828B83D00F22A8811818C6B2E7C668
:102D6000022988AC83AB827A007900748E022F230B
:102D700012363430D502B2D1BF0009BC000302358F
:102D8000F60235E9BC00030235D3E583B4FF0BE559
:102D900082B4FF030235F60235D3E582B4FF0302A5
:102DA00035E9C395835007247F400B0235D3248037
:102DB0001450030235E9C0E0E4CCCBCAF98D7B8E18
:102DC0007C8F7DEF54F0C4F57E758306857EF0EB35
:102DD00084F582E9C4F9EAC4FAEBC4FBEC540FC4ED
:102DE0007803D6FC18EBD6FB18EAD6FA8582F0ED0C
:102DF000A4A8F0FD8582F0EEA428FEE435F0F88565
:102E000082F0EFA428FFE435F0F8E99DF9EA9EFA94
:102E1000EB9FFBEC98FCAD7BAE7CAF7D30E71015F3
:102E200082E92DF9EA3EFAEB3FFBE43CFC80EDC081
:102E300082D58398C3E933F9EA33FAEB33FBEC33F9
:102E4000FCC3E99DEA9EEB9FEC9400B3E413F9D038
:102E500002D0E0C44AFAD003D0E0C44BFBD004D087
:102E6000E0F5F0540FC44CFCD082158230F40FD33F
:102E7000EC13FCEB13FBEA13FAE913F90582E930D2
:102E8000E70A74012AFAE43BFBE43CFC0235CAAAD7
:102E900082AB83ACF07D007E008A828B838CF01243
:102EA0002680FFA3AA82AB83EF60070DBD00EA0E68
:102EB00080E78D828E83227F861243FCF582221268
:102EC0004421C3749E95824039790012368F30D1E7
:102ED00026E9F42401F582EAF43400F583EBF434B6
:102EE00000F5F0ECF43400700AE582458345F0709B
:102EF0000122E430E70F22EC20E71489828A838BD9
:102F0000F02230D10AE4F582F583F5F07480227462
:102F1000FFF582F583F5F0747F22FCABF0AA83A95C
:102F200082749EF582C2D1EC30E716D2D1E9F42446
:102F300001F9EAF43400FAEBF43400FBECF4340069
:102F4000FC1236010235B2855C82855D83124657DC
:102F500085826BE56B600A0565E4B56506056680EC
:102F600002D20B856B82227A007B00300B057893AE
:102F7000760022C002C003122F47AC82D003D002D9
:102F8000BC0002802DBC08028014BC09028023BC56
:102F90000A02801EBC0D028019BC20218014EA4B5D
:102FA00060D11ABAFF011B156574FFB5650215667D
:102FB00080C1EA4B60BDEA2493F8760022EC7009E8
:102FC000EA2493F87600D20B22ECB56A07EA249340
:102FD000F8760022C3EA940FEB940050968A058B92
:102FE000060ABA00010BED2493F8A604022F73AA77
:102FF000827B7FC3EA648094B0401174B98AF06325
:10300000F08095F04006EA24D0FB8030C3EA64806B
:1030100094C1401174C68AF063F08095F040067444
:10302000C92AFB8017C3EA648094E1400F74E68AE2
:10303000F063F08095F0400474A92AFBC3EB956718
:1030400050038B822275827F22AA8275610075628D
:10305000007563007564008A00E6FA60148A82C015
:1030600000122FEFAB82D000C3EB956740030880BE
:10307000E886038B82C000122FEFAA82D000C3E53E
:10308000679A405085677B757C00757D00757E0072
:103090008561828562838563F0E564C002C00012A9
:1030A000269CAB82AC83ADF0FED000D0028B618C4D
:1030B000628D638E64E4FBFCFDEA2561FAEB356208
:1030C000FBEC3563FCED3564FD8A618B628C638DAE
:1030D0006408809D8561828562838563F0E5642252
:1030E000AA827561007562007563007564008A00CC
:1030F000E6FB60228B82C003C000122FEFAC82D0AF
:1031000000D003C3EC9567400DBB2D028008BB2B9C
:103110000280030880DA88028603BB2D03D3800176
:10312000C3920EBB2D028003BB2B010A8A82123090
:1031300049300E13C3E49561FAE49562FBE49563AC
:10314000FCE49564FD8008AA61AB62AC63AD648A5F
:10315000828B838CF0ED2285825C85835DE4F5654E
:10316000F566F569C20BAA6CAB6DAC6E8A828B8377
:103170008CF0122680FD74012AF56CE43BF56D8C11
:103180006EEDFA7003023560BA250280030234F94D
:10319000D20AC208756700756800C20CC20DAB6C1C
:1031A000AC6DAD6E8B828C838DF0122680FAA3AB52
:1031B00082AC838B6C8C6D8D6E8B828C838DF012C8
:1031C0002680F56A8A06BE300040168A06EE24C6BE
:1031D000400FE56875F00AA4FEEA24D02EF5688059
:1031E000C38A06BE6100400A8A06EE248540035366
:1031F00002DFBA250280ADBA2A028057BA420280A5
:1032000048BA43028052BA440302331CBA4503024F
:103210003332BA4603023332BA4703023332BA4971
:103220000302331CBA4C028025BA4E03023387BA1C
:103230004F03023322BA53028020BA550302331AD5
:10324000BA580302332A0233AFD2080231A4D2099A
:103250000231A4D20C0231A4D20D200C17E56F2448
:10326000FDF8886F860308860408860518188B5EAB
:103270008C5F8D60E568700B300D047B0180027BF4
:10328000FF8B68756700C3E56795685005122F4787
:10329000AA82300B07E56770030233AFEA601ABAFF
:1032A0002002800DBA09028008BA0D028003BA0A12
:1032B00003300D05E568B5671FE56760C9200C128E
:1032C0000569AB5EAC5FAD608B828C838DF0E412E0
:1032D0002C727567000233AFBA081CE56760A7203F
:1032E0000C11AB5EAC5FAD601BBBFF011C8B5E8C39
:1032F0005F8D601567808F200C1BAB5EAC5FAD608F
:103300008B828C838DF0EA122C720BBB00010C8B2C
:103310005E8C5F8D600567023286C20A75670A029D
:1033200033AFC20A7567080233AFC20A756710026D
:1033300033AF122F677893E66075200C72E56F2427
:10334000FDF8886F86700886710886721818857077
:103350005E85715F85726090009375F04012443312
:10336000AE82AF83ABF0FC8570828571838572F08D
:10337000EE122C72A3EF122C72A3EB122C72A3ECA0
:10338000122C7205698028E56F24FDF8886F86038A
:1033900008860408860518188B5E8C5F8D608B820A
:1033A0008C838DF0E565122C72A3E566122C72E514
:1033B0006770030234F9122F677893E670030234C2
:1033C000F9300C030234F9E56F24FDF8886F8603A9
:1033D00008860408860518188B5E8C5F8D60056969
:1033E000200A03023472300935855E70855F71856D
:1033F00060727582931230E0AE82AF83ABF0FC85D1
:1034000070828571838572F0EE122C72A3EF122CFC
:1034100072A3EB122C72A3EC122C720234F9300856
:1034200026855E70855F718560727582931230E0CB
:10343000AE82AF83ABF0FC8570828571838572F0BC
:10344000EE122C720234F9855E70855F71856072B0
:103450007582931230E0AE82AF83ABF0FC85708250
:103460008571838572F0EE122C72A3EF122C72021A
:1034700034F9300934855E70855F718560727582BC
:1034800093123049AE82AF83ABF0FC8570828571B8
:10349000838572F0EE122C72A3EF122C72A3EB1242
:1034A0002C72A3EC122C728050300825855E70853A
:1034B0005F71856072758293123049AE82AF83ABC3
:1034C000F0FC8570828571838572F0EE122C72801B
:1034D00028855E70855F71856072758293123049B0
:1034E000AE82AF83ABF0FC8570828571838572F00C
:1034F000EE122C72A3EF122C72200B03023166AB7A
:103500006CAC6DAD6E8B828C838DF0122680FEA329
:10351000AB82AC838B6C8C6D8D6EEEFA70030231D6
:1035200066BA25E18B828C838DF0122680FABA6E02
:10353000028003BA4ECFE56F24FDF8886F8602083B
:10354000860608860718188A5E8E5F8F608A828ECC
:10355000838FF0E565122C72A3E566122C7280A5AC
:10356000AA697B008A828B83227901AA82E68F82F4
:10357000B5821318E6B5F00E18E6B5830918E68A89
:1035800082B58202790022B4800FE5F0700AE583EB
:103590007006E58270027F00EFB6801518B6001045
:1035A00018B6000B18B600060808087600220808AE
:1035B0000822B98003EA13B34010EA2401FAE43B7D
:1035C000FBE43CFC50047C800582BC000EBB000B7D
:1035D000BA0008E4F5F0F583F58222A2D1E5821362
:1035E0008CF092F78B838A8222E4F583F58275F062
:1035F00080F4A2D11322E4F583F58275F0C0747FC4
:10360000227804EC7011E58224F8500AF582E4C9AE
:10361000CACBFCD8EF22EC7820058220E713D582B4
:103620000122C3E933F9EA33FAEB33FBEC33FCD87C
:10363000EA158222AA82AB83A2F73392D16002D22A
:10364000F7F582ACF0E58124F9F8E6FD08E6FE081E
:1036500086F008E6A2F73392D56002D2F7F583AF81
:10366000F022FCABF0AA83A982749EC2D1F582122B
:1036700036010235B2E582C583F582A2D133A2D5E7
:1036800092D11392D5ECCFFCEBCEFBEACDFA2260BF
:1036900040F82582500274FFF582E824F8501ECCD1
:1036A000CBCAF9E4CC24F85014CBCAF9E4CB24F803
:1036B000500BCAF9E4CA24F85003790022240860A8
:1036C00010F8C3EC13FCEB13FBEA13FAE913F9D877
:1036D000F122AA8274E3C0E07436C0E0C05CC05D31
:1036E0008A82220563E4B56302056422AA827430EB
:1036F0002AFA24C6500A74072AFA300F034302201C
:103700008A820236D2E582FAC4540FF582C00212D0
:1037100036ECD002740F5AF5820236ECAA5EAB5F2B
:10372000AC60AD61AE62756920EE2EFEED235401F2
:10373000FF4206EA2AFAEB33FBEC33FCED33FDC320
:10374000EE95654008EEC39565FE430201D569D943
:103750008A5E8B5F8C608D618E6222789FE624D0BA
:1037600075F00AA4FA78A0E624D02AFA789E860397
:10377000BB2D04C3E49AFA756501C3E464808AF042
:1037800063F08095F050297569038A0374F6256902
:10379000401C0565E569142493F8E5692493F987CD
:1037A00004A604772E1BEBFA6004056980DE8B0209
:1037B000EA30E70D789486037895A6037894762E00
:1037C0000AE567600AE56704FB2565F56580053055
:1037D0001A02056578938603E4BB2D0104FB70068D
:1037E00020150330160205653013030238A2301489
:1037F00057EB600C75822DC0021236D2D002801CAD
:1038000030150C75822BC0021236D2D002800D30DA
:10381000160A758220C0021236D2D002789486042D
:10382000BC2E0C758230C0021236D2D0021566ACA6
:10383000661566C3E5659C40030238E6758230C0B4
:10384000021236D2D00280E7AC661566C3E5659CED
:10385000500C758220C0021236D2D00280EA7893D2
:103860008604BC2D0C75822DC0021236D2D0028087
:103870001C30150C75822BC0021236D2D002800D7E
:1038800030160A758220C0021236D2D00278948691
:1038900004BC2E52758230C0021236D2D002156698
:1038A0008044EB600E75822DC0021236D2D0021514
:1038B00066802030150E75822BC0021236D2D002DF
:1038C0001566800F30160C758220C0021236D2D0D9
:1038D00002156678948603BB2E0C758230C00212E6
:1038E00036D2D0021566756901C21CE5692493F8C9
:1038F0008603BB45030239A3BB2E348A03C3E464A9
:10390000808BF063F08095F0500F758230C0031209
:1039100036D2D0031B8B0280E48B02D21CE5677089
:1039200038201A030239A375822E1236D2807430E1
:103930001C278A03EB30E71FC3E464808567F063CC
:10394000F08095F0500C758230C0031236D2D0034F
:1039500015670B8B0280DD8B02301C0EC3E4648084
:103960008567F063F08095F05021E5692493F8862F
:10397000038B82C0021236D2D002301C0EE56924BD
:1039800093F88603BB2E02800215671566C3E464B4
:10399000808567F063F08095F04003201C05056981
:1039A0000238EBC3E464808567F063F08095F050E3
:1039B0000A7582301236D2156780E830130FAA6676
:1039C0001566EA60087582201236D280F122E5671A
:1039D0007003301A0D74072567FAE566C39AF56619
:1039E0008006E56624FAF56675690078938602BA62
:1039F0002B0F20150C78937620201605756901058C
:103A000066201319AA66C3E464808AF063F0809587
:103A1000F0500A7582201236D2156680E7C21CE586
:103A2000692493F88602BA00028069BA451F300FF4
:103A3000027665C3E464808567F063F08095F0509A
:103A40000A7582301236D2156780E8D21CC3E56948
:103A50009402E433FA7014EA700EC3E4648085675C
:103A6000F063F08095F04003301C16E5692493F86C
:103A700086028A821236D2E56924FD5012156780CB
:103A80000E7402B56909301A0675822E1236D205F7
:103A900069023A1F301319AA66C3E464808AF0638E
:103AA000F08095F0500A7582201236D2156680E7B4
:103AB0002285825C85835DE4F563F564AA6AAB6B5D
:103AC000AC6C8A828B838CF0122680FD74012AF5FF
:103AD0006AE43BF56B8C6CEDFA7003024057BA2533
:103AE00002800302404FC213C214C215C216C2178D
:103AF000C218C219C21AC210C211C212756500756D
:103B000066007567FFAB6AAC6BAD6C8B828C838D86
:103B1000F0122680FAA3AB82AC838B6A8C6B8D6C1F
:103B2000BA25078A821236D280928A06BE300040B9
:103B30002E8A06EE24C6402774FFB56713E5667526
:103B4000F00AA4FEEA24D02EF56670BFD21480BB22
:103B5000E56775F00AA4FEEA24D02EF56780ACBABA
:103B60002E0A74FFB567A4756700809F8A06BE6140
:103B700000400E8A06EE248540075302DFD20F80F4
:103B800002C20FBA20028075BA2303023C0CBA2A83
:103B900003023C11BA2B02805FBA2D028055BA4253
:103BA00002805FBA4303023C56BA4403023D91BA15
:103BB0004503023DABBA4603023DA7BA4703023DA7
:103BC000AFBA4903023D91BA4C02803BBA4E0302A0
:103BD0003DB3BA4F03023D98BA5003023D2ABA538F
:103BE00003023C7ABA5503023D9DBA5803023DA236
:103BF000023DDDD213023B0BD215023B0BD2160263
:103C00003B0BD218023B0BD219023B0BD21A023BE0
:103C10000B74FFB5672030180BE56D14F8886D86BE
:103C200066023B0BE56D24FEF8886D860608860764
:103C3000188E66023B0B30180BE56D14F8886D8604
:103C400067023B0BE56D24FEF8886D860608860743
:103C5000188E67023B0B30180AE56D14F8886D86E4
:103C600002800FE56D24FEF8886D8603088604182F
:103C70008B028A821236D2023DE2E56D24FDF8887D
:103C80006D860308860408860518188B5E8C5F8D88
:103C9000608B828C838DF0122E8FAB82AC838B680D
:103CA00074FFB5670385686720131DC3E5689566D3
:103CB0005016E566C39568F566AB661566EB600859
:103CC0007582201236D280F1855E82855F838560A1
:103CD000F0122680FBFA6029AB671567C3E46480A5
:103CE0008BF063F08095F050188A821236D2AB5E6A
:103CF000AC5FAD600BBB00010C8B5E8C5F8D608098
:103D0000C7201303023DE2C3E56895664003023D08
:103D1000E2E566C39568F566AB661566EB7003026F
:103D20003DE27582201236D280EEE56D24FDF888E2
:103D30006D860308860408860518188B5E8C5F8DD7
:103D400060E560FB30E7047A438013EB5460600465
:103D50007A50800AEB30E6047A4980027A588A82E7
:103D6000C0021236D275823A1236D27582301236BD
:103D7000D27582781236D2D002BA4902800BBA507C
:103D8000028006855F82123705855E8212370580C4
:103D900051D21775650A804A756508804575650AB0
:103DA0008040756510803BD2108037D2118033D2AD
:103DB00012802FE56D24FDF8886D860308860408BF
:103DC000860518188B5E8C5F8D608B828C838DF0DE
:103DD000E563122C72A3E564122C7280058A8212AC
:103DE00036D2201006201103301270E56D24FCF845
:103DF000886D860308860408860508860618181844
:103E00008B5E8C5F8D608E61E55EE55FE560E561F0
:103E10008B828C838DF0EE12465974FFB567037563
:103E20006706301227747F5561FB8B62E562EB2BCE
:103E3000FB8B62E56030E70674014562F562E5627E
:103E400024684006749925624002D211301106128E
:103E500039CE023ABC12375B023ABCE56570030208
:103E60003ABC7B9830182BE56D14F8886DE6FC336E
:103E700095E0FDFEFF8C5E8D5F8E608F6120175E8A
:103E8000AC5E7D007E007F008C5E8D5F8E608F61FA
:103E9000804C30191FE56D24FCF8886D8604088677
:103EA000050886060886071818188C5E8D5F8E60D8
:103EB0008F61802AE56D24FEF8886D8604088605EA
:103EC00018ED3395E0FEFF8C5E8D5F8E608F612074
:103ED000170CAC5EAD5F7E007F008E608F61301A84
:103EE00043E55E455F4560456160397408B5650C22
:103EF000758230C0031236D2D00380287410B565A5
:103F000023758230C0031236D2D003300F0C758275
:103F100078C0031236D2D003800A758258C00312CB
:103F200036D2D003301725AC5EAD5FAE60E561FFE1
:103F300030E717C3E49CFCE49DFDE49EFEE49FFF94
:103F40008C5E8D5F8E608F618002C217756800D2B3
:103F50001B8B00756200C00012371CD000201B0DA7
:103F6000E562C4FCE6FD4CF61888038002A66205F3
:103F700068B21BE55E455F4560456170D68803E524
:103F800066700375660120141A201317E56804FC97
:103F9000C39566500E758220C0031236D2D0031529
:103FA0006680E930170E75822DC0031236D2D00319
:103FB00015668024E568602030150E75822BC003DD
:103FC0001236D2D0031566800F30160C758220C0D1
:103FD000031236D2D003156620131EAC661566C3D5
:103FE000E5689C50273014047C3080027C208C8251
:103FF000C0031236D2D00380E2C3E568956650094B
:10400000E566C39568F56680037566008B00AB684E
:104010001568EB6022B21B201B0A08E6C4540FFB94
:104020008B6280078603740F5BF562856282C00035
:104030001236ECD00080D7201303023ABCAB6615D1
:1040400066EB7003023ABC7582201236D280EE8A8B
:10405000821236D2023ABC85638285648322AA82A8
:10406000BA0A0810990280FB75990D10990280FB1D
:104070008A9922C2E72285825C85835D85F05EF5A0
:104080005FE4F568F569855C82855D83855EF0E5B2
:104090005F12407385826085836185F062F563E419
:1040A000C0E0C0E07480C0E0743FC0E085608285FD
:1040B00061838562F0E5631227D3AC82E58124FC3D
:1040C000F581EC602AC060C061C062C063900000EE
:1040D00075F080743F122D7085826085836185F054
:1040E00062F563E58124FCF581756802E4F5697485
:1040F000A3C0E07430C0E07489C0E0743EC0E085C5
:1041000060828561838562F0E5631227D3AC82E526
:104110008124FCF581EC70030241FCC060C061C0E9
:1041200062C0639067AF75F03B743F12285CAC824D
:10413000AD83AEF0FFE58124FCF581E4C0E0C0E092
:10414000C0E0743FC0E08C828D838EF0EF122D585A
:10415000AC82AD83AEF0FFE58124FCF581E4C0E0E4
:10416000C0E0C0E0743FC0E08C828D838EF0EF121F
:104170002D58AC82AD83AEF0FFE58124FCF581C003
:1041800060C061C062C0638C828D838EF0EF1229A3
:104190008885826A85836B85F06CF56DE58124FCEA
:1041A000F58174D7C0E074B3C0E074DDC0E0743F43
:1041B000C0E08560828561838562F0E563122988AD
:1041C000AC82AD83AEF0FFE58124FCF581C004C074
:1041D00005C006C007856A82856B83856CF0E56D36
:1041E000122D7085826085836185F062F563E581BB
:1041F00024FCF5810568E4B568020569856082855F
:1042000061838562F0E563124073AC82AD83AEF0EA
:10421000FFE4C0E0C0E07480C0E07439C0E08C828C
:104220008D838EF0EF122803AC82E58124FCF581AA
:10423000EC600BAC60AD61AE62AF6302435FC06027
:10424000C061C062C0638560828561838562F0E57C
:104250006312285C85826485836585F066F567E571
:104260008124FCF581C064C065C066C067908691FA
:1042700075F05074BD12285CAA82AB83A8F0F9E5F2
:104280008124FCF58174F6C0E07410C0E074F1C0C4
:10429000E074BEC0E08A828B8388F0E9122988AA84
:1042A00082AB83A8F0F9E58124FCF581C064C06588
:1042B000C066C0678A828B8388F0E912285CAA8274
:1042C000AB83A8F0F9E58124FCF581C060C061C032
:1042D00062C0638A828B8388F0E912285C85826AD7
:1042E00085836B85F06CF56DE58124FCF58174D3D5
:1042F000C0E074CCC0E074B4C0E0743FC0E085643A
:10430000828565838566F0E567122988AA82AB837A
:10431000A8F0F9E58124FCF581C002C003C000C00B
:1043200001856A82856B83856CF0E56D122D70AA1C
:1043300082AB83A8F0F9E58124FCF581C002C003BB
:10434000C000C0018560828561838562F0E56312EB
:104350002988AC82AD83AEF0FFE58124FCF581C3F2
:1043600074019568E464808569F063F08095F0508D
:1043700004EFB2E7FFAA68E569CA25E0CA33CA2597
:10438000E0CA33FBEA24E4F582EB3402F583E493DC
:10439000FAA3E493FBA3E493F8A3E493F9C002C067
:1043A00003C000C0018C828D838EF0EF122988AC8F
:1043B00082AD83AEF0FFE58124FCF581C004C00529
:1043C000C006C007E4C0E0C0E0C0E0C0E0855C8299
:1043D000855D83855EF0E55F122803AA82E581246E
:1043E000FCF581D007D006D005D004EA6004EFB216
:1043F000E7FF8C828D838EF0EF227F9E1244213066
:10440000D1030235D3C3EF9582500974FFF5F0F55F
:1044100083F58222790012368F89828A838BF0ECB1
:1044200022AA82AB83A2F73392D16002D2F7F5823F
:10443000ACF022AA82AB83ACF0757700757800C22D
:104440001F8A058B068C078D828E838FF012268043
:10445000F8B820028003B809070DBD00EA0E80E716
:104460008D028E038F04B82D0DD21D74012DFAE438
:104470003EFB8F04800EC21DB82B0974012DFAE497
:104480003EFB8F04757300757400757500757600BA
:104490008A058B068C078D828E838FF0122680F81A
:1044A000F9B930004005E824C650128D828E838F02
:1044B000F0122680F8B82E0280030245688D828EA5
:1044C000838FF0122680F9B92E05D21F024560C0F5
:1044D00005C006C007C005C006C007C001C073C044
:1044E00074C075C07690000075F020744112285C8D
:1044F00085827385837485F075F576E58124FCF5F6
:1045000081D001D007D006D005E93395E0FDE9243C
:10451000D0F582ED34FFF583122D63AD82AE83AF0B
:10452000F0F9C005C006C007C005C006C007C0013D
:104530008573828574838575F0E576122988858276
:104540007385837485F075F576E58124FCF581D05B
:1045500007D006D005D007D006D005301F0215774A
:104560000DBD00010E0244965300DF8D828E838FB5
:10457000F0E8122C72B8456274012DFAE43EFB8F0C
:10458000048A828B838CF0122680FDBD2D09D21EF9
:104590000ABA000D0B800AC21EBD2B050ABA000123
:1045A0000B7578008A828B838CF0122680FDFEBE0C
:1045B0003000401D8D06EE24C64016E57875F00AE1
:1045C000A4F578ED24D02578F5780ABA00D60B80CA
:1045D000D3301E06C3E49578F578E5772578F5782D
:1045E000E5786055E57830E728C073C074C075C0C1
:1045F0007690CCCD75F0CC743D12285C85827385A5
:10460000837485F075F576E58124FCF58105788065
:10461000CFC073C074C075C07690000075F0207470
:104620004112285C85827385837485F075F576E583
:104630008124FCF581157880A7301D0F8573738563
:104640007474857575E576B2E7F576857382857441
:10465000838575F0E57622E473C0E0F845824583F2
:1046600045F07009F5F0FBFCFDFE024727E823A2A8
:10467000F792E0F8A982AA83D2F7ABF07C007E071C
:10468000C3749798404074FF2EFE740A89F0A4F911
:1046900085F082740A8AF0A4FA85F083740A8BF09C
:1046A000A4FB740529F9EA3582FAEB3583FB740023
:1046B00035F0FCC3EC13FCEB13FBEA13FAE913F936
:1046C00008EC70EF80BAE8C3947FF88B838EF0E437
:1046D000FBFCFDFEFF08C3E933F9EA33FAE5833357
:1046E000F583EB3BD4FBEC3CD4FCED3DD4FDEE3E3E
:1046F000D4FEEF3FD4FF602D05F074052BD4FBE40E
:104700003CD4FCE43DD4FDE43ED4FEE43FD4FF754C
:104710008204C3EF13FFEE13FEED13FDEC13FCEB6D
:1047200013FBD582EDD8AF7893D0E020E704762B49
:104730008002762D087906E7C4540F4430F608B994
:104740000603762E08E7540F4430F60819B902E73D
:10475000764508E5F020E704762B8004762DF404F6
:104760000875F00A844430F608E5F04430F608E4B1
:10477000F690009375F04022000000000000000059
:00000001FF
