:100000000200037581A312033CE582600302006FC6
:10001000781979037A597B007C237D00EC4D601CB4
:1000200088828983E493A3A882A9838A828B83F040
:10003000A3AA82AB831CBCFFE31D80E07582007520
:1000400083007C597D00EC4D600AE4F0A31CBCFFEA
:10005000F51D80F27582007583007C007D00EC4DFB
:10006000600AE4F0A31CBCFFF51D80F212007412BC
:10007000245F80FE2200000000000000000000005D
:100090000000000210434572726F723A20436F7580
:1000A0006C64206E6F742066696E6420424D4D3121
:1000B00035302073656E736F722028436869702035
:1000C00049443A20307825303258290D0A005072C0
:1000D000657373207265737461727420746F20632A
:1000E0006865636B20616761696E210D00444F4E46
:1000F00045212043686970204944203D20307825FF
:100100003032580D0A00424D4D31353020696E694C
:100110007469616C697A6564207375636365737370
:1001200066756C6C792120436869702049443A20D7
:100130003078253032580D0A00436F6D6D616E6462
:100140003A20257300526573706F6E73653A2025EF
:10015000730D0A0041542B44564944303030300D61
:100160000A006D61737465725F6D657373676165B5
:100170005F6175746F5F6D6F64653A2025730D0A5A
:1001800000253033642C253033642C253031642C29
:100190002530316400253031642C253032642C2523
:1001A0006C642C253034642C25342E31660A0066AC
:1001B0003A2530346C642C2064313A25642C206458
:1001C000323A25642C20626F756E645F64656374D7
:1001D0006563743A2025640D0A004175746F206DC3
:1001E0006F64652066696E6973686564210D0A0035
:1001F0000D0A45464D384C423132204A44592D347F
:100200003020536C61766520546573742E0D0A009E
:1002100041542B5645520D0A0041542B424155443E
:100220000D0A0041542B524649440D0A0041542BFB
:10023000445649440D0A0041542B52464330303253
:100240000D0A0041542B504F57450D0A0041542BC5
:10025000434C53530D0A0041542B445649444546E0
:1002600031310D0A007765696768743A2025750D8C
:100270000A004D617374657220736179733A2025A9
:10028000730D0A00253033642C253033642C25632C
:100290002C25303164004A6F79737469636B205286
:1002A000656365697665643A205678203D2025644B
:1002B0002C205679203D2025642C204F72646572D5
:1002C000203D2025632C204175746F203D2025643E
:1002D0000D0A002A2A2A20424144204D4553534109
:1002E0004745202A2A2A3A2025730D0A00302C304F
:1002F000302C2530346C642C253034642C25342E7D
:1003000031660A0025730D0A0000000000920A06FB
:100310003FDB0FC93F920A863F000000000000014A
:10032000010101A100A6000000000000000000394A
:10033000303333733F0000000001000075A70075E3
:1003400097DE7597AD75FF8075EF0675A71075C1BF
:100350002075A70075A90075A900E5A930E7FB7510
:10036000A90375A903E5A930E7FB43A4C043A5068B
:1003700043A60175E10375E20075E34175D4077585
:10038000D5F9759810758DE6858D8B53890F438946
:1003900020D28ED299D2A075A21175A1E075F80174
:1003A00075A71075C00075D4FF75D5FF43F308D24B
:1003B000C2D2AF75A70075820022AA82438E407513
:1003C00092B87593FF8592948593957591047B00FF
:1003D000C3EB9A500BE59130E7FB53917F0B80F014
:1003E00075910022AA82AB837C007D00C3EC9AED5C
:1003F0009B502B7E00BE0400501D7582FAC002C0C7
:1004000003C004C005C0061203BAD006D005D0044C
:10041000D003D0020E80DE0CBC00D10D80CE228530
:1004200082A310FF0280FB85A38222AA824302805E
:10043000C2908A8212041F75820012041FD2902279
:10044000AA8253027FC2908A8212041F85248212DC
:10045000041FD29022900018E4F0900019F0900050
:100460001AF090001BF090001CE4F090001DF0903A
:10047000001EF090001FF0900020E4F0900021F0AA
:10048000900022F0900023F0900024E4F0900025EA
:10049000F0900026F0900027F07A00BA0200502772
:1004A000EA2418FBE43400FC745D2AF582C002C023
:1004B00003C00412042BAD82D004D003D0028B827F
:1004C0008C83EDF00A80D47A00BA04005027EA2425
:1004D0001AFBE43400FC74622AF582C002C003C037
:1004E0000412042BAD82D004D003D0028B828C8303
:1004F000EDF00A80D47A00BA0A005027EA241EFBE5
:10050000E43400FC74682AF582C002C003C00412FF
:10051000042BAD82D004D003D0028B828C83EDF00B
:100520000A80D4900018E0900008F0900019E09044
:10053000000AF090001CE0900009F090001DE0908F
:10054000000BF0900027E0900014F0900026E0905F
:100550000015F0900023E0FA53027F8A037A00909E
:100560000022E0FC7D00900016EC4AF0ED4BA3F079
:1005700022D29090000A1203E475248275824B12F5
:10058000044090000A1203E475240175824B1204A2
:10059000409000051203E475824012042BAA82BA2F
:1005A000320280348A037C00C003C0047496C0E029
:1005B0007400C0E07480C0E0122CEDE58124FBF5EE
:1005C0008174CEC0E07400C0E07480C0E0122CEDF5
:1005D00015811581158180E97B00C002C003C0022E
:1005E000C00374EDC0E07400C0E07480C0E0122C61
:1005F000EDE58124FBF58175240075824C120440E1
:1006000075247F75825112044075240E7582521232
:1006100004401204557406C0E07401C0E07480C048
:10062000E0122CEDE58124FBF58122ACF01228F4D8
:10063000FAA31228F4FBBA0006BBF003020871AC5F
:1006400025AD26AE278C828D838EF01228F4FCA374
:100650001228F4FD4C600A90002AECF0A3EDF08023
:100660001C900016E0FCA3E0FD4C600A90002AEC10
:10067000F0A3EDF0800790002AE4F0A3F090002AA8
:10068000E0FCA3E0FD4C7003020866900016E0FE5B
:10069000A3E0FFE4F8EFC85403A2E0C813C813A214
:1006A000E0C813C813C8F9EE030354C0FFEE0303F8
:1006B000543F48F87E008C7C8D7D757E00757F00F0
:1006C0008E828F8388F0E9C002C003122C2DAC8289
:1006D000E58324C0FD8C068D078E28EFF529339520
:1006E000E0F52AF52B8C068D078E7CEFF57D339592
:1006F000E0F57EF57F852882852983852AF0E52B24
:10070000C004C00512291085822885832985F02A16
:10071000F52B900015E0FE3395E0FFF8F9757C802D
:10072000E4F57DF57EF57F852882852983852AF08D
:10073000E52BC006C007C000C001122C2D85827CAD
:1007400085837D85F07EF57FD001D000D007D0066F
:100750008E828F8388F0E91229108582288583296B
:1007600085F02AF52BD005D004900014E0FEE45467
:1007700001A2E0CE13CE13CE8E7CF57D3395E0F54D
:100780007EF57FED3395E0FE8C828D838EF012290D
:1007900010AC82AD83AEF0FFEC2528FCED3529FDD1
:1007A000EE352AFEEF352BFF757C00757D02757ED8
:1007B00000757F008C828D838EF0EF122C2DAC8221
:1007C000AD83AEF0FF74102EFEE43FFF900009E011
:1007D000F83395E0F974A028F8E439887CF57D3386
:1007E00095E0F57EF57F8C828D838EF0EF122910D7
:1007F000757C00757D10757E00757F00122C2D852F
:10080000827C85837D85F07EF57FD003D002EB333B
:1008100095E0FC8A828B838CF0122910757C007520
:100820007D20757E00757F00122C2DAA82AB8390EF
:100830000008E0FC3395E0C40354F8CCC403CC6C4E
:10084000CC54F8CC6CFDEC2AF582ED3BF583757C3D
:1008500010E4F57D122F82E5828583F0900028F068
:10086000A3E5F0F08014900028E4F0A37480F080F9
:1008700009900028E4F0A37480F0900028E0FAA327
:10088000E08A82F58322ACF01228F4FAA31228F44D
:10089000FBBA0006BBF003020ACAAC2CAD2DAE2E8B
:1008A0008C828D838EF01228F4FCA31228F4FD4C68
:1008B000600A90002EECF0A3EDF0801C900016E092
:1008C000FCA3E0FD4C600A90002EECF0A3EDF0805C
:1008D0000790002EE4F0A3F090002EE0FCA3E0FDD2
:1008E0004C7003020ABF900016E0FEA3E0FFE4F89C
:1008F000EFC85403A2E0C813C813A2E0C813C8137A
:10090000C8F9EE030354C0FFEE0303543F48F87EDA
:10091000008C7C8D7D757E00757F008E828F838834
:10092000F0E9C002C003122C2DAC82E58324C0FD87
:100930008C068D078E2FEFF5303395E0F531F532CB
:100940008C068D078E7CEFF57D3395E0F57EF57F87
:10095000852F828530838531F0E532C004C00512D1
:10096000291085822F85833085F031F5329000156E
:10097000E0FE3395E0FFF8F9757C80E4F57DF57EC7
:10098000F57F852F828530838531F0E532C006C042
:1009900007C000C001122C2D85827C85837D85F0E7
:1009A0007EF57FD001D000D007D0068E828F83885D
:1009B000F0E912291085822F85833085F031F532D8
:1009C000D005D004900014E0FEE45401A2E0CE1360
:1009D000CE13CE8E7CF57D3395E0F57EF57FED333D
:1009E00095E0FE8C828D838EF0122910AC82AD834F
:1009F000AEF0FFEC252FFCED3530FDEE3531FEEF8E
:100A00003532FF757C00757D02757E00757F008C28
:100A1000828D838EF0EF122C2DAC82AD83AEF0FF71
:100A200090000BE0F83395E0F974A028F8E43988D9
:100A30007CF57D3395E0F57EF57F74102EFEE43F66
:100A40008C828D838EF0122910757C00757D107557
:100A50007E00757F00122C2D85827C85837D85F03C
:100A60007EF57FD003D002EB3395E0FC8A828B8346
:100A70008CF0122910757C00757D20757E00757FC5
:100A800000122C2DAA82AB8390000AE0FC3395E083
:100A9000C40354F8CCC403CC6CCC54F8CC6CFDEC3F
:100AA0002AF582ED3BF583757C10E4F57D122F82EB
:100AB000E5828583F090002CF0A3E5F0F08014909F
:100AC000002CE4F0A37480F0800990002CE4F0A3E3
:100AD0007480F090002CE0FAA3E08A82F5832285EE
:100AE000823685833785F03875824212042BAD82B9
:100AF000758243C00512042BAE82758244C0061273
:100B0000042BAF82758245C00712042BA882758220
:100B100048C00012042BA982758249C00112042B1F
:100B2000AA82D001D000D007D006D0055305F8ED39
:100B3000C423541FFDEE3395E0C42354E0CEC423F8
:100B4000CE6ECE54E0CE6EFB7C00900030ED4EF0C9
:100B5000EC4BA3F05307F8EFC423541FFFE8339581
:100B6000E0C42354E0C8C423C868C854E0C868FB84
:100B70007C00900032EF48F0EC4BA3F05301FCE90D
:100B80000303543FF9E45403A2E0CA13CA13A2E0DA
:100B9000CA13CA13CAFB7C00900034E94AF0EC4B3C
:100BA000A3F075253475260075270090003075F088
:100BB0000012062BAA82AB8385368285378385385F
:100BC000F0EA122F69A3EB122F69AA33AB34AC35CC
:100BD000752C34752D00752E0090003275F000C014
:100BE00002C003C004120886AD82AE83D004D003D5
:100BF000D0028A828B838CF0ED122F69A3EE022F34
:100C000069AA82AB83ACF0FD75A72075930C75C8FB
:100C1000107594008A7C8B7D8C7E8D7F90A20075F0
:100C2000F04A740412297EAA82AB83ACF0FD757C75
:100C300018E4F57DF57EF57F8A828B838CF0ED12CA
:100C4000297EAA82AB83ACF0FDE4C39AFAE49BFB55
:100C500074019CE49D8A958B96D2C943944075A7F4
:100C60000022AA8275A72010C90280FB8A9275A76C
:100C70000022AA82AB83ACF08A828B838CF012288C
:100C8000F4FD60188D82C002C003C004120C62D053
:100C900004D003D0020ABA00DF0B80DC2275A72043
:100CA00010C80280FB53C83F85928275A700227549
:100CB000A7207A007B0020C82675A700758214C083
:100CC00002C0031203BAD003D00275A7200ABA00EB
:100CD000010BBAA8E1BB61DE75A70075820A22C2CA
:100CE000C853C83F85928275A70022AA82AB83AC05
:100CF000F07D008A068B078C00C002C003C004C0D0
:100D000005C006C007C000120CAFA982D000D007F2
:100D1000D006D005D004D003D002B90A0A8A828B4B
:100D2000838CF0E4022F69C3ED953950180D8E8243
:100D30008F8388F0E9122F69A3AE82AF838E028F72
:100D400003880480B48A828B838CF0E4022F697557
:100D5000A720A2C875A70022AA82AB837C007D00D1
:100D6000C3EC9AED9B50477E00BE04005039C00290
:100D7000C003C004C005C006120D4FE433D006D036
:100D800005D004D003D0026001227582FAC002C0EF
:100D900003C004C005C0061203BAD006D005D004B3
:100DA000D003D0020E80C20CBC00B50D80B222AAC6
:100DB00082AB83ACF0C002C003C004C002C003C059
:100DC000047439C0E07401C0E07480C0E0122CEDFE
:100DD000E58124FAF581C2A09000051203E4D00455
:100DE000D003D0028A828B838CF0120C7275391377
:100DF00090008075F040120CEB90000A1203E4D2D0
:100E0000A07480C0E07400C0E07440C0E07445C0CD
:100E1000E07401C0E07480C0E0122CEDE58124FA9A
:100E2000F58122C2A090000A1203E490015475F0EB
:100E300080120C7290000A1203E453C83FD2A02221
:100E4000AA8274075AF5F005F07401800225E0D5F6
:100E5000F0FBFBEAC4540FFA24FC4022EA2A2A9051
:100E60000E6373020E6F020E73020E77020E7BEB9F
:100E700042A422EB42A522EB42A622EB429C22AAEC
:100E80008274075AF5F005F07401800225E0D5F070
:100E9000FBF4FBEAC4540FFA24FC4022EA2A2A900D
:100EA0000EA373020EAF020EB3020EB7020EBBEB1F
:100EB00052A422EB52A522EB52A622EB529C2275A1
:100EC000A700C2EF75B28075BC2075B91E75E80029
:100ED00075DF3F75B300D2EF22AA82857CF005F062
:100EE0007401800225E0D5F0FBFB75A720BA000253
:100EF000800ABA0102800FBA021E8014EBF4FA5283
:100F0000F1EB42D48012EBF4FA52F2EB42D58008B6
:100F1000EBF4FA52F3EB42CC75A700228582BBC2F8
:100F2000EDD2EC30EDFD85BD8285BE83229000368A
:100F3000E4F0A3F0A3F0A3F0C2A57A00C3EA6480B2
:100F400094984003020FCCD2A590003AE4F09000B0
:100F50003AE0FBC364809484500990003AE0240195
:100F6000F080EB900036E0FBA3E0FCA3E0FDA3E003
:100F7000FEEB2BFBEC33FCED33FDEE33FE90003645
:100F8000EBF0A3ECF0A3EDF0A3EEF030A61E900082
:100F900036E0FBA3E0FCA3E0FDA3E0FE9000367486
:100FA000014BF0A3ECF0A3EDF0A3EEF0C2A590008E
:100FB0003AE4F090003AE0FBC364809484500990D6
:100FC000003AE02401F080EB0A020F3CD2A5900029
:100FD0003AE4F090003AE0FAC364809484500990B7
:100FE000003AE02401F080EBC2A590003AE4F090D2
:100FF000003AE0FAC364809484500990003AE024F7
:1010000001F080EB900036E0FAA3E0FBA3E0FCA344
:10101000E0FD757C40757D42757E0F757F008A828C
:101020008B838CF0ED122B9FAA82AB83ACF0FD7505
:101030007C0AE4F57DF57EF57F8A828B838CF0ED6A
:1010400002297EC020C0E0C0F0C082C083C002C0C0
:1010500003C004C005C006C007C000C001C0D075F1
:10106000D00075A710C2C775D2C475D3FF90006BAE
:10107000E02401F0A3E03400F090006BE0FAA3E07C
:10108000FBBAE828BB032590006BE4F0A3F09000C6
:1010900079E0FA60171226F7AA82AB83900000EA83
:1010A000F0A3EBF0EB3395E0A3F0A3F090006DE03C
:1010B0002401F0A3E03400F090006DE0FAA3E0FB1F
:1010C000BA2021BB4E1E90006DE4F0A3F090007991
:1010D000E0FA6010120F2DE5828583F090007AF01F
:1010E000A3E5F0F0900059E02401F0A3E03400F013
:1010F000900059E0FAA3E0FBBA640ABB0007900035
:1011000059E4F0A3F090005EE0FA900059E0FBA3F0
:10111000E0FC7D00C3EB9AEC9D501390005FE0FA79
:101120006006D2A1C2A2800AC2A1D2A28004C2A13A
:10113000C2A290005DE0FA7D00C3EB9AEC9D5013D3
:10114000900060E0FA6006D2A4C2A3800AC2A4D2D2
:10115000A38004C2A4C2A390005BE02401F0A3E03A
:101160003400F090005BE0FAA3E0FBBAD00EBB07BE
:101170000B90005BE4F0A3F0D296D297900062E06F
:10118000FA90005BE0FBA3E0FC7D00EAB50306ED0E
:10119000B50402C296900061E0FA7D00B50306ED49
:1011A000B50402C297D0D0D001D000D007D006D06D
:1011B00005D004D003D002D083D082D0F0D0E0D0CC
:1011C00020329000627401F090006174FAF0900097
:1011D000C81203E490006274FAF0D2959000C8122D
:1011E00003E47A007B00C3EA9459EB648094805056
:1011F0001E900005C002C0031203E4D003D0029089
:101200000061E014900061F00ABA00DA0B80D79018
:1012100000C81203E47A007B00C3EA949FEB648069
:101220009480501E900005C002C0031203E4D00356
:10123000D002900062E014900062F00ABA00DA0B6B
:1012400080D79000C81203E47A007B00C3EA94417F
:10125000EB64809480501E900005C002C00312030E
:10126000E4D003D002900061E014900061F00ABA6B
:1012700000DA0B80D79001F41203E4C2959000C805
:101280001203E49000627401F09000617401F02296
:10129000AA82AB83C374E09A74AE8BF063F080953E
:1012A000F0401074E0957D74AE857EF063F080951B
:1012B000F050049000012290000022758224120E4A
:1012C00040758223120E40758222120E40758221D3
:1012D000120E40758217120E40758216120E40755E
:1012E0008215120E40758210120E40758230120E59
:1012F0007F758225120E40758226120E7F757C0343
:10130000758201120ED9757C04758201120ED912F4
:101310000EBF5389F0438901C28CC296C297C29511
:10132000C2A522AA82AB8390005F7401F090006096
:101330007401F090005D7432F090005E7432F08AB7
:10134000828B831203E490005FE4F0900060F090E1
:10135000005DF090005EF022AA82AB8390005F7483
:1013600001F0900060E4F090005D7450F0C002C0A5
:1013700003900071E0C0E0A3E0C0E0A3E0C0E0A300
:10138000E0C0E090000075F0A07442122AD0AC8258
:10139000AD83AEF0FFE58124FCF5818C828D838ED8
:1013A000F0EF1231AEE582D003D00290005EF08AF9
:1013B000828B831203E490005FE4F0900060F09071
:1013C000005DF090005EF02290005FE4F09000601D
:1013D000F090005D743CF0900071E0C0E0A3E0C0CC
:1013E000E0A3E0C0E0A3E0C0E090000075F07074FE
:1013F00042122AD0AA82AB83ACF0FDE58124FCF531
:10140000818A828B838CF0ED1231AEE58290005E92
:10141000F02290006FE0F57CA3E0F57D906255121C
:101420002B82E5828583F090006F2419F0743635A5
:10143000F0A3F090006FE0FAA3E08A82F583221215
:101440001412757CA6E4F57D122D0EE5828583F0DD
:101450002455F582E435F0F5832290003FE4F0A3B3
:10146000F0A3F0A3F0900043F0A3E4F0A3F0A3F006
:101470007A00BA0A00400302154475333D75340002
:1014800075350090003B75F000C002120ADF900035
:101490003BE0FBA3E0FC8B828C8312305A85823ABE
:1014A00085833B85F03CF53D90003FE0FFA3E0F8ED
:1014B000A3E0F9A3E0FBC03AC03BC03CC03D8F8233
:1014C000888389F0EB122C7FAB82AC83ADF0FEE514
:1014D0008124FCF58190003FEBF0A3ECF0A3EDF04C
:1014E000A3EEF090003DE0FBA3E0FC8B828C831226
:1014F000305A85823A85833B85F03CF53D90004328
:10150000E0FFA3E0F8A3E0F9A3E0FBC03AC03BC0D2
:101510003CC03D8F82888389F0EB122C7FAB82AC7C
:1015200083ADF0FEE58124FCF581900043EBF0A350
:10153000ECF0A3EDF0A3EEF09000011203E4D00272
:101540000A021472900043E0FAA3E0FBA3E0FCA3BC
:10155000E0FDE4C0E0C0E074C8C0E07441C0E08ACF
:10156000828B838CF0ED123067AA82AB83ACF0FDE6
:10157000E58124FCF58190003FE0FEA3E0FFA3E0BD
:10158000F8A3E0F9C002C003C004C005E4C0E0C095
:10159000E074C8C0E07441C0E08E828F8388F0E9B7
:1015A00012306785827485837585F076F577E581DD
:1015B00024FCF581D005D004D003D0028A828B832D
:1015C0008CF0ED122D5BAA82AB83ACF0FDC002C0A3
:1015D00003C004C00590000075F0347443122AD093
:1015E000AA82AB83ACF0FDE58124FCF58174DBC0FD
:1015F000E0740FC0E07449C0E07440C0E08A828BA0
:10160000838CF0ED123067AA82AB83ACF0FDE581EC
:1016100024FCF581900047EAF0A3EBF0A3ECF0A3E3
:10162000EDF0C002C003C004C005E4C0E0C0E0C0EB
:10163000E0C0E08A828B838CF0ED122A77AE82E5DF
:101640008124FCF581D005D004D003D002EE6032B5
:10165000E4C0E0C0E074B4C0E07443C0E08A828BB0
:10166000838CF0ED122C7FAA82AB83ACF0FDE58178
:1016700024FCF581900047EAF0A3EBF0A3ECF0A383
:10168000EDF0900047E0FAA3E0FBA3E0FCA3E0FD4F
:10169000C002C003C004C005E4C0E0C0E074B4C030
:1016A000E07443C0E08A828B838CF0ED122A47AE4F
:1016B00082E58124FCF581D005D004D003D002EE70
:1016C0006032E4C0E0C0E074B4C0E07443C0E08ABB
:1016D000828B838CF0ED12304FAA82AB83ACF0FD8D
:1016E000E58124FCF581900047EAF0A3EBF0A3EC40
:1016F000F0A3EDF0900047E0FAA3E0FBA3E0FCA329
:10170000E08A828B838CF02290004D7401F0E4A378
:10171000F0E4F53EF53FC3E53E9414E53F64809464
:101720008040030219FD90004DE0FCA3E0FD4C70E9
:10173000030219FDC004C005120D4FD005D00440AE
:101740000302186EC004C005120C9DAE82D005D0F5
:1017500004BE2102800302180A75391390008075B7
:10176000F040120CEB90008075F040123186AF8291
:10177000AA83BF0B05BA0002800302186E7480C0F2
:10178000E07400C0E07440C0E07462C0E07401C066
:10179000E07480C0E0122CEDE58124FAF581744BF1
:1017A000C0E07400C0E0E4C0E0744FC0E07400C06A
:1017B000E0E4C0E0744FC0E07400C0E0E4C0E07456
:1017C0004FC0E07400C0E0E4C0E07481C0E0740188
:1017D000C0E07480C0E07480C0E07400C0E0744079
:1017E000C0E0122A19E58124EEF58190004BE0FF5C
:1017F000A3E0FA4F600B90004D7401F0E4A3F08079
:101800006D90004DE4F0A3F08064BE4061900075DF
:10181000E0C0E0A3E0C0E0A3E0C0E0A3E0C0E0E4FB
:10182000C0E0C0E0900000E0C0E0A3E0C0E0A3E0C2
:10183000C0E0A3E0C0E0C03EC03FC004C005749556
:10184000C0E07401C0E07480C0E07480C0E0740047
:10185000C0E07440C0E0123009E58124ECF58190CD
:1018600000051203E490008075F040120C72121310
:10187000C8758209120F1CE5828583F0900004F080
:10188000A3E5F0F075820A120F1CAA82AB839000C8
:1018900006EAF0A3EBF0900004E0FCA3E0FD8A7DF3
:1018A0008B7E8C828D83121290AA82AB83C002C081
:1018B00003C002C003900006E0C0E0A3E0C0E090D7
:1018C0000004E0C0E0A3E0C0E0900000E0C0E0A3BE
:1018D000E0C0E0A3E0C0E0A3E0C0E074AFC0E0740B
:1018E00001C0E07480C0E0122CEDE58124F3F581A5
:1018F000D003D002900000E0FCA3E0FDA3E0FEA333
:10190000E0FFC3EC94DCED9414EE9400EF6480945B
:1019100080403B900079E4F090012CC002C003129B
:1019200013239000641203E41211C2D003D0020505
:101930003EE4B53E02053F900064C002C0031203BE
:10194000E49000797401F01213C8D003D002BA01F8
:1019500005BB000280030217169001F412132390B6
:1019600000641203E412145AAA82AB83ACF0FD9017
:101970000075EAF0A3EBF0A3ECF0A3EDF012143F36
:1019800085827C85837D900258122B82AA82AB834C
:10199000757C5AE4F57D8A828B83122AA71213582C
:1019A00012145A85824085834185F042F5439000A8
:1019B00075E0FEA3E0FFA3E0FAA3E0FBC040C04156
:1019C000C042C0438E828F838AF0EB12304FAA82CE
:1019D000AB83ACF0FDE58124FCF5818A828B838C9E
:1019E000F0ED1228F1AA82AB83ACF0FD900075EA0D
:1019F000F0A3EBF0A3ECF0A3EDF002171674DAC03D
:101A0000E07401C0E07480C0E0122CED15811581F6
:101A10001581221228F4F547A31228F4F548AC44A6
:101A2000AD45AE468C828D838EF01228F4FCA31255
:101A300028F4FD900063E0FEA3E0FFE547C39EF5B8
:101A400082E5489FF583C004C005122B7385827C14
:101A500085837D900064122B82AE82AF83900063F9
:101A6000E0F57CA3E0F57D8E828F83122F82E582E4
:101A70008583F0D005D004900051F0A3E5F0F090FC
:101A80000065E0FEA3E0FFECC39EF582ED9FF583C9
:101A9000C004C005122B7385827C85837D90006411
:101AA000122B82AE82AF83900065E0F54AA3E0F589
:101AB0004B854A7C854B7D8E828F83122F82AE822E
:101AC000AF83D005D004900063E0FAA3E0FBE547C4
:101AD000C39AF54DE5489BF54EECC3954AF547EDA5
:101AE000954BF54890005DE4F090005EF0C37405FE
:101AF0009EE464808FF063F08095F0E433F54970E4
:101B000003021BEE900051E0FAA3E0FBC3EA940548
:101B1000EB648094804003021BEE90005DEEF08E3B
:101B2000828F83C004C005C006C00712305AAA8243
:101B3000AB83A8F0F9900071E0C0E0A3E0C0E0A39F
:101B4000E0C0E0A3E0C0E08A828B8388F0E9122A3B
:101B5000D0AA82AB83A8F0F9E58124FCF5818A82C2
:101B60008B8388F0E91231AE85824CD007D006D045
:101B700005D00490005EE54CF0C3E49547E4648032
:101B80008548F063F08095F0500B90005FE4F09092
:101B90000060F0805990005F7401F0900060740163
:101BA000F0854C82C004C005C006C007122C22A8D4
:101BB00082A983AAF0FBC000C001C002C0039066E6
:101BC0006675F086743F122AD0AA82AB83A8F0F91A
:101BD000E58124FCF5818A828B8388F0E91231AE9D
:101BE000E582D007D006D005D00490005EF09000CA
:101BF00051E0F553A3E0F554C374059553E46480B4
:101C00008554F063F08095F0E433F54C7003021CCA
:101C1000B7C3EE9405EF648094804003021CB7C004
:101C200004C00590005DE553F0855382855483C060
:101C300006C00712305AAC82AD83AAF0FB90007147
:101C4000E0C0E0A3E0C0E0A3E0C0E0A3E0C0E08C1F
:101C5000828D838AF0EB122AD0AA82AB83ACF0FD8E
:101C6000E58124FCF581D007D0068A828B838CF035
:101C7000EDC004C005C006C0071231AEE582D00732
:101C8000D006D005D00490005EF0C3E4954DE46426
:101C900080854EF063F08095F0D005D004500D9013
:101CA000005F7401F0900060E4F0800B90005FE44E
:101CB000F09000607401F0E54C700122E54970017C
:101CC00022C3E49547E464808548F063F08095F092
:101CD00040030220F490005FE4F0900060F0C3E461
:101CE000954DE46480854EF063F08095F0400302EA
:101CF0001F3A8C7C8D7D900064C004C005C006C076
:101D000007122B82AA82AB83D007D006D005D0045D
:101D1000854A7C854B7D900064C002C003C004C02E
:101D200005C006C007122B82A882A983757C02E435
:101D3000F57D88828983122F82A882A983D007D05B
:101D400006D005D004D003D002C3E89AE964808BA2
:101D5000F063F08095F05003021E49C004C0059066
:101D6000005DEEF0900071E0F54FA3E0F550A3E0C8
:101D7000F551A3E0F5528E828F83C006C007123062
:101D80005AAA82AB83ACF0FDC002C003C004C005F8
:101D9000854F828550838551F0E552122AD0AA8260
:101DA000AB83ACF0FDE58124FCF581D007D006C003
:101DB00004C005C006C007C002C003C004C005902F
:101DC000000075F0C87442122AD085824F85835076
:101DD00085F051F552E58124FCF581D007D006D07D
:101DE00005D004EE2553F582EF3554F583C006C0C7
:101DF0000712305AAA82AB83ACF0FDC002C003C008
:101E000004C005854F828550838551F0E55212301C
:101E100067AA82AB83ACF0FDE58124FCF581D00795
:101E2000D0068A828B838CF0EDC004C005C006C04A
:101E3000071231AEE582D007D006D005D00490005D
:101E40005EF0D005D0040220F4C004C00590005D0F
:101E5000E553F0900071E0F54FA3E0F550A3E0F5F5
:101E600051A3E0F552855382855483C006C0071202
:101E7000305AAA82AB83ACF0FDC002C003C004C0DC
:101E800005854F828550838551F0E552122AD0AAEC
:101E900082AB83ACF0FDE58124FCF581D007D00650
:101EA000C004C005C006C007C002C003C004C0050E
:101EB00090000075F0C87442122AD085824F858345
:101EC0005085F051F552E58124FCF581D007D0060C
:101ED000D005D004EE2553F582EF3554F583C006C6
:101EE000C00712305AAA82AB83ACF0FDC002C00317
:101EF000C004C005854F828550838551F0E552129C
:101F00003067AA82AB83ACF0FDE58124FCF581D07B
:101F100007D0068A828B838CF0EDC004C005C00612
:101F2000C0071231AEE582D007D006D005D00490AC
:101F3000005EF0D005D0040220F48C7C8D7D9000F2
:101F400064C004C005C006C007122B82AA82AB83FE
:101F5000D007D006D005D004854A7C854B7D900003
:101F600064C002C003C004C005C006C007122B82B3
:101F7000A882A983757C02E4F57D88828983122F6B
:101F800082A882A983D007D006D005D004D003D080
:101F900002C3E89AE964808BF063F08095F0500307
:101FA00002204BC004C0058E7C8F7D900064C0046D
:101FB000C005C006C007122B82AA82AB83D007D00F
:101FC00006EE2553F57CEF3554F57D8A828B83C070
:101FD00006C007122F82AA82D007D006D005D004EF
:101FE00090005DEAF08E828F83C006C00712305ADF
:101FF000AA82AB83ACF0FD900071E0C0E0A3E0C02A
:10200000E0A3E0C0E0A3E0C0E08A828B838CF0ED27
:10201000122AD0AA82AB83ACF0FDE58124FCF581C5
:10202000D007D0068A828B838CF0EDC004C005C037
:1020300006C0071231AEE582D007D006D005D00425
:1020400090005EF0D005D0040220F4C004C00585E5
:10205000537C85547D900064C004C005C006C00751
:10206000122B82AA82AB83D007D006EE2553F57CD3
:10207000EF3554F57D8A828B83C006C007122F820C
:10208000AA82D007D006D005D00490005DEAF08582
:102090005382855483C006C00712305AAA82AB838C
:1020A000ACF0FD900071E0C0E0A3E0C0E0A3E0C0B0
:1020B000E0A3E0C0E08A828B838CF0ED122AD0AAE4
:1020C00082AB83ACF0FDE58124FCF581D007D0061E
:1020D0008A828B838CF0EDC004C005C006C0071255
:1020E00031AEE582D007D006D005D00490005EF076
:1020F000D005D004E54820E7012290005F7401F08C
:102100009000607401F0C3E4954DE46480854EF066
:1021100063F08095F040030222EE8C7C8D7D900070
:1021200064C006C007122B82AA82AB83D007D006F8
:10213000854A7C854B7D900064C002C003C006C008
:1021400007122B82A882A983757C02E4F57D888220
:102150008983122F82A882A983D007D006D003D00A
:1021600002C3E89AE964808BF063F08095F0500335
:1021700002222F90005DEEF0900071E0F54FA3E099
:10218000F550A3E0F551A3E0F5528E828F83C0068F
:10219000C00712305AAA82AB83A8F0F9C002C0036C
:1021A000C000C001854F828550838551F0E55212F1
:1021B0002AD0AA82AB83A8F0F9E58124FCF581C07E
:1021C00002C003C000C00190000075F0C874421244
:1021D0002AD085824F85835085F051F552E58124C0
:1021E000FCF581D007D006EE2553F582EF3554F586
:1021F0008312305AAA82AB83A8F0F9C002C003C090
:1022000000C001854F828550838551F0E552123020
:1022100067AA82AB83A8F0F9E58124FCF5818A8264
:102220008B8388F0E91231AEE58290005EF0229057
:10223000005DE553F0900071E0F54FA3E0F550A389
:10224000E0F551A3E0F552855382855483C006C062
:102250000712305AAA82AB83A8F0F9C002C003C0AB
:1022600000C001854F828550838551F0E552122AC6
:10227000D0AA82AB83A8F0F9E58124FCF581C002E5
:10228000C003C000C00190000075F0C87442122A5B
:10229000D085824F85835085F051F552E58124FC2D
:1022A000F581D007D006EE2553F582EF3554F5833E
:1022B00012305AAA82AB83A8F0F9C002C003C00052
:1022C000C001854F828550838551F0E552123067F9
:1022D000AA82AB83A8F0F9E58124FCF5818A828B80
:1022E0008388F0E91231AEE58290005EF0228C7CAA
:1022F0008D7D900064C006C007122B82AA82AB833A
:10230000D007D006854A7C854B7D900064C002C012
:1023100003C006C007122B82AC82AD83757C02E439
:10232000F57D8C828D83122F82AC82AD83D007D055
:1023300006D003D002C3EC9AED64808BF063F0808A
:1023400095F050030223D18E7C8F7D900064C006EF
:10235000C007122B82AA82AB83D007D006EE25538A
:10236000F57CEF3554F57D8A828B83C006C0071259
:102370002F82AA82D007D00690005DEAF09000710B
:10238000E0F54FA3E0F550A3E0F551A3E0F5528E40
:10239000828F8312305AA882A983AAF0FBC000C0A2
:1023A00001C002C003854F828550838551F0E552FC
:1023B000122AD0AA82AB83ACF0FDE58124FCF58122
:1023C0008A828B838CF0ED1231AEE58290005EF054
:1023D0002285537C85547D900064C006C007122B73
:1023E00082AA82AB83D007D006EE2553F57CEF3569
:1023F00054F57D8A828B83122F82AA8290005DEA37
:10240000F0900071E0FAA3E0FBA3E0FCA3E0FD85FF
:102410005382855483C002C003C004C00512305AE1
:10242000AE82AF83A8F0F9D005D004D003D002C0AB
:1024300006C007C000C0018A828B838CF0ED122A8F
:10244000D0AA82AB83ACF0FDE58124FCF5818A82C1
:102450008B838CF0ED1231AEE58290005EF022901D
:102460000053E4F0A3F0900055E4F0A3F09000577F
:10247000E4F0A3F07555301212BB1205719001F40F
:102480001203E474F0C0E07401C0E07480C0E01294
:102490002CED158115811581902580E4F5F0120C45
:1024A00001120E2390021075F080120DAF900219E8
:1024B00075F080120DAF90022375F080120DAF9071
:1024C000022D75F080120DAF90023775F080120D5D
:1024D000AF90024375F080120DAF90024D75F08001
:1024E000120DAF90025775F080120DAFC2A1C2A2BB
:1024F000C2A4C2A37431B5550C1211C29003E812E4
:1025000003E4755530900057E0FAA3E0FB4A600AF7
:10251000121708900057E4F0A3F012145AAA82ABE5
:1025200083ACF0FD900075EAF0A3EBF0A3ECF0A310
:10253000EDF090007AE0C0E0A3E0C0E07465C0E098
:102540007402C0E07480C0E0122CEDE58124FBF53C
:1025500081120D4F509E120C9DAA82BA2102800357
:1025600002266D75391390008075F040120CEB90C7
:10257000008075F040123186AB82AC83BB0B05BC8A
:10258000000280030226497480C0E07400C0E07439
:1025900040C0E07472C0E07402C0E07480C0E01219
:1025A0002CEDE58124FAF5817457C0E07400C0E099
:1025B000E4C0E07455C0E07400C0E07440C0E07452
:1025C00055C0E07400C0E0E4C0E07453C0E07400A3
:1025D000C0E0E4C0E07484C0E07402C0E07480C075
:1025E000E07480C0E07400C0E07440C0E0122A19BA
:1025F000E58124EEF581E555FB3395E0FC9000572D
:10260000E0C0E0A3E0C0E0C003C004900055E0C01B
:10261000E0A3E0C0E0900053E0C0E0A3E0C0E074BD
:1026200096C0E07402C0E07480C0E0122CEDE58139
:1026300024F5F581754455754500754600900053A5
:1026400075F000121A130224F47480C0E07400C004
:10265000E07440C0E074D3C0E07402C0E07480C095
:10266000E0122CEDE58124FAF5810224F4BA40024F
:1026700080030224F4900075E0C0E0A3E0C0E0A372
:10268000E0C0E0A3E0C0E090007AE0C0E0A3E0C0DA
:10269000E0900000E0C0E0A3E0C0E0A3E0C0E0A361
:1026A000E0C0E074EDC0E07402C0E07480C0E0748B
:1026B00080C0E07400C0E07440C0E0123009E581E1
:1026C00024F0F5817480C0E07400C0E07440C0E084
:1026D0007404C0E07403C0E07480C0E0122CEDE527
:1026E0008124FAF5819000051203E490008075F0D2
:1026F00040120C720224F4E4F510F511F512F513F2
:10270000F514F515F516C3E5159405E516648094E2
:102710008040030228A2758A00758C00C28D20B00B
:10272000FD30B0FDD28CA91430B008108D0280F8B5
:102730000980F520B008108D0280F80980F5C28C60
:102740008982122C22A982AA83ABF0FCC001C002AC
:10275000C003C00490000075F0807447122AD08531
:10276000821785831885F019F51AE58124FCF58117
:10277000858C82122C22A982AF83A8F0FAC001C0F6
:1027800007C000C00290000075F0807443122AD088
:10279000AA82AB83ACF0FDE58124FCF581C002C0C8
:1027A00003C004C0058517828518838519F0E51AD2
:1027B000122C7F85821785831885F019F51AE5811B
:1027C00024FCF581AF8A78008F82888312305AAF5B
:1027D00082A883A9F0FAC007C000C001C002851713
:1027E000828518838519F0E51A122C7FAA82AB83A3
:1027F000ACF0FDE58124FCF581C002C003C004C03B
:102800000590F4FC75F0327434122AD0AA82AB839E
:10281000ACF0FDE58124FCF581751400C002C00315
:10282000C004C00590000075F0207441122AD0AA9F
:1028300082AB83ACF0FDE58124FCF581C002C003CE
:10284000C004C00590000075F080743F123067AA84
:1028500082AB83ACF0FDE58124FCF5818510828597
:1028600011838512F0E513C002C003C004C0051235
:102870003211122C7FAA82AB83ACF0FDE58124FCDF
:10288000F5818A828B838CF0ED1231B685821085BA
:10289000831185F012F5130515E4B515020516022E
:1028A00027068510828511838512F0E513123211F7
:1028B000AA82AB83ACF0FDE4C0E0C0E074A0C0E04D
:1028C0007440C0E08A828B838CF0ED123067AA825C
:1028D000AB83ACF0FDE58124FCF5818A828B838C8F
:1028E000F0ED1231B685821085831185F012F51353
:1028F00022C2E72220F71430F6148883A88220F53C
:1029000007E6A88375830022E280F7E49322E022A1
:10291000AAF0FBE582857CF0A4FCADF0E583857C24
:10292000F0A42DFDE435F0FEE582857DF0A42DFDBB
:10293000E5F03EFEE433FFEA857CF0A42EFEE5F0F0
:102940003FFFE583857DF0A42EFEE5F03FFFE582A5
:10295000857EF0A42EFEE5F03FFFEB857CF0A42FF2
:10296000FFEA857DF0A42FFFE583857EF0A42FFF8D
:10297000E582857FF0A42F8EF08D838C8222FB7AF6
:1029800020E4FCFDFEFFE5822582F582E58333F538
:1029900083E5F033F5F0EB33FB4017DAE98042E5ED
:1029A000822582F582E58333F583E5F033F5F0EB9C
:1029B00033FBEC33FCED33FDEE33FEEF33FFEC95F0
:1029C0007CED957DEE957EEF957F4013EC957CFC3C
:1029D000ED957DFDEE957EFEEF957FFF438201DA5A
:1029E000BEEB22AA08AB09AC0A8A828B838CF01258
:1029F00028F4FA0508E4B5080205098A82228582CE
:102A00000885830985F00A850B6D850C6E850D6F31
:102A1000850E709029E302344EC00F85810FE50FBB
:102A200024F8F570E50F24FBF88608088609088667
:102A30000AE50F24F8F8866D08866E08866F9029DF
:102A4000E312344ED00F22FFA881181812387ED21C
:102A5000D133E6400730E70B7582012220E7067587
:102A6000820022C2D1123860E97003F5822230D18F
:102A700001B3E433F58222FFA881181812387ED200
:102A8000D133E6400730E70B7582002220E7067558
:102A9000820122C2D1123860E97003F5822220D16E
:102AA00001B3E433F582227A10E4FBFCE58225E0F1
:102AB000F582E58333F583EB33FBEC33FCEB957C5C
:102AC000F5F0EC957D4006FCABF0438201DADD22A7
:102AD00012392BBC00030238CAEF60FA30D502B2BB
:102AE000D1E583B4FF030238E0E582B4FF03023886
:102AF000E0258340072482400B0238CA2483145007
:102B0000030238E0F582EA8DF0A4A8F0EA8EF0A482
:102B100028F8E435F0F9EB8DF0A428E935F0F9E474
:102B200033CA8FF0A429F9EA35F0FAEBF88EF0A455
:102B300029F9EA35F0FAE433FBEC8DF0A429F9EA3F
:102B400035F0FAE43BFBE88FF0A42AFAEB35F0FB12
:102B5000E433CCFD8EF0A42AFAEB35F0FBE43CFC28
:102B6000ED8FF0A42BFBEC35F0FC20E7031238F8D6
:102B70000238A9E58330E709F4F583E582F4F582AC
:102B8000A322E582857CF0A4C582C0F0857DF0A4F7
:102B9000D0F025F0C583857CF0A42583F58322F948
:102BA000E57C457D457E457F60777800C308E57FFD
:102BB00020E73BE57C25E0F57CE57D33F57DE57E92
:102BC00033F57EE57F33F57FE582957CE583957D62
:102BD000E5F0957EE9957F50D4C3E57F13F57FE559
:102BE0007E13F57EE57D13F57DE57C13F57CE582AE
:102BF000957CFCE583957DFDE5F0957EFEE9957F6E
:102C00004007F98EF08D838C82C3E57F13F57FE555
:102C10007E13F57EE57D13F57DE57C13F57CD8CE3E
:102C2000E922E4AC82FBFAF97486023962FBC2D570
:102C300030E715D2D5E4C39582F582E49583F58318
:102C4000E495F0F5F0E49BFBE57F30E717B2D5E4BF
:102C5000C3957CF57CE4957DF57DE4957EF57EE479
:102C6000957FF57FEB12297E30D513FBE4C3958267
:102C7000F582E49583F583E495F0F5F0E49B221268
:102C8000392B7900E583B58202800D500312396C2F
:102C9000E583C39582123986E5D0C465D020E1175B
:102CA000EA2DFAEB3EFBEC3FFC5009740112398629
:102CB000EC4480FC0238A9C3EA9DFAEB9EFBEC9F32
:102CC000FC500FC3E499F9E49AFAE49BFBE49CFC02
:102CD000B2D11238F80238A902435585826B858338
:102CE0006C85F06D851D6E902CD8023DA8C00F85B7
:102CF000810FE50F24FBF56EE50F24FBF8866B08CA
:102D0000866C08866D902CD8123DA8D00F22E57CE9
:102D1000457D60467A01E57C25E0F57CE57D334024
:102D200012F57DE582957CE583957D40030A80E67A
:102D3000C3E57D13F57DE57C13F57CC3E582957CC9
:102D4000F5F0E583957D4005F58385F082C3E57D4B
:102D500013F57DE57C13F57CDAE1228582788583A5
:102D60007985F07AF57BE5784579457A857BF0C2FF
:102D7000F745F0701CE574457545768577F0C2F728
:102D800045F0700D751B21E4F51C900000E4F5F092
:102D9000228574828575838576F0E5771228F1AEF9
:102DA00082AF83A8F0F9857882857983857AF0E50A
:102DB0007BC006C007C000C0011228F1AA82AB8305
:102DC000ACF0FDD001D000D007D006C002C003C0D7
:102DD00004C0058E828F8388F0E9122A77AA82E5E3
:102DE0008124FCF581EA6003022EC0C074C075C066
:102DF00076C077857882857983857AF0E57B123095
:102E000067AA82AB83ACF0FDE58124FCF5818A8260
:102E10008B838CF0ED12436AAA82AB83ACF0FDC0C9
:102E200002C003C004C005E4C0E0C0E0C0E0C0E0F0
:102E30008574828575838576F0E577122A77AE8270
:102E4000E58124FCF581D005D004D003D002EE70DA
:102E500003022F61C002C003C004C005E4C0E0C08B
:102E6000E0C0E0C0E0857882857983857AF0E57BF3
:102E7000122A77AE82E58124FCF581D005D004D0FA
:102E800003D002EEB40100E433FE600A7EDB7F0F64
:102E90007849794080087EDB7F0F784979C0C00689
:102EA000C007C000C0018A828B838CF0ED122C7F9A
:102EB000AA82AB83ACF0FDE58124FCF581022F6191
:102EC000C078C079C07AC07B857482857583857629
:102ED000F0E577123067AE82AF83A8F0F9E5812480
:102EE000FCF5818E828F8388F0E912436AAE82AF4F
:102EF00083A8F0F98E028F038804E9B2E7FDC002CF
:102F0000C003C004C005E4C0E0C0E0C0E0C0E0858C
:102F10007882857983857AF0E57B122A77AE82E51F
:102F20008124FCF581D005D004D003D002EE600AE4
:102F30007EDB7F0F78C979BF80087EDB7F0F78C981
:102F4000793FC006C007C000C0018A828B838CF025
:102F5000ED122C7FAA82AB83ACF0FDE58124FCF559
:102F6000818A828B838CF0ED2220F71030F6118855
:102F700083A88220F507F6A88375830022F280F7E4
:102F8000F022C2D5E58330E70DD2D5E4C39582F5B2
:102F900082E49583F583E57D30E70DB2D5E4C395F2
:102FA0007CF57CE4957DF57D122AA730D50BE4C332
:102FB0009582F582E49583F58322AA82AB56AC57BD
:102FC000AD588B828C838DF0EA122F690556E4B5DB
:102FD000560205572285825685835785F0588559B4
:102FE0006B855A6C855B6D855C6E902FBA123DA81F
:102FF000AA82AB83AC56AD57AE588C828D838EF0CF
:10300000E4122F698A828B8322C00F85810FE50F1E
:1030100024F8F56EE50F24FBF886560886570886D7
:1030200058E50F24F8F8866B08866C08866D902F9B
:10303000BA123DA8AA82AB83AC56AD57AE588C826B
:103040008D838EF0E4122F698A828B83D00F22A8A1
:10305000811818C6B2E7C6022C7FAC83AB827A0017
:103060007900748E02321A12392B30D502B2D1BFD8
:103070000009BC00030238ED0238E0BC000302384E
:10308000CAE583B4FF0BE582B4FF030238ED0238D2
:10309000CAE582B4FF030238E0C395835007247F5A
:1030A000400B0238CA24801450030238E0C0E0E428
:1030B000CCCBCAF98D7C8E7D8F7EEF54F0C4F57F2A
:1030C000758306857FF0EB84F582E9C4F9EAC4FADA
:1030D000EBC4FBEC540FC47803D6FC18EBD6FB18FA
:1030E000EAD6FA8582F0EDA4A8F0FD8582F0EEA480
:1030F00028FEE435F0F88582F0EFA428FFE435F0EF
:10310000F8E99DF9EA9EFAEB9FFBEC98FCAD7CAEEA
:103110007DAF7E30E7101582E92DF9EA3EFAEB3FEC
:10312000FBE43CFC80EDC082D58398C3E933F9EA27
:1031300033FAEB33FBEC33FCC3E99DEA9EEB9FECE7
:103140009400B3E413F9D002D0E0C44AFAD003D01B
:10315000E0C44BFBD004D0E0F5F0540FC44CFCD0DD
:1031600082158230F40FD3EC13FCEB13FBEA13FA55
:10317000E913F90582E930E70A74012AFAE43BFB16
:10318000E43CFC0238C1AA82AB83ACF07D007E0037
:103190008A828B838CF01228F4FFA3AA82AB83EF80
:1031A00060070DBD00EA0E80E78D828E83227F8648
:1031B0001246F0F58222124715C3749E958240395B
:1031C000790012398630D126E9F42401F582EAF437
:1031D0003400F583EBF43400F5F0ECF43400700ABD
:1031E000E582458345F0700122E430E70F22EC20B0
:1031F000E71489828A838BF02230D10AE4F582F5C4
:1032000083F5F074802274FFF582F583F5F0747F06
:1032100022FCABF0AA83A982749EF582C2D1EC3065
:10322000E716D2D1E9F42401F9EAF43400FAEBF418
:103230003400FBECF43400FC1238F80238A9855D48
:1032400082855E8312494B85826CE56C600A056657
:10325000E4B5660605678002D20B856C82227A008F
:103260007B00300B057894760022C002C003123236
:103270003EAC82D003D002BC0002802DBC0802808C
:1032800014BC09028023BC0A02801EBC0D028019F6
:10329000BC20218014EA4B60D11ABAFF011B1566CD
:1032A00074FFB56602156780C1EA4B60BDEA2494DD
:1032B000F8760022EC7009EA2494F87600D20B220A
:1032C000ECB56B07EA2494F8760022C3EA940FEB7E
:1032D000940050968A058B060ABA00010BED2494DF
:1032E000F8A60402326AAA827B7FC3EA648094B0A3
:1032F000401174B98AF063F08095F04006EA24D05A
:10330000FB8030C3EA648094C1401174C68AF063C4
:10331000F08095F0400674C92AFB8017C3EA6480E8
:1033200094E1400F74E68AF063F08095F0400474F5
:10333000A92AFBC3EB956850038B822275827F22FA
:10334000AA827562007563007564007565008A0065
:10335000E6FA60148A82C0001232E6AB82D000C363
:10336000EB956840030880E886038B82C000123228
:10337000E6AA82D000C3E5689A405085687C757DD6
:1033800000757E00757F008562828563838564F0A9
:10339000E565C002C000122910AB82AC83ADF0FE1F
:1033A000D000D0028B628C638D648E65E4FBFCFDE3
:1033B000EA2562FAEB3563FBEC3564FCED3565FD1F
:1033C0008A628B638C648D6508809D8562828563CB
:1033D000838564F0E56522AA8275620075630075D5
:1033E00064007565008A00E6FB60228B82C003C022
:1033F000001232E6AC82D000D003C3EC9568400DD9
:10340000BB2D028008BB2B0280030880DA8802866D
:1034100003BB2D03D38001C3920EBB2D028003BBDF
:103420002B010A8A82123340300E13C3E49562FAEC
:10343000E49563FBE49564FCE49565FD8008AA626D
:10344000AB63AC64AD658A828B838CF0ED228582A0
:103450005D85835EE4F566F567F56AC20BAA6DAB20
:103460006EAC6F8A828B838CF01228F4FD74012A73
:10347000F56DE43BF56E8C6FEDFA7003023857BAC8
:10348000250280030237F0D20AC208756800756908
:1034900000C20CC20DAB6DAC6EAD6F8B828C838D98
:1034A000F01228F4FAA3AB82AC838B6D8C6E8D6F17
:1034B0008B828C838DF01228F4F56B8A06BE300067
:1034C00040168A06EE24C6400FE56975F00AA4FE90
:1034D000EA24D02EF56980C38A06BE6100400A8ABC
:1034E00006EE248540035302DFBA250280ADBA2AD6
:1034F000028057BA42028048BA43028052BA44035B
:10350000023613BA4503023629BA4603023629BAEF
:103510004703023629BA4903023613BA4C02802502
:10352000BA4E0302367EBA4F03023619BA530280EE
:1035300020BA5503023611BA58030236210236A6C4
:10354000D20802349BD20902349BD20C02349BD2A3
:103550000D200C17E57024FDF8887086030886049A
:1035600008860518188B5F8C608D61E569700B30DB
:103570000D047B0180027BFF8B69756800C3E568E1
:103580009569500512323EAA82300B07E568700338
:103590000236A6EA601ABA2002800DBA0902800833
:1035A000BA0D028003BA0A03300D05E569B5681F3C
:1035B000E56860C9200C12056AAB5FAC60AD618B39
:1035C000828C838DF0E4122F697568000236A6BAEA
:1035D000081CE56860A7200C11AB5FAC60AD611BF7
:1035E000BBFF011C8B5F8C608D611568808F200C88
:1035F0001BAB5FAC60AD618B828C838DF0EA122FC8
:10360000690BBB00010C8B5F8C608D610568023516
:103610007DC20A75680A0236A6C20A7568080236B3
:10362000A6C20A7568100236A612325E7894E66069
:1036300075200C72E57024FDF8887086710886721A
:10364000088673181885715F8572608573619000B4
:103650009475F040124727AE82AF83ABF0FC8571C2
:10366000828572838573F0EE122F69A3EF122F69A2
:10367000A3EB122F69A3EC122F69056A8028E5706D
:1036800024FDF88870860308860408860518188BC0
:103690005F8C608D618B828C838DF0E566122F6963
:1036A000A3E567122F69E56870030237F012325EF6
:1036B0007894E670030237F0300C030237F0E570BF
:1036C00024FDF88870860308860408860518188B80
:1036D0005F8C608D61056A200A0302376930093505
:1036E000855F718560728561737582941233D7AE80
:1036F00082AF83ABF0FC8571828572838573F0EEB7
:10370000122F69A3EF122F69A3EB122F69A3EC12FA
:103710002F690237F0300826855F718560728561F8
:10372000737582941233D7AE82AF83ABF0FC857190
:10373000828572838573F0EE122F690237F0855F00
:10374000718560728561737582941233D7AE82AFD2
:1037500083ABF0FC8571828572838573F0EE122F46
:1037600069A3EF122F690237F0300934855F718544
:103770006072856173758294123340AE82AF83AB01
:10378000F0FC8571828572838573F0EE122F69A338
:10379000EF122F69A3EB122F69A3EC122F6980504F
:1037A000300825855F71856072856173758294121A
:1037B0003340AE82AF83ABF0FC8571828572838526
:1037C00073F0EE122F698028855F718560728561C4
:1037D00073758294123340AE82AF83ABF0FC857177
:1037E000828572838573F0EE122F69A3EF122F6921
:1037F000200B0302345DAB6DAC6EAD6F8B828C839E
:103800008DF01228F4FEA3AB82AC838B6D8C6E8D91
:103810006FEEFA700302345DBA25E18B828C838DE2
:10382000F01228F4FABA6E028003BA4ECFE5702483
:10383000FDF88870860208860608860718188A5FD1
:103840008E608F618A828E838FF0E566122F69A366
:10385000E567122F6980A5AA6A7B008A828B832282
:103860007901AA82E68F82B5821318E6B5F00E18A8
:10387000E6B5830918E68A82B58202790022B4800F
:103880000FE5F0700AE5837006E58270027F00EFB5
:10389000B6801518B6001018B6000B18B60006084A
:1038A000080876002208080822B98003EA13B3400A
:1038B00010EA2401FAE43BFBE43CFC50047C800564
:1038C00082BC000EBB000BBA0008E4F5F0F583F5EE
:1038D0008222A2D1E582138CF092F78B838A822216
:1038E000E4F583F58275F080F4A2D11322E4F58328
:1038F000F58275F0C0747F227804EC7011E58224A3
:10390000F8500AF582E4C9CACBFCD8EF22EC782043
:10391000058220E713D5820122C3E933F9EA33FA9D
:10392000EB33FBEC33FCD8EA158222AA82AB83A2EC
:10393000F73392D16002D2F7F582ACF0E58124F939
:10394000F8E6FD08E6FE0886F008E6A2F73392D511
:103950006002D2F7F583AFF022FCABF0AA83A98214
:10396000749EC2D1F5821238F80238A9E582C58367
:10397000F582A2D133A2D592D11392D5ECCFFCEB34
:10398000CEFBEACDFA226040F82582500274FFF5A2
:1039900082E824F8501ECCCBCAF9E4CC24F85014A9
:1039A000CBCAF9E4CB24F8500BCAF9E4CA24F85086
:1039B0000379002224086010F8C3EC13FCEB13FB1E
:1039C000EA13FAE913F9D8F122AA8274DAC0E07492
:1039D00039C0E0C05DC05E8A82220564E4B564023D
:1039E000056522AA8274302AFA24C6500A74072A6E
:1039F000FA300F034302208A820239C9E582FAC4F1
:103A0000540FF582C0021239E3D002740F5AF582C6
:103A10000239E3AA5FAB60AC61AD62AE63756A2048
:103A2000EE2EFEED235401FF4206EA2AFAEB33FBA9
:103A3000EC33FCED33FDC3EE95664008EEC39566AE
:103A4000FE430201D56AD98A5F8B608C618D628EDC
:103A5000632278A0E624D075F00AA4FA78A1E624BF
:103A6000D02AFA789F8603BB2D04C3E49AFA7566C0
:103A700001C3E464808AF063F08095F05029756A90
:103A8000038A0374F6256A401C0566E56A142494CB
:103A9000F8E56A2494F98704A604772E1BEBFA60F4
:103AA00004056A80DE8B02EA30E70D78958603789C
:103AB00096A6037895762E0AE568600AE56804FB09
:103AC0002566F5668005301A02056678948603E45B
:103AD000BB2D0104FB70062015033016020566306D
:103AE0001303023B99301457EB600C75822DC00212
:103AF0001239C9D002801C30150C75822BC00212FD
:103B000039C9D002800D30160A758220C0021239E0
:103B1000C9D00278958604BC2E0C758230C0021282
:103B200039C9D0021567AC671567C3E5669C4003C9
:103B3000023BDD758230C0021239C9D00280E7AC89
:103B4000671567C3E5669C500C758220C002123968
:103B5000C9D00280EA78948604BC2D0C75822DC0F1
:103B6000021239C9D002801C30150C75822BC0029C
:103B70001239C9D002800D30160A758220C0021297
:103B800039C9D00278958604BC2E52758230C002A5
:103B90001239C9D00215678044EB600E75822DC0C2
:103BA000021239C9D0021567802030150E75822B9C
:103BB000C0021239C9D0021567800F30160C758209
:103BC00020C0021239C9D002156778958603BB2E32
:103BD0000C758230C0021239C9D0021567756A01AE
:103BE000C21CE56A2494F88603BB4503023C9ABBD9
:103BF0002E348A03C3E464808BF063F08095F05028
:103C00000F758230C0031239C9D0031B8B0280E4C8
:103C10008B02D21CE5687038201A03023C9A758228
:103C20002E1239C98074301C278A03EB30E71FC37A
:103C3000E464808568F063F08095F0500C75823004
:103C4000C0031239C9D00315680B8B0280DD8B02CB
:103C5000301C0EC3E464808568F063F08095F050FA
:103C600021E56A2494F886038B82C0021239C9D0F8
:103C700002301C0EE56A2494F88603BB2E028002F3
:103C800015681567C3E464808568F063F08095F07B
:103C90004003201C05056A023BE2C3E4648085689A
:103CA000F063F08095F0500A7582301239C91568BA
:103CB00080E830130FAA671567EA60087582201242
:103CC00039C980F122E5687003301A0D7407256840
:103CD000FAE567C39AF5678006E56724FAF5677524
:103CE0006A0078948602BA2B0F20150C78947620FF
:103CF000201605756A010567201319AA67C3E464D5
:103D0000808AF063F08095F0500A7582201239C9DC
:103D1000156780E7C21CE56A2494F88602BA00029F
:103D20008069BA451F300F027665C3E464808568F8
:103D3000F063F08095F0500A7582301239C9156829
:103D400080E8D21CC3E56A9402E433FA7014EA7086
:103D50000EC3E464808568F063F08095F040033022
:103D60001C16E56A2494F886028A821239C9E56A2B
:103D700024FD50121568800E7402B56A09301A06C7
:103D800075822E1239C9056A023D16301319AA67C9
:103D9000C3E464808AF063F08095F0500A75822055
:103DA0001239C9156780E72285825D85835EE4F557
:103DB00064F565AA6BAB6CAC6D8A828B838CF01258
:103DC00028F4FD74012AF56BE43BF56C8C6DEDFA7B
:103DD000700302434EBA25028003024346C213C257
:103DE00014C215C216C217C218C219C21AC210C212
:103DF00011C2127566007567007568FFAB6BAC6C1D
:103E0000AD6D8B828C838DF01228F4FAA3AB82AC5B
:103E1000838B6B8C6C8D6DBA25078A821239C980B1
:103E2000928A06BE3000402E8A06EE24C6402774D1
:103E3000FFB56813E56775F00AA4FEEA24D02EF5F5
:103E40006770BFD21480BBE56875F00AA4FEEA244F
:103E5000D02EF56880ACBA2E0A74FFB568A47568D8
:103E600000809F8A06BE6100400E8A06EE248540CF
:103E7000075302DFD20F8002C20FBA20028075BA48
:103E80002303023F03BA2A03023F08BA2B02805FD2
:103E9000BA2D028055BA4202805FBA4303023F4DF9
:103EA000BA4403024088BA45030240A2BA4603025C
:103EB000409EBA47030240A6BA4903024088BA4C62
:103EC00002803BBA4E030240AABA4F0302408FBAA7
:103ED0005003024021BA5303023F71BA5503024016
:103EE00094BA58030240990240D4D213023E02D23F
:103EF00015023E02D216023E02D218023E02D2192A
:103F0000023E02D21A023E0274FFB5682030180B3E
:103F1000E56E14F8886E8667023E02E56E24FEF8B0
:103F2000886E8606088607188E67023E0230180BD8
:103F3000E56E14F8886E8668023E02E56E24FEF88F
:103F4000886E8606088607188E68023E0230180AB8
:103F5000E56E14F8886E8602800FE56E24FEF88800
:103F60006E8603088604188B028A821239C90240C1
:103F7000D9E56E24FDF8886E860308860408860558
:103F800018188B5F8C608D618B828C838DF0123161
:103F900086AB82AC838B6974FFB568038569682042
:103FA000131DC3E56995675016E567C39569F56705
:103FB000AB671567EB60087582201239C980F185FF
:103FC0005F828560838561F01228F4FBFA6029AB7B
:103FD000681568C3E464808BF063F08095F0501836
:103FE0008A821239C9AB5FAC60AD610BBB00010CBA
:103FF0008B5F8C608D6180C72013030240D9C3E5BD
:1040000069956740030240D9E567C39569F567ABD9
:10401000671567EB70030240D97582201239C98099
:10402000EEE56E24FDF8886E860308860408860592
:1040300018188B5F8C608D61E561FB30E7047A4373
:104040008013EB546060047A50800AEB30E6047A07
:104050004980027A588A82C0021239C975823A129E
:1040600039C97582301239C97582781239C9D002BE
:10407000BA4902800BBA500280068560821239FC70
:10408000855F821239FC8051D21775660A804A75A5
:104090006608804575660A8040756610803BD210C0
:1040A0008037D2118033D212802FE56E24FDF8883C
:1040B0006E860308860408860518188B5F8C608D51
:1040C000618B828C838DF0E564122F69A3E5651204
:1040D0002F6980058A821239C92010062011033009
:1040E0001270E56E24FCF8886E8603088604088644
:1040F000050886061818188B5F8C608D618E62E546
:104100005FE560E561E5628B828C838DF0EE12499C
:104110004D74FFB56803756806301227747F5562C9
:10412000FB8B63E563EB2BFB8B63E56130E7067488
:10413000014563F563E5632468400674992563408F
:1041400002D211301106123CC5023DB3123A52029E
:104150003DB3E5667003023DB37B9930182BE56EE5
:1041600014F8886EE6FC3395E0FDFEFF8C5F8D60F1
:104170008E618F6220175EAC5F7D007E007F008CB9
:104180005F8D608E618F62804C30191FE56E24FC5C
:10419000F8886E86040886050886060886071818BB
:1041A000188C5F8D608E618F62802AE56E24FEF828
:1041B000886E860408860518ED3395E0FEFF8C5F57
:1041C0008D608E618F6220170CAC5FAD607E007FCA
:1041D000008E618F62301A43E55F4560456145623C
:1041E00060397408B5660C758230C0031239C9D0C5
:1041F0000380287410B56623758230C0031239C954
:10420000D003300F0C758278C0031239C9D00380F7
:104210000A758258C0031239C9D003301725AC5F24
:10422000AD60AE61E562FF30E717C3E49CFCE49D3E
:10423000FDE49EFEE49FFF8C5F8D608E618F628047
:1042400002C217756900D21B8B00756300C0001293
:104250003A13D000201B0DE563C4FCE6FD4CF618B4
:1042600088038002A6630569B21BE55F456045616E
:10427000456270D68803E567700375670120141ADC
:10428000201317E56904FCC39567500E758220C0A2
:10429000031239C9D003156780E930170E75822DD6
:1042A000C0031239C9D00315678024E56960203046
:1042B000150E75822BC0031239C9D0031567800F04
:1042C00030160C758220C0031239C9D0031567203F
:1042D000131EAC671567C3E5699C50273014047C36
:1042E0003080027C208C82C0031239C9D00380E266
:1042F000C3E56995675009E567C39569F56780036C
:104300007567008B00AB691569EB6022B21B201B3F
:104310000A08E6C4540FFB8B6380078603740F5BA7
:10432000F563856382C0001239E3D00080D7201383
:1043300003023DB3AB671567EB7003023DB37582B3
:10434000201239C980EE8A821239C9023DB38564D0
:104350008285658322AA82BA0A0810990280FB75B9
:10436000990D10990280FB8A992285825D85835E72
:1043700085F05FF560E4F569F56A855D82855E83A9
:10438000855FF0E5601228F185826185836285F0A2
:1043900063F564E4C0E0C0E07480C0E0743FC0E056
:1043A0008561828562838563F0E564122A47AC8269
:1043B000E58124FCF581EC602AC061C062C063C065
:1043C0006490000075F080743F12306785826185CB
:1043D000836285F063F564E58124FCF581756902EB
:1043E000E4F56A74A3C0E07430C0E07489C0E0747E
:1043F0003EC0E08561828562838563F0E564122AB0
:1044000047AC82E58124FCF581EC70030244F0C0E6
:1044100061C062C063C0649067AF75F03B743F12C7
:104420002AD0AC82AD83AEF0FFE58124FCF581E4B7
:10443000C0E0C0E0C0E0743FC0E08C828D838EF0AD
:10444000EF12304FAC82AD83AEF0FFE58124FCF576
:1044500081E4C0E0C0E0C0E0743FC0E08C828D83A6
:104460008EF0EF12304FAC82AD83AEF0FFE58124C9
:10447000FCF581C061C062C063C0648C828D838E94
:10448000F0EF122C7F85826B85836C85F06DF56E65
:10449000E58124FCF58174D7C0E074B3C0E074DD1D
:1044A000C0E0743FC0E08561828562838563F0E58A
:1044B00064122C7FAC82AD83AEF0FFE58124FCF565
:1044C00081C004C005C006C007856B82856C8385EA
:1044D0006DF0E56E12306785826185836285F063D9
:1044E000F564E58124FCF5810569E4B56902056A96
:1044F0008561828562838563F0E5641228F1AC8270
:10450000AD83AEF0FFE4C0E0C0E07480C0E0743979
:10451000C0E08C828D838EF0EF122A77AC82E58129
:1045200024FCF581EC600BAC61AD62AE63AF64025C
:104530004653C061C062C063C06485618285628386
:104540008563F0E564122AD085826585836685F0EF
:1045500067F568E58124FCF581C065C066C067C069
:104560006890869175F05074BD122AD0AA82AB83F0
:10457000A8F0F9E58124FCF58174F6C0E07410C060
:10458000E074F1C0E074BEC0E08A828B8388F0E9F9
:10459000122C7FAA82AB83A8F0F9E58124FCF58177
:1045A000C065C066C067C0688A828B8388F0E912E4
:1045B0002AD0AA82AB83A8F0F9E58124FCF581C05A
:1045C00061C062C063C0648A828B8388F0E9122A6A
:1045D000D085826B85836C85F06DF56EE58124FC5A
:1045E000F58174D3C0E074CCC0E074B4C0E0743F13
:1045F000C0E08565828566838567F0E568122C7F5B
:10460000AA82AB83A8F0F9E58124FCF581C002C041
:1046100003C000C001856B82856C83856DF0E56EFB
:10462000123067AA82AB83A8F0F9E58124FCF581FA
:10463000C002C003C000C0018561828562838563BA
:10464000F0E564122C7FAC82AD83AEF0FFE58124EF
:10465000FCF581C374019569E46480856AF063F0B8
:104660008095F05004EFB2E7FFAA69E56ACA25E039
:10467000CA33CA25E0CA33FBEA2409F582EB3403C6
:10468000F583E493FAA3E493FBA3E493F8A3E49300
:10469000F9C002C003C000C0018C828D838EF0EF90
:1046A000122C7FAC82AD83AEF0FFE58124FCF58156
:1046B000C004C005C006C007E4C0E0C0E0C0E0C060
:1046C000E0855D82855E83855FF0E560122A77AACA
:1046D00082E58124FCF581D007D006D005D004EA1C
:1046E0006004EFB2E7FF8C828D838EF0EF227F9E15
:1046F00012471530D1030238CAC3EF9582500974AE
:10470000FFF5F0F583F58222790012398689828AD5
:10471000838BF0EC22AA82AB83A2F73392D16002A2
:10472000D2F7F582ACF022AA82AB83ACF0757800A8
:10473000757900C21F8A058B068C078D828E838F48
:10474000F01228F4F8B820028003B809070DBD0064
:10475000EA0E80E78D028E038F04B82D0DD21D74F2
:10476000012DFAE43EFB8F04800EC21DB82B0974A4
:10477000012DFAE43EFB8F047574007575007576A3
:10478000007577008A058B068C078D828E838FF0EB
:104790001228F4F8F9B930004005E824C650128D0B
:1047A000828E838FF01228F4F8B82E02800302481C
:1047B0005C8D828E838FF01228F4F9B92E05D21FFA
:1047C000024854C005C006C007C005C006C007C0E7
:1047D00001C074C075C076C07790000075F0207479
:1047E00041122AD085827485837585F076F577E548
:1047F0008124FCF581D001D007D006D005E933959E
:10480000E0FDE924D0F582ED34FFF58312305AAD96
:1048100082AE83AFF0F9C005C006C007C005C00670
:10482000C007C0018574828575838576F0E57712AF
:104830002C7F85827485837585F076F577E58124F4
:10484000FCF581D007D006D005D007D006D00530C2
:104850001F0215780DBD00010E02478A5300DF8D3F
:10486000828E838FF0E8122F69B8456274012DFAA9
:10487000E43EFB8F048A828B838CF01228F4FDBD0A
:104880002D09D21E0ABA000D0B800AC21EBD2B05CF
:104890000ABA00010B7579008A828B838CF012288A
:1048A000F4FDFEBE3000401D8D06EE24C64016E528
:1048B0007975F00AA4F579ED24D02579F5790ABA4D
:1048C00000D60B80D3301E06C3E49579F579E578E0
:1048D0002579F579E5796055E57930E728C074C028
:1048E00075C076C07790CCCD75F0CC743D122AD0CF
:1048F00085827485837585F076F577E58124FCF5EE
:1049000081057980CFC074C075C076C077900000F3
:1049100075F0207441122AD085827485837585F0E4
:1049200076F577E58124FCF581157980A7301D0F98
:10493000857474857575857676E577B2E7F5778544
:1049400074828575838576F0E57722E473C0E0F89C
:104950004582458345F07009F5F0FBFCFDFE024AF7
:104960001BE823A2F792E0F8A982AA83D2F7ABF062
:104970007C007E07C3749798404074FF2EFE740A33
:1049800089F0A4F985F082740A8AF0A4FA85F0838C
:10499000740A8BF0A4FB740529F9EA3582FAEB3529
:1049A00083FB740035F0FCC3EC13FCEB13FBEA1340
:1049B000FAE913F908EC70EF80BAE8C3947FF88B3A
:1049C000838EF0E4FBFCFDFEFF08C3E933F9EA3314
:1049D000FAE58333F583EB3BD4FBEC3CD4FCED3DB3
:1049E000D4FDEE3ED4FEEF3FD4FF602D05F07405FC
:1049F0002BD4FBE43CD4FCE43DD4FDE43ED4FEE403
:104A00003FD4FF758204C3EF13FFEE13FEED13FDD9
:104A1000EC13FCEB13FBD582EDD8AF7894D0E020FB
:104A2000E704762B8002762D087906E7C4540F44FC
:104A300030F608B90603762E08E7540F4430F6081E
:104A400019B902E7764508E5F020E704762B8004E3
:104A5000762DF4040875F00A844430F608E5F04435
:104A600030F608E4F690009475F040220000000053
:00000001FF
