:10000000020003758178120194E582600302006F9B
:10001000780079007A007B007C007D00EC4D601C4C
:1000200088828983E493A3A882A9838A828B83F040
:10003000A3AA82AB831CBCFFE31D80E07582007520
:1000400083007C007D00EC4D600AE4F0A31CBCFF43
:10005000F51D80F27582007583007C007D00EC4DFB
:10006000600AE4F0A31CBCFFF51D80F212007412BC
:1000700006A280FEE4F523F524E4F525F526752790
:1000800000752800752901752A01752B01752C0151
:10009000220000020591436F6D6D616E643A202568
:1000A0007300526573706F6E73653A2025730D0A85
:1000B0000041542B44564944303030300D0A000D75
:1000C0000A45464D384C423132204A44592D34308D
:1000D00020536C61766520546573742E0D0A0041BF
:1000E000542B5645520D0A0041542B424155440DA4
:1000F0000A0041542B524649440D0A0041542B44F6
:100100005649440D0A0041542B5246430D0A004102
:10011000542B504F57450D0A0041542B434C535319
:100120000D0A0041542B44564944454645460D0AA4
:1001300000253033642C25303364004A6F797374A2
:1001400069636B2052656365697665643A20567809
:10015000203D20253033642C205679203D20253049
:1001600033640D0A002A2A2A20424144204D455377
:1001700053414745202A2A2A282564293A202573F5
:100180000D0A00253035750A003C4E4F20464C4F75
:1001900041543E0075A7007597DE7597AD75FF80D9
:1001A00075EF0675A71075C12075A70075A90075B4
:1001B000A900E5A930E7FB75A90375A903E5A930F6
:1001C000E7FB43A41143A60175E10175E20075E365
:1001D00041759810758DE6858D8B53890F43892065
:1001E000D28ED299D2A075A71075C00075D4FF75B4
:1001F000D5FF43F308D2C2D2AF75A70075820022A3
:10020000AA82438E407592B87593FF859294859328
:10021000957591047B00C3EB9A500BE59130E7FB99
:1002200053917F0B80F075910022AA82AB837C00F2
:100230007D00C3EC9AED9B502B7E00BE0400501D48
:100240007582FAC002C003C004C005C006120200D5
:10025000D006D005D004D003D0020E80DE0CBC0046
:10026000D10D80CE22AA82AB83ACF0FD75A720759C
:10027000930C75C8107594008A188B198C1A8D1BF5
:1002800090A20075F04A7404120C01AA82AB83ACF0
:10029000F0FD751818E4F519F51AF51B8A828B83A1
:1002A0008CF0ED120C01AA82AB83ACF0FDE4C39A92
:1002B000FAE49BFB74019CE49D8A958B96D2C9431A
:1002C000944075A70022AA8275A72010C90280FB5E
:1002D0008A9275A70022AA82AB83ACF08A828B83B4
:1002E0008CF0120BE5FD60188D82C002C003C004C3
:1002F0001202C6D004D003D0020ABA00DF0B80DCA1
:100300002275A72010C80280FB53C83F85928275D2
:10031000A7002275A7207A007B0020C82675A700B9
:10032000758214C002C003120200D003D00275A768
:10033000200ABA00010BBAA8E1BB61DE75A70075FF
:10034000820A22C2C853C83F85928275A70022AA9A
:1003500082AB83ACF07D008A068B078C00C002C0A4
:1003600003C004C005C006C007C000120313A98261
:10037000D000D007D006D005D004D003D002B90AEF
:100380000A8A828B838CF0E4020DC0C3ED952D5058
:10039000180D8E828F8388F0E9120DC0A3AE82AF54
:1003A000838E028F03880480B48A828B838CF0E46E
:1003B000020DC075A720A2C875A70022AA82AB8330
:1003C0007C007D00C3EC9AED9B50477E00BE04008C
:1003D0005039C002C003C004C005C0061203B3E414
:1003E00033D006D005D004D003D00260012275823C
:1003F000FAC002C003C004C005C006120200D00645
:10040000D005D004D003D0020E80C20CBC00B50DC4
:1004100080B222AA82AB83ACF0C002C003C004C089
:1004200002C003C0047496C0E07400C0E07480C0D1
:10043000E0120D9FE58124FAF581C2A0900005121B
:10044000022AD004D003D0028A828B838CF012025D
:10045000D6752D1390004F75F04012034F90000A8F
:1004600012022AD2A0744FC0E07400C0E07440C0F1
:10047000E074A2C0E07400C0E07480C0E0120D9F80
:10048000E58124FAF58122C2A090000A12022A9086
:1004900000B175F0801202D690000A12022A53C8E9
:1004A0003FD2A022AA8274075AF5F005F0740180A9
:1004B0000225E0D5F0FBFBEAC4540FFA24FC4022ED
:1004C000EA2A2A9004C7730204D30204D70204DB89
:1004D0000204DFEB42A422EB42A522EB42A622EB70
:1004E000429C22AA8274075AF5F005F0740180023A
:1004F00025E0D5F0FBF4FBEAC4540FFA24FC4022BB
:10050000EA2A2A9005077302051302051702051B44
:1005100002051FEB52A422EB52A522EB52A622EBBE
:10052000529C2275A700C2EF75B28075BC2075B9C8
:100530001E75E80075DF3F75B300D2EF22AA8285F1
:1005400018F005F07401800225E0D5F0FBFB75A7DB
:1005500020BA0002800ABA0102800FBA021E80147B
:10056000EBF4FA52F1EB42D48012EBF4FA52F2EBD4
:1005700042D58008EBF4FA52F3EB42CC75A7002287
:100580008582BBC2EDD2EC30EDFD85BD8285BE8398
:1005900022C0E0C002C003C0D075D00075A710C251
:1005A000C775D2C475D3FF0523E4B52302052474AF
:1005B00064B52306E4B5240280028005E4F523F542
:1005C00024AA277B00C3E5239AE5249B5010E52944
:1005D0006006D2A1C2A2800AC2A1D2A28004C2A196
:1005E000C2A2AA287B00C3E5239AE5249B5010E50C
:1005F0002A6006D2A4C2A3800AC2A4D2A38004C2E5
:10060000A4C2A30525E4B52502052674D0B5250EA0
:100610007407B52609E4F525F526D296D297AA2CBB
:100620007B00EAB52506EBB52602C296AA2B7B0015
:10063000EAB52506EBB52602C297D0D0D003D0028A
:10064000D0E032AA828A278A28752900752A0022DA
:10065000AA828A278A28752901752A0122AA828AF4
:10066000278A28752901752A0022AA828A278A28C2
:10067000752900752A0122752C01752B019003E85C
:1006800012022A752BFA9003E812022A752CFA90AE
:1006900003E812022A752B029003E812022A752C35
:1006A0000222E4F52EF52FF530F53175822412047F
:1006B000A47582231204A47582221204A4758221D7
:1006C0001204A47582171204A47582161204A4C21F
:1006D00096C2979001F412022A74BFC0E07400C061
:1006E000E07480C0E0120D9F158115811581902561
:1006F00080E4F5F01202651204871206779000DF9D
:1007000075F0801204139000E875F08012041390C5
:1007100000F275F0801204139000FC75F080120452
:100720001390010675F08012041390010F75F0808C
:1007300012041390011975F08012041390012375AF
:10074000F080120413C2A1C2A2C2A4C2A37A007B89
:1007500000C002C0031203B3E433D003D00260F13F
:10076000C002C003120301AC82D003D002BC21023C
:100770008003020B91752D1390004F75F040C0025D
:10078000C00312034F90004F75F040120FA5AD82C9
:10079000AE83D003D002BD0705BE00028003020B6A
:1007A00054C002C0037430C0E07400C0E07440C0A4
:1007B000E0742EC0E07400C0E07440C0E07431C04A
:1007C000E07401C0E07480C0E0744FC0E07400C009
:1007D000E07440C0E0120C9CE58124F4F581C03047
:1007E000C031C02EC02F743BC0E07401C0E07480E3
:1007F000C0E0120D9FE58124F9F5818530828531B5
:1008000083120E7985823485833585F036F537E499
:10081000C0E0C0E07421C0E07443C0E0853482854C
:1008200035838536F0E537120CCAAD82E58124FCAC
:10083000F581D003D002ED70030208DDC002C003D1
:10084000C003E4C0E0C0E07421C0E07443C0E085B0
:1008500034828535838536F0E537120E6EAD82AE73
:1008600083AFF0FAE58124FCF581D0038D828E837D
:100870008FF0EAC002C003120CFA120D5E858218D6
:10088000858319D003D002900064120D6D120E7989
:10089000AA82AB83ADF0FEE4C0E0C0E07421C0E00A
:1008A0007443C0E08A828B838DF0EE120E86AA829A
:1008B000AB83ADF0FEE58124FCF5818A828B838DCC
:1008C000F0EEC002C003120CFA8582328583331227
:1008D0000643D003D002D003D0020209A4C002C054
:1008E00003E4C0E0C0E07421C0E07443C0E085349C
:1008F000828535838536F0E537120D2EAD82E58190
:1009000024FCF581D003D002ED70030209A4C002DB
:10091000C003C003C034C035C036C0379000007576
:10092000F0217443120E6EAD82AE83AFF0FAE58112
:1009300024FCF581D0038D828E838FF0EAC002C043
:1009400003120CFA120D5E858218858319D003D02C
:1009500002900064120D6D120E79AA82AB83ADF085
:10096000FEE4C0E0C0E07421C0E07443C0E08A82CD
:100970008B838DF0EE120E86AA82AB83ADF0FEE57E
:100980008124FCF5818A828B838DF0EEC002C00346
:10099000120CFA858232858333120650D003D002BE
:1009A000D003D002852E82852F83C002C003120E91
:1009B0007985823485833585F036F537E4C0E0C02B
:1009C000E07421C0E07443C0E085348285358385BE
:1009D00036F0E537120CCAAD82E58124FCF581D0F2
:1009E00003D002ED7003020A8AC002C003C003E410
:1009F000C0E0C0E07421C0E07443C0E0853482856B
:100A000035838536F0E537120E6EAD82AE83AFF0DA
:100A1000FAE58124FCF581D0038D828E838FF0EA84
:100A2000C002C003120CFA120D5E8582188583196C
:100A3000D003D002900064120D6D120E79AA82AB21
:100A400083ADF0FEE4C0E0C0E07421C0E07443C0B8
:100A5000E08A828B838DF0EE120E86AA82AB83AD84
:100A6000F0FEE58124FCF5818A828B838DF0EEC057
:100A700002C003120CFA85823285833312065DD0E0
:100A800003D002D003D002020751C002C003E4C069
:100A9000E0C0E07421C0E07443C0E0853482853555
:100AA000838536F0E537120D2EAD82E58124FCF505
:100AB00081D003D002ED7003020751C002C003C011
:100AC00003C034C035C036C03790000075F02174C3
:100AD00043120E6EAD82AE83AFF0FAE58124FCF5D1
:100AE00081D0038D828E838FF0EAC002C003120C86
:100AF000FA120D5E858218858319D003D00290000A
:100B000064120D6D120E79AA82AB83ADF0FEE4C0C3
:100B1000E0C0E07421C0E07443C0E08A828B838D22
:100B2000F0EE120E86AA82AB83ADF0FEE58124FCC6
:100B3000F5818A828B838DF0EEC002C003120CFA1D
:100B400085823285833312066AD003D002D003D067
:100B50000202075190004F75F040C002C003120F0F
:100B6000A5AD82AE83C005C006744FC0E07400C05E
:100B7000E07440C0E07465C0E07401C0E07480C0FF
:100B8000E0120D9FE58124F8F581D003D002020721
:100B900051BC40028003020751C002C003C002C022
:100BA000037483C0E07401C0E07480C0E0744FC07F
:100BB000E07400C0E07440C0E0120E28E58124F823
:100BC000F581D003D0020ABA00010B900005C002E3
:100BD000C00312022A90004F75F0401202D6D003D3
:100BE000D00202075120F71430F6148883A882201F
:100BF000F507E6A88375830022E280F7E49322E0FC
:100C000022FB7A20E4FCFDFEFFE5822582F582E5E9
:100C10008333F583E5F033F5F0EB33FB4017DAE986
:100C20008042E5822582F582E58333F583E5F03362
:100C3000F5F0EB33FBEC33FCED33FDEE33FEEF333D
:100C4000FFEC9518ED9519EE951AEF951B4013ECF6
:100C50009518FCED9519FDEE951AFEEF951BFF43D7
:100C60008201DABEEB22AA08AB09AC0A8A828B8326
:100C70008CF0120BE5FA0508E4B5080205098A8232
:100C80002285820885830985F00A850B48850C49F1
:100C9000850D4A850E4B900C660211DDC00F8581D3
:100CA0000FE50F24F8F54BE50F24FBF886080886BE
:100CB0000908860AE50F24F8F88648088649088658
:100CC0004A900C661211DDD00F22FFA8811818126D
:100CD00015A3D2D133E6400730E70B7582012220FD
:100CE000E70675820022C2D1121585E97003F582EC
:100CF0002230D101B3E433F582221215CE700AE519
:100D000082458345F0700122E430D112F4700BE586
:100D1000F0F47006E58330E7012290800022700A2B
:100D2000E5F07006E58320E70122907FFF22FFA80F
:100D30008118181215A3D2D133E6400730E70B759E
:100D400082002220E70675820122C2D1121585E9B0
:100D50007003F5822220D101B3E433F58222E583CA
:100D600030E709F4F583E582F4F582A322E5828574
:100D700018F0A4C582C0F08519F0A4D0F025F0C504
:100D8000838518F0A42583F58322021C49858246B9
:100D900085834785F048851749900D8A0216B2C0B1
:100DA0000F85810FE50F24FBF549E50F24FBF8863D
:100DB00046088647088648900D8A1216B2D00F2240
:100DC00020F71030F6118883A88220F507F6A88353
:100DD00075830022F280F7F022AA82AB10AC11AD2D
:100DE000128B828C838DF0EA120DC00510E4B510D1
:100DF0000205112285821085831185F01285134624
:100E0000851447851548851649900DD91216B2AA42
:100E100082AB83AC10AD11AE128C828D838EF0E468
:100E2000120DC08A828B8322C00F85810FE50F24AB
:100E3000F8F549E50F24FBF886100886110886129C
:100E4000E50F24F8F88646088647088648900DD9AD
:100E50001216B2AA82AB83AC10AD11AE128C828D89
:100E6000838EF0E4120DC08A828B83D00F22A8817A
:100E70001818C6B2E7C6021C5EAC83AB827A007952
:100E800000748E021CC0121D3330D502B2D1BF00D7
:100E900009BC0003021D28021D1BBC0003021D0526
:100EA000E583B4FF0BE582B4FF03021D28021D0594
:100EB000E582B4FF03021D1BC395835007247F40C6
:100EC0000B021D052480145003021D1BC0E0E4CC5E
:100ED000CBCAF98D188E198F1AEF54F0C4F51B7513
:100EE0008306851BF0EB84F582E9C4F9EAC4FAEBCA
:100EF000C4FBEC540FC47803D6FC18EBD6FB18EAFD
:100F0000D6FA8582F0EDA4A8F0FD8582F0EEA42843
:100F1000FEE435F0F88582F0EFA428FFE435F0F820
:100F2000E99DF9EA9EFAEB9FFBEC98FCAD18AE192F
:100F3000AF1A30E7101582E92DF9EA3EFAEB3FFBD4
:100F4000E43CFC80EDC082D58398C3E933F9EA33F1
:100F5000FAEB33FBEC33FCC3E99DEA9EEB9FEC9488
:100F600000B3E413F9D002D0E0C44AFAD003D0E0D1
:100F7000C44BFBD004D0E0F5F0540FC44CFCD0823D
:100F8000158230F40FD3EC13FCEB13FBEA13FAE9F0
:100F900013F90582E930E70A74012AFAE43BFBE41D
:100FA0003CFC021CFCAA82AB83ACF07D007E008A74
:100FB000828B838CF0120BE5FFA3AA82AB83EF60D8
:100FC000070DBD00EA0E80E78D828E832285388270
:100FD000853983121DCF858247E547600A0541E4C4
:100FE000B5410605428002D203854782227A007B02
:100FF000003003057869760022C002C003120FCDCD
:10100000AC82D003D002BC0002802DBC0802801448
:10101000BC09028023BC0A02801EBC0D028019BCE0
:1010200020218014EA4B60D11ABAFF011B154174CC
:10103000FFB54102154280C1EA4B60BDEA2469F860
:10104000760022EC7009EA2469F87600D20322ECDB
:10105000B54607EA2469F8760022C3EA940FEB94B8
:101060000050968A058B060ABA00010BED2469F838
:10107000A604020FF9AA827B7FC3EA648094B04081
:101080001174B98AF063F08095F04006EA24D0FB31
:101090008030C3EA648094C1401174C68AF063F062
:1010A0008095F0400674C92AFB8017C3EA648094D7
:1010B000E1400F74E68AF063F08095F0400474A973
:1010C0002AFBC3EB954350038B822275827F22AAB1
:1010D00082753D00753E00753F007540008A00E650
:1010E000FA60148A82C000121075AB82D000C3EB84
:1010F000954340030880E886038B82C00012107578
:10110000AA82D000C3E5439A405085431875190060
:10111000751A00751B00853D82853E83853FF0E58D
:1011200040C002C000121D61AB82AC83ADF0FED0A6
:1011300000D0028B3D8C3E8D3F8E40E4FBFCFDEAEF
:10114000253DFAEB353EFBEC353FFCED3540FD8AA5
:101150003D8B3E8C3F8D4008809D853D82853E8342
:10116000853FF0E54022AA82753D00753E00753F3F
:10117000007540008A00E6FB60228B82C003C0003D
:10118000121075AC82D000D003C3EC9543400DBB68
:101190002D028008BB2B0280030880DA88028603B8
:1011A000BB2D03D38001C39206BB2D028003BB2B52
:1011B000010A8A821210CF300613C3E4953DFAE487
:1011C000953EFBE4953FFCE49540FD8008AA3DABCD
:1011D0003EAC3FAD408A828B838CF0ED2285823815
:1011E000858339E4F541F542F545C203AA48AB4988
:1011F000AC4A8A828B838CF0120BE5FD74012AF5D0
:1012000048E43BF5498C4AEDFA700302157CBA2597
:10121000028003021515D202C20075430075440016
:10122000C204C205AB48AC49AD4A8B828C838DF0B9
:10123000120BE5FAA3AB82AC838B488C498D4A8BA9
:10124000828C838DF0120BE5F5468A06BE30004095
:10125000168A06EE24C6400FE54475F00AA4FEEA9D
:1012600024D02EF54480C38A06BE6100400A8A0657
:10127000EE248540035302DFBA250280ADBA2A026C
:101280008045BA42028036BA43028040BA44030223
:101290001390BA4903021390BA4C028025BA4E0348
:1012A0000213A3BA4F03021395BA53028020BA5512
:1012B0000302138EBA580302139C0213CBD200020E
:1012C000122AD20102122AD20402122AD2052004C2
:1012D00017E54B24FDF8884B86030886040886052D
:1012E00018188B3A8C3B8D3CE544700B3005047B21
:1012F0000180027BFF8B44754300C3E54395445056
:1013000005120FCDAA82300307E54370030213CB09
:10131000EA601ABA2002800DBA09028008BA0D02EA
:101320008003BA0A03300505E544B5431FE5436071
:10133000C92004120545AB3AAC3BAD3C8B828C8393
:101340008DF0E4120DC07543000213CBBA081CE502
:101350004360A7200411AB3AAC3BAD3C1BBBFF0183
:101360001C8B3A8C3B8D3C1543808F20041BAB3A81
:10137000AC3BAD3C8B828C838DF0EA120DC00BBB75
:1013800000010C8B3A8C3B8D3C05430212FAC202E1
:1013900075430A8036C202754308802FC202754326
:1013A000108028E54B24FDF8884B86030886040846
:1013B000860518188B3A8C3B8D3C8B828C838DF084
:1013C000E541120DC0A3E542120DC0E543700302D2
:1013D0001515120FED7869E6700302151530040338
:1013E000021515E54B24FDF8884B86030886040892
:1013F000860518188B3A8C3B8D3C0545200203026C
:10140000148E300135853A4C853B4D853C4E7582B6
:1014100069121166AE82AF83ABF0FC854C82854DBC
:1014200083854EF0EE120DC0A3EF120DC0A3EB1298
:101430000DC0A3EC120DC0021515300026853A4CE4
:10144000853B4D853C4E758269121166AE82AF8335
:10145000ABF0FC854C82854D83854EF0EE120DC0BD
:10146000021515853A4C853B4D853C4E75826912B7
:101470001166AE82AF83ABF0FC854C82854D8385CF
:101480004EF0EE120DC0A3EF120DC0021515300183
:1014900034853A4C853B4D853C4E7582691210CFA0
:1014A000AE82AF83ABF0FC854C82854D83854EF0D8
:1014B000EE120DC0A3EF120DC0A3EB120DC0A3ECF2
:1014C000120DC08050300025853A4C853B4D853C3F
:1014D0004E7582691210CFAE82AF83ABF0FC854CA3
:1014E00082854D83854EF0EE120DC08028853A4CE2
:1014F000853B4D853C4E7582691210CFAE82AF831D
:10150000ABF0FC854C82854D83854EF0EE120DC00C
:10151000A3EF120DC02003030211ECAB48AC49ADA0
:101520004A8B828C838DF0120BE5FEA3AB82AC83D9
:101530008B488C498D4AEEFA70030211ECBA25E112
:101540008B828C838DF0120BE5FABA6E028003BA9F
:101550004ECFE54B24FDF8884B86020886060886A8
:101560000718188A3A8E3B8F3C8A828E838FF0E56B
:1015700041120DC0A3E542120DC080A5AA457B0013
:101580008A828B83227901AA82E68F82B582131820
:10159000E6B5F00E18E6B5830918E68A82B5820230
:1015A000790022B4800FE5F0700AE5837006E582C9
:1015B00070027F00EFB6801518B6001018B6000B49
:1015C00018B6000608080876002208080822121D2E
:1015D000D1C3749E958240397900121DE330D12623
:1015E000E9F42401F582EAF43400F583EBF43400E5
:1015F000F5F0ECF43400700AE582458345F07001A3
:1016000022E430E70F22EC20E71489828A838BF0F2
:101610002230D10AE4F582F583F5F074802274FF5C
:10162000F582F583F5F0747F22AA82743AC0E074E3
:1016300016C0E0C038C0398A8222053FE4B53F02B7
:10164000054022AA8274302AFA24C6500A74072A56
:10165000FA3007034302208A82021629E582FAC47F
:10166000540FF582C002121643D002740F5AF5824D
:10167000021643AA3AAB3BAC3CAD3DAE3E754520AD
:10168000EE2EFEED235401FF4206EA2AFAEB33FB6D
:10169000EC33FCED33FDC3EE95414008EEC39541BC
:1016A000FE430201D545D98A3A8B3B8C3C8D3D8E59
:1016B0003E22858238858339E4F53FF540AA46AB62
:1016C00047AC488A828B838CF0120BE5FD74012AAB
:1016D000F546E43BF5478C48EDFA7003021C42BA2C
:1016E00025028003021C3AC20BC20CC20DC20EC2FC
:1016F0000FC210C211C212C208C209C20A7541004B
:101700007542007543FFAB46AC47AD488B828C8376
:101710008DF0120BE5FAA3AB82AC838B468C478D20
:1017200048BA25078A8212162980928A06BE30009E
:10173000402E8A06EE24C6402774FFB54313E542C7
:1017400075F00AA4FEEA24D02EF54270BFD20C80B8
:10175000BBE54375F00AA4FEEA24D02EF54380AC25
:10176000BA2E0A74FFB543A4754300809F8A06BE53
:101770006100400E8A06EE248540075302DFD2073F
:101780008002C207BA20028075BA230302180DBA7C
:101790002A03021812BA2B02805FBA2D028055BAB2
:1017A0004202805FBA4303021857BA4403021992F7
:1017B000BA45030219ACBA46030219A8BA47030294
:1017C00019B0BA4903021992BA4C02803BBA4E03CF
:1017D0000219B4BA4F03021999BA500302192BBA6D
:1017E000530302187BBA550302199EBA5803021913
:1017F000A30219DED20B02170CD20D02170CD20E67
:1018000002170CD21002170CD21102170CD21202BE
:10181000170C74FFB5432030100BE54914F88849C4
:10182000864202170CE54924FEF888498606088698
:1018300007188E4202170C30100BE54914F888493E
:10184000864302170CE54924FEF888498606088677
:1018500007188E4302170C30100AE54914F888491E
:101860008602800FE54924FEF8884986030886042D
:10187000188B028A821216290219E3E54924FDF821
:101880008849860308860408860518188B3A8C3B1D
:101890008D3C8B828C838DF0120FA5AB82AC838B39
:1018A0004474FFB54303854443200B1DC3E54495B1
:1018B000425016E542C39544F542AB421542EB60F7
:1018C0000875822012162980F1853A82853B83852E
:1018D0003CF0120BE5FBFA6029AB431543C3E4640B
:1018E000808BF063F08095F050188A82121629AB35
:1018F0003AAC3BAD3C0BBB00010C8B3A8C3B8D3CB6
:1019000080C7200B030219E3C3E54495424003025C
:1019100019E3E542C39544F542AB421542EB70032F
:101920000219E375822012162980EEE54924FDF89C
:101930008849860308860408860518188B3A8C3B6C
:101940008D3CE53CFB30E7047A438013EB54606048
:10195000047A50800AEB30E6047A4980027A588A89
:1019600082C00212162975823A1216297582301227
:101970001629758278121629D002BA4902800BBA4C
:1019800050028006853B8212165C853A8212165CF4
:101990008051D20F75410A804A75410880457541D2
:1019A0000A8040754110803BD2088037D2098033CD
:1019B000D20A802FE54924FDF88849860308860469
:1019C00008860518188B3A8C3B8D3C8B828C838D56
:1019D000F0E53F120DC0A3E540120DC080058A82DC
:1019E000121629200806200903300A5AE54924FC6A
:1019F000F8884986030886040886050886061818AC
:101A0000188B3A8C3B8D3C8E3D753A89753B017540
:101A10003C80853A4A853B4B853C4C7401254AFE07
:101A2000E4354BFFAB4C8E3A8F3B8B3C854A82852D
:101A30004B83854CF0120BE5FBFA70030216BD8A4E
:101A40008212162980CCE54170030216BD7B6830F6
:101A5000102BE54914F88849E6FC3395E0FDFEFFBC
:101A60008C3A8D3B8E3C8F3D200F5EAC3A7D007EE4
:101A7000007F008C3A8D3B8E3C8F3D804C30111F97
:101A8000E54924FCF8884986040886050886060886
:101A900086071818188C3A8D3B8E3C8F3D802AE5BE
:101AA0004924FEF88849860408860518ED3395E038
:101AB000FEFF8C3A8D3B8E3C8F3D200F0CAC3AAD37
:101AC0003B7E007F008E3C8F3D301243E53A453B24
:101AD000453C453D60397408B5410C758230C00302
:101AE000121629D00380287410B54123758230C0A6
:101AF00003121629D00330070C758278C003121622
:101B000029D003800A758258C003121629D00330E9
:101B10000F25AC3AAD3BAE3CE53DFF30E717C3E4E3
:101B20009CFCE49DFDE49EFEE49FFF8C3A8D3B8E81
:101B30003C8F3D8002C20F754400D2138B00753E6E
:101B400000C000121673D00020130DE53EC4FCE661
:101B5000FD4CF61888038002A63E0544B213E53A10
:101B6000453B453C453D70D68803E54270037542D0
:101B700001200C1A200B17E54404FCC39542500EBB
:101B8000758220C003121629D003154280E9300F58
:101B90000E75822DC003121629D00315428024E54C
:101BA000446020300D0E75822BC003121629D0031D
:101BB0001542800F300E0C758220C003121629D0FA
:101BC000031542200B1EAC421542C3E5449C50272E
:101BD000300C047C3080027C208C82C003121629D9
:101BE000D00380E2C3E54495425009E542C39544E1
:101BF000F54280037542008B00AB441544EB602234
:101C0000B21320130A08E6C4540FFB8B3E800786EC
:101C100003740F5BF53E853E82C000121643D00070
:101C200080D7200B030216BDAB421542EB700302B6
:101C300016BD75822012162980EE8A82121629029C
:101C400016BD853F8285408322AA82BA0A08109970
:101C50000280FB75990D10990280FB8A9922121D52
:101C6000337900E583B58202800D5003121E26E50C
:101C700083C39582121DE3E5D0C465D020E117EA45
:101C80002DFAEB3EFBEC3FFC50097401121DE3EC16
:101C90004480FC021CE4C3EA9DFAEB9EFBEC9FFC33
:101CA000500FC3E499F9E49AFAE49BFBE49CFCB27C
:101CB000D1121E40021CE4FCABF0AA83A982749EE0
:101CC000F582C2D1EC30E716D2D1E9F42401F9EA69
:101CD000F43400FAEBF43400FBECF43400FC121E94
:101CE00040021CE4B98003EA13B34010EA2401FA6D
:101CF000E43BFBE43CFC50047C800582BC000EBB52
:101D0000000BBA0008E4F5F0F583F58222A2D1E5D4
:101D100082138CF092F78B838A8222E4F583F5821A
:101D200075F080F4A2D11322E4F583F58275F0C03A
:101D3000747F22AA82AB83A2F73392D16002D2F7DA
:101D4000F582ACF0E58124F9F8E6FD08E6FE0886A8
:101D5000F008E6A2F73392D56002D2F7F583AFF030
:101D600022AAF0FBE5828518F0A4FCADF0E583859E
:101D700018F0A42DFDE435F0FEE5828519F0A42DC0
:101D8000FDE5F03EFEE433FFEA8518F0A42EFEE503
:101D9000F03FFFE5838519F0A42EFEE5F03FFFE557
:101DA00082851AF0A42EFEE5F03FFFEB8518F0A423
:101DB0002FFFEA8519F0A42FFFE583851AF0A42FE1
:101DC000FFE582851BF0A42F8EF08D838C8222E4A8
:101DD00073AA82AB83A2F73392D16002D2F7F58265
:101DE000ACF0226040F82582500274FFF582E824AE
:101DF000F8501ECCCBCAF9E4CC24F85014CBCAF965
:101E0000E4CB24F8500BCAF9E4CA24F85003790053
:101E10002224086010F8C3EC13FCEB13FBEA13FA5E
:101E2000E913F9D8F122E582C583F582A2D133A264
:101E3000D592D11392D5ECCFFCEBCEFBEACDFA22B2
:101E40007804EC7011E58224F8500AF582E4C9CADE
:101E5000CBFCD8EF22EC7820058220E713D5820155
:101E600022C3E933F9EA33FAEB33FBEC33FCD8EA6B
:101E700015822200000000000000000000000000A9
:00000001FF
