:1000000002000375819B12024DE582600302006FBE
:10001000781779027A657B007C367D00EC4D601C98
:1000200088828983E493A3A882A9838A828B83F040
:10003000A3AA82AB831CBCFFE31D80E07582007520
:1000400083007C657D00EC4D600AE4F0A31CBCFFDE
:10005000F51D80F27582007583007C007D00EC4DFB
:10006000600AE4F0A31CBCFFF51D80F212007412BC
:100070002EC980FE220000000000000000000000E9
:1000900000000002118B4572726F723A20436F7537
:1000A0006C64206E6F742066696E6420424D4D3121
:1000B00035302073656E736F722028436869702035
:1000C00049443A20307825303258290D0A00424DF3
:1000D0004D31353020696E697469616C697A656487
:1000E000207375636365737366756C6C7921204347
:1000F0006869702049443A203078253032580D0A1A
:1001000000436F6D6D616E643A2025730052657314
:10011000706F6E73653A2025730D0A0041542B44AD
:10012000564944303030300D0A00253033642C25D8
:100130003033642C253031642C2530316400253077
:1001400031642C253032642C256C642C25303564C8
:100150002C253033640A00302C30302C2530346CA0
:10016000642C253035642C253033642C25303364E1
:100170002C253033640A0041542B5645520D0A0099
:1001800041542B424155440D0A0041542B524649DB
:10019000440D0A0041542B445649440D0A00415471
:1001A0002B5246433030320D0A0041542B504F57EA
:1001B000450D0A0041542B434C53530D0A00415442
:1001C0002B44564944454631310D0A002A2A2A203B
:1001D000424144204D455353414745202A2A2A3A5B
:1001E0002025730D0A00302C30302C2530346C64FF
:1001F0002C253035642C253033640A003C4E4F20CA
:10020000464C4F41543E0000000000920A063FDB7E
:100210000FC93F920A863F00000000000001013232
:1002200032A100A6000000000000000000393033B9
:1002300033733F00000000000000000000000000D9
:100240000000000100000000000000000075A70091
:100250007597DE7597AD75FF8075EF0675A71075FC
:10026000C12075A70075A90075A900E5A930E7FBB5
:1002700075A90375A903E5A930E7FB43A4C043A50D
:100280000643A60175E10375E20075E34175D407E5
:1002900075D5F9759810758DE6858D8B53890F434B
:1002A0008920D28ED299D2A075A21175A1E075F8DD
:1002B0000175A71075C00075D4FF75D5FF43F3080D
:1002C000D2C2D2AF75A70075820022AA82438E40A7
:1002D0007592B87593FF8592948593957591047B7B
:1002E00000C3EB9A500BE59130E7FB53917F0B80F5
:1002F000F075910022AA82AB837C007D00C3EC9A4A
:10030000ED9B502B7E00BE0400501D7582FAC0028A
:10031000C003C004C005C0061202CBD006D005D071
:1003200004D003D0020E80DE0CBC00D10D80CE22A2
:100330008582A310FF0280FB85A38222AA8243024A
:1003400080C2908A82120330758200120330D290EC
:1003500022AA8253027FC2908A82120330852482AD
:10036000120330D2902290001FE4F0900020F09011
:100370000021F0900022F0900023E4F0900024F09F
:10038000900025F0900026F0900027E4F0900028DF
:10039000F0900029F090002AF090002BE4F09000FB
:1003A0002CF090002DF090002EF090001DE4F0A3B2
:1003B000F090001DE0FAA3E0FBC3EA9402EB940086
:1003C000502EEA241FFCEB3400FD745D2AF582C038
:1003D00004C00512033CAA82D005D0048C828D8310
:1003E000EAF090001DE02401F0A3E03400F080C1A9
:1003F00090001DE4F0A3F090001DE0FAA3E0FBC321
:10040000EA9404EB9400502EEA2421FCEB3400FD26
:1004100074622AF582C004C00512033CAA82D0058A
:10042000D0048C828D83EAF090001DE02401F0A3BB
:10043000E03400F080C190001DE4F0A3F090001DB6
:10044000E0FAA3E0FBC3EA940AEB9400502EEA24FE
:1004500025FCEB3400FD74682AF582C004C0051247
:10046000033CAA82D005D0048C828D83EAF09000F0
:100470001DE02401F0A3E03400F080C190001FE0F3
:10048000900008F0900020E090000AF0900023E037
:10049000900009F0900024E090000BF090002EE016
:1004A000900014F090002DE0900015F090002AE0EC
:1004B000FA53027F8A037A00900029E0FC7D0090C5
:1004C0000016EC4AF0ED4BA3F022D29090000A12F5
:1004D00002F575248275824B12035190000A1202B4
:1004E000F575240175824B1203519000051202F537
:1004F00075824012033CAA82BA320280218A037CB0
:1005000000C002C003C0047496C0E07400C0E07470
:1005100080C0E0123742E58124FBF581D0027524CA
:100520000075824CC00212035175247F75825112EE
:10053000035175240E7582521203511203667B001B
:10054000C00374CEC0E07400C0E07480C0E0123715
:1005500042E58124FBF58122ACF0123315FAA31297
:100560003315FBBA0006BBF00302079EAC25AD268F
:10057000AE278C828D838EF0123315FCA3123315B7
:10058000FD4C600A900031ECF0A3EDF0801C90006F
:1005900016E0FCA3E0FD4C600A900031ECF0A3ED06
:1005A000F08007900031E4F0A3F0900031E0FCA36C
:1005B000E0FD4C7003020793900016E0FEA3E0FFFD
:1005C000E4F8EFC85403A2E0C813C813A2E0C813AC
:1005D000C813C8F9EE030354C0FFEE0303543F48A9
:1005E000F87E008C6E8D6F7570007571008E828F35
:1005F0008388F0E9C002C003123682AC82E583240E
:10060000C0FD8C068D078E28EFF5293395E0F52A7D
:10061000F52B8C068D078E6EEFF56F3395E0F57038
:10062000F571852882852983852AF0E52BC004C0D1
:100630000512333185822885832985F02AF52B9090
:100640000015E0FE3395E0FFF8F9756E80E4F56F74
:10065000F570F571852882852983852AF0E52BC000
:1006600006C007C000C00112368285826E85836F86
:1006700085F070F571D001D000D007D0068E828F42
:100680008388F0E912333185822885832985F02A11
:10069000F52BD005D004900014E0FEE45401A2E054
:1006A000CE13CE13CE8E6EF56F3395E0F570F571E7
:1006B000ED3395E0FE8C828D838EF0123331AC8267
:1006C000AD83AEF0FFEC2528FCED3529FDEE352A93
:1006D000FEEF352BFF756E00756F0275700075713A
:1006E000008C828D838EF0EF123682AC82AD83AEA9
:1006F000F0FF74102EFEE43FFF900009E0F8339500
:10070000E0F974A028F8E439886EF56F3395E0F5C8
:1007100070F5718C828D838EF0EF123331756E001F
:10072000756F1075700075710012368285826E8546
:10073000836F85F070F571D003D002EB3395E0FC48
:100740008A828B838CF0123331756E00756F207541
:100750007000757100123682AA82AB83900008E0A7
:10076000FC3395E0C40354F8CCC403CC6CCC54F8EF
:10077000CC6CFDEC2AF582ED3BF583756E10E4F54B
:100780006F1239D7E5828583F090002FF0A3E5F052
:10079000F0801490002FE4F0A37480F080099000A2
:1007A0002FE4F0A37480F090002FE0FAA3E08A8297
:1007B000F58322ACF0123315FAA3123315FBBA00FD
:1007C00006BBF0030209F7AC2CAD2DAE2E8C828D4A
:1007D000838EF0123315FCA3123315FD4C600A9082
:1007E0000035ECF0A3EDF0801C900016E0FCA3E0D7
:1007F000FD4C600A900035ECF0A3EDF0800790000E
:1008000035E4F0A3F0900035E0FCA3E0FD4C70036C
:100810000209EC900016E0FEA3E0FFE4F8EFC854F4
:1008200003A2E0C813C813A2E0C813C813C8F9EEA6
:10083000030354C0FFEE0303543F48F87E008C6E60
:100840008D6F7570007571008E828F8388F0E9C09E
:1008500002C003123682AC82E58324C0FD8C068D73
:10086000078E2FEFF5303395E0F531F5328C068D9C
:10087000078E6EEFF56F3395E0F570F571852F8279
:100880008530838531F0E532C004C00512333185EF
:10089000822F85833085F031F532900015E0FE33EC
:1008A00095E0FFF8F9756E80E4F56FF570F57185E8
:1008B0002F828530838531F0E532C006C007C00045
:1008C000C00112368285826E85836F85F070F57166
:1008D000D001D000D007D0068E828F8388F0E91235
:1008E000333185822F85833085F031F532D005D0C4
:1008F00004900014E0FEE45401A2E0CE13CE13CE27
:100900008E6EF56F3395E0F570F571ED3395E0FE81
:100910008C828D838EF0123331AC82AD83AEF0FFCA
:10092000EC252FFCED3530FDEE3531FEEF3532FF95
:10093000756E00756F027570007571008C828D8305
:100940008EF0EF123682AC82AD83AEF0FF90000BDA
:10095000E0F83395E0F974A028F8E439886EF56F73
:100960003395E0F570F57174102EFEE43F8C828DA6
:10097000838EF0123331756E00756F1075700075CF
:10098000710012368285826E85836F85F070F571F5
:10099000D003D002EB3395E0FC8A828B838CF0127B
:1009A0003331756E00756F207570007571001236E9
:1009B00082AA82AB8390000AE0FC3395E0C4035422
:1009C000F8CCC403CC6CCC54F8CC6CFDEC2AF5828A
:1009D000ED3BF583756E10E4F56F1239D7E582852E
:1009E00083F0900033F0A3E5F0F08014900033E43E
:1009F000F0A37480F08009900033E4F0A37480F0D9
:100A0000900033E0FAA3E08A82F58322858236855E
:100A1000833785F03875824212033CAD827582437C
:100A2000C00512033CAE82758244C00612033CAF7F
:100A300082758245C00712033CA882758248C000B7
:100A400012033CA982758249C00112033CAA82D0DC
:100A500001D000D007D006D0055305F8EDC42354CB
:100A60001FFDEE3395E0C42354E0CEC423CE6ECEFA
:100A700054E0CE6EFB7C00900037ED4EF0EC4BA3C3
:100A8000F05307F8EFC423541FFFE83395E0C42365
:100A900054E0C8C423C868C854E0C868FB7C009010
:100AA0000039EF48F0EC4BA3F05301FCE903035489
:100AB0003FF9E45403A2E0CA13CA13A2E0CA13CA5E
:100AC00013CAFB7C0090003BE94AF0EC4BA3F075A5
:100AD000253B75260075270090003775F00012053C
:100AE00058AA82AB838536828537838538F0EA122F
:100AF00039BEA3EB1239BEAA33AB34AC35752C3BEF
:100B0000752D00752E0090003975F000C002C003ED
:100B1000C0041207B3AD82AE83D004D003D0028AE2
:100B2000828B838CF0ED1239BEA3EE0239BEAA820D
:100B3000AB83ACF0FD75A72075930C75C810759448
:100B4000008A6E8B6F8C708D7190A20075F04A7464
:100B50000412339FAA82AB83ACF0FD756E18E4F5E6
:100B60006FF570F5718A828B838CF0ED12339FAA3A
:100B700082AB83ACF0FDE4C39AFAE49BFB74019C66
:100B8000E49D8A958B96D2C943944075A70022AA0A
:100B90008275A72010C90280FB8A9275A70022AA3D
:100BA00082AB83ACF08A828B838CF0123315FD60AC
:100BB000188D82C002C003C004120B8FD004D00372
:100BC000D0020ABA00DF0B80DC2275A72010C80211
:100BD00080FB53C83F85928275A7002275A7207AB3
:100BE000007B0020C82675A700758214C002C003D0
:100BF0001202CBD003D00275A7200ABA00010BBAAB
:100C0000A8E1BB61DE75A70075820A22C2C853C87D
:100C10003F85928275A70022AA82AB83ACF07D004B
:100C20008A068B078C00C002C003C004C005C00642
:100C3000C007C000120BDCA982D000D007D006D0BC
:100C400005D004D003D002B90A0A8A828B838CF0C3
:100C5000E40239BEC3ED953950180D8E828F83881A
:100C6000F0E91239BEA3AE82AF838E028F038804EF
:100C700080B48A828B838CF0E40239BE75A720A2EF
:100C8000C875A70022AA82AB837C007D00C3EC9AC2
:100C9000ED9B50477E00BE04005039C002C003C027
:100CA00004C005C006120C7CE433D006D005D00485
:100CB000D003D0026001227582FAC002C003C004D2
:100CC000C005C0061202CBD006D005D004D003D098
:100CD000020E80C20CBC00B50D80B222AA82AB838A
:100CE000ACF0C002C003C004C002C003C004740161
:100CF000C0E07401C0E07480C0E0123742E5812496
:100D0000FAF581C2A09000051202F5D004D003D0FC
:100D1000028A828B838CF0120B9F753913900072BC
:100D200075F040120C1890000A1202F5D2A07472ED
:100D3000C0E07400C0E07440C0E0740DC0E0740115
:100D4000C0E07480C0E0123742E58124FAF58122C8
:100D5000C2A090000A1202F590011C75F080120BDF
:100D60009F90000A1202F553C83FD2A022758A0054
:100D7000758C00C28D90001AE4F0900094F0A3E40A
:100D8000F0A3F0A3F0D28090001D7428F0E4A3F04B
:100D900090001DE0FAA3E0FB1ABAFF011B90001DB2
:100DA000EAF0A3EBF090001DE0FAA3E0FB4A70E04C
:100DB00090001D7428F0E4A3F0C28030B1219000AF
:100DC0001DE02401F0A3E03400F090001DE0FAA340
:100DD000E0FBC374B89A740B9B50E090FFFF223085
:100DE000B1FDD28C30B10E108D0280F890001AE067
:100DF0002401F080EFC28C90001AE0F58212367761
:100E0000AA82AB83ACF0FDC002C003C004C0059051
:100E1000000075F0807447123525AA82AB83ACF0D0
:100E2000FDE58124FCF581858C82C002C003C004ED
:100E3000C005123677AE82AF83A8F0F9C006C007AE
:100E4000C000C00190000075F0807443123525AEDB
:100E500082AF83A8F0F9E58124FCF581D005D004A8
:100E6000D003D002C006C007C000C0018A828B83B5
:100E70008CF0ED1236D4AA82AB83ACF0FDE5812470
:100E8000FCF581AE8A7F008E828F83C002C003C0D2
:100E900004C005123AAFAE82AF83A8F0F9D005D0F6
:100EA00004D003D002C006C007C000C0018A828BF4
:100EB000838CF0ED1236D4AA82AB83ACF0FDE581D1
:100EC00024FCF581C002C003C004C00590F4FC7589
:100ED000F0327434123525AA82AB83ACF0FDE58183
:100EE00024FCF581900094EAF0A3EBF0A3ECF0A3CE
:100EF000EDF0C002C003C004C00590D00075F0043E
:100F00007447123525AA82AB83ACF0FDE58124FC41
:100F1000F581E4C0E0C0E0C0E07440C0E08A828BAC
:100F2000838CF0ED123ABCAA82AB83ACF0FDE58174
:100F300024FCF581C002C003C004C0059000007508
:100F4000F0C87442123525AA82AB83ACF0FDE5816E
:100F500024FCF5818A828B838CF0ED123498AA826E
:100F6000AB83900018EAF0A3EBF08A828B8322AA6D
:100F70008274075AF5F005F07401800225E0D5F07F
:100F8000FBFBEAC4540FFA24FC4022EA2A2A900F01
:100F90009273020F9E020FA2020FA6020FAAEB424B
:100FA000A422EB42A522EB42A622EB429C22AA827B
:100FB00074075AF5F005F07401800225E0D5F0FBC6
:100FC000F4FBEAC4540FFA24FC4022EA2A2A900FC8
:100FD000D273020FDE020FE2020FE6020FEAEB52BB
:100FE000A422EB52A522EB52A622EB529C2275A71B
:100FF00000C2EF75B28075BC2075B91E75E800752A
:10100000DF3F75B300D2EF22AA82856EF005F0743F
:1010100001800225E0D5F0FBFB75A720BA00028015
:101020000ABA0102800FBA021E8014EBF4FA52F1E0
:10103000EB42D48012EBF4FA52F2EB42D58008EB8B
:10104000F4FA52F3EB42CC75A700228582BBC2EDC5
:10105000D2EC30EDFD85BD8285BE832290003DE45B
:10106000F0A3F0A3F0A3F0C2A590001DE4F0A3F05C
:1010700090001DE0FAA3E0FBC3EA9418EB94004053
:1010800003021114D2A5900041E4F0900041E0FA6F
:10109000C3648094845009900041E02401F080EB07
:1010A00090003DE0FAA3E0FBA3E0FCA3E0FDEA2A08
:1010B000FAEB33FBEC33FCED33FD90003DEAF0A39B
:1010C000EBF0A3ECF0A3EDF030A61E90003DE0FAAB
:1010D000A3E0FBA3E0FCA3E0FD90003D74014AF017
:1010E000A3EBF0A3ECF0A3EDF0C2A5900041E4F077
:1010F000900041E0FAC3648094845009900041E07C
:101100002401F080EB90001DE02401F0A3E0340006
:10111000F0021070D2A5900041E4F0900041E0FA96
:10112000C3648094845009900041E02401F080EB76
:10113000C2A5900041E4F0900041E0FAC3648094BD
:10114000845009900041E02401F080EB90003DE0E4
:10115000FAA3E0FBA3E0FCA3E0FD756E40756F42CF
:1011600075700F7571008A828B838CF0ED1235F4E7
:10117000AA82AB83ACF0FD756E0AE4F56FF570F5ED
:10118000718A828B838CF0ED02339FC020C0E0C057
:10119000F0C082C083C002C003C004C005C006C046
:1011A00007C000C001C0D075D00075A710C2C775B8
:1011B000D2C475D3FF900077E02401F0A3E034009F
:1011C000F0900077E0FAA3E0FBBAE828BB03259093
:1011D0000077E4F0A3F0900091E0FA60171230D5A8
:1011E000AA82AB83900000EAF0A3EBF0EB3395E02A
:1011F000A3F0A3F0900079E02401F0A3E03400F024
:10120000900079E0FAA3E0FBBA2038BB4E3590009D
:1012100079E4F0A3F0900091E0FA6010120D6DE512
:10122000828583F0900018F0A3E5F0F0900091E043
:10123000FA601012105CE5828583F0900092F0A3B2
:10124000E5F0F0900065E02401F0A3E03400F090B8
:101250000065E0FAA3E0FBBA640ABB0007900065F2
:10126000E4F0A3F090006AE0FA900065E0FBA3E0F0
:10127000FC7D00C3EB9AEC9D501390006BE0FA608C
:1012800006D2A1C2A2800AC2A1D2A28004C2A1C277
:10129000A2900069E0FA7D00C3EB9AEC9D50139098
:1012A000006CE0FA6006D2A4C2A3800AC2A4D2A352
:1012B0008004C2A4C2A3900067E02401F0A3E0343C
:1012C00000F0900067E0FAA3E0FBBAD00EBB070B7A
:1012D000900067E4F0A3F0D296D29790006EE0FA07
:1012E000900067E0FBA3E0FC7D00C3EA9BED9C401F
:1012F00004D2968002C29690006DE0FA7D00C3EAA7
:101300009BED9C4004D2978002C297D0D0D001D0F0
:1013100000D007D006D005D004D003D002D083D0AF
:1013200082D0F0D0E0D0203290006E7432F0900085
:101330006D7432F09001F41202F590001B7432F0DB
:10134000E4A3F090001BE0FAA3E0FBC374D29AE49C
:1013500064808BF063F08095F0402090006DEAF09F
:101360009000191202F590001BE0FAA3E0FB900038
:101370001B74142AF0E43BA3F080C89001F412021D
:10138000F590001B7432F0E4A3F090001BE0FAA388
:10139000E0FBC374FA9AE464808BF063F08095F00C
:1013A000402090006EEAF09000191202F590001BA8
:1013B000E0FAA3E0FB90001B74142AF0E43BA3F0D6
:1013C00080C8D2959001F41202F590001B74C8F009
:1013D000E4A3F090001BE0FAA3E0FBC3EA946EEBF9
:1013E0006480948040259000191202F590001BE063
:1013F000FAA3E0FB90006DEAF0EA24F6FAEB34FF82
:10140000FB90001BEAF0A3EBF080C8D2959001F4AA
:101410001202F590001B746EF0E4A3F090001BE044
:10142000FAA3E0FBC374C89AE464808BF063F08095
:1014300095F040209000191202F590001BE0FAA3ED
:10144000E0FB90006DEAF090001B740A2AF0E43B88
:10145000A3F080C8D2959001F41202F590001B749D
:10146000F0F0E4A3F090001BE0FAA3E0FBC3EA94E1
:1014700050EB6480948040279000191202F5900090
:101480001BE0FAA3E0FB90006EEAF0D295EA24F6A6
:10149000FAEB34FFFB90001BEAF0A3EBF080C6D21E
:1014A000959001F41202F590001B74C8F0E4A3F0CB
:1014B00090001BE0FAA3E0FBC3EA9450EB64809435
:1014C0008040279000191202F590001BE0FAA3E07B
:1014D000FB90006DEAF0D295EA24F6FAEB34FFFBBC
:1014E00090001BEAF0A3EBF080C6D2959001F412B5
:1014F00002F590001B745AF0E4A3F090001BE0FA90
:10150000A3E0FBC374649AE464808BF063F080957D
:10151000F040229000191202F590001BE0FAA3E0BF
:10152000FB90006EEAF0D29590001B740A2AF0E45A
:101530003BA3F080C69001F41202F5C2959001F42D
:101540001202F590001B7464F0E4A3F090001BE01D
:10155000FAA3E0FBC3EA9432EB64809480402590C8
:10156000006EEAF09000191202F590001BE0FAA359
:10157000E0FBEA24F6FAEB34FFFB90001BEAF0A351
:10158000EBF080C89001F41202F590001B7450F04B
:10159000E4A3F090001BE0FAA3E0FBC3EA9432EB73
:1015A00064809480402590006DEAF090001912024A
:1015B000F590001BE0FAA3E0FBEA24F6FAEB34FF17
:1015C000FB90001BEAF0A3EBF080C82290006E7441
:1015D00032F090006D7432F09001F41202F5900038
:1015E0001B7432F0E4A3F090001BE0FAA3E0FBC30D
:1015F00074829AE464808BF063F08095F0402090D0
:10160000006DEAF09000191202F590001BE0FAA3B9
:10161000E0FB90001B740A2AF0E43BA3F080C89022
:1016200000C81202F590001B7432F0E4A3F09000A1
:101630001BE0FAA3E0FBC374829AE464808BF0633E
:10164000F08095F0402090006EEAF09000191202B0
:10165000F590001BE0FAA3E0FB90001B740A2AF04F
:10166000E43BA3F080C89000C81202F590001B7400
:1016700082F0E4A3F090001BE0FAA3E0FBC374FA4D
:101680009AE464808BF063F08095F0402090006DC8
:10169000EAF09000191202F590001BE0FAA3E0FBBB
:1016A00090001B740A2AF0E43BA3F080C89000C8A5
:1016B0001202F590001B74FAF0E4A3F090001BE016
:1016C000FAA3E0FBC3EA9496EB64809480402590F3
:1016D000006DEAF09000191202F590001BE0FAA3E9
:1016E000E0FBEA24F6FAEB34FFFB90001BEAF0A3E0
:1016F000EBF080C89000C81202F590001B7482F0D5
:10170000E4A3F090001BE0FAA3E0FBC3EA9432EB01
:1017100064809480402590006EEAF09000191202D7
:10172000F590001BE0FAA3E0FBEA24F6FAEB34FFA5
:10173000FB90001BEAF0A3EBF080C89000C81202F7
:10174000F590001B7496F0E4A3F090001BE0FAA360
:10175000E0FBC3EA9432EB64809480402590006DF6
:10176000EAF09000191202F590001BE0FAA3E0FBEA
:10177000EA24F6FAEB34FFFB90001BEAF0A3EBF04F
:1017800080C89000C80202F5AA82AB8390006BE487
:10179000F090006CF09000697432F090006A74323E
:1017A000F08A828B831202F590006BE4F090006C5B
:1017B000F0900069F090006AF022900069E4F090E7
:1017C000006AF09000C81202F59000C81217881243
:1017D00015CC9000641202F59001F41217880215DE
:1017E000CCAA82AB83C374109A74A78BF063F08089
:1017F00095F040107410956F74A78570F063F080B9
:1018000095F050049000012290000022758224126D
:101810000F6F758223120F6F758222120F6F758200
:1018200021120F6F758217120F6F758216120F6FCC
:10183000758215120F6F758210120F6F758230123C
:101840000FAE758225120F6F758226120FAE75824C
:1018500031120FAE758200120F6F756E0375820123
:10186000121008756E04758201121008120FEE53E3
:1018700089F0438901C28CC296C297C295C2A52243
:10188000AA82AB8390006B7401F090006C7401F03D
:101890009000697450F0C002C00390007DE0C0E089
:1018A000A3E0C0E0A3E0C0E0A3E0C0E090000075CA
:1018B000F0A07442123525AC82AD83AEF0FFE58115
:1018C00024FCF5818C828D838EF0EF123C03E5823F
:1018D000D003D00290006AF08A828B831202F590C6
:1018E000006BE4F090006CF0900069F090006AF0FA
:1018F00022AA82AB8390006B7401F090006CE4F03C
:101900009000697450F0C002C00390007DE0C0E018
:10191000A3E0C0E0A3E0C0E0A3E0C0E09000007559
:10192000F0A07442123525AC82AD83AEF0FFE581A4
:1019300024FCF5818C828D838EF0EF123C03E582CE
:10194000D003D00290006AF08A828B831202F59055
:10195000006BE4F090006CF0900069F090006AF089
:101960002290006BE4F090006CF0900069743CF001
:1019700090007DE0C0E0A3E0C0E0A3E0C0E0A3E011
:10198000C0E090000075F0707442123525AA82AB59
:1019900083ACF0FDE58124FCF5818A828B838CF099
:1019A000ED123C03E58290006AF02290007BE0F5A6
:1019B0006EA3E0F56F9062551235D7E5828583F00E
:1019C00090007B2419F0743635F0A3F090007BE092
:1019D000FAA3E08A82F583221219AB756EA6E4F5AC
:1019E0006F123763E5828583F0245AF582E435F07F
:1019F000F58322900046E4F0A3F0A3F0A3F090005A
:101A00004AF0A3E4F0A3F0A3F090001DF0A3F0903F
:101A1000001DE0FAA3E0FBC3EA940AEB9400400344
:101A2000021AEC7533447534007535009000427528
:101A3000F000120A0C900042E0FAA3E0FB8A828BCD
:101A400083123AAFAA82AB83ACF0FD900046E0FE71
:101A5000A3E0FFA3E0F8A3E0F9C002C003C004C004
:101A6000058E828F8388F0E91236D4AA82AB83ACCC
:101A7000F0FDE58124FCF581900046EAF0A3EBF04F
:101A8000A3ECF0A3EDF0900044E0FAA3E0FB8A821F
:101A90008B83123AAFAA82AB83ACF0FD90004AE090
:101AA000FEA3E0FFA3E0F8A3E0F9C002C003C00476
:101AB000C0058E828F8388F0E91236D4AA82AB8368
:101AC000ACF0FDE58124FCF58190004AEAF0A3EB3F
:101AD000F0A3ECF0A3EDF07582011202CB90001D93
:101AE000E02401F0A3E03400F0021A0F90004AE075
:101AF000FAA3E0FBA3E0FCA3E0FD900046E0F5665E
:101B0000A3E0F567A3E0F568A3E0F5698A828B831B
:101B10008CF0ED1237B0AA82AB83ACF0FDC002C0EE
:101B200003C004C00590000075F0347443123525DD
:101B3000AA82AB83ACF0FDE58124FCF58174DBC0A7
:101B4000E0740FC0E07449C0E07440C0E08A828B4A
:101B5000838CF0ED123ABCAA82AB83ACF0FDE58138
:101B600024FCF58190004EEAF0A3EBF0A3ECF0A387
:101B7000EDF0C002C003C004C005E4C0E0C0E0C096
:101B8000E0C0E08A828B838CF0ED1234CCAE82E52B
:101B90008124FCF581D005D004D003D002EE603260
:101BA000E4C0E0C0E074B4C0E07443C0E08A828B5B
:101BB000838CF0ED1236D4AA82AB83ACF0FDE581C4
:101BC00024FCF58190004EEAF0A3EBF0A3ECF0A327
:101BD000EDF090004EE0FAA3E0FBA3E0FCA3E0FDF3
:101BE000C002C003C004C005E4C0E0C0E074B4C0DB
:101BF000E07443C0E08A828B838CF0ED123468AECF
:101C000082E58124FCF581D005D004D003D002EE1A
:101C10006032E4C0E0C0E074B4C0E07443C0E08A65
:101C2000828B838CF0ED123AA4AA82AB83ACF0FDD8
:101C3000E58124FCF58190004EEAF0A3EBF0A3ECE3
:101C4000F0A3EDF090004EE0FAA3E0FBA3E0FCA3CC
:101C5000E08A828B838CF0229000547401F0E4A31C
:101C6000F01219F3AA82AB83ACF0FD900081EAF088
:101C7000A3EBF0A3ECF0A3EDF0E4F53AF53BC3E5FC
:101C80003A9405E53B648094804003021EF6900080
:101C900054E0FCA3E0FD4C7003021EF6C004C00536
:101CA000120C7CD005D0044003021DCAC004C0053C
:101CB000120BCAAE82D005D004BE21028003021DE1
:101CC0005275391390007275F040120C1890007222
:101CD00075F040123BDBAF82AA83BF0B05BA00024E
:101CE0008003021DCA7452C0E07400C0E0E4C0E08A
:101CF0007456C0E07400C0E0E4C0E07456C0E07404
:101D000000C0E0E4C0E07456C0E07400C0E0E4C08D
:101D1000E0742AC0E07401C0E07480C0E07472C056
:101D2000E07400C0E07440C0E012343AE58124EE73
:101D3000F581900052E0FFA3E0FA4F600C90005450
:101D40007401F0E4A3F0021DCA900054E4F0A3F083
:101D50008078BE4075900081E0FAA3E0FBA3E0FE2E
:101D6000A3E08A828B838EF0C004C005123498AA47
:101D700082AB83D005D004C002C003E4C0E0C0E061
:101D8000900000E0C0E0A3E0C0E0A3E0C0E0A3E07A
:101D9000C0E0C03AC03BC004C005743EC0E074015E
:101DA000C0E07480C0E07472C0E07400C0E07440B1
:101DB000C0E0123A5EE58124EEF581900005120242
:101DC000F590007275F040120B9F1219617582092F
:101DD00012104BE5828583F0900004F0A3E5F0F04B
:101DE00075820A12104BAA82AB83900006EAF0A318
:101DF000EBF0900004E0FCA3E0FD8A6F8B708C8216
:101E00008D831217E1AA82AB83900000E0FCA3E06F
:101E1000FDA3E0FEA3E0FFC3EC94F0ED9414EE9478
:101E200000EF64809480403B900091E4F090006467
:101E3000C002C0031218809000641202F512132829
:101E4000D003D002053AE4B53A02053B900064C0E5
:101E500002C0031202F59000917401F0121961D0D2
:101E600003D002900018E0FCA3E0FDC3EC9458ED11
:101E700064809482500BC002C0031217BAD003D002
:101E800002BA0105BB00028003021C7E9001901281
:101E900018809000641202F51219D885826E85832D
:101EA0006F9002581235D7AA82AB83756E5AE4F54B
:101EB0006F8A828B831234FC1218F11219F3AA82F2
:101EC000AB83ACF0FDC002C003C004C00590999A7A
:101ED00075F099743F123525AA82AB83ACF0FDE50D
:101EE0008124FCF581900081EAF0A3EBF0A3ECF0F3
:101EF000A3EDF0021C7E900056E4F0A3F0120C7CDF
:101F000050FB120BCAAA82BA40F3900081E0FAA3F8
:101F1000E0FBA3E0FCA3E08A828B838CF012349870
:101F2000AA82AB83C002C003900092E0C0E0A3E0AD
:101F3000C0E0900000E0C0E0A3E0C0E0A3E0C0E0AB
:101F4000A3E0C0E07457C0E07401C0E07480C0E05A
:101F50007472C0E07400C0E07440C0E0123A5EE504
:101F60008124F2F5819000567401F0E4A3F0900012
:101F7000051202F590007275F040120B9F9000560A
:101F8000741EF0E4A3F022123315FAA3123315FBEA
:101F9000900073EAF0A3EBF0AA3CAB3DAC3E8A8222
:101FA0008B838CF0123315FAA3123315FB90007556
:101FB000EAF0A3EBF01219F3AA82AB83ACF0FD9028
:101FC0000085EAF0A3EBF0A3ECF0A3EDF090006F36
:101FD000E0FAA3E0FB900073E0FCA3E0FDECC39A01
:101FE000F582ED9BF5831235C885826E85836F90EF
:101FF00000641235D7AA82AB8390006FE0F56EA320
:10200000E0F56F8A828B831239D7E5828583F09061
:102010000058F0A3E5F0F0900071E0FAA3E0FB9027
:102020000075E0FCA3E0FDECC39AF582ED9BF5831F
:102030001235C885826E85836F9000641235D7AAE9
:1020400082AB83900071E0FCA3E0FD8C6E8D6F8A03
:10205000828B83C004C0051239D7AA82AB83D00516
:10206000D00490005AEAF0A3EBF090006FE0FEA3DA
:10207000E0FF900073E0F8A3E0F9E8C39EFEE99F5B
:10208000FF90005CEEF0A3EFF0900075E0F8A3E0A5
:10209000F9E8C39CF53FE99DF54090005EE53FF00F
:1020A000A3E540F0900069E4F090006AF0C3740585
:1020B0009AE464808BF063F08095F0E433F542702D
:1020C000030221AE900058E0F9A3E0F8C3E99405BB
:1020D000E86480948040030221AE900069EAF08AAF
:1020E000828B83C002C003C006C007123AAFA98228
:1020F000A883ACF0FD90007DE0C0E0A3E0C0E0A3C9
:10210000E0C0E0A3E0C0E0898288838CF0ED123566
:1021100025AC82AD83A8F0F9E58124FCF5818C82A1
:102120008D8388F0E9123C03858241D007D006D028
:1021300003D00290006AE541F0C3E4953FE4648077
:102140008540F063F08095F0500B90006BE4F090C8
:10215000006CF0805990006B7401F090006C740179
:10216000F0854182C002C003C006C007123677ACBA
:1021700082AD83A9F0F8C004C005C001C00090661C
:102180006675F086743F123525AC82AD83A8F0F9F0
:10219000E58124FCF5818C828D8388F0E9123C0373
:1021A000E582D007D006D003D00290006AF09000FC
:1021B00058E0FCA3E0FDC374059CE464808DF063EB
:1021C000F08095F0E433F97003022473C3EA9405B8
:1021D000EB648094804003022473C001900069EC9A
:1021E000F08C828D83C004C005C006C007123AAFD0
:1021F000AA82AB83A9F0F890007DE0C0E0A3E0C024
:10220000E0A3E0C0E0A3E0C0E08A828B8389F0E82D
:10221000123525AA82AB83A8F0F9E58124FCF5816B
:102220008A828B8388F0E9C001123C03E582D001E9
:10223000D007D006D005D00490006AF0C3E49EE435
:1022400064808FF063F08095F0D00140030222DBC0
:10225000C00190006B7401F090006CE4F0C004C009
:1022600005C00190008DE0C0E0A3E0C0E0A3E0C0A5
:10227000E0A3E0C0E090999A75F0B9743F1235255B
:1022800085824385834485F045F546E58124FCF548
:1022900081D001900081E0F8A3E0F9A3E0FAA3E087
:1022A000FBC001C043C044C045C046888289838AC0
:1022B000F0EB1236D4AA82AB83AEF0FFE58124FCAA
:1022C000F581D001D005D004900081EAF0A3EBF0B5
:1022D000A3EEF0A3EFF0D001022363C00190006BE6
:1022E000E4F090006C7401F0C004C005C0019000DF
:1022F0008DE0C0E0A3E0C0E0A3E0C0E0A3E0C0E068
:1023000090333375F0B3743F12352585824385834E
:102310004485F045F546E58124FCF581D001900027
:1023200081E0F8A3E0F9A3E0FAA3E0FBC001C04319
:10233000C044C045C046888289838AF0EB123AA423
:10234000AA82AB83AEF0FFE58124FCF581D001D0F9
:1023500005D004900081EAF0A3EBF0A3EEF0A3EF28
:10236000F0D001900081E0FAA3E0FBA3E0FEA3E03F
:10237000FFC002C003C004C005C006C007C001E41E
:10238000C0E0C0E074B4C0E07443C0E08A828B83D4
:102390008EF0EF123468A882E58124FCF581D0012B
:1023A000D007D006D005D004D003D002E8603EC0EC
:1023B00004C005C001E4C0E0C0E074B4C0E07443F0
:1023C000C0E08A828B838EF0EF123AA4AA82AB839C
:1023D000AEF0FFE58124FCF581D001D005D004905A
:1023E0000081EAF0A3EBF0A3EEF0A3EFF090008100
:1023F000E0FAA3E0FBA3E0FEA3E0FFC002C003C03D
:1024000004C005C006C007C001E4C0E0C0E0C0E0F1
:10241000C0E08A828B838EF0EF1234CCA882E581F3
:1024200024FCF581D001D007D006D005D004D0031C
:10243000D002E8603EC004C005C001E4C0E0C0E0D6
:1024400074B4C0E07443C0E08A828B838EF0EF12D4
:1024500036D4AA82AB83AEF0FFE58124FCF581D0AF
:1024600001D005D004900081EAF0A3EBF0A3EEF0D8
:10247000A3EFF0E97003022E99E5427003022E9952
:10248000900085E0FAA3E0FBA3E0FEA3E0FFC00418
:10249000C005900089E0C0E0A3E0C0E0A3E0C0E098
:1024A000A3E0C0E08A828B838EF0EF123AA4AA8266
:1024B000AB83AEF0FFE58124FCF5818A828B838EAD
:1024C000F0EF12331285824785834885F049F54A3B
:1024D000D005D00490008DE547F0A3E548F0A3E5D2
:1024E00049F0A3E54AF090005EE0F8A3E0F9C3E408
:1024F00098E4648089F063F08095F04003022A2B11
:10250000C000C00190006BE4F090006CF090005CA3
:10251000E0F8A3E0F9C3E498E4648089F063F08014
:1025200095F0D001D00040030227E0C000C0019028
:102530000075E0F56EA3E0F56F900064C004C0057F
:10254000C000C0011235D7858243858344D001D0B5
:1025500000900071E0F56EA3E0F56F900064123515
:10256000D7A882A983756E02E4F56F8882898312E9
:1025700039D7A882A983D005D004C3E89543E9647C
:10258000808544F063F08095F0D001D000500302C4
:10259000267DC000C00190005AE0F543A3E0F54459
:1025A000900069E543F090007DE0F54BA3E0F54C29
:1025B000A3E0F54DA3E0F54E854382854483C00436
:1025C000C005C000C001123AAFAE82AF83AAF0FBD3
:1025D000C006C007C002C003854B82854C83854D71
:1025E000F0E54E123525AA82AB83AEF0FFE58124DB
:1025F000FCF581C002C003C006C00790000075F062
:10260000C8744212352585824B85834C85F04DF583
:102610004EE58124FCF581D001D000D005D004E541
:10262000432CF582E5443DF583C004C005123AAF62
:10263000A882A983AAF0FBC000C001C000C001C0ED
:1026400002C003854B82854C83854DF0E54E123ADE
:10265000BCAA82AB83AEF0FFE58124FCF5818A82BF
:102660008B838EF0EF123C03E582D001D000D005C1
:10267000D00490006AF0D001D00002275EC000C0F4
:1026800001900069ECF090007DE0F54BA3E0F54C83
:10269000A3E0F54DA3E0F54E8C828D83C004C00508
:1026A000123AAFA882A983AAF0FBC000C001C00003
:1026B000C001C002C003854B82854C83854DF0E587
:1026C0004E123525AA82AB83AEF0FFE58124FCF5DE
:1026D00081C002C003C006C00790000075F0C87436
:1026E0004212352585824B85834C85F04DF54EE5AC
:1026F0008124FCF581D001D000D005D00490005A8F
:10270000E0F8A3E0F9E82CF582E93DF583C004C0C8
:1027100005123AAFA882A983AAF0FBC000C001C08D
:1027200000C001C002C003854B82854C83854DF0FB
:10273000E54E123ABCAA82AB83AEF0FFE58124FCE1
:10274000F5818A828B838EF0EF123C03E582D00103
:10275000D000D005D00490006AF0D001D000C000B5
:10276000C001C004C005C000C001C047C048C04986
:10277000C04A90000075F0C0743F12352585824B29
:1027800085834C85F04DF54EE58124FCF581D00123
:10279000D000900081E0F8A3E0F9A3E0FAA3E0FB09
:1027A000C000C001C04BC04CC04DC04E8882898360
:1027B0008AF0EB1236D4AA82AB83AEF0FFE5812417
:1027C000FCF581D001D000D005D004900081EAF062
:1027D000A3EBF0A3EEF0A3EFF0D001D000022A2B80
:1027E000900075E0F56EA3E0F56F900064C004C042
:1027F00005C000C0011235D7AA82AB83D001D0003A
:10280000D005D004900071E0F56EA3E0F56F900064
:1028100064C002C003C004C005C000C0011235D7A7
:10282000AE82AF83756E02E4F56F8E828F831239AC
:10283000D7AE82AF83D001D000D005D004D003D072
:1028400002C3EE9AEF64808BF063F08095F0500342
:1028500002290990005AE0FAA3E0FB8A6E8B6F9080
:102860000064C002C003C004C005C000C00112352E
:10287000D7AE82AF83D001D000D005D004D003D032
:1028800002EA2CF56EEB3DF56F8E828F83C002C09D
:1028900003C004C005C000C0011239D7AE82D00108
:1028A000D000D005D004D003D002900069EEF08AA9
:1028B000828B83C004C005C000C001123AAFAA8257
:1028C000AB83AEF0FF90007DE0C0E0A3E0C0E0A3EA
:1028D000E0C0E0A3E0C0E08A828B838EF0EF123587
:1028E00025AA82AB83AEF0FFE58124FCF5818A82C4
:1028F0008B838EF0EF123C03E582D001D000D0052F
:10290000D00490006AF00229AC8C6E8D6F90006448
:10291000C004C005C000C0011235D7AA82AB83D065
:1029200001D000D005D00490005AE0FEA3E0FFEEF5
:102930002CF56EEF3DF56F8A828B83C004C005C015
:1029400000C0011239D7AA82D001D000D005D0042E
:10295000900069EAF08C828D83C004C005C000C07D
:1029600001123AAFAA82AB83AEF0FF90007DE0C0C7
:10297000E0A3E0C0E0A3E0C0E0A3E0C0E08A828B77
:10298000838EF0EF123525AA82AB83AEF0FFE5818E
:1029900024FCF5818A828B838EF0EF123C03E58262
:1029A000D001D000D005D00490006AF0C000C00172
:1029B000C004C005C000C001C047C048C049C04AEB
:1029C00090000075F0C0743F12352585824B8583D9
:1029D0004C85F04DF54EE58124FCF581D001D00009
:1029E000900081E0F8A3E0F9A3E0FAA3E0FBC000C7
:1029F000C001C04BC04CC04DC04E888289838AF054
:102A0000EB123AA4AA82AB83AEF0FFE58124FCF579
:102A100081D001D000D005D004900081EAF0A3EB72
:102A2000F0A3EEF0A3EFF0D001D000E920E703021D
:102A30002E9990006B7401F090006C7401F090007E
:102A40005CE0FAA3E0FBC3E49AE464808BF063F0FB
:102A50008095F04003022CAA900075E0F56EA3E08B
:102A6000F56F900064C004C0051235D7AA82AB830D
:102A7000D005D004900071E0F56EA3E0F56F9000F2
:102A800064C002C003C004C0051235D7AE82AF8354
:102A9000756E02E4F56F8E828F831239D7AE82AFE6
:102AA00083D005D004D003D002C3EE9AEF64808BAC
:102AB000F063F08095F05003022B8790005AE0FA03
:102AC000A3E0FB900069EAF090007DE0F54BA3E005
:102AD000F54CA3E0F54DA3E0F54E8A828B83C0024E
:102AE000C003C004C005123AAFAE82AF83A8F0F9AC
:102AF000C006C007C000C001854B82854C83854D50
:102B0000F0E54E123525AE82AF83A8F0F9E58124B9
:102B1000FCF581C006C007C000C00190000075F040
:102B2000C8744212352585824B85834C85F04DF55E
:102B30004EE58124FCF581D005D004D003D002EA13
:102B40002CF582EB3DF583123AAFAA82AB83AEF04F
:102B5000FFC002C003C006C007854B82854C838539
:102B60004DF0E54E123ABCAA82AB83AEF0FFE58190
:102B700024FCF5818A828B838EF0EF123C03E58280
:102B800090006AF0022C48900069ECF090007DE023
:102B9000F54BA3E0F54CA3E0F54DA3E0F54E8C8298
:102BA0008D83C004C005123AAFA882A983AAF0FBA6
:102BB000C000C001C002C003854B82854C83854D97
:102BC000F0E54E123525AA82AB83AEF0FFE58124F5
:102BD000FCF581C002C003C006C00790000075F07C
:102BE000C8744212352585824B85834C85F04DF59E
:102BF0004EE58124FCF581D005D00490005AE0F820
:102C0000A3E0F9E82CF582E93DF583123AAFA882FA
:102C1000A983AAF0FBC000C001C002C003854B829B
:102C2000854C83854DF0E54E123ABCAA82AB83AE4B
:102C3000F0FFE58124FCF5818A828B838EF0EF1210
:102C40003C03E58290006AF0C047C048C049C04AD2
:102C500090333375F0B3743F12352585824B8583ED
:102C60004C85F04DF54EE58124FCF581900081E026
:102C7000F8A3E0F9A3E0FAA3E0FBC04BC04CC04DC1
:102C8000C04E888289838AF0EB123AA4AA82AB8371
:102C9000AEF0FFE58124FCF581900081EAF0A3EB22
:102CA000F0A3EEF0A3EFF0022E99900075E0F56E20
:102CB000A3E0F56F900064C004C0051235D7AA8266
:102CC000AB83D005D004900071E0F56EA3E0F56F02
:102CD000900064C002C003C004C0051235D7AE82A4
:102CE000AF83756E02E4F56F8E828F831239D7AE93
:102CF00082AF83D005D004D003D002C3EE9AEF6434
:102D0000808BF063F08095F05003022DA790005A5D
:102D1000E0FAA3E0FB8A6E8B6F900064C002C003F0
:102D2000C004C0051235D7AE82AF83D005D004D021
:102D300003D002EA2CF56EEB3DF56F8E828F83C0D7
:102D400002C0031239D7AE82D003D002900069EEE0
:102D5000F090007DE0F54BA3E0F54CA3E0F54DA32A
:102D6000E0F54E8A828B83123AAFAA82AB83AEF033
:102D7000FFC002C003C006C007854B82854C838517
:102D80004DF0E54E123525AA82AB83AEF0FFE5810A
:102D900024FCF5818A828B838EF0EF123C03E5825E
:102DA00090006AF0022E3E8C6E8D6F900064C0041D
:102DB000C0051235D7AA82AB83D005D00490005A43
:102DC000E0FEA3E0FFEE2CF56EEF3DF56F8A828BFF
:102DD00083C004C0051239D7AA82D005D004900060
:102DE00069EAF090007DE0FAA3E0FBA3E0FEA3E037
:102DF000FF8C828D83C002C003C006C007123AAFA9
:102E0000AC82AD83A8F0F9D007D006D003D002C0C1
:102E100004C005C000C0018A828B838EF0EF12359A
:102E200025AA82AB83ACF0FDE58124FCF5818A8282
:102E30008B838CF0ED123C03E58290006AF0C04772
:102E4000C048C049C04A90333375F0B3743F12355F
:102E500025AA82AB83ACF0FDE58124FCF5819000CE
:102E600081E0FEA3E0FFA3E0F8A3E0F9C002C00305
:102E7000C004C0058E828F8388F0E91236D4AA82FE
:102E8000AB83ACF0FDE58124FCF581900081EAF094
:102E9000A3EBF0A3ECF0A3EDF0900085E0FAA3E043
:102EA000FBA3E0FCA3E0FD900089EAF0A3EBF0A314
:102EB000ECF0A3EDF0900081E0FAA3E0FBA3E0FCCE
:102EC000A3E08A828B838CF02212180C1204CA9021
:102ED00001F41202F5902580E4F5F0120B2E120D8C
:102EE0005090017775F080120CDC90018075F080B5
:102EF000120CDC90018A75F080120CDC9001947544
:102F0000F080120CDC90019E75F080120CDC9001B8
:102F1000AA75F080120CDC9001B475F080120CDC04
:102F20009001BE75F080120CDCC2A1C2A2C2A4C284
:102F3000A3900073E4F0A3F0900075E4F0A3F01206
:102F400019F3AA82AB83ACF0FD900081EAF0A3EB09
:102F5000F0A3ECF0A3EDF09003E81202F590009AD4
:102F6000E0FABA310E1213289003E81202F590002D
:102F70009AE4F0900098E0FAA3E0FB4A600A121C81
:102F800058900098E4F0A3F0120C7C50D0120BCAB9
:102F9000AA82BA2102800302306075391390007250
:102FA00075F040120C1890007275F040123BDBABCC
:102FB00082AC83BB0B05BC0002800302303C7498DA
:102FC000C0E07400C0E0E4C0E0749AC0E07400C0E7
:102FD000E0E4C0E07475C0E07400C0E0E4C0E074F8
:102FE00073C0E07400C0E0E4C0E0742AC0E0740183
:102FF000C0E07480C0E07472C0E07400C0E074404F
:10300000C0E012343AE58124EEF58190009A787A96
:10301000E6F0753C75753D00753E0090007375F0E7
:1030200000121F87AB82AC83ADF0FE900081EBF005
:10303000A3ECF0A3EDF0A3EEF0022F5D7472C0E0FC
:103040007400C0E07440C0E074CCC0E07401C0E023
:103050007480C0E0123742E58124FAF581022F5DC9
:10306000BA40028003022F5D900081E0FAA3E0FBEA
:10307000A3E0FCA3E08A828B838CF0123498AA82AE
:10308000AB83C002C003900092E0C0E0A3E0C0E0C8
:10309000900000E0C0E0A3E0C0E0A3E0C0E0A3E057
:1030A000C0E074E6C0E07401C0E07480C0E07472F7
:1030B000C0E07400C0E07440C0E0123A5EE58124D4
:1030C000F2F5819000051202F590007275F0401241
:1030D0000B9F022F5D900060E4F0A3F0A3F0A3F03B
:1030E000900064E4F07A00BA050040030232A17552
:1030F0008A00758C00C28D20B0FD30B0FDD28C905E
:103100000064E0FB30B008108D0280F80B80F520E1
:10311000B008108D0280F80B80F5C28C8B82C00243
:10312000123677AB82AC83ADF0FEC003C004C0059D
:10313000C00690000075F080744712352585821016
:1031400085831185F012F513E58124FCF581858CCA
:1031500082123677AF82A883A9F0FBC007C000C0F7
:1031600001C00390000075F0807443123525AB82D6
:10317000AC83ADF0FEE58124FCF581C003C004C042
:1031800005C0068510828511838512F0E51312367D
:10319000D485821085831185F012F513E58124FC16
:1031A000F581AF8A78008F828883123AAFAF82A808
:1031B00083A9F0FBC007C000C001C0038510828551
:1031C00011838512F0E5131236D4AB82AC83ADF0D7
:1031D000FEE58124FCF581C003C004C005C0069053
:1031E000F4FC75F0327434123525AB82AC83ADF04B
:1031F000FEE58124FCF581900064E4F0C003C00486
:10320000C005C00690000075F0207441123525AB52
:1032100082AC83ADF0FEE58124FCF581C003C004DF
:10322000C005C00690000075F080743F123ABC855E
:10323000821085831185F012F513E58124FCF58158
:10324000900060E0FFA3E0F8A3E0F9A3E08F82889C
:103250008389F0123C66AB82AC83ADF0FEC010C037
:1032600011C012C0138B828C838DF0EE1236D4AB5A
:1032700082AC83ADF0FEE58124FCF5818B828C83EA
:103280008DF0EE123C0BAB82AC83ADF0FED0029021
:103290000060EBF0A3ECF0A3EDF0A3EEF00A023037
:1032A000E7900060E0FAA3E0FBA3E0FCA3E08A82E1
:1032B0008B838CF0123C66AA82AB83ACF0FDE4C039
:1032C000E0C0E074A0C0E07440C0E08A828B838CD0
:1032D000F0ED123ABCAA82AB83ACF0FDE58124FC90
:1032E000F5818A828B838CF0ED123C0BAA82AB8332
:1032F000ACF0FD900060EAF0A3EBF0A3ECF0A3EDDE
:10330000F0900060E0FAA3E0FBA3E0A3E08A828BE8
:103310008322C2E72220F71430F6148883A8822083
:10332000F507E6A88375830022E280F7E49322E0A4
:1033300022AAF0FBE582856EF0A4FCADF0E5838562
:103340006EF0A42DFDE435F0FEE582856FF0A42D2E
:10335000FDE5F03EFEE433FFEA856EF0A42EFEE5C7
:10336000F03FFFE583856FF0A42EFEE5F03FFFE51B
:10337000828570F0A42EFEE5F03FFFEB856EF0A491
:103380002FFFEA856FF0A42FFFE5838570F0A42F4F
:10339000FFE5828571F0A42F8EF08D838C8222FB55
:1033A0007A20E4FCFDFEFFE5822582F582E5833389
:1033B000F583E5F033F5F0EB33FB4017DAE98042B3
:1033C000E5822582F582E58333F583E5F033F5F078
:1033D000EB33FBEC33FCED33FDEE33FEEF33FFEC70
:1033E000956EED956FEE9570EF95714013EC956EBF
:1033F000FCED956FFDEE9570FEEF9571FF43820138
:10340000DABEEB22AA08AB09AC0A8A828B838CF065
:10341000123315FA0508E4B5080205098A822285E7
:10342000820885830985F00A850B5F850C60850D10
:1034300061850E62903404023EA3C00F85810FE5C2
:103440000F24F8F562E50F24FBF8860808860908C2
:10345000860AE50F24F8F8865F0886600886619082
:103460003404123EA3D00F22FFA88118181242691B
:10347000D2D133E6400730E70B7582012220E70600
:1034800075820022C2D112424BE97003F5822230CC
:10349000D101B3E433F58222123C0B700AE5824578
:1034A0008345F0700122E430D112F4700BE5F0F4A2
:1034B0007006E58330E7012290800022700AE5F073
:1034C0007006E58320E70122907FFF22FFA8811884
:1034D00018124269D2D133E6400730E70B758200FB
:1034E0002220E70675820122C2D112424BE9700305
:1034F000F5822220D101B3E433F582227A10E4FB75
:10350000FCE58225E0F582E58333F583EB33FBECC4
:1035100033FCEB956EF5F0EC956F4006FCABF04399
:103520008201DADD22124316BC00030242B5EF60CD
:10353000FA30D502B2D1E583B4FF030242CBE58273
:10354000B4FF030242CB258340072482400B024292
:10355000B524831450030242CBF582EA8DF0A4A86F
:10356000F0EA8EF0A428F8E435F0F9EB8DF0A42809
:10357000E935F0F9E433CA8FF0A429F9EA35F0FA15
:10358000EBF88EF0A429F9EA35F0FAE433FBEC8D80
:10359000F0A429F9EA35F0FAE43BFBE88FF0A42A1D
:1035A000FAEB35F0FBE433CCFD8EF0A42AFAEB35D0
:1035B000F0FBE43CFCED8FF0A42BFBEC35F0FC20A1
:1035C000E7031242E3024294E58330E709F4F5830E
:1035D000E582F4F582A322E582856EF0A4C582C05F
:1035E000F0856FF0A4D0F025F0C583856EF0A4259A
:1035F00083F58322F9E56E456F45704571607778F4
:1036000000C308E57120E73BE56E25E0F56EE56F48
:1036100033F56FE57033F570E57133F571E582953B
:103620006EE583956FE5F09570E9957150D4C3E52B
:103630007113F571E57013F570E56F13F56FE56EB5
:1036400013F56EE582956EFCE583956FFDE5F095CB
:1036500070FEE995714007F98EF08D838C82C3E589
:103660007113F571E57013F570E56F13F56FE56E85
:1036700013F56ED8CEE922E4AC82FBFAF974860227
:10368000434DFBC2D530E715D2D5E4C39582F58210
:10369000E49583F583E495F0F5F0E49BFBE5713068
:1036A000E717B2D5E4C3956EF56EE4956FF56FE458
:1036B0009570F570E49571F571EB12339F30D51369
:1036C000FBE4C39582F582E49583F583E495F0F5F8
:1036D000F0E49B221243167900E583B58202800D47
:1036E0005003124357E583C39582124371E5D0C45A
:1036F00065D020E117EA2DFAEB3EFBEC3FFC5009C8
:103700007401124371EC4480FC024294C3EA9DFAB6
:10371000EB9EFBEC9FFC500FC3E499F9E49AFAE4AA
:103720009BFBE49CFCB2D11242E30242940249D4D6
:1037300085825D85835E85F05F851D6090372D02F3
:10374000443DC00F85810FE50F24FBF560E50F2494
:10375000FBF8865D08865E08865F90372D12443D33
:10376000D00F22E56E456F60467A01E56E25E0F5E3
:103770006EE56F334012F56FE582956EE583956FC8
:1037800040030A80E6C3E56F13F56FE56E13F56E2F
:10379000C3E582956EF5F0E583956F4005F5838569
:1037A000F082C3E56F13F56FE56E13F56EDAE12273
:1037B00085826A85836B85F06CF56DE56A456B459E
:1037C0006C856DF0C2F745F0701CE566456745688D
:1037D0008569F0C2F745F0700D751421E4F5159078
:1037E0000000E4F5F0228566828567838568F0E550
:1037F00069123312AE82AF83A8F0F9856A82856BB5
:1038000083856CF0E56DC006C007C000C0011233AF
:1038100012AA82AB83ACF0FDD001D000D007D00655
:10382000C002C003C004C0058E828F8388F0E912F5
:1038300034CCAA82E58124FCF581EA6003023915C3
:10384000C066C067C068C069856A82856B83856C05
:10385000F0E56D123ABCAA82AB83ACF0FDE58124A1
:10386000FCF5818A828B838CF0ED1249E9AA82AB48
:1038700083ACF0FDC002C003C004C005E4C0E0C0DA
:10388000E0C0E0C0E08566828567838568F0E56911
:103890001234CCAE82E58124FCF581D005D004D071
:1038A00003D002EE70030239B6C002C003C004C0E8
:1038B00005E4C0E0C0E0C0E0C0E0856A82856B83BB
:1038C000856CF0E56D1234CCAE82E58124FCF58187
:1038D000D005D004D003D002EEB40100E433FE6082
:1038E0000A7EDB7F0F7849794080087EDB7F0F7886
:1038F0004979C0C006C007C000C0018A828B838C92
:10390000F0ED1236D4AA82AB83ACF0FDE58124FC45
:10391000F5810239B6C06AC06BC06CC06D85668225
:103920008567838568F0E569123ABCAE82AF83A8EB
:10393000F0F9E58124FCF5818E828F8388F0E9120D
:1039400049E9AE82AF83A8F0F98E028F038804E9BB
:10395000B2E7FDC002C003C004C005E4C0E0C0E09F
:10396000C0E0C0E0856A82856B83856CF0E56D12EE
:1039700034CCAE82E58124FCF581D005D004D0039F
:10398000D002EE600A7EDB7F0F78C979BF80087EA7
:10399000DB7F0F78C9793FC006C007C000C0018A2D
:1039A000828B838CF0ED1236D4AA82AB83ACF0FD0F
:1039B000E58124FCF5818A828B838CF0ED2220F74F
:1039C0001030F6118883A88220F507F6A883758346
:1039D0000022F280F7F022C2D5E58330E70DD2D580
:1039E000E4C39582F582E49583F583E56F30E70DB6
:1039F000B2D5E4C3956EF56EE4956FF56F1234FCA5
:103A000030D50BE4C39582F582E49583F58322AA31
:103A100082AB16AC17AD188B828C838DF0EA12390D
:103A2000BE0516E4B5160205172285821685831792
:103A300085F01885195D851A5E851B5F851C609071
:103A40003A0F12443DAA82AB83AC16AD17AE188C68
:103A5000828D838EF0E41239BE8A828B8322C00F5E
:103A600085810FE50F24F8F560E50F24FBF8861635
:103A7000088617088618E50F24F8F8865D08865E24
:103A800008865F903A0F12443DAA82AB83AC16AD14
:103A900017AE188C828D838EF0E41239BE8A828B29
:103AA00083D00F22A8811818C6B2E7C60236D4AC5C
:103AB00083AB827A007900748E023C6F1243163019
:103AC000D502B2D1BF0009BC00030242D80242CBEA
:103AD000BC00030242B5E583B4FF0BE582B4FF03EB
:103AE0000242D80242B5E582B4FF030242CBC3953D
:103AF000835007247F400B0242B5248014500302F8
:103B000042CBC0E0E4CCCBCAF98D6E8E6F8F70EFE4
:103B100054F0C4F5717583068571F0EB84F582E984
:103B2000C4F9EAC4FAEBC4FBEC540FC47803D6FC26
:103B300018EBD6FB18EAD6FA8582F0EDA4A8F0FDC2
:103B40008582F0EEA428FEE435F0F88582F0EFA43B
:103B500028FFE435F0F8E99DF9EA9EFAEB9FFBECCB
:103B600098FCAD6EAE6FAF7030E7101582E92DF99D
:103B7000EA3EFAEB3FFBE43CFC80EDC082D5839843
:103B8000C3E933F9EA33FAEB33FBEC33FCC3E99DC9
:103B9000EA9EEB9FEC9400B3E413F9D002D0E0C4AA
:103BA0004AFAD003D0E0C44BFBD004D0E0F5F05487
:103BB0000FC44CFCD082158230F40FD3EC13FCEB15
:103BC00013FBEA13FAE913F90582E930E70A7401F5
:103BD0002AFAE43BFBE43CFC0242ACAA82AB83AC95
:103BE000F07D007E008A828B838CF0123315FFA358
:103BF000AA82AB83EF60070DBD00EA0E80E78D82DD
:103C00008E83227F86124D6FF58222124D94C374EB
:103C10009E95824039790012437130D126E9F4240F
:103C200001F582EAF43400F583EBF43400F5F0ECAE
:103C3000F43400700AE582458345F0700122E430D7
:103C4000E70F22EC20E71489828A838BF02230D19F
:103C50000AE4F582F583F5F074802274FFF582F5AD
:103C600083F5F0747F22FCABF0AA83A982749EF5E1
:103C700082C2D1EC30E716D2D1E9F42401F9EAF49A
:103C80003400FAEBF43400FBECF43400FC1242E3B1
:103C9000024294854F82855083124DA685825EE54F
:103CA0005E600A0558E4B5580605598002D20B85B6
:103CB0005E82227A007B00300B05788C760022C071
:103CC00002C003123C93AC82D003D002BC0002803D
:103CD0002DBC08028014BC09028023BC0A02801E8D
:103CE000BC0D028019BC20218014EA4B60D11ABAA5
:103CF000FF011B155874FFB55802155980C1EA4BD6
:103D000060BDEA248CF8760022EC7009EA248CF875
:103D10007600D20B22ECB55D07EA248CF8760022FF
:103D2000C3EA940FEB940050968A058B060ABA00FA
:103D3000010BED248CF8A604023CBFAA827B7FC352
:103D4000EA648094B0401174B98AF063F08095F011
:103D50004006EA24D0FB8030C3EA648094C140115D
:103D600074C68AF063F08095F0400674C92AFB801F
:103D700017C3EA648094E1400F74E68AF063F08030
:103D800095F0400474A92AFBC3EB955A50038B822B
:103D90002275827F22AA82755400755500755600DF
:103DA0007557008A00E6FA60148A82C000123D3B13
:103DB000AB82D000C3EB955A40030880E886038BA2
:103DC00082C000123D3BAA82D000C3E55A9A4050FF
:103DD000855A6E756F007570007571008554828507
:103DE00055838556F0E557C002C000123331AB82CF
:103DF000AC83ADF0FED000D0028B548C558D568E26
:103E000057E4FBFCFDEA2554FAEB3555FBEC35563F
:103E1000FCED3557FD8A548B558C568D5708809D87
:103E20008554828555838556F0E55722AA827554BC
:103E3000007555007556007557008A00E6FB602234
:103E40008B82C003C000123D3BAC82D000D003C3C4
:103E5000EC955A400DBB2D028008BB2B0280030855
:103E600080DA88028603BB2D03D38001C3920EBB88
:103E70002D028003BB2B010A8A82123D95300E135E
:103E8000C3E49554FAE49555FBE49556FCE4955744
:103E9000FD8008AA54AB55AC56AD578A828B838CF3
:103EA000F0ED2285824F858350E4F558F559F55C95
:103EB000C20BAA5FAB60AC618A828B838CF0123339
:103EC00015FD74012AF55FE43BF5608C61EDFA7035
:103ED00003024242BA250280030241DBD20AC20831
:103EE000755A00755B00C20CC20DAB5FAC60AD6172
:103EF0008B828C838DF0123315FAA3AB82AC838B4B
:103F00005F8C608D618B828C838DF0123315F55D33
:103F10008A06BE300040168A06EE24C6400FE55BD6
:103F200075F00AA4FEEA24D02EF55B80C38A06BE93
:103F30006100400A8A06EE248540035302DFBA2559
:103F40000280ADBA2A028045BA42028036BA4302E4
:103F50008040BA4403024056BA4903024056BA4C64
:103F6000028025BA4E03024069BA4F0302405BBA91
:103F700053028020BA5503024054BA5803024062EB
:103F8000024091D208023EF0D209023EF0D20C0269
:103F90003EF0D20D200C17E56224FDF888628603FE
:103FA00008860408860518188B518C528D53E55BE2
:103FB000700B300D047B0180027BFF8B5B755A0018
:103FC000C3E55A955B5005123C93AA82300B07E576
:103FD0005A7003024091EA601ABA2002800DBA09B1
:103FE000028008BA0D028003BA0A03300D05E55BB2
:103FF000B55A1FE55A60C9200C12055CAB51AC5292
:10400000AD538B828C838DF0E41239BE755A000259
:104010004091BA081CE55A60A7200C11AB51AC5274
:10402000AD531BBBFF011C8B518C528D53155A8015
:104030008F200C1BAB51AC52AD538B828C838DF017
:10404000EA1239BE0BBB00010C8B518C528D53050B
:104050005A023FC0C20A755A0A8036C20A755A0807
:10406000802FC20A755A108028E56224FDF8886204
:10407000860308860408860518188B518C528D53C8
:104080008B828C838DF0E5581239BEA3E559123925
:10409000BEE55A70030241DB123CB3788CE6700334
:1040A0000241DB300C030241DBE56224FDF888624B
:1040B000860308860408860518188B518C528D5388
:1040C000055C200A0302415430093585516385524D
:1040D0006485536575828C123E2CAE82AF83ABF043
:1040E000FC8563828564838565F0EE1239BEA3EF9B
:1040F0001239BEA3EB1239BEA3EC1239BE0241DB6A
:1041000030082685516385526485536575828C120B
:104110003E2CAE82AF83ABF0FC85638285648385E1
:1041200065F0EE1239BE0241DB855163855264852C
:10413000536575828C123E2CAE82AF83ABF0FC854A
:1041400063828564838565F0EE1239BEA3EF123970
:10415000BE0241DB30093485516385526485536565
:1041600075828C123D95AE82AF83ABF0FC85638285
:104170008564838565F0EE1239BEA3EF1239BEA3C4
:10418000EB1239BEA3EC1239BE80503008258551A0
:104190006385526485536575828C123D95AE82AFFE
:1041A00083ABF0FC8563828564838565F0EE12390C
:1041B000BE802885516385526485536575828C1253
:1041C0003D95AE82AF83ABF0FC85638285648385C9
:1041D00065F0EE1239BEA3EF1239BE200B03023E8A
:1041E000B2AB5FAC60AD618B828C838DF012331506
:1041F000FEA3AB82AC838B5F8C608D61EEFA7003A3
:10420000023EB2BA25E18B828C838DF0123315FA0F
:10421000BA6E028003BA4ECFE56224FDF88862864A
:104220000208860608860718188A518E528F538A0C
:10423000828E838FF0E5581239BEA3E5591239BE3C
:1042400080A5AA5C7B008A828B83227901AA82E600
:104250008F82B5821318E6B5F00E18E6B5830918FB
:10426000E68A82B58202790022B4800FE5F0700AF6
:10427000E5837006E58270027F00EFB6801518B600
:10428000001018B6000B18B60006080808760022C1
:1042900008080822B98003EA13B34010EA2401FA9F
:1042A000E43BFBE43CFC50047C800582BC000EBB7C
:1042B000000BBA0008E4F5F0F583F58222A2D1E5FF
:1042C00082138CF092F78B838A8222E4F583F58245
:1042D00075F080F4A2D11322E4F583F58275F0C065
:1042E000747F227804EC7011E58224F8500AF5827C
:1042F000E4C9CACBFCD8EF22EC7820058220E71372
:10430000D5820122C3E933F9EA33FAEB33FBEC330C
:10431000FCD8EA158222AA82AB83A2F73392D1603D
:1043200002D2F7F582ACF0E58124F9F8E6FD08E663
:10433000FE0886F008E6A2F73392D56002D2F7F5C0
:1043400083AFF022FCABF0AA83A982749EC2D1F5A0
:10435000821242E3024294E582C583F582A2D13300
:10436000A2D592D11392D5ECCFFCEBCEFBEACDFADD
:10437000226040F82582500274FFF582E824F8504C
:104380001ECCCBCAF9E4CC24F85014CBCAF9E4CB48
:1043900024F8500BCAF9E4CA24F850037900222407
:1043A000086010F8C3EC13FCEB13FBEA13FAE913F3
:1043B000F9D8F122AA8274C5C0E07443C0E0C04FAE
:1043C000C0508A82220556E4B55602055722AA82B9
:1043D00074302AFA24C6500A74072AFA300F0343AD
:1043E00002208A820243B4E582FAC4540FF582C0E7
:1043F000021243CED002740F5AF5820243CEAA5164
:10440000AB52AC53AD54AE55755C20EE2EFEED2391
:104410005401FF4206EA2AFAEB33FBEC33FCED339E
:10442000FDC3EE95584008EEC39558FE430201D5F2
:104430005CD98A518B528C538D548E552285824F74
:10444000858350E4F556F557AA5DAB5EAC5F8A8272
:104450008B838CF0123315FD74012AF55DE43BF576
:104460005E8C5FEDFA70030249CDBA25028003022B
:1044700049C5C213C214C215C216C217C218C21946
:10448000C21AC210C211C212755800755900755A6D
:10449000FFAB5DAC5EAD5F8B828C838DF01233150C
:1044A000FAA3AB82AC838B5D8C5E8D5FBA25078AE5
:1044B000821243B480928A06BE3000402E8A06EEF5
:1044C00024C6402774FFB55A13E55975F00AA4FEB7
:1044D000EA24D02EF55970BFD21480BBE55A75F08E
:1044E0000AA4FEEA24D02EF55A80ACBA2E0A74FF34
:1044F000B55AA4755A00809F8A06BE6100400E8A94
:1045000006EE248540075302DFD20F8002C20FBAA5
:1045100020028075BA2303024598BA2A0302459DFA
:10452000BA2B02805FBA2D028055BA4202805FBA70
:1045300043030245E2BA440302471DBA450302475A
:1045400037BA4603024733BA470302473BBA490327
:1045500002471DBA4C02803BBA4E0302473FBA4F96
:1045600003024724BA50030246B6BA530302460672
:10457000BA5503024729BA580302472E024769D2A7
:1045800013024497D215024497D216024497D218C8
:10459000024497D219024497D21A02449774FFB585
:1045A0005A2030180BE56014F88860865902449749
:1045B000E56024FEF888608606088607188E590292
:1045C000449730180BE56014F88860865A024497C7
:1045D000E56024FEF888608606088607188E5A0271
:1045E000449730180AE56014F888608602800FE569
:1045F0006024FEF888608603088604188B028A828D
:104600001243B402476EE56024FDF8886086030813
:10461000860408860518188B518C528D538B828C1A
:10462000838DF0123BDBAB82AC838B5B74FFB55A9E
:1046300003855B5A20131DC3E55B95595016E55958
:10464000C3955BF559AB591559EB6008758220127B
:1046500043B480F18551828552838553F01233151E
:10466000FBFA6029AB5A155AC3E464808BF063F0FF
:104670008095F050188A821243B4AB51AC52AD53BE
:104680000BBB00010C8B518C528D5380C720130340
:1046900002476EC3E55B9559400302476EE559C377
:1046A000955BF559AB591559EB700302476E75824E
:1046B000201243B480EEE56024FDF888608603088C
:1046C000860408860518188B518C528D53E553FBD0
:1046D00030E7047A438013EB546060047A50800A18
:1046E000EB30E6047A4980027A588A82C00212438B
:1046F000B475823A1243B47582301243B47582782D
:104700001243B4D002BA4902800BBA500280068527
:1047100052821243E78551821243E78051D21775C6
:10472000580A804A755808804575580A804075585F
:1047300010803BD2108037D2118033D212802FE507
:104740006024FDF88860860308860408860518182A
:104750008B518C528D538B828C838DF0E5561239A0
:10476000BEA3E5571239BE80058A821243B42010D9
:104770000620110330125AE56024FCF88860860395
:104780000886040886050886061818188B518C526E
:104790008D538E547551FC7552017553808551614E
:1047A00085526285536374012561FEE43562FFAB77
:1047B000638E518F528B538561828562838563F04E
:1047C000123315FBFA70030244488A821243B48004
:1047D000CCE55870030244487B8B30182BE56014FD
:1047E000F88860E6FC3395E0FDFEFF8C518D528E1B
:1047F000538F5420175EAC517D007E007F008C519A
:104800008D528E538F54804C30191FE56024FCF874
:104810008860860408860508860608860718181822
:104820008C518D528E538F54802AE56024FEF88877
:1048300060860408860518ED3395E0FEFF8C518DE7
:10484000528E538F5420170CAC51AD527E007F0016
:104850008E538F54301A43E55145524553455460A9
:10486000397408B5580C758230C0031243B4D003B4
:1048700080287410B55823758230C0031243B4D019
:1048800003300F0C758278C0031243B4D003800A42
:10489000758258C0031243B4D003301725AC51AD14
:1048A00052AE53E554FF30E717C3E49CFCE49DFD92
:1048B000E49EFEE49FFF8C518D528E538F548002F4
:1048C000C217755B00D21B8B00755500C0001243E8
:1048D000FED000201B0DE555C4FCE6FD4CF6188803
:1048E000038002A655055BB21BE551455245534571
:1048F0005470D68803E559700375590120141A20A5
:104900001317E55B04FCC39559500E758220C00354
:104910001243B4D003155980E930170E75822DC0AB
:10492000031243B4D00315598024E55B6020301591
:104930000E75822BC0031243B4D0031559800F307B
:10494000160C758220C0031243B4D00315592013EE
:104950001EAC591559C3E55B9C50273014047C30BC
:1049600080027C208C82C0031243B4D00380E2C357
:10497000E55B95595009E559C3955BF55980037579
:1049800059008B00AB5B155BEB6022B21B201B0A4E
:1049900008E6C4540FFB8B5580078603740F5BF544
:1049A00055855582C0001243CED00080D720130316
:1049B000024448AB591559EB7003024448758220F4
:1049C0001243B480EE8A821243B402444885568270
:1049D00085578322AA82BA0A0810990280FB75992A
:1049E0000D10990280FB8A992285824F858350851C
:1049F000F051F552E4F55BF55C854F828550838577
:104A000051F0E55212331285825385835485F05557
:104A1000F556E4C0E0C0E07480C0E0743FC0E085BB
:104A200053828554838555F0E556123468AC82E58F
:104A30008124FCF581EC602AC053C054C055C05697
:104A400090000075F080743F123ABC8582538583D4
:104A50005485F055F556E58124FCF581755B02E43B
:104A6000F55C74A3C0E07430C0E07489C0E0743EAB
:104A7000C0E08553828554838555F0E5561234682D
:104A8000AC82E58124FCF581EC7003024B6FC053CE
:104A9000C054C055C0569067AF75F03B743F123597
:104AA00025AC82AD83AEF0FFE58124FCF581E4C046
:104AB000E0C0E0C0E0743FC0E08C828D838EF0EFF8
:104AC000123AA4AC82AD83AEF0FFE58124FCF581FF
:104AD000E4C0E0C0E0C0E0743FC0E08C828D838E13
:104AE000F0EF123AA4AC82AD83AEF0FFE58124FC76
:104AF000F581C053C054C055C0568C828D838EF052
:104B0000EF1236D485825D85835E85F05FF560E5C2
:104B10008124FCF58174D7C0E074B3C0E074DDC0BB
:104B2000E0743FC0E08553828554838555F0E55697
:104B30001236D4AC82AD83AEF0FFE58124FCF58162
:104B4000C004C005C006C007855D82855E83855FA1
:104B5000F0E560123ABC85825385835485F055F5A3
:104B600056E58124FCF581055BE4B55B02055C85B7
:104B700053828554838555F0E556123312AC82ADCD
:104B800083AEF0FFE4C0E0C0E07480C0E07439C0E0
:104B9000E08C828D838EF0EF1234CCAC82E58124E0
:104BA000FCF581EC600BAC53AD54AE55AF56024CE6
:104BB000D2C053C054C055C0568553828554838596
:104BC00055F0E55612352585825785835885F0596D
:104BD000F55AE58124FCF581C057C058C059C05A28
:104BE00090869175F05074BD123525AA82AB83A8CA
:104BF000F0F9E58124FCF58174F6C0E07410C0E0A2
:104C000074F1C0E074BEC0E08A828B8388F0E91240
:104C100036D4AA82AB83A8F0F9E58124FCF581C0E3
:104C200057C058C059C05A8A828B8388F0E9123520
:104C300025AA82AB83A8F0F9E58124FCF581C05355
:104C4000C054C055C0568A828B8388F0E91235253E
:104C500085825D85835E85F05FF560E58124FCF5E6
:104C60008174D3C0E074CCC0E074B4C0E0743FC0C1
:104C7000E08557828558838559F0E55A1236D4AAC3
:104C800082AB83A8F0F9E58124FCF581C002C00362
:104C9000C000C001855D82855E83855FF0E560129E
:104CA0003ABCAA82AB83A8F0F9E58124FCF581C067
:104CB00002C003C000C0018553828554838555F02E
:104CC000E5561236D4AC82AD83AEF0FFE58124FC0C
:104CD000F581C37401955BE46480855CF063F080CA
:104CE00095F05004EFB2E7FFAA5BE55CCA25E0CA85
:104CF00033CA25E0CA33FBEA2407F582EB3402F518
:104D000083E493FAA3E493FBA3E493F8A3E493F975
:104D1000C002C003C000C0018C828D838EF0EF12F0
:104D200036D4AC82AD83AEF0FFE58124FCF581C0C2
:104D300004C005C006C007E4C0E0C0E0C0E0C0E0B9
:104D4000854F828550838551F0E5521234CCAA827A
:104D5000E58124FCF581D007D006D005D004EA60B7
:104D600004EFB2E7FF8C828D838EF0EF227F9E12DC
:104D70004D9430D1030242B5C3EF9582500974FFC0
:104D8000F5F0F583F58222790012437189828A83D6
:104D90008BF0EC22AA82AB83A2F73392D16002D2CD
:104DA000F7F582ACF022E473000000000000000080
:00000001FF
