:100000000200037581A512031CE582600302006FE4
:1000100078ED79027A637B007C2F7D00EC4D601CCB
:1000200088828983E493A3A882A9838A828B83F040
:10003000A3AA82AB831CBCFFE31D80E07582007520
:1000400083007C637D00EC4D600AE4F0A31CBCFFE0
:10005000F51D80F27582007583007C007D00EC4DFB
:10006000600AE4F0A31CBCFFF51D80F212007412BC
:10007000287680FE22000000000000000000000042
:100090000000000210234572726F723A20436F75A0
:1000A0006C64206E6F742066696E6420424D4D3121
:1000B00035302073656E736F722028436869702035
:1000C00049443A20307825303258290D0A005072C0
:1000D000657373207265737461727420746F20632A
:1000E0006865636B20616761696E210D00444F4E46
:1000F00045212043686970204944203D20307825FF
:100100003032580D0A00424D4D31353020696E694C
:100110007469616C697A6564207375636365737370
:1001200066756C6C792120436869702049443A20D7
:100130003078253032580D0A00436F6D6D616E6462
:100140003A20257300526573706F6E73653A2025EF
:10015000730D0A0041542B44564944303030300D61
:100160000A006D61737465725F6D657373676165B5
:100170005F6175746F5F6D6F64653A2025730D0A5A
:1001800000253033642C253033642C253031642C29
:100190002530316400253031642C253032642C2523
:1001A0006C642C253035642C253033640A00663AA3
:1001B0002530346C642C2064313A25642C20643260
:1001C0003A25642C20626F756E645F6465637465A4
:1001D00063743A2025640D0A000D0A45464D384CDB
:1001E000423132204A44592D343020536C617665B7
:1001F00020546573742E0D0A0041542B5645520D40
:100200000A0041542B424155440D0A0041542B52DF
:100210004649440D0A0041542B445649440D0A00F6
:1002200041542B5246433030320D0A0041542B507A
:100230004F57450D0A0041542B434C53530D0A00B0
:1002400041542B44564944454631310D0A0025306E
:1002500033642C253033642C25632C253031640025
:100260004A6F79737469636B20526563656976655B
:10027000643A205678203D2025642C205679203D74
:100280002025642C204F72646572203D2025632C4C
:10029000204175746F203D2025640D0A002A2A2A0A
:1002A00020424144204D455353414745202A2A2AA4
:1002B0003A2025730D0A00302C30302C2530346C58
:1002C000642C253035642C253033640A0025730DE9
:1002D0000A003C4E4F20464C4F41543E0000000067
:1002E00000920A063FDB0FC93F920A863F000000DA
:1002F00000000001010101A100A6000000000000B3
:1003000000000039303333733F000000000000006C
:1003100000000000000000000001000075A700754B
:1003200097DE7597AD75FF8075EF0675A71075C1DF
:100330002075A70075A90075A900E5A930E7FB7530
:10034000A90375A903E5A930E7FB43A4C043A506AB
:1003500043A60175E10375E20075E34175D40775A5
:10036000D5F9759810758DE6858D8B53890F438966
:1003700020D28ED299D2A075A21175A1E075F80194
:1003800075A71075C00075D4FF75D5FF43F308D26B
:10039000C2D2AF75A70075820022AA82438E407533
:1003A00092B87593FF8592948593957591047B001F
:1003B000C3EB9A500BE59130E7FB53917F0B80F034
:1003C00075910022AA82AB837C007D00C3EC9AED7C
:1003D0009B502B7E00BE0400501D7582FAC002C0E7
:1003E00003C004C005C00612039AD006D005D0048D
:1003F000D003D0020E80DE0CBC00D10D80CE228551
:1004000082A310FF0280FB85A38222AA824302807E
:10041000C2908A821203FF7582001203FFD29022DB
:10042000AA8253027FC2908A821203FF852482121D
:1004300003FFD2902290001CE4F090001DF0900089
:100440001EF090001FF0900020E4F0900021F0904A
:100450000022F0900023F0900024E4F0900025F0BA
:10046000900026F0900027F0900028E4F0900029FA
:10047000F090002AF090002BF07A00BA020050278A
:10048000EA241CFBE43400FC745D2AF582C002C03F
:1004900003C00412040BAD82D004D003D0028B82BF
:1004A0008C83EDF00A80D47A00BA04005027EA2445
:1004B0001EFBE43400FC74622AF582C002C003C053
:1004C0000412040BAD82D004D003D0028B828C8343
:1004D000EDF00A80D47A00BA0A005027EA2422FB01
:1004E000E43400FC74682AF582C002C003C0041220
:1004F000040BAD82D004D003D0028B828C83EDF04C
:100500000A80D490001CE0900008F090001DE0905C
:10051000000AF0900020E0900009F0900021E090A7
:10052000000BF090002BE0900014F090002AE09077
:100530000015F0900027E0FA53027F8A037A0090BA
:100540000026E0FC7D00900016EC4AF0ED4BA3F095
:1005500022D29090000A1203C475248275824B1235
:10056000042090000A1203C475240175824B120402
:10057000209000051203C475824012040BAA82BAAF
:10058000320280348A037C00C003C0047496C0E049
:100590007400C0E07480C0E0123131E58124FBF5C5
:1005A0008174CEC0E07400C0E07480C0E0123131CC
:1005B00015811581158180E97B00C002C003C0024E
:1005C000C00374EDC0E07400C0E07480C0E012317C
:1005D00031E58124FBF58175240075824C120420DD
:1005E00075247F75825112042075240E7582521273
:1005F00004201204357406C0E07401C0E07480C0A9
:10060000E0123131E58124FBF58122ACF0122D049A
:10061000FAA3122D04FBBA0006BBF003020851AC8A
:1006200025AD26AE278C828D838EF0122D04FCA37F
:10063000122D04FD4C600A90002EECF0A3EDF0802A
:100640001C900016E0FCA3E0FD4C600A90002EEC2C
:10065000F0A3EDF0800790002EE4F0A3F090002EC0
:10066000E0FCA3E0FD4C7003020846900016E0FE9B
:10067000A3E0FFE4F8EFC85403A2E0C813C813A234
:10068000E0C813C813C8F9EE030354C0FFEE030318
:10069000543F48F87E008C788D79757A00757B0020
:1006A0008E828F8388F0E9C002C003123071AC8261
:1006B000E58324C0FD8C068D078E28EFF529339540
:1006C000E0F52AF52B8C068D078E78EFF5793395BA
:1006D000E0F57AF57B852882852983852AF0E52B4C
:1006E000C004C005122D2085822885832985F02A23
:1006F000F52B900015E0FE3395E0FFF8F975788052
:10070000E4F579F57AF57B852882852983852AF0B9
:10071000E52BC006C007C000C00112307185827889
:1007200085837985F07AF57BD001D000D007D0069B
:100730008E828F8388F0E9122D2085822885832977
:1007400085F02AF52BD005D004900014E0FEE45487
:1007500001A2E0CE13CE13CE8E78F5793395E0F575
:100760007AF57BED3395E0FE8C828D838EF0122D31
:1007700020AC82AD83AEF0FFEC2528FCED3529FDE1
:10078000EE352AFEEF352BFF757800757902757A04
:1007900000757B008C828D838EF0EF123071AC82FD
:1007A000AD83AEF0FF74102EFEE43FFF900009E031
:1007B000F83395E0F974A028F8E4398878F57933AE
:1007C00095E0F57AF57B8C828D838EF0EF122D20EB
:1007D000757800757910757A00757B001230718517
:1007E000827885837985F07AF57BD003D002EB336C
:1007F00095E0FC8A828B838CF0122D207578007531
:100800007920757A00757B00123071AA82AB8390D3
:100810000008E0FC3395E0C40354F8CCC403CC6C6E
:10082000CC54F8CC6CFDEC2AF582ED3BF583757861
:1008300010E4F5791233C6E5828583F090002CF040
:10084000A3E5F0F0801490002CE4F0A37480F08015
:100850000990002CE4F0A37480F090002CE0FAA33F
:10086000E08A82F58322ACF0122D04FAA3122D0443
:10087000FBBA0006BBF003020AAAAC2CAD2DAE2ECB
:100880008C828D838EF0122D04FCA3122D04FD4C5E
:10089000600A900032ECF0A3EDF0801C900016E0AE
:1008A000FCA3E0FD4C600A900032ECF0A3EDF08078
:1008B00007900032E4F0A3F0900032E0FCA3E0FDEA
:1008C0004C7003020A9F900016E0FEA3E0FFE4F8DC
:1008D000EFC85403A2E0C813C813A2E0C813C8139A
:1008E000C8F9EE030354C0FFEE0303543F48F87EFB
:1008F000008C788D79757A00757B008E828F838865
:10090000F0E9C002C003123071AC82E58324C0FD5F
:100910008C068D078E2FEFF5303395E0F531F532EB
:100920008C068D078E78EFF5793395E0F57AF57BB7
:10093000852F828530838531F0E532C004C00512F1
:100940002D2085822F85833085F031F5329000157A
:10095000E0FE3395E0FFF8F9757880E4F579F57AF3
:10096000F57B852F828530838531F0E532C006C066
:1009700007C000C00112307185827885837985F0C7
:100980007AF57BD001D000D007D0068E828F838885
:10099000F0E9122D2085822F85833085F031F532E4
:1009A000D005D004900014E0FEE45401A2E0CE1380
:1009B000CE13CE8E78F5793395E0F57AF57BED336D
:1009C00095E0FE8C828D838EF0122D20AC82AD835B
:1009D000AEF0FFEC252FFCED3530FDEE3531FEEFAE
:1009E0003532FF757800757902757A00757B008C59
:1009F000828D838EF0EF123071AC82AD83AEF0FF4A
:100A000090000BE0F83395E0F974A028F8E43988F9
:100A100078F5793395E0F57AF57B74102EFEE43F96
:100A20008C828D838EF0122D20757800757910756B
:100A30007A00757B0012307185827885837985F024
:100A40007AF57BD003D002EB3395E0FC8A828B836E
:100A50008CF0122D20757800757920757A00757BE1
:100A600000123071AA82AB8390000AE0FC3395E05B
:100A7000C40354F8CCC403CC6CCC54F8CC6CFDEC5F
:100A80002AF582ED3BF583757810E4F5791233C6CB
:100A9000E5828583F0900030F0A3E5F0F0801490BB
:100AA0000030E4F0A37480F08009900030E4F0A3FB
:100AB0007480F0900030E0FAA3E08A82F58322850A
:100AC000823685833785F03875824212040BAD82F9
:100AD000758243C00512040BAE82758244C00612B3
:100AE000040BAF82758245C00712040BA882758281
:100AF00048C00012040BA982758249C00112040B80
:100B0000AA82D001D000D007D006D0055305F8ED59
:100B1000C423541FFDEE3395E0C42354E0CEC42318
:100B2000CE6ECE54E0CE6EFB7C00900034ED4EF0E5
:100B3000EC4BA3F05307F8EFC423541FFFE83395A1
:100B4000E0C42354E0C8C423C868C854E0C868FBA4
:100B50007C00900036EF48F0EC4BA3F05301FCE929
:100B60000303543FF9E45403A2E0CA13CA13A2E0FA
:100B7000CA13CA13CAFB7C00900038E94AF0EC4B58
:100B8000A3F075253875260075270090003475F0A0
:100B90000012060BAA82AB8385368285378385389F
:100BA000F0EA1233ADA3EB1233ADAA33AB34AC355C
:100BB000752C38752D00752E0090003675F000C02C
:100BC00002C003C004120866AD82AE83D004D00315
:100BD000D0028A828B838CF0ED1233ADA3EE023308
:100BE000ADAA82AB83ACF0FD75A72075930C75C8D8
:100BF000107594008A788B798C7A8D7B90A2007521
:100C0000F04A7404122D8EAA82AB83ACF0FD757885
:100C100018E4F579F57AF57B8A828B838CF0ED12F6
:100C20002D8EAA82AB83ACF0FDE4C39AFAE49BFB61
:100C300074019CE49D8A958B96D2C943944075A714
:100C40000022AA8275A72010C90280FB8A9275A78C
:100C50000022AA82AB83ACF08A828B838CF0122DA7
:100C600004FD60188D82C002C003C004120C42D083
:100C700004D003D0020ABA00DF0B80DC2275A72063
:100C800010C80280FB53C83F85928275A700227569
:100C9000A7207A007B0020C82675A700758214C0A3
:100CA00002C00312039AD003D00275A7200ABA002B
:100CB000010BBAA8E1BB61DE75A70075820A22C2EA
:100CC000C853C83F85928275A70022AA82AB83AC25
:100CD000F07D008A068B078C00C002C003C004C0F0
:100CE00005C006C007C000120C8FA982D000D00733
:100CF000D006D005D004D003D002B90A0A8A828B6C
:100D0000838CF0E40233ADC3ED953950180D8E821B
:100D10008F8388F0E91233ADA3AE82AF838E028F4A
:100D200003880480B48A828B838CF0E40233AD752F
:100D3000A720A2C875A70022AA82AB837C007D00F1
:100D4000C3EC9AED9B50477E00BE04005039C002B0
:100D5000C003C004C005C006120D2FE433D006D076
:100D600005D004D003D0026001227582FAC002C00F
:100D700003C004C005C00612039AD006D005D004F3
:100D8000D003D0020E80C20CBC00B50D80B222AAE6
:100D900082AB83ACF0C002C003C004C002C003C079
:100DA000047439C0E07401C0E07480C0E0123131D5
:100DB000E58124FAF581C2A09000051203C4D00495
:100DC000D003D0028A828B838CF0120C52753913B7
:100DD00090007C75F040120CCB90000A1203C4D234
:100DE000A0747CC0E07400C0E07440C0E07445C0F2
:100DF000E07401C0E07480C0E0123131E58124FA72
:100E0000F58122C2A090000A1203C490015475F02B
:100E100080120C5290000A1203C453C83FD2A02281
:100E2000AA8274075AF5F005F07401800225E0D516
:100E3000F0FBFBEAC4540FFA24FC4022EA2A2A9071
:100E40000E4373020E4F020E53020E57020E5BEB5F
:100E500042A422EB42A522EB42A622EB429C22AA0C
:100E60008274075AF5F005F07401800225E0D5F090
:100E7000FBF4FBEAC4540FFA24FC4022EA2A2A902D
:100E80000E8373020E8F020E93020E97020E9BEBDF
:100E900052A422EB52A522EB52A622EB529C2275C1
:100EA000A700C2EF75B28075BC2075B91E75E80049
:100EB00075DF3F75B300D2EF22AA828578F005F086
:100EC0007401800225E0D5F0FBFB75A720BA000273
:100ED000800ABA0102800FBA021E8014EBF4FA52A3
:100EE000F1EB42D48012EBF4FA52F2EB42D58008D7
:100EF000EBF4FA52F3EB42CC75A700228582BBC219
:100F0000EDD2EC30EDFD85BD8285BE832290003AA6
:100F1000E4F0A3F0A3F0A3F0C2A57A00C3EA6480D2
:100F200094984003020FACD2A590003EE4F09000EC
:100F30003EE0FBC364809484500990003EE02401AD
:100F4000F080EB90003AE0FBA3E0FCA3E0FDA3E01F
:100F5000FEEB2BFBEC33FCED33FDEE33FE90003A61
:100F6000EBF0A3ECF0A3EDF0A3EEF030A61E9000A2
:100F70003AE0FBA3E0FCA3E0FDA3E0FE90003A749E
:100F8000014BF0A3ECF0A3EDF0A3EEF0C2A59000AE
:100F90003EE4F090003EE0FBC364809484500990EE
:100FA000003EE02401F080EB0A020F1CD2A5900065
:100FB0003EE4F090003EE0FAC364809484500990CF
:100FC000003EE02401F080EBC2A590003EE4F090EA
:100FD000003EE0FAC364809484500990003EE0240F
:100FE00001F080EB90003AE0FAA3E0FBA3E0FCA361
:100FF000E0FD757840757942757A0F757B008A82BD
:101000008B838CF0ED122FE3AA82AB83ACF0FD75DD
:10101000780AE4F579F57AF57B8A828B838CF0ED9A
:10102000022D8EC020C0E0C0F0C082C083C002C0CC
:1010300003C004C005C006C007C000C001C0D07511
:10104000D00075A710C2C775D2C475D3FF900075C4
:10105000E02401F0A3E03400F0900075E0FAA3E092
:10106000FBBAE828BB0325900075E4F0A3F09000DC
:101070008FE0FA6017122B07AA82AB83900000EA78
:10108000F0A3EBF0EB3395E0A3F0A3F0900077E052
:101090002401F0A3E03400F0900077E0FAA3E0FB35
:1010A000BA2021BB4E1E900077E4F0A3F090008F91
:1010B000E0FA6010120F0DE5828583F0900090F049
:1010C000A3E5F0F0900063E02401F0A3E03400F029
:1010D000900063E0FAA3E0FBBA640ABB000790004B
:1010E00063E4F0A3F0900068E0FA900063E0FBA3F3
:1010F000E0FC7D00C3EB9AEC9D5013900069E0FA90
:101100006006D2A1C2A2800AC2A1D2A28004C2A15A
:10111000C2A2900067E0FA7D00C3EB9AEC9D5013E9
:1011200090006AE0FA6006D2A4C2A3800AC2A4D2E8
:10113000A38004C2A4C2A3900065E02401F0A3E050
:101140003400F0900065E0FAA3E0FBBAD00EBB07D4
:101150000B900065E4F0A3F0D296D29790006CE07B
:10116000FA900065E0FBA3E0FC7D00EAB50306ED24
:10117000B50402C29690006BE0FA7D00B50306ED5F
:10118000B50402C297D0D0D001D000D007D006D08D
:1011900005D004D003D002D083D082D0F0D0E0D0EC
:1011A000203290006C7401F090006B74FAF09000A3
:1011B000C81203C490006C74FAF0D2959000C81263
:1011C00003C47A007B00C3EA9459EB648094805096
:1011D0001E900005C002C0031203C4D003D00290C9
:1011E000006BE01490006BF00ABA00DA0B80D79025
:1011F00000C81203C47A007B00C3EA949FEB6480AA
:101200009480501E900005C002C0031203C4D00396
:10121000D00290006CE01490006CF00ABA00DA0B77
:1012200080D79000C81203C47A007B00C3EA9441BF
:10123000EB64809480501E900005C002C00312032E
:10124000C4D003D00290006BE01490006BF00ABA97
:1012500000DA0B80D79001F41203C4C2959000C845
:101260001203C490006C7401F090006B7401F022C2
:10127000AA82AB83C374E09A74AE8BF063F080955E
:10128000F0401074E0957974AE857AF063F0809543
:10129000F050049000012290000022758224120E6A
:1012A00020758223120E20758222120E2075822153
:1012B000120E20758217120E20758216120E2075DE
:1012C0008215120E20758210120E20758230120EB9
:1012D0005F758225120E20758226120E5F757803C7
:1012E000758201120EB9757804758201120EB91259
:1012F0000E9F5389F0438901C28CC296C297C29552
:10130000C2A522AA82AB839000697401F090006AA2
:101310007401F09000677432F09000687432F08AC3
:10132000828B831203C4900069E4F090006AF0900D
:101330000067F0900068F022AA82AB839000697485
:1013400001F090006AE4F09000677450F0C002C0B1
:101350000390007BE0C0E0A3E0C0E0A3E0C0E0A316
:10136000E0C0E090000075F0A07442122F14AC822F
:10137000AD83AEF0FFE58124FCF5818C828D838EF8
:10138000F0EF1235F2E582D003D002900068F08AC7
:10139000828B831203C4900069E4F090006AF0909D
:1013A0000067F0900068F022900069E4F090006A15
:1013B000F0900067743CF090007BE0C0E0A3E0C0D8
:1013C000E0A3E0C0E0A3E0C0E090000075F070741E
:1013D00042122F14AA82AB83ACF0FDE58124FCF508
:1013E000818A828B838CF0ED1235F2E58290006861
:1013F000F022900079E0F578A3E0F579906255123B
:101400002FC6E5828583F09000792419F074363573
:10141000F0A3F0900079E0FAA3E08A82F58322122B
:1014200013F27578A6E4F579123152E5828583F0DE
:101430002455F582E435F0F58322900043E4F0A3CF
:10144000F0A3F0A3F0900047F0A3E4F0A3F0A3F022
:101450007A00BA0A0040030215247533417534003E
:1014600075350090003F75F000C002120ABF900071
:101470003FE0FBA3E0FC8B828C8312349E85823A92
:1014800085833B85F03CF53D900043E0FFA3E0F809
:10149000A3E0F9A3E0FBC03AC03BC03CC03D8F8253
:1014A000888389F0EB1230C3AB82AC83ADF0FEE5EC
:1014B0008124FCF581900043EBF0A3ECF0A3EDF068
:1014C000A3EEF0900041E0FBA3E0FC8B828C831242
:1014D000349E85823A85833B85F03CF53D900047FC
:1014E000E0FFA3E0F8A3E0F9A3E0FBC03AC03BC0F3
:1014F0003CC03D8F82888389F0EB1230C3AB82AC55
:1015000083ADF0FEE58124FCF581900047EBF0A36C
:10151000ECF0A3EDF0A3EEF075820112039AD00275
:101520000A021452900047E0FAA3E0FBA3E0FCA3F8
:10153000E0FD900043E0F570A3E0F571A3E0F572E3
:10154000A3E0F5738A828B838CF0ED12319FAA821F
:10155000AB83ACF0FDC002C003C004C00590000026
:1015600075F0347443122F14AA82AB83ACF0FDE5FE
:101570008124FCF58174DBC0E0740FC0E07449C0C5
:10158000E07440C0E08A828B838CF0ED1234ABAA09
:1015900082AB83ACF0FDE58124FCF58190004BEA41
:1015A000F0A3EBF0A3ECF0A3EDF0C002C003C00485
:1015B000C005E4C0E0C0E0C0E0C0E08A828B838C5C
:1015C000F0ED122EBBAE82E58124FCF581D005D072
:1015D00004D003D002EE6032E4C0E0C0E074B4C0D6
:1015E000E07443C0E08A828B838CF0ED1230C3AA92
:1015F00082AB83ACF0FDE58124FCF58190004BEAE1
:10160000F0A3EBF0A3ECF0A3EDF090004BE0FAA315
:10161000E0FBA3E0FCA3E0FDC002C003C004C005E2
:10162000E4C0E0C0E074B4C0E07443C0E08A828BE0
:10163000838CF0ED122E57AE82E58124FCF581D02B
:1016400005D004D003D002EE6032E4C0E0C0E07404
:10165000B4C0E07443C0E08A828B838CF0ED123416
:1016600093AA82AB83ACF0FDE58124FCF581900068
:101670004BEAF0A3EBF0A3ECF0A3EDF090004BE00D
:10168000FAA3E0FBA3E0FCA3E08A828B838CF02228
:101690009000517401F0E4A3F012143AAA82AB83D3
:1016A000ACF0FD90007FEAF0A3EBF0A3ECF0A3ED2B
:1016B000F0E4F53EF53FC3E53E9414E53F648094C5
:1016C00080400122900051E0FCA3E0FD4C7001221B
:1016D000C004C005120D2FD005D004400302181F0E
:1016E000C004C005120C7DAE82D005D004BE21021C
:1016F00080030217A775391390007C75F040120C17
:10170000CB90007C75F0401235CAAF82AA83BF0B24
:1017100005BA0002800302181F747CC0E07400C088
:10172000E07440C0E07462C0E07401C0E07480C046
:10173000E0123131E58124FAF581744FC0E0740084
:10174000C0E0E4C0E07453C0E07400C0E0E4C0E076
:101750007453C0E07400C0E0E4C0E07453C0E074AF
:1017600000C0E0E4C0E07481C0E07401C0E07480B7
:10177000C0E0747CC0E07400C0E07440C0E0122E91
:1017800029E58124EEF58190004FE0FFA3E0FA4FB8
:10179000600C9000517401F0E4A3F002181F900057
:1017A00051E4F0A3F08078BE407590007FE0FAA38A
:1017B000E0FBA3E0FEA3E08A828B838EF0C004C02E
:1017C00005122E87AA82AB83D005D004C002C003C5
:1017D000E4C0E0C0E0900000E0C0E0A3E0C0E0A30F
:1017E000E0C0E0A3E0C0E0C03EC03FC004C005745C
:1017F00095C0E07401C0E07480C0E0747CC0E07407
:1018000000C0E07440C0E012344DE58124EEF58163
:101810009000051203C490007C75F040120C521227
:1018200013A8758209120EFCE5828583F0900004EE
:10183000F0A3E5F0F075820A120EFCAA82AB839049
:101840000006EAF0A3EBF0900004E0FCA3E0FD8AC0
:10185000798B7A8C828D83121270AA82AB83C0023C
:10186000C003C002C003900006E0C0E0A3E0C0E0F7
:10187000900004E0C0E0A3E0C0E0900000E0C0E021
:10188000A3E0C0E0A3E0C0E0A3E0C0E074AEC0E02D
:101890007401C0E07480C0E0123131E58124F3F5B9
:1018A00081D003D002900000E0FCA3E0FDA3E0FEA5
:1018B000A3E0FFC3EC94DCED9414EE9400EF64809D
:1018C0009480403B90008FE4F090012CC002C00354
:1018D0001213039000641203C41211A2D003D002A9
:1018E000053EE4B53E02053F900064C002C003120D
:1018F00003C490008F7401F01213A8D003D002BA71
:101900000105BB000280030216B69001F412130316
:101910009000641203C412141F8582788583799025
:101920000258122FC6AA82AB8375785AE4F5798AD9
:10193000828B83122EEB12133812143AAA82AB83D5
:10194000ACF0FDC002C003C004C00590999A75F0C8
:1019500099743F122F14AA82AB83ACF0FDE5812469
:10196000FCF58190007FEAF0A3EBF0A3ECF0A3ED8F
:10197000F00216B6122D04FAA3122D04FBAC40ADF2
:1019800041AE428C828D838EF0122D04FCA3122D69
:1019900004FD90006DE0FEA3E0FFEAC39EF582EB3C
:1019A0009FF583C002C003C004C005122FB7858213
:1019B00078858379900064122FC6AE82AF83900041
:1019C0006DE0F578A3E0F5798E828F831233C6E55A
:1019D000828583F0D005D004900055F0A3E5F0F0A7
:1019E00090006FE0FEA3E0FFECC39EF582ED9FF553
:1019F00083C004C005122FB7858278858379900053
:101A000064122FC6AE82AF8390006FE0F543A3E06F
:101A1000F5448543788544798E828F831233C6AE30
:101A200082AF83D005D004D003D002900057EEF0EF
:101A3000A3EFF090006DE0F8A3E0F9900059EAC33D
:101A400098F0EB99A3F0ECC39543FAED9544FB9025
:101A5000005BEAF0A3EBF0900067E4F0900068F020
:101A6000C374059EE464808FF063F08095F04003BA
:101A7000021B73900055E0F8A3E0F9C3E89405E970
:101A8000648094804003021B73C004C0059000670B
:101A9000EEF08E828F83C002C003C006C0071234EE
:101AA0009EA882A983ACF0FD90007BE0C0E0A3E09B
:101AB000C0E0A3E0C0E0A3E0C0E0888289838CF0AE
:101AC000ED122F14AC82AD83A8F0F9E58124FCF56A
:101AD00081D007D0068C828D8388F0E9C004C005D0
:101AE000C006C0071235F2858243D007D006D00564
:101AF000D004D003D002900068E543F0C3E49AE438
:101B000064808BF063F08095F0D005D004500B908A
:101B10000069E4F090006AF080599000697401F067
:101B200090006A7401F0854382C004C005C006C0FD
:101B300007123066AA82AB83A8F0F9C002C003C0C6
:101B400000C00190666675F086743F122F14AA8259
:101B5000AB83A8F0F9E58124FCF5818A828B838828
:101B6000F0E91235F2E582D007D006D005D0049016
:101B70000068F0900055E0FAA3E0FBC374059AE416
:101B800064808BF063F08095F0E433F543700302DA
:101B90001E8FC3EE9405EF648094804003021E8F75
:101BA000900083E0FEA3E0FFA3E0F9A3E0F8C00209
:101BB000C003C004C005900087E0C0E0A3E0C0E01F
:101BC000A3E0C0E0A3E0C0E08E828F8389F0E8123A
:101BD0003493AE82AF83A8F0F9E58124FCF5818EC1
:101BE000828F8388F0E9122D0185824585834685A1
:101BF000F047F548D005D004D003D00290008BE523
:101C000045F0A3E546F0A3E547F0A3E548F09000D2
:101C100067EAF08A828B83C002C003C004C0051249
:101C2000349EAE82AF83A8F0F990007BE0C0E0A3C1
:101C3000E0C0E0A3E0C0E0A3E0C0E08E828F838834
:101C4000F0E9122F14AE82AF83A8F0F9E58124FCED
:101C5000F5818E828F8388F0E91235F2E582D00516
:101C6000D004D003D002900068F0900059E0FEA3A9
:101C7000E0FFC3E49EE464808FF063F08095F05051
:101C80007C9000697401F090006AE4F0C002C00327
:101C9000C004C005C045C046C047C04890999A7569
:101CA000F0B9743F122F1485824985834A85F04B21
:101CB000F54CE58124FCF58190007FE0FEA3E0FF78
:101CC000A3E0F8A3E0F9C049C04AC04BC04C8E82E3
:101CD0008F8388F0E91230C3AE82AF83A8F0F9E5B4
:101CE0008124FCF581D005D004D003D00290007F80
:101CF000EEF0A3EFF0A3E8F0A3E9F0807A9000699A
:101D0000E4F090006A7401F0C002C003C004C00592
:101D1000C045C046C047C04890333375F0B3743FE8
:101D2000122F1485824985834A85F04BF54CE58155
:101D300024FCF58190007FE0FEA3E0FFA3E0F8A380
:101D4000E0F9C049C04AC04BC04C8E828F8388F0F6
:101D5000E9123493AE82AF83A8F0F9E58124FCF553
:101D600081D005D004D003D00290007FEEF0A3EF25
:101D7000F0A3E8F0A3E9F090007FE0F549A3E0F5D7
:101D80004AA3E0F54BA3E0F54CC002C003C004C079
:101D900005E4C0E0C0E074B4C0E07443C0E085492D
:101DA00082854A83854BF0E54C122E57AE82E58141
:101DB00024FCF581D005D004D003D002EE6046C0EB
:101DC00002C003C004C005E4C0E0C0E074B4C0E0D9
:101DD0007443C0E0854982854A83854BF0E54C1207
:101DE0003493AE82AF83A9F0F8E58124FCF581D06D
:101DF00005D004D003D00290007FEEF0A3EFF0A353
:101E0000E9F0A3E8F090007FE0F549A3E0F54AA3EC
:101E1000E0F54BA3E0F54CC002C003C004C005E4EC
:101E2000C0E0C0E0C0E0C0E0854982854A83854BC0
:101E3000F0E54C122EBBAE82E58124FCF581D00585
:101E4000D004D003D002EE6046C002C003C004C07C
:101E500005E4C0E0C0E074B4C0E07443C0E085496C
:101E600082854A83854BF0E54C1230C3AE82AF8346
:101E7000A8F0F9E58124FCF581D005D004D003D089
:101E80000290007FEEF0A3EFF0A3E8F0A3E9F0E505
:101E9000437003022846900057E0F543A3E0F54461
:101EA000C374059543E464808544F063F08095F045
:101EB0004003022846C004C005900083E0F8A3E078
:101EC000F9A3E0FCA3E0FDC002C003900087E0C0DE
:101ED000E0A3E0C0E0A3E0C0E0A3E0C0E088828926
:101EE000838CF0ED123493AC82AD83A8F0F9E581D8
:101EF00024FCF5818C828D8388F0E9C004C0051232
:101F00002D0185824985834A85F04BF54CD005D05B
:101F100004D003D00290008BE549F0A3E54AF0A37A
:101F2000E54BF0A3E54CF090005BE0F545A3E0F550
:101F300046C3E49545E464808546F063F08095F0FF
:101F4000D005D004400302241C900069E4F0900006
:101F50006AF0900059E0F8A3E0F9C3E498E46480E3
:101F600089F063F08095F040030221FF8C788D7931
:101F7000900064C002C003C004C005122FC6A8822E
:101F8000A98390006FE0F578A3E0F579900064C034
:101F900000C001122FC6AE82AF83757802E4F579D6
:101FA0008E828F831233C6AE82AF83D001D000D031
:101FB00005D004D003D002C3EE98EF648089F063AB
:101FC000F08095F050030220AAC004C0059000677D
:101FD000E543F090007BE0F54DA3E0F54EA3E0F57E
:101FE0004FA3E0F550854382854483C002C00312AD
:101FF000349EAC82AD83A8F0F9C004C005C000C017
:1020000001854D82854E83854FF0E550122F14AC2B
:1020100082AD83A8F0F9E58124FCF581C004C005F8
:10202000C004C005C000C00190000075F0C8744233
:10203000122F1485824D85834E85F04FF550E58132
:1020400024FCF581D005D004D003D002E5432AF565
:1020500082E5443BF583C002C00312349EAC82ADDE
:1020600083A8F0F9C004C005C000C001854D828579
:102070004E83854FF0E5501234ABAC82AD83A8F0AF
:10208000F9E58124FCF5818C828D8388F0E9C00418
:10209000C0051235F2E582D005D004D003D00290FD
:1020A0000068F0D005D004022185C004C00590006E
:1020B00067EAF090007BE0F54DA3E0F54EA3E0F574
:1020C0004FA3E0F5508A828B83C002C00312349E76
:1020D000AC82AD83A8F0F9C004C005C000C0018582
:1020E0004D82854E83854FF0E550122F14AC82ADA2
:1020F00083A8F0F9E58124FCF581C004C005C00483
:10210000C005C000C00190000075F0C87442122FD5
:102110001485824D85834E85F04FF550E58124FC72
:10212000F581D005D004D003D002E5432AF582E53D
:10213000443BF583C002C00312349EAC82AD83A839
:10214000F0F9C004C005C000C001854D82854E83F2
:10215000854FF0E5501234ABAC82AD83A8F0F9E5C1
:102160008124FCF5818C828D8388F0E9C004C00550
:102170001235F2E582D005D004D003D00290006879
:10218000F0D005D004C004C005C002C003C004C024
:1021900005C049C04AC04BC04C90000075F0C074E7
:1021A0003F122F1485824D85834E85F04FF550E503
:1021B0008124FCF581D005D00490007FE0FCA3E0F1
:1021C000FDA3E0F8A3E0F9C04DC04EC04FC0508C55
:1021D000828D8388F0E91230C3AC82AD83A8F0F918
:1021E000E58124FCF581D003D00290007FECF0A3C0
:1021F000EDF0A3E8F0A3E9F0D005D00402241C8C94
:10220000788D79900064C002C003C004C005122F0D
:10221000C6A882A98390006FE0F578A3E0F57990D5
:102220000064C000C001122FC6AE82AF8375780271
:10223000E4F5798E828F831233C6AE82AF83D001EC
:10224000D000D005D004D003D002C3EE98EF648054
:1022500089F063F08095F05003022300C004C005AC
:10226000854378854479900064C002C003C004C0EF
:1022700005122FC6A882A983D005D004D003D002AE
:10228000E5432AF578E5443BF57988828983C002E5
:10229000C003C004C0051233C6A882D005D0049084
:1022A0000067E8F085438285448312349EA882A9A2
:1022B00083ACF0FD90007BE0C0E0A3E0C0E0A3E0D1
:1022C000C0E0A3E0C0E0888289838CF0ED122F1477
:1022D000AC82AD83A8F0F9E58124FCF5818C828D78
:1022E0008388F0E9C004C0051235F2E582D005D03C
:1022F00004D003D002900068F0D005D0040223A5DA
:10230000C004C0058A788B79900064C002C003C005
:1023100004C005122FC6A882A983D005D004D0031B
:10232000D002E5432AF578E5443BF5798882898334
:10233000C002C003C004C0051233C6A882D005D0B5
:1023400004D003D002900067E8F08A828B83C00239
:10235000C00312349EA882A983ACF0FD90007BE0FC
:10236000C0E0A3E0C0E0A3E0C0E0A3E0C0E088825A
:1023700089838CF0ED122F14AC82AD83A8F0F9E5BF
:102380008124FCF5818C828D8388F0E9C004C0052E
:102390001235F2E582D005D004D003D00290006857
:1023A000F0D005D004C004C005C002C003C004C002
:1023B00005C049C04AC04BC04C90000075F0C074C5
:1023C0003F122F1485824D85834E85F04FF550E5E1
:1023D0008124FCF581D005D00490007FE0FCA3E0CF
:1023E000FDA3E0F8A3E0F9C04DC04EC04FC0508C33
:1023F000828D8388F0E9123493AC82AD83A8F0F922
:10240000E58124FCF581D003D00290007FECF0A39D
:10241000EDF0A3E8F0A3E9F0D005D004E54620E70D
:10242000030228469000697401F090006A7401F07C
:10243000900059E0F8A3E0F9C3E498E4648089F0DF
:1024400063F08095F0400302267D8C788D799000B2
:1024500064C002C003122FC6A882A98390006FE057
:10246000F578A3E0F579900064C000C001122FC692
:10247000AE82AF83757802E4F5798E828F83123352
:10248000C6AE82AF83D001D000D003D002C3EE9895
:10249000EF648089F063F08095F05003022560902E
:1024A0000067E543F090007BE0F54DA3E0F54EA317
:1024B000E0F54FA3E0F550854382854483C002C018
:1024C0000312349EAE82AF83A8F0F9C006C007C0E5
:1024D00000C001854D82854E83854FF0E550122F57
:1024E00014AE82AF83A8F0F9E58124FCF581C00623
:1024F000C007C000C00190000075F0C87442122FE0
:102500001485824D85834E85F04FF550E58124FC7E
:10251000F581D003D002E5432AF582E5443BF583FB
:1025200012349EAE82AF83A8F0F9C006C007C00087
:10253000C001854D82854E83854FF0E5501234AB46
:10254000AE82AF83A8F0F9E58124FCF5818E828FFD
:102550008388F0E91235F2E582900068F002261BCC
:10256000900067EAF090007BE0F54DA3E0F54EA304
:10257000E0F54FA3E0F5508A828B83C002C00312BE
:10258000349EAE82AF83A8F0F9C006C007C000C079
:1025900001854D82854E83854FF0E550122F14AE94
:1025A00082AF83A8F0F9E58124FCF581C006C0075D
:1025B000C000C00190000075F0C87442122F14854D
:1025C000824D85834E85F04FF550E58124FCF581E1
:1025D000D003D002E5432AF582E5443BF58312346B
:1025E0009EAE82AF83A8F0F9C006C007C000C0014C
:1025F000854D82854E83854FF0E5501234ABAE8217
:10260000AF83A8F0F9E58124FCF5818E828F838861
:10261000F0E91235F2E582900068F0C049C04AC086
:102620004BC04C90333375F0B3743F122F14858236
:102630004D85834E85F04FF550E58124FCF5819062
:10264000007FE0FEA3E0FFA3E0F8A3E0F9C04DC0E7
:102650004EC04FC0508E828F8388F0E9123493AE03
:1026600082AF83A8F0F9E58124FCF58190007FEE2C
:10267000F0A3EFF0A3E8F0A3E9F00228468C788DF0
:1026800079900064C002C003122FC6AC82AD839063
:10269000006FE0F578A3E0F579900064C004C00510
:1026A000122FC6AE82AF83757802E4F5798E828FE1
:1026B000831233C6AE82AF83D005D004D003D002DC
:1026C000C3EE9CEF64808DF063F08095F0500302C0
:1026D000275A854378854479900064C002C003126C
:1026E0002FC6AC82AD83D003D002E5432AF578E54E
:1026F000443BF5798C828D831233C6AC829000679F
:10270000ECF090007BE0F54DA3E0F54EA3E0F54F33
:10271000A3E0F55085438285448312349EA882A9A4
:1027200083ACF0FDC000C001C004C005854D8285AA
:102730004E83854FF0E550122F14AC82AD83AEF07E
:10274000FFE58124FCF5818C828D838EF0EF1235BC
:10275000F2E582900068F00227EB8A788B7990008E
:1027600064C002C003122FC6AC82AD83D003D00276
:10277000E5432AF578E5443BF5798C828D83C002E8
:10278000C0031233C6AC82D003D002900067ECF0D5
:1027900090007BE0FCA3E0FDA3E0FEA3E0FF8A82C3
:1027A0008B83C004C005C006C00712349EAA82AB4A
:1027B00083A8F0F9D007D006D005D004C002C0032A
:1027C000C000C0018C828D838EF0EF122F14AA827C
:1027D000AB83ACF0FDE58124FCF5818A828B838C90
:1027E000F0ED1235F2E582900068F0C049C04AC0B1
:1027F0004BC04C90333375F0B3743F122F14AA8240
:10280000AB83ACF0FDE58124FCF58190007FE0FE18
:10281000A3E0FFA3E0F8A3E0F9C002C003C004C036
:10282000058E828F8388F0E91230C3AA82AB83AC15
:10283000F0FDE58124FCF58190007FEAF0A3EBF048
:10284000A3ECF0A3EDF0900083E0FAA3E0FBA3E09B
:10285000FCA3E0FD900087EAF0A3EBF0A3ECF0A36B
:10286000EDF090007FE0FAA3E0FBA3E0FCA3E08A98
:10287000828B838CF02290005DE4F0A3F090005FE7
:10288000E4F0A3F0900061E4F0A3F075513012126F
:102890009B1205519001F41203C474D9C0E0740175
:1028A000C0E07480C0E0123131158115811581902E
:1028B0002580E4F5F0120BE1120E039001F975F09A
:1028C00080120D8F90020275F080120D8F90020C15
:1028D00075F080120D8F90021675F080120D8F909A
:1028E000022075F080120D8F90022C75F080120D71
:1028F0008F90023675F080120D8F90024075F08037
:10290000120D8FC2A1C2A2C2A4C2A312143AAA82FB
:10291000AB83ACF0FD90007FEAF0A3EBF0A3ECF00A
:10292000A3EDF012143AAA82AB83ACF0FD9000182C
:10293000EAF0A3EBF0A3ECF0A3EDF07431B5510C89
:102940001211A29003E81203C4755130900061E0A7
:10295000FAA3E0FB4A600A121690900061E4F0A32B
:10296000F0120D2F50BD120C7DAA82BA21028003F5
:10297000022A7175391390007C75F040120CCB90CF
:10298000007C75F0401235CAAB82AC83BB0B05BC32
:1029900000028003022A4D7461C0E07400C0E0E4CC
:1029A000C0E07451C0E07400C0E07440C0E0745FE7
:1029B000C0E07400C0E0E4C0E0745DC0E07400C03A
:1029C000E0E4C0E0744EC0E07402C0E07480C0E097
:1029D000747CC0E07400C0E07440C0E0122E29E5B1
:1029E0008124EEF581E551FB3395E0FC900061E038
:1029F000C0E0A3E0C0E0C003C00490005FE0C0E01E
:102A0000A3E0C0E090005DE0C0E0A3E0C0E074603F
:102A1000C0E07402C0E07480C0E0123131E581246E
:102A2000F5F58175405F75410075420090005D7558
:102A3000F000121974AB82AC83ADF0FE90007FEB16
:102A4000F0A3ECF0A3EDF0A3EEF0022923747CC018
:102A5000E07400C0E07440C0E0749DC0E07402C047
:102A6000E07480C0E0123131E58124FAF581022959
:102A700023BA4002800302292390007FE0FAA3E0FA
:102A8000FBA3E0FCA3E08A828B838CF0122E87AA42
:102A900082AB83C002C003900090E0C0E0A3E0C01E
:102AA000E0900000E0C0E0A3E0C0E0A3E0C0E0A34D
:102AB000E0C0E074B7C0E07402C0E07480C0E074AD
:102AC0007CC0E07400C0E07440C0E012344DE58189
:102AD00024F2F581747CC0E07400C0E07440C0E072
:102AE00074CDC0E07402C0E07480C0E0123131E502
:102AF0008124FAF5819000051203C490007C75F0E2
:102B000040120C52022923E4F510F511F512F513C9
:102B1000F514F515F516C3E5159405E516648094CE
:102B2000804003022CB2758A00758C00C28D20B0E3
:102B3000FD30B0FDD28CA91430B008108D0280F8A1
:102B40000980F520B008108D0280F80980F5C28C4C
:102B50008982123066A982AA83ABF0FCC001C00250
:102B6000C003C00490000075F0807447122F1485D4
:102B7000821785831885F019F51AE58124FCF58103
:102B8000858C82123066A982AF83A8F0FAC001C09A
:102B900007C000C00290000075F0807443122F142B
:102BA000AA82AB83ACF0FDE58124FCF581C002C0B4
:102BB00003C004C0058517828518838519F0E51ABE
:102BC0001230C385821785831885F019F51AE581BF
:102BD00024FCF581AF8A78008F82888312349EAFFF
:102BE00082A883A9F0FAC007C000C001C0028517FF
:102BF000828518838519F0E51A1230C3AA82AB8347
:102C0000ACF0FDE58124FCF581C002C003C004C026
:102C10000590F4FC75F0327434122F14AA82AB8341
:102C2000ACF0FDE58124FCF581751400C002C00301
:102C3000C004C00590000075F0207441122F14AA42
:102C400082AB83ACF0FDE58124FCF581C002C003BA
:102C5000C004C00590000075F080743F1234ABAA28
:102C600082AB83ACF0FDE58124FCF5818510828583
:102C700011838512F0E513C002C003C004C0051221
:102C800036551230C3AA82AB83ACF0FDE58124FC3B
:102C9000F5818A828B838CF0ED1235FA858210855E
:102CA000831185F012F5130515E4B515020516021A
:102CB0002B168510828511838512F0E51312365587
:102CC000AA82AB83ACF0FDE4C0E0C0E074A0C0E039
:102CD0007440C0E08A828B838CF0ED1234ABAA8200
:102CE000AB83ACF0FDE58124FCF5818A828B838C7B
:102CF000F0ED1235FA85821085831185F012F513F7
:102D000022C2E72220F71430F6148883A88220F527
:102D100007E6A88375830022E280F7E49322E0228D
:102D2000AAF0FBE5828578F0A4FCADF0E583857818
:102D3000F0A42DFDE435F0FEE5828579F0A42DFDAB
:102D4000E5F03EFEE433FFEA8578F0A42EFEE5F0E0
:102D50003FFFE5838579F0A42EFEE5F03FFFE58295
:102D6000857AF0A42EFEE5F03FFFEB8578F0A42FE6
:102D7000FFEA8579F0A42FFFE583857AF0A42FFF81
:102D8000E582857BF0A42F8EF08D838C8222FB7AE6
:102D900020E4FCFDFEFFE5822582F582E58333F524
:102DA00083E5F033F5F0EB33FB4017DAE98042E5D9
:102DB000822582F582E58333F583E5F033F5F0EB88
:102DC00033FBEC33FCED33FDEE33FEEF33FFEC95DC
:102DD00078ED9579EE957AEF957B4013EC9578FC3C
:102DE000ED9579FDEE957AFEEF957BFF438201DA52
:102DF000BEEB22AA08AB09AC0A8A828B838CF01244
:102E00002D04FA0508E4B5080205098A82228582A4
:102E10000885830985F00A850B69850C6A850D6B29
:102E2000850E6C902DF3023892C00F85810FE50F4F
:102E300024F8F56CE50F24FBF88608088609088657
:102E40000AE50F24F8F8866908866A08866B902DD3
:102E5000F3123892D00F22FFA8811818123C58D2D2
:102E6000D133E6400730E70B7582012220E7067573
:102E7000820022C2D1123C3AE97003F5822230D19D
:102E800001B3E433F582221235FA700AE5824583F4
:102E900045F0700122E430D112F4700BE5F0F470CB
:102EA00006E58330E7012290800022700AE5F07089
:102EB00006E58320E70122907FFF22FFA8811818F2
:102EC000123C58D2D133E6400730E70B758200221E
:102ED00020E70675820122C2D1123C3AE97003F55F
:102EE000822220D101B3E433F582227A10E4FBFC84
:102EF000E58225E0F582E58333F583EB33FBEC33A4
:102F0000FCEB9578F5F0EC95794006FCABF043824C
:102F100001DADD22123D05BC0003023CA4EF60FA99
:102F200030D502B2D1E583B4FF03023CBAE582B4E6
:102F3000FF03023CBA258340072482400B023CA4D5
:102F40002483145003023CBAF582EA8DF0A4A8F061
:102F5000EA8EF0A428F8E435F0F9EB8DF0A428E926
:102F600035F0F9E433CA8FF0A429F9EA35F0FAEB29
:102F7000F88EF0A429F9EA35F0FAE433FBEC8DF091
:102F8000A429F9EA35F0FAE43BFBE88FF0A42AFA29
:102F9000EB35F0FBE433CCFD8EF0A42AFAEB35F0F0
:102FA000FBE43CFCED8FF0A42BFBEC35F0FC20E7C0
:102FB00003123CD2023C83E58330E709F4F583E554
:102FC00082F4F582A322E5828578F0A4C582C0F060
:102FD0008579F0A4D0F025F0C5838578F0A4258309
:102FE000F58322F9E5784579457A457B6077780065
:102FF000C308E57B20E73BE57825E0F578E5793304
:10300000F579E57A33F57AE57B33F57BE5829578DA
:10301000E5839579E5F0957AE9957B50D4C3E57B16
:1030200013F57BE57A13F57AE57913F579E57813ED
:10303000F578E5829578FCE5839579FDE5F0957A5C
:10304000FEE9957B4007F98EF08D838C82C3E57B8A
:1030500013F57BE57A13F57AE57913F579E57813BD
:10306000F578D8CEE922E4AC82FBFAF97486023D09
:103070003CFBC2D530E715D2D5E4C39582F582E496
:103080009583F583E495F0F5F0E49BFBE57B30E771
:1030900017B2D5E4C39578F578E49579F579E49598
:1030A0007AF57AE4957BF57BEB122D8E30D513FB08
:1030B000E4C39582F582E49583F583E495F0F5F019
:1030C000E49B22123D057900E583B58202800D5014
:1030D00003123D46E583C39582123D60E5D0C46589
:1030E000D020E117EA2DFAEB3EFBEC3FFC500974CF
:1030F00001123D60EC4480FC023C83C3EA9DFAEB84
:103100009EFBEC9FFC500FC3E499F9E49AFAE49B10
:10311000FBE49CFCB2D1123CD2023C830243C38547
:10312000826785836885F069851D6A90311C023E3F
:103130002CC00F85810FE50F24FBF56AE50F24FBFA
:10314000F8866708866808866990311C123E2CD084
:103150000F22E578457960467A01E57825E0F57833
:10316000E579334012F579E5829578E583957940E4
:10317000030A80E6C3E57913F579E57813F578C39A
:10318000E5829578F5F0E58395794005F58385F03E
:1031900082C3E57913F579E57813F578DAE12285CC
:1031A000827485837585F076F577E5744575457687
:1031B0008577F0C2F745F0701CE570457145728562
:1031C00073F0C2F745F0700D751B21E4F51C9000FB
:1031D00000E4F5F0228570828571838572F0E573D5
:1031E000122D01AE82AF83A8F0F9857482857583B4
:1031F0008576F0E577C006C007C000C001122D013A
:10320000AA82AB83ACF0FDD001D000D007D006C0BD
:1032100002C003C004C0058E828F8388F0E9122E9D
:10322000BBAA82E58124FCF581EA6003023304C075
:1032300070C071C072C0738574828575838576F0A5
:10324000E5771234ABAA82AB83ACF0FDE58124FCB8
:10325000F5818A828B838CF0ED1243D8AA82AB83EE
:10326000ACF0FDC002C003C004C005E4C0E0C0E093
:10327000C0E0C0E08570828571838572F0E57312CD
:103280002EBBAE82E58124FCF581D005D004D003AD
:10329000D002EE70030233A5C002C003C004C00513
:1032A000E4C0E0C0E0C0E0C0E0857482857583853D
:1032B00076F0E577122EBBAE82E58124FCF581D055
:1032C00005D004D003D002EEB40100E433FE600A5E
:1032D0007EDB7F0F7849794080087EDB7F0F78495D
:1032E00079C0C006C007C000C0018A828B838CF001
:1032F000ED1230C3AA82AB83ACF0FDE58124FCF56E
:10330000810233A5C074C075C076C0778570828590
:1033100071838572F0E5731234ABAE82AF83A8F08F
:10332000F9E58124FCF5818E828F8388F0E91243D0
:10333000D8AE82AF83A8F0F98E028F038804E9B279
:10334000E7FDC002C003C004C005E4C0E0C0E0C0A7
:10335000E0C0E08574828575838576F0E577122E6E
:10336000BBAE82E58124FCF581D005D004D003D02A
:1033700002EE600A7EDB7F0F78C979BF80087EDBB2
:103380007F0F78C9793FC006C007C000C0018A829C
:103390008B838CF0ED1230C3AA82AB83ACF0FDE5D9
:1033A0008124FCF5818A828B838CF0ED2220F7103A
:1033B00030F6118883A88220F507F6A8837583006C
:1033C00022F280F7F022C2D5E58330E70DD2D5E4B2
:1033D000C39582F582E49583F583E57930E70DB2F4
:1033E000D5E4C39578F578E49579F579122EEB302C
:1033F000D50BE4C39582F582E49583F58322AA82F6
:10340000AB52AC53AD548B828C838DF0EA1233AD4A
:103410000552E4B5520205532285825285835385B5
:10342000F05485556785566885576985586A903385
:10343000FE123E2CAA82AB83AC52AD53AE548C82AA
:103440008D838EF0E41233AD8A828B8322C00F8588
:10345000810FE50F24F8F56AE50F24FBF886520882
:103460008653088654E50F24F8F8866708866808AE
:1034700086699033FE123E2CAA82AB83AC52AD53C8
:10348000AE548C828D838EF0E41233AD8A828B83AE
:10349000D00F22A8811818C6B2E7C60230C3AC8389
:1034A000AB827A007900748E02365E123D0530D50B
:1034B00002B2D1BF0009BC0003023CC7023CBABC47
:1034C0000003023CA4E583B4FF0BE582B4FF0302D2
:1034D0003CC7023CA4E582B4FF03023CBAC3958317
:1034E0005007247F400B023CA42480145003023C6C
:1034F000BAC0E0E4CCCBCAF98D788E798F7AEF54DC
:10350000F0C4F57B758306857BF0EB84F582E9C416
:10351000F9EAC4FAEBC4FBEC540FC47803D6FC18E8
:10352000EBD6FB18EAD6FA8582F0EDA4A8F0FD856B
:1035300082F0EEA428FEE435F0F88582F0EFA428AE
:10354000FFE435F0F8E99DF9EA9EFAEB9FFBEC9871
:10355000FCAD78AE79AF7A30E7101582E92DF9EA43
:103560003EFAEB3FFBE43CFC80EDC082D58398C380
:10357000E933F9EA33FAEB33FBEC33FCC3E99DEAB8
:103580009EEB9FEC9400B3E413F9D002D0E0C44A60
:10359000FAD003D0E0C44BFBD004D0E0F5F0540FD8
:1035A000C44CFCD082158230F40FD3EC13FCEB1327
:1035B000FBEA13FAE913F90582E930E70A74012AF4
:1035C000FAE43BFBE43CFC023C9BAA82AB83ACF0FC
:1035D0007D007E008A828B838CF0122D04FFA3AACB
:1035E00082AB83EF60070DBD00EA0E80E78D828E0F
:1035F00083227F8612475EF58222124783C3749E20
:10360000958240397900123D6030D126E9F42401D9
:10361000F582EAF43400F583EBF43400F5F0ECF4D1
:103620003400700AE582458345F0700122E430E7FA
:103630000F22EC20E71489828A838BF02230D10A92
:10364000E4F582F583F5F074802274FFF582F5834A
:10365000F5F0747F22FCABF0AA83A982749EF582F8
:10366000C2D1EC30E716D2D1E9F42401F9EAF434FE
:1036700000FAEBF43400FBECF43400FC123CD20210
:103680003C83855982855A83124795858268E5680F
:10369000600A0562E4B5620605638002D20B8568A4
:1036A00082227A007B00300B057896760022C002D9
:1036B000C003123682AC82D003D002BC0002802D3F
:1036C000BC08028014BC09028023BC0A02801EBC14
:1036D0000D028019BC20218014EA4B60D11ABAFF78
:1036E000011B156274FFB56202156380C1EA4B606D
:1036F000BDEA2496F8760022EC7009EA2496F87662
:1037000000D20B22ECB56707EA2496F8760022C3B4
:10371000EA940FEB940050968A058B060ABA0001D2
:103720000BED2496F8A6040236AEAA827B7FC3EA8C
:10373000648094B0401174B98AF063F08095F040D1
:1037400006EA24D0FB8030C3EA648094C14011743F
:10375000C68AF063F08095F0400674C92AFB801792
:10376000C3EA648094E1400F74E68AF063F08095C8
:10377000F0400474A92AFBC3EB956450038B8222AA
:1037800075827F22AA82755E00755F007560007584
:1037900061008A00E6FA60148A82C00012372AAB00
:1037A00082D000C3EB956440030880E886038B82D7
:1037B000C00012372AAA82D000C3E5649A4050851F
:1037C0006478757900757A00757B00855E82855F07
:1037D000838560F0E561C002C000122D20AB82AC91
:1037E00083ADF0FED000D0028B5E8C5F8D608E6169
:1037F000E4FBFCFDEA255EFAEB355FFBEC3560FC93
:10380000ED3561FD8A5E8B5F8C608D6108809D85E2
:103810005E82855F838560F0E56122AA82755E0025
:10382000755F007560007561008A00E6FB60228BA1
:1038300082C003C00012372AAC82D000D003C3EC90
:103840009564400DBB2D028008BB2B0280030880CD
:10385000DA88028603BB2D03D38001C3920EBB2DF1
:10386000028003BB2B010A8A82123784300E13C3F5
:10387000E4955EFAE4955FFBE49560FCE49561FDF8
:103880008008AA5EAB5FAC60AD618A828B838CF0EE
:10389000ED2285825985835AE4F562F563F566C2A7
:1038A0000BAA69AB6AAC6B8A828B838CF0122D04F5
:1038B000FD74012AF569E43BF56A8C6BEDFA70033F
:1038C000023C31BA25028003023BCAD20AC2087503
:1038D0006400756500C20CC20DAB69AC6AAD6B8B40
:1038E000828C838DF0122D04FAA3AB82AC838B699A
:1038F0008C6A8D6B8B828C838DF0122D04F5678A18
:1039000006BE300040168A06EE24C6400FE56575F7
:10391000F00AA4FEEA24D02EF56580C38A06BE61B3
:1039200000400A8A06EE248540035302DFBA2502CE
:1039300080ADBA2A028045BA42028036BA4302807C
:1039400040BA4403023A45BA4903023A45BA4C0226
:103950008025BA4E03023A58BA4F03023A4ABA5384
:10396000028020BA5503023A43BA5803023A510280
:103970003A80D2080238DFD2090238DFD20C02388E
:10398000DFD20D200C17E56C24FDF8886C86030847
:10399000860408860518188B5B8C5C8D5DE5657068
:1039A0000B300D047B0180027BFF8B65756400C3C7
:1039B000E56495655005123682AA82300B07E564EE
:1039C0007003023A80EA601ABA2002800DBA090236
:1039D0008008BA0D028003BA0A03300D05E565B50B
:1039E000641FE56460C9200C120566AB5BAC5CAD7E
:1039F0005D8B828C838DF0E41233AD756400023AE6
:103A000080BA081CE56460A7200C11AB5BAC5CAD10
:103A10005D1BBBFF011C8B5B8C5C8D5D1564808F17
:103A2000200C1BAB5BAC5CAD5D8B828C838DF0EAB4
:103A30001233AD0BBB00010C8B5B8C5C8D5D0564A0
:103A40000239AFC20A75640A8036C20A75640880FA
:103A50002FC20A7564108028E56C24FDF8886C86F6
:103A60000308860408860518188B5B8C5C8D5D8BBB
:103A7000828C838DF0E5621233ADA3E5631233AD22
:103A8000E5647003023BCA1236A27896E670030220
:103A90003BCA300C03023BCAE56C24FDF8886C86F7
:103AA0000308860408860518188B5B8C5C8D5D0501
:103AB00066200A03023B43300935855B6D855C6EE9
:103AC000855D6F75829612381BAE82AF83ABF0FCBA
:103AD000856D82856E83856FF0EE1233ADA3EF1294
:103AE00033ADA3EB1233ADA3EC1233AD023BCA30BE
:103AF0000826855B6D855C6E855D6F7582961238D4
:103B00001BAE82AF83ABF0FC856D82856E83856FC3
:103B1000F0EE1233AD023BCA855B6D855C6E855D50
:103B20006F75829612381BAE82AF83ABF0FC856D49
:103B300082856E83856FF0EE1233ADA3EF1233AD45
:103B4000023BCA300934855B6D855C6E855D6F759F
:103B50008296123784AE82AF83ABF0FC856D82858E
:103B60006E83856FF0EE1233ADA3EF1233ADA3EB8E
:103B70001233ADA3EC1233AD8050300825855B6D58
:103B8000855C6E855D6F758296123784AE82AF83D9
:103B9000ABF0FC856D82856E83856FF0EE1233ADE0
:103BA0008028855B6D855C6E855D6F7582961237AA
:103BB00084AE82AF83ABF0FC856D82856E83856FAA
:103BC000F0EE1233ADA3EF1233AD200B030238A198
:103BD000AB69AC6AAD6B8B828C838DF0122D04FEC9
:103BE000A3AB82AC838B698C6A8D6BEEFA70030297
:103BF00038A1BA25E18B828C838DF0122D04FABA9C
:103C00006E028003BA4ECFE56C24FDF8886C860204
:103C100008860608860718188A5B8E5C8F5D8A8284
:103C20008E838FF0E5621233ADA3E5631233AD806E
:103C3000A5AA667B008A828B83227901AA82E68FFD
:103C400082B5821318E6B5F00E18E6B5830918E6BA
:103C50008A82B58202790022B4800FE5F0700AE50D
:103C6000837006E58270027F00EFB6801518B600FB
:103C70001018B6000B18B6000608080876002208CF
:103C8000080822B98003EA13B34010EA2401FAE4D9
:103C90003BFBE43CFC50047C800582BC000EBB0076
:103CA0000BBA0008E4F5F0F583F58222A2D1E58293
:103CB000138CF092F78B838A8222E4F583F5827568
:103CC000F080F4A2D11322E4F583F58275F0C0747C
:103CD0007F227804EC7011E58224F8500AF582E422
:103CE000C9CACBFCD8EF22EC7820058220E713D597
:103CF000820122C3E933F9EA33FAEB33FBEC33FCFC
:103D0000D8EA158222AA82AB83A2F73392D160024D
:103D1000D2F7F582ACF0E58124F9F8E6FD08E6FE7D
:103D20000886F008E6A2F73392D56002D2F7F58351
:103D3000AFF022FCABF0AA83A982749EC2D1F582B7
:103D4000123CD2023C83E582C583F582A2D133A224
:103D5000D592D11392D5ECCFFCEBCEFBEACDFA2273
:103D60006040F82582500274FFF582E824F8501E66
:103D7000CCCBCAF9E4CC24F85014CBCAF9E4CB2458
:103D8000F8500BCAF9E4CA24F85003790022240839
:103D90006010F8C3EC13FCEB13FBEA13FAE913F918
:103DA000D8F122AA8274B4C0E0743DC0E0C059C00A
:103DB0005A8A82220560E4B56002056122AA8274F3
:103DC000302AFA24C6500A74072AFA300F03430235
:103DD000208A82023DA3E582FAC4540FF582C00214
:103DE000123DBDD002740F5AF582023DBDAA5BABF5
:103DF0005CAC5DAD5EAE5F756620EE2EFEED2354CD
:103E000001FF4206EA2AFAEB33FBEC33FCED33FD0B
:103E1000C3EE95624008EEC39562FE430201D5668B
:103E2000D98A5B8B5C8C5D8D5E8E5F228582598525
:103E3000835AE4F560F561AA67AB68AC698A828B46
:103E4000838CF0122D04FD74012AF567E43BF568BC
:103E50008C69EDFA70030243BCBA25028003024369
:103E6000B4C213C214C215C216C217C218C219C2F4
:103E70001AC210C211C2127562007563007564FF28
:103E8000AB67AC68AD698B828C838DF0122D04FA20
:103E9000A3AB82AC838B678C688D69BA25078A8255
:103EA000123DA380928A06BE3000402E8A06EE2480
:103EB000C6402774FFB56413E56375F00AA4FEEAF3
:103EC00024D02EF56370BFD21480BBE56475F00A70
:103ED000A4FEEA24D02EF56480ACBA2E0A74FFB595
:103EE00064A4756400809F8A06BE6100400E8A0645
:103EF000EE248540075302DFD20F8002C20FBA20A2
:103F0000028075BA2303023F87BA2A03023F8CBAA4
:103F10002B02805FBA2D028055BA4202805FBA43FD
:103F200003023FD1BA440302410CBA4503024126C1
:103F3000BA4603024122BA470302412ABA490302A0
:103F4000410CBA4C02803BBA4E0302412EBA4F03D9
:103F5000024113BA50030240A5BA5303023FF5BA17
:103F60005503024118BA580302411D024158D213A9
:103F7000023E86D215023E86D216023E86D2180234
:103F80003E86D219023E86D21A023E8674FFB5647E
:103F90002030180BE56A14F8886A8663023E86E5CD
:103FA0006A24FEF8886A8606088607188E63023E31
:103FB0008630180BE56A14F8886A8664023E86E546
:103FC0006A24FEF8886A8606088607188E64023E10
:103FD0008630180AE56A14F8886A8602800FE56A56
:103FE00024FEF8886A8603088604188B028A8212E7
:103FF0003DA302415DE56A24FDF8886A86030886D0
:104000000408860518188B5B8C5C8D5D8B828C8315
:104010008DF01235CAAB82AC838B6574FFB5640337
:1040200085656420131DC3E56595635016E563C37C
:104030009565F563AB631563EB6008758220123DEF
:10404000A380F1855B82855C83855DF0122D04FB86
:10405000FA6029AB641564C3E464808BF063F0807C
:1040600095F050188A82123DA3AB5BAC5CAD5D0B42
:10407000BB00010C8B5B8C5C8D5D80C72013030241
:10408000415DC3E5659563400302415DE563C3950A
:1040900065F563AB631563EB700302415D758220C8
:1040A000123DA380EEE56A24FDF8886A860308863F
:1040B0000408860518188B5B8C5C8D5DE55DFB3014
:1040C000E7047A438013EB546060047A50800AEB73
:1040D00030E6047A4980027A588A82C002123DA3EF
:1040E00075823A123DA3758230123DA37582781213
:1040F0003DA3D002BA4902800BBA50028006855C0B
:1041000082123DD6855B82123DD68051D2177562F0
:104110000A804A756208804575620A80407562109F
:10412000803BD2108037D2118033D212802FE56AC3
:1041300024FDF8886A860308860408860518188B0B
:104140005B8C5C8D5D8B828C838DF0E5601233AD72
:10415000A3E5611233AD80058A82123DA3201006CB
:1041600020110330125AE56A24FCF8886A86030895
:1041700086040886050886061818188B5B8C5C8DEB
:104180005D8E5E755BD2755C02755D80855B6B854F
:104190005C6C855D6D7401256BFEE4356CFFAB6D69
:1041A0008E5B8F5C8B5D856B82856C83856DF01279
:1041B0002D04FBFA7003023E378A82123DA380CCA5
:1041C000E5627003023E377B9530182BE56A14F8E0
:1041D000886AE6FC3395E0FDFEFF8C5B8D5C8E5DAE
:1041E0008F5E20175EAC5B7D007E007F008C5B8D58
:1041F0005C8E5D8F5E804C30191FE56A24FCF88868
:104200006A86040886050886060886071818188C2A
:104210005B8D5C8E5D8F5E802AE56A24FEF8886A7D
:10422000860408860518ED3395E0FEFF8C5B8D5CF7
:104230008E5D8F5E20170CAC5BAD5C7E007F008EC8
:104240005D8F5E301A43E55B455C455D455E6039D8
:104250007408B5620C758230C003123DA3D0038090
:10426000287410B56223758230C003123DA3D003B9
:10427000300F0C758278C003123DA3D003800A75FD
:104280008258C003123DA3D003301725AC5BAD5C50
:10429000AE5DE55EFF30E717C3E49CFCE49DFDE402
:1042A0009EFEE49FFF8C5B8D5C8E5D8F5E8002C204
:1042B00017756500D21B8B00755F00C000123DEDC5
:1042C000D000201B0DE55FC4FCE6FD4CF61888030A
:1042D0008002A65F0565B21BE55B455C455D455EFA
:1042E00070D68803E563700375630120141A2013E8
:1042F00017E56504FCC39563500E758220C0031258
:104300003DA3D003156380E930170E75822DC003DD
:10431000123DA3D00315638024E565602030150E9F
:1043200075822BC003123DA3D0031563800F301696
:104330000C758220C003123DA3D003156320131E09
:10434000AC631563C3E5659C50273014047C308052
:10435000027C208C82C003123DA3D00380E2C3E51F
:104360006595635009E563C39565F56380037563DF
:10437000008B00AB651565EB6022B21B201B0A08A1
:10438000E6C4540FFB8B5F80078603740F5BF55FF9
:10439000855F82C000123DBDD00080D7201303028C
:1043A0003E37AB631563EB7003023E377582201214
:1043B0003DA380EE8A82123DA3023E37856082854E
:1043C000618322AA82BA0A0810990280FB75990DAE
:1043D00010990280FB8A992285825985835A85F03B
:1043E0005BF55CE4F565F566855982855A83855BE6
:1043F000F0E55C122D0185825D85835E85F05FF5B9
:1044000060E4C0E0C0E07480C0E0743FC0E0855D5F
:1044100082855E83855FF0E560122E57AC82E58170
:1044200024FCF581EC602AC05DC05EC05FC0609076
:10443000000075F080743F1234AB85825D85835E29
:1044400085F05FF560E58124FCF581756502E4F592
:104450006674A3C0E07430C0E07489C0E0743EC0EC
:10446000E0855D82855E83855FF0E560122E57AC46
:1044700082E58124FCF581EC700302455EC05DC0DD
:104480005EC05FC0609067AF75F03B743F122F1441
:10449000AC82AD83AEF0FFE58124FCF581E4C0E0A1
:1044A000C0E0C0E0743FC0E08C828D838EF0EF12DC
:1044B0003493AC82AD83AEF0FFE58124FCF581E45A
:1044C000C0E0C0E0C0E0743FC0E08C828D838EF01D
:1044D000EF123493AC82AD83AEF0FFE58124FCF59E
:1044E00081C05DC05EC05FC0608C828D838EF0EF46
:1044F0001230C385826785836885F069F56AE58136
:1045000024FCF58174D7C0E074B3C0E074DDC0E072
:10451000743FC0E0855D82855E83855FF0E5601253
:1045200030C3AC82AD83AEF0FFE58124FCF581C0E1
:1045300004C005C006C0078567828568838569F069
:10454000E56A1234AB85825D85835E85F05FF56038
:10455000E58124FCF5810565E4B565020566855DA8
:1045600082855E83855FF0E560122D01AC82AD83AC
:10457000AEF0FFE4C0E0C0E07480C0E07439C0E099
:104580008C828D838EF0EF122EBBAC82E58124FCF1
:10459000F581EC600BAC5DAD5EAE5FAF600246C115
:1045A000C05DC05EC05FC060855D82855E83855FE3
:1045B000F0E560122F1485826185836285F063F5D2
:1045C00064E58124FCF581C061C062C063C0649071
:1045D000869175F05074BD122F14AA82AB83A8F097
:1045E000F9E58124FCF58174F6C0E07410C0E07434
:1045F000F1C0E074BEC0E08A828B8388F0E912309B
:10460000C3AA82AB83A8F0F9E58124FCF581C061DF
:10461000C062C063C0648A828B8388F0E9122F1461
:10462000AA82AB83A8F0F9E58124FCF581C05DC0C6
:104630005EC05FC0608A828B8388F0E9122F148588
:10464000826785836885F069F56AE58124FCF581D8
:1046500074D3C0E074CCC0E074B4C0E0743FC0E078
:104660008561828562838563F0E5641230C3AA8226
:10467000AB83A8F0F9E58124FCF581C002C003C03A
:1046800000C0018567828568838569F0E56A123418
:10469000ABAA82AB83A8F0F9E58124FCF581C002C6
:1046A000C003C000C001855D82855E83855FF0E543
:1046B000601230C3AC82AD83AEF0FFE58124FCF51F
:1046C00081C374019565E464808566F063F080952C
:1046D000F05004EFB2E7FFAA65E566CA25E0CA33E9
:1046E000CA25E0CA33FBEA24DDF582EB3402F58308
:1046F000E493FAA3E493FBA3E493F8A3E493F9C04F
:1047000002C003C000C0018C828D838EF0EF123096
:10471000C3AC82AD83AEF0FFE58124FCF581C0041B
:10472000C005C006C007E4C0E0C0E0C0E0C0E0854E
:104730005982855A83855BF0E55C122EBBAA82E51F
:104740008124FCF581D007D006D005D004EA6004AE
:10475000EFB2E7FF8C828D838EF0EF227F9E1247AF
:104760008330D103023CA4C3EF9582500974FFF556
:10477000F0F583F582227900123D6089828A838B6D
:10478000F0EC22AA82AB83A2F73392D16002D2F777
:10479000F582ACF022E4730000000000000000008D
:00000001FF
