:100000000200037581271200E4E582600302006F9D
:10001000780079007A007B007C007D00EC4D601C4C
:1000200088828983E493A3A882A9838A828B83F040
:10003000A3AA82AB831CBCFFE31D80E07582007520
:1000400083007C007D00EC4D600AE4F0A31CBCFF43
:10005000F51D80F27582007583007C007D00EC4DFB
:10006000600AE4F0A31CBCFFF51D80F21200E3124D
:1000700001ED80FE1B5B324A0045464D384C423153
:10008000205350492F424D4D3135302074657374E3
:100090002070726F6772616D0A46696C653A20253F
:1000A000730A436F6D70696C65643A2025732C2068
:1000B00025730A0A0073656E736F725F74657374DB
:1000C0002E63004D617220323120323032350031E2
:1000D000373A32363A3335003C4E4F20464C4F418A
:1000E000543E002275A7007597DE7597AD75FF80A9
:1000F00075EF0675A71075C12075A70075A9007565
:10010000A900E5A930E7FB75A90375A903E5A930A6
:10011000E7FB43A4E043A50175E10375E20075E345
:1001200040759810758DE6858D8B53890F43892016
:10013000D28ED29975A22375A14075F801758200FF
:1001400022AA82438E407592B87593FF859294855A
:1001500093957591047B00C3EB9A500BE59130E7C2
:10016000FB53917F0B80F075910022AA82AB837CB8
:10017000007D00C3EC9AED9B502B7E00BE04005026
:100180001D7582FAC002C003C004C005C00612017A
:1001900041D006D005D004D003D0020E80DE0CBCC6
:1001A00000D10D80CE228582A310FF0280FB22AAFF
:1001B00082758201C0021201A6D002E5A3EAC454EE
:1001C000F0FA74804AF5821201A6740355A3FB7AF3
:1001D00000758255C002C0031201A6D003D002AC44
:1001E000A37D00EC2AFAED3B8A82F583227474C069
:1001F000E07400C0E07480C0E012025215811581E5
:10020000158174CFC0E07400C0E07480C0E074C396
:10021000C0E07400C0E07480C0E074B5C0E0740059
:10022000C0E07480C0E07479C0E07400C0E0748005
:10023000C0E0120252E58124F4F58180FE020893A9
:1002400085821885831985F01A85091B90023D0265
:1002500002FCC008858108E50824FBF51BE508249D
:10026000FBF8861808861908861A90023D1202FCCF
:10027000D00822AA827484C0E07402C0E0C00AC020
:100280000B8A82220511E4B51102051222AA82749A
:10029000302AFA24C6500A74072AFA3000034302AF
:1002A000208A82020273E582FAC4540FF582C002EA
:1002B00012028DD002740F5AF58202028DAA0CAB85
:1002C0000DAC0EAD0FAE10751720EE2EFEED2354C3
:1002D00001FF4206EA2AFAEB33FBEC33FCED33FD77
:1002E000C3EE95134008EEC39513FE430201D517E4
:1002F000D98A0C8B0D8C0E8D0F8E102285820A856B
:10030000830BE4F511F512AA18AB19AC1A8A828B8B
:10031000838CF01208A8FD74012AF518E43BF51946
:100320008C1AEDFA700302088CBA250280030208C9
:1003300084C204C205C206C207C208C209C20AC2F8
:100340000BC201C202C2037513007514007515FFBC
:10035000AB18AC19AD1A8B828C838DF01208A8FAF9
:10036000A3AB82AC838B188C198D1ABA25078A82AD
:1003700012027380928A06BE3000402E8A06EE2456
:10038000C6402774FFB51513E51475F00AA4FEEAFC
:1003900024D02EF51470BFD20580BBE51575F00A88
:1003A000A4FEEA24D02EF51580ACBA2E0A74FFB54F
:1003B00015A4751500809F8A06BE6100400E8A064E
:1003C000EE248540075302DFD2008002C200BA202B
:1003D000028075BA2303020457BA2A0302045CBAE6
:1003E0002B02805FBA2D028055BA4202805FBA4369
:1003F000030204A1BA44030205DCBA45030205F670
:10040000BA46030205F2BA47030205FABA490302E3
:1004100005DCBA4C02803BBA4E030205FEBA4F031C
:100420000205E3BA5003020575BA53030204C5BAC4
:1004300055030205E8BA58030205ED020628D20466
:10044000020356D206020356D207020356D209020D
:100450000356D20A020356D20B02035674FFB51597
:100460002030090BE51B14F8881B8614020356E59F
:100470001B24FEF8881B8606088607188E140203C4
:100480005630090BE51B14F8881B8615020356E548
:100490001B24FEF8881B8606088607188E150203A3
:1004A0005630090AE51B14F8881B8602800FE51BED
:1004B00024FEF8881B8603088604188B028A8212A1
:1004C000027302062DE51B24FDF8881B86030886AF
:1004D0000408860518188B0C8C0D8D0E8B828C836E
:1004E0008DF01208DDAB82AC838B1674FFB515035B
:1004F00085161520041DC3E51695145016E514C382
:100500009516F514AB141514EB60087582201202D1
:100510007380F1850C82850D83850EF01208A8FB8F
:10052000FA6029AB151515C3E464808BF063F08085
:1005300095F050188A82120273AB0CAC0DAD0E0B05
:10054000BB00010C8B0C8C0D8D0E80C720040302A8
:10055000062DC3E5169514400302062DE514C39538
:1005600016F514AB141514EB700302062D758220DA
:1005700012027380EEE51B24FDF8881B86030886B3
:100580000408860518188B0C8C0D8D0EE50EFB30BB
:10059000E7047A438013EB546060047A50800AEBDE
:1005A00030E6047A4980027A588A82C002120273C5
:1005B00075823A1202737582301202737582781254
:1005C0000273D002BA4902800BBA50028006850D30
:1005D000821202A6850C821202A68051D2087513DF
:1005E0000A804A751308804575130A8040751310F8
:1005F000803BD2018037D2028033D203802FE51BAB
:1006000024FDF8881B860308860408860518188BC5
:100610000C8C0D8D0E8B828C838DF0E5111208C42D
:10062000A3E5121208C480058A8212027320010613
:1006300020020330035AE51B24FCF8881B860308BC
:1006400086040886050886061818188B0C8C0D8DF4
:100650000E8E0F750CD8750D00750E80850C1C85DF
:100660000D1D850E1E7401251CFEE4351DFFAB1EFD
:100670008E0C8F0D8B0E851C82851D83851EF012BE
:1006800008A8FBFA70030203078A8212027380CC67
:10069000E51370030203077B2730092BE51B14F8D1
:1006A000881BE6FC3395E0FDFEFF8C0C8D0D8E0E55
:1006B0008F0F20085EAC0C7D007E007F008C0C8DBF
:1006C0000D8E0E8F0F804C300A1FE51B24FCF8881E
:1006D0001B86040886050886060886071818188CE5
:1006E0000C8D0D8E0E8F0F802AE51B24FEF8881BC3
:1006F000860408860518ED3395E0FEFF8C0C8D0D01
:100700008E0E8F0F20080CAC0CAD0D7E007F008E7E
:100710000E8F0F300B43E50C450D450E450F60392C
:100720007408B5130C758230C003120273D00380B5
:10073000287410B51323758230C003120273D003DE
:1007400030000C758278C003120273D003800A75E2
:100750008258C003120273D003300825AC0CAD0DD3
:10076000AE0EE50FFF30E717C3E49CFCE49DFDE40B
:100770009EFEE49FFF8C0C8D0D8E0E8F0F8002C2AB
:1007800008751600D20C8B00751000C0001202BD57
:10079000D000200C0DE510C4FCE6FD4CF6188803D3
:1007A0008002A6100516B20CE50C450D450E450F4E
:1007B00070D68803E514700375140120051A20040F
:1007C00017E51604FCC39514500E758220C0031261
:1007D0000273D003151480E930080E75822DC00312
:1007E000120273D00315148024E516602030060E23
:1007F00075822BC003120273D0031514800F3007CB
:100800000C758220C003120273D003151420041E3D
:10081000AC141514C3E5169C50273005047C3080B9
:10082000027C208C82C003120273D00380E2C3E5F5
:100830001695145009E514C39516F5148003751424
:10084000008B00AB161516EB6022B20C200C0A08C8
:10085000E6C4540FFB8B1080078603740F5BF51002
:10086000851082C00012028DD00080D720040302C0
:100870000307AB141514EB700302030775822012F3
:10088000027380EE8A821202730203078511828549
:10089000128322AA82BA0A0810990280FB75990D68
:1008A00010990280FB8A992220F71430F61488836D
:1008B000A88220F507E6A88375830022E280F7E48A
:1008C0009322E02220F71030F6118883A88220F5C9
:1008D00007F6A88375830022F280F7F022AA82AB84
:1008E00083ACF07D007E008A828B838CF01208A896
:1008F000FFA3AA82AB83EF60070DBD00EA0E80E77D
:100900008D828E83220000000000000000000000A5
:00000001FF
