:020000040800F2
:1000000000200020B9000008211B0008351B000853
:1000100000000000000000000000000000000000E0
:10002000000000000000000000000000211B00088C
:100030000000000000000000211B0008211B000838
:10004000211B0008211B0008211B0008211B0008A0
:10005000211B0008211B0008211B0008211B000890
:1000600000000000211B0008211B0008211B0008C4
:10007000211B0008211B000800000000211B0008B4
:1000800000000000211B000800000000000000002C
:10009000E100000800000000211B0008211B0008EF
:1000A000211B0008211B0008211B000889100008E3
:1000B00039160008211B000801F0AEFC01F070FCAD
:1000C000E1235B02180000F037FF62B6C04600F083
:1000D0005FFA024B180001F09FF8FEE72C78000849
:1000E00080B500AF074B1A69064B01218A431A619C
:1000F000054B5A69044B80214A405A61C046BD46AF
:1001000080BDC046000801400004005080B584B0A6
:1001100000AF786039607B685B00013301229A4050
:100120001300FB607B685B0001229A401300BB60F8
:10013000A023DB051A68B968FB680B43D943A023E9
:10014000DB050A401A603B68002B12D1A023DB05B7
:10015000DA68BB68D943A023DB050A40DA60A02334
:10016000DB05DA68FB68D943A023DB050A40DA60C7
:1001700027E03B68012B11D1A023DB05D968A02320
:10018000DB05BA680A43DA60A023DB05DA68FB689E
:10019000D943A023DB050A40DA6012E03B68022B5A
:1001A0000FD1A023DB05D968A023DB05BA680A4379
:1001B000DA60A023DB05D968A023DB05FA680A43CF
:1001C000DA60C046BD4604B080BD80B588B000AFDF
:1001D000F860B9607A600122BB689A401E203B1823
:1001E0001A80BB685B00013301229A401300BB6197
:1001F000BB685B0001229A4013007B61FB68002B07
:100200001CD1A023DB051B68B9697A690A43D24374
:100210001A401100A023DB057A690A431A607B6843
:10022000002B27D1A023DB055A683B181B88DB4332
:100230001900A023DB050A405A601BE0FB68012B74
:1002400018D10E4B1B68B9697A690A43D2431A4028
:1002500011000A4B7A690A431A607B68002B09D1A6
:10026000064B5A681E23FB181B88DB431900034BFF
:100270000A405A60C046BD4608B080BD0004005028
:1002800080B500AF4B4BDA6A4A4B01210A43DA6270
:10029000484BDA6A474B02210A43DA620022002106
:1002A0000020FFF792FF002201210020FFF78DFFC1
:1002B000002202210020FFF788FF002203210020F6
:1002C000FFF783FF002204210020FFF77EFF0022BA
:1002D00005210020FFF779FF002207210120FFF709
:1002E00074FF012208210020FFF76FFFA023DB0528
:1002F000314A9A60A023DB051B68304A1A40A023CC
:10030000DB058021C9040A431A60A023DB055A6972
:10031000A023DB05802189010A435A61A023DB0564
:100320001A68A023DB0526490A401A60A023DB05D2
:10033000DA68A023DB05802149020A43DA60A023A2
:10034000DB05DA68A023DB051E490A40DA601E4B94
:100350001A681D4B0C210A431A601B4B1A681A4B72
:1003600003210A431A60A023DB051A68A023DB05DA
:10037000C02189010A431A600E4B5A6B0D4B0421B0
:100380000A435A63114B1A68104B802149030A43F0
:100390001A600F4B1A680E4B10210A431A600C4B5F
:1003A000DA680B4B01210A43DA6062B6C046C046E8
:1003B000BD4680BD001002400000FFFFFFFFFFF3BD
:1003C000FFFFFCFFFFFFFDFF0004005000E100E025
:1003D0000008014080B582B000AF786079680548B8
:1003E00001F000FD03001A00034BDA62C046BD466F
:1003F00002B080BD0048E8010008014080B582B02D
:1004000000AF0200FB1D1A70FB1D1B78022B05D0EC
:1004100026DC002B16D0012B0DD021E0124B1A68E0
:10042000114B01214A401A60104B5A690F4B802131
:100430008A435A6113E00C4B1A680B4B01210A43A3
:100440001A600CE0084B1A68074B01218A431A60B6
:10045000064B5A69054B80218A435A61C046C04603
:10046000C046BD4602B080BD0008014000040050F7
:1004700090B58DB000AF78607A68184B1100180005
:1004800003F08EF8A023DB055A69A023DB0514498D
:100490000A405A610A2000F0A9FA7B68180001F0AE
:1004A00093F908243B192721180001F0C7F9A0236C
:1004B000DB055A69A023DB05802189010A435A61C3
:1004C0000A2000F093FA3A19064B1100180003F0C5
:1004D00067F8C046BD460DB090BDC046B476000872
:1004E000FFDFFFFFC076000880B500AFA023DB056B
:1004F0005A69A023DB0510490A405A610A2000F01E
:1005000075FA0E4B180001F05FF90A2000F06EFA40
:10051000A023DB055A69A023DB05802189010A435A
:100520005A6101E001F07DF901F0CEF9031EF9DC1A
:10053000C046C046BD4680BDFFDFFFFFD076000845
:1005400080B584B000AF02003960FB1D1A70FB1D3E
:100550001B78072B18D8FB1D1B780833DBB2DB0098
:10056000DBB2180000F05BFB0023FB6009E0FB68D6
:100570003A68D3181B78180000F037FBFB6801338A
:10058000FB60FB68072BF2DDC046BD4604B080BDB2
:10059000B0B5A4B002AF96235B0080243A19136073
:1005A00000238422BA1813607F23FB1800221A70DC
:1005B0003B00DC4A03CA03C3FFF762FE00F049FBBD
:1005C00000F0AAFB3B0019000020FFF7B9FF3B1920
:1005D0001B681800FFF7FEFE96239B01180000F031
:1005E00085FFD14B01220121180000F057FBCF4BB2
:1005F00001220221180000F051FBFA239B00180091
:1006000000F0F4F9CA4B01220121180000F046FB6A
:10061000C84B01220221180000F040FBFA239B0086
:10062000180000F0E3F9FFF75FFFC34B1800FFF776
:100630001FFFC24B1800FFF71BFFC14B1800FFF74D
:1006400017FFC04B1800FFF713FFBF4B1800FFF751
:100650000FFFBE4B1800FFF70BFFBD4B1800FFF755
:1006600007FFBC4B1800FFF703FF80235B00180057
:1006700000F0A2FB0300BB67B86F02F037FAB64A7E
:10068000B64B01F091FF02000B0010001900002290
:10069000B34B01F089FF02000B001000190000228B
:1006A000B04B01F08BFC02000B001000190002F0AF
:1006B000E7F903007B6780239B00180000F07CFBB8
:1006C0000300BB67B86F02F011FAA34AA34B01F015
:1006D0006BFF02000B00100019000022A04B01F07C
:1006E00063FF02000B001000190000229D4B01F077
:1006F00065FC02000B001000190002F0C1F90300B4
:100700003B67402000F058FB0300BB67B86F02F066
:10071000EDF9914A914B01F047FF02000B001000E8
:10072000190000228E4B01F03FFF02000B00100069
:10073000190000228B4B01F041FC02000B0010005D
:10074000190002F09DF90300FB66FB6EA73B6422D3
:1007500053438521180001F045FB0300FB66FB6E47
:10076000002B1DDC786F02F0C1F900227C4B01F0F8
:1007700025FC02000B007C490824381902F046FFD2
:100780003B1901220121180000F088FA8C2000F0AA
:1007900046FA002000F029FA002000F026FA31E0A5
:1007A000FB6E642B17DD786F02F0A0F900226C4B12
:1007B00001F004FC02000B006C4C08257819F96E5E
:1007C0000091210002F022FF7B1901220121180073
:1007D00000F064FA16E0786F02F088F90022604BAE
:1007E00001F0ECFB02000B00614C08257819F96E52
:1007F0000091210002F00AFF7B190122012118005B
:1008000000F04CFA386F02F071F90022544B01F0FD
:10081000D5FB02000B0057490824381902F0F6FEF8
:100820003B1901220221180000F038FA7F23FB183F
:100830001B783C6F7A6F50491C2578190093230070
:1008400002F0E4FE2C003A194C4B1100180002F0A3
:10085000A7FE212000F0D6FF0A2000F0C7F83B19C0
:10086000180000F0B1FF0A2000F0C0F8402000F0AE
:10087000C9FF00238422BA18136001F025F8030091
:10088000052B0DDC8422BB181B680133B9180B60E3
:10089000BB181B68FA2B05DC642000F077F8ECE746
:1008A000C04600E0C04601F00FF80300052B1BDD39
:1008B0001C243B194F21180000F0C0FF3B19180001
:1008C00002F0C4FE0300062B06D13A192C4B11008E
:1008D000180002F065FE0EE01C23FA18294B1100E7
:1008E000180002F05DFE06E01C23FA18264B1100EA
:1008F000180002F055FEA023DB051A6980235B0077
:1009000013400AD1C046A023DB051A6980235B008F
:100910001340F8D00220FFF771FD322000F066F896
:10092000A3E6C04624780008E0760008F4760008C4
:10093000087700081C770008307700083C7700082B
:100940004877000854770008607700086C77000843
:1009500078770008847700086666666666660A40EF
:10096000000059400000B04094770008A4770008C8
:10097000B8770008CC770008D4770008E47700083F
:10098000E8770008F87700081478000880B582B08E
:1009900000AF0200FB1D1A70FB1D1B7819001048E8
:1009A00001F020FA030019000E4801F01BFA0300C1
:1009B0005A1E0D4B5A600C4B00229A600A4B0522BE
:1009C0001A60C046084B1A6880235B021340F9D0B6
:1009D000054B00221A60C046BD4602B080BDC0462D
:1009E00040420F000048E80110E000E080B584B00C
:1009F00000AF78600023FB6015E00B23FB1800229A
:100A00001A7008E0FA20FFF7C1FF0B217B181A7853
:100A10007B1801321A700B23FB181B78032BF1D9BA
:100A2000FB680133FB60FA687B689A42E5D3C046F5
:100A3000C046BD4604B080BD80B500AFA023DB0535
:100A40005A69A023DB0502210A435A612820FFF7D7
:100A50009DFFA023DB055A69A023DB0502218A4301
:100A60005A61C046BD4680BD80B582B000AF02006D
:100A7000FB1D1A70FB1D1B785BB2002B08DAA0234C
:100A8000DB055A69A023DB0520210A435A6107E0F0
:100A9000A023DB055A69A023DB0520218A435A6184
:100AA000FB1D1B784022134008D0A023DB055A69A8
:100AB000A023DB0510210A435A6107E0A023DB05D0
:100AC0005A69A023DB0510218A435A61FB1D1B785C
:100AD0002022134008D0A023DB055A69A023DB05A0
:100AE00008210A435A6107E0A023DB055A69A023C5
:100AF000DB0508218A435A61FB1D1B781022134035
:100B000008D0A023DB055A69A023DB0504210A4392
:100B10005A6107E0A023DB055A69A023DB05042105
:100B20008A435A61FFF788FF2820FFF72FFFFB1D3C
:100B30001B780822134008D0A023DB055A69A023A4
:100B4000DB0520210A435A6107E0A023DB055A692F
:100B5000A023DB0520218A435A61FB1D1B78042258
:100B6000134008D0A023DB055A69A023DB05102120
:100B70000A435A6107E0A023DB055A69A023DB057D
:100B800010218A435A61FB1D1B780222134008D0B2
:100B9000A023DB055A69A023DB0508210A435A611B
:100BA00007E0A023DB055A69A023DB0508218A435F
:100BB0005A61FB1D1B780122134008D0A023DB05DE
:100BC0005A69A023DB0504210A435A6107E0A023E8
:100BD000DB055A69A023DB0504218A435A61FFF72C
:100BE0002BFFC046BD4602B080BD80B582B000AFCD
:100BF0000200FB1D1A70A023DB055A69A023DB0548
:100C000001210A435A61FB1D1B781800FFF72CFFD6
:100C10000220FFF7EBFEC046BD4602B080BD80B5A6
:100C200082B000AF0200FB1D1A70A023DB055A69D9
:100C3000A023DB0501218A435A61FB1D1B781800A4
:100C4000FFF712FF0520FFF7D1FEC046BD4602B0F8
:100C500080BD80B500AFA023DB055A69A023DB056A
:100C600002218A435A611420FFF7C0FE3320FFF7A8
:100C7000D6FF3320FFF7D3FF3220FFF7D0FF282025
:100C8000FFF7CDFF0C20FFF7CAFF0120FFF7C7FFDA
:100C90001420FFF7ABFEC046BD4680BD80B584B0D2
:100CA00000AF786008001100FB1C021C1A70BB1C0E
:100CB0000A1C1A70FB1C1B78022B01D1C02300E018
:100CC00080231800FFF7ABFF0520FFF78FFE0023FE
:100CD000FB6009E0FB687A68D3181B781800FFF7FF
:100CE00084FFFB680133FB60FB687A68D3181B78CC
:100CF000002BEFD1BB1C1B78002B09D005E0202076
:100D0000FFF773FFFB680133FB60FB680F2BF6DD19
:100D1000C046BD4604B080BD80B500AF244B5A6BC1
:100D2000234B802189000A435A63224B1A69214BC5
:100D3000C02109060A431A611E4B1A681D4B012186
:100D40000A431A601B4B9A681A4B01210A439A60A6
:100D5000184BDA6880231B02134005D1C046154B9F
:100D60001B6801221340FAD0124B9B6801221340EA
:100D700005D0104B9A680F4B02210A439A600D4B25
:100D80009A680C4B802109060A439A60C046094BB9
:100D90001A6880231B011340F9D0064B1A68054BD3
:100DA000802109010A431A60C046BD4680BDC04685
:100DB000001002400024014080B582B000AF78608E
:100DC000164BDA68154B802109020A43DA60134B8F
:100DD0007A689A62114B5A69104B07210A435A618B
:100DE0007A6880239B029A4206D10D4B1A680C4BFD
:100DF0008021C9030A431A60084B9A68074B0421F3
:100E00000A439A60C046054B1B6804221340FAD07F
:100E1000024B1B6C1800BD4602B080BD002401408F
:100E20000827014090B585B000AF78603960184B55
:100E30001B68002B02D101235B4224E00023FB60EE
:100E40000AE0FB685A1CFA603A68D418114B180083
:100E500000F0ADF9030023707B68013B1A00FB68CA
:100E6000934205D20B4B180000F0CCF9031EE8D1D9
:100E7000FB68002B06D03A68FB68D31800221A7072
:100E8000FB6800E000231800BD4605B090BDC046D9
:100E90006C020020D401002080B584B000AF7860DF
:100EA0003960224B1B68002B02D101235B4238E0E2
:100EB0007B683F2B0BDCC0461D4B180000F0A2F9ED
:100EC00003004022D21A7B689A42F5D302E0022343
:100ED0005B4226E00023FB600BE03A68FB68D31816
:100EE0001A78134B1100180000F030F9FB68013339
:100EF000FB607B68FA689A42EFD30E4B1B680822AE
:100F000013400DD10B4B1A680A4B08210A431A6093
:100F1000074B180000F04BF903001A00054B9A62CA
:100F200000231800BD4604B080BDC0466C020020FE
:100F3000200200200038014080B584B000AF786006
:100F400072B6C046454B00229A64444B9A6C434BA0
:100F50005A64424B5A6C414B1A64414B00229A64CA
:100F60003F4B9A6C3E4B5A643D4B5A6C3C4B1A6457
:100F70003C4B01221A603C4B00221A603B4BDA6A60
:100F80003A4B01210A43DA62394BFB607968F86811
:100F900000F028FF0300FB60A023DB059A68A02374
:100FA000DB058021C9020A439A60A023DB055A6849
:100FB000A023DB052F490A405A60A023DB051B68EC
:100FC0002D4A1A40A023DB05802109030A431A6039
:100FD000A023DB055A6AA023DB0540210A435A629D
:100FE000A023DB051B68254A1A40A023DB058021CE
:100FF00089030A431A60A023DB055A6AA023DB0594
:101000008021C9000A435A62184B5A6B174B802142
:10101000C9010A435A631A4B1A68194B6C210A43D7
:101020001A60174B00225A60154B00229A60144B2D
:10103000FA68DA60124B1A68114B01210A431A60F0
:10104000104B1A680F4B802109050A431A6062B6DB
:10105000C046C046BD4604B080BDC046D401002095
:10106000200200206C0200207002002000100240CC
:101070000048E801FFFDFFFFFFFFF3FFFFFFCFFF89
:101080000038014000E100E080B500AF084BDB69AB
:101090008022134001D000F025F8054BDB692022A7
:1010A000134001D000F006F8C046BD4680BDC046E2
:1010B0000038014080B500AF074B5B6ADAB2074BDE
:1010C0001100180000F042F8031E02D0044B012268
:1010D0001A60C046BD4680BD00380140D4010020E2
:1010E0007002002080B500AF164B180000F08AF89F
:1010F000031E08D0134B180000F059F803001A0023
:10110000114B9A621BE0104B1A680F4B08218A435F
:101110001A600D4BDB694022134005D00A4B1A6A56
:10112000094B40210A431A62074BDB6980221340B6
:1011300005D0054B9A69044B10210A439A61C046B9
:10114000BD4680BD200200200038014080B582B03D
:1011500000AF78600A00FB1C1A707B681A6C7B6811
:101160005B6C9A4205D17B689B6C002B01D00123FC
:1011700019E072B6C0467B681B6C591C7A68116412
:101180007A68F91C0978D1547B689B6C5A1C7B687F
:101190009A647B681B6C402B02D17B6800221A6426
:1011A00062B6C04600231800BD4602B080BD80B5BF
:1011B00084B000AF78607B689B6C002B01D100236A
:1011C0001CE072B6C0467B685B6C591C7A6851643F
:1011D0000F22BA187968CB5C13707B685B6C402B6C
:1011E00002D17B6800225A647B689B6C5A1E7B6824
:1011F0009A6462B6C0460F23FB181B781800BD46E0
:1012000004B080BD80B582B000AF78607B689B6C15
:101210001800BD4602B080BD80B582B000AF7860D6
:101220000B4B1B68002B09D101235B420BE07B6851
:101230005A1C7A6019000120FFF72EFE7B681B788C
:10124000002BF4D100231800BD4602B080BDC0467B
:101250006C02002080B582B000AF0200FB1D1A7046
:10126000FB1D19000120FFF717FEC046BD4602B066
:1012700080BD80B500AF044B1800FFF798FF030056
:101280001800BD4680BDC046D4010020B0B584B072
:1012900000AF786039601E4B1B68002B02D1012320
:1012A0005B4231E00023FB600B23FB1800221A7025
:1012B00017E0C046174B1800FFF7A4FF031EF9D034
:1012C0000B257C19134B1800FFF771FF03002370E7
:1012D000FB685A1CFA601A007B689B187A1912780E
:1012E0001A703B68013BFA689A4204DA0B23FB1838
:1012F0001B780D2BDDD1FB68002B04DDFB687A68C1
:10130000D31800221A70FB681800BD4604B0B0BDA7
:101310006C020020D401002090B583B000AFFC1D0A
:10132000FFF7A7FF03002370FB1D1B781800FFF7D2
:1013300091FFFB1D1B781800BD4603B090BDB0B5F2
:1013400084B000AF78603960214B1B68002B02D15C
:1013500001235B4237E00023FB600B23FB180022D4
:101360001A701DE0C0461B4B1800FFF74BFF031E11
:10137000F9D00B257C19174B1800FFF718FF030055
:1013800023702C003B191B781800FFF763FFFB68E4
:101390005A1CFA601A007B689B183A1912781A7066
:1013A0003B68013BFA689A4204DA0B23FB181B786E
:1013B0000D2BD7D1FB68002B04DDFB687A68D318AE
:1013C00000221A70FB681800BD4604B0B0BDC046CC
:1013D0006C020020D401002090B585B000AF786089
:1013E0003960184B1B68002B02D101235B4224E0BB
:1013F0000023FB600AE0FB685A1CFA603A68D418C4
:10140000114B180000F0ABF9030023707B68013B1F
:101410001A00FB68934205D20B4B180000F0CAF982
:10142000031EE8D1FB68002B06D03A68FB68D3188E
:1014300000221A70FB6800E000231800BD4605B0CA
:1014400090BDC046100300207802002080B584B013
:1014500000AF78603960224B1B68002B02D101235A
:101460005B4238E07B683F2B0BDCC0461D4B18000D
:1014700000F0A0F903004022D21A7B689A42F5D30B
:1014800002E002235B4226E00023FB600BE03A68A7
:10149000FB68D3181A78134B1100180000F02EF9CE
:1014A000FB680133FB607B68FA689A42EFD30E4B0E
:1014B0001B68082213400DD10B4B1A680A4B0821F8
:1014C0000A431A60074B180000F049F903001A009C
:1014D000054B9A6200231800BD4604B080BDC0468B
:1014E00010030020C40200200044004080B584B0F6
:1014F00000AF786072B6C046454B00229A64444BF8
:101500009A6C434B5A64424B5A6C414B1A64414BA0
:1015100000229A643F4B9A6C3E4B5A643D4B5A6C86
:101520003C4B1A643C4B01221A603C4B00221A606F
:101530003B4BDA6A3A4B01210A43DA62394BFB60D2
:101540007968F86800F04EFC0300FB60A023DB051F
:101550009A68A023DB05802149050A439A60A023ED
:10156000DB055A68A023DB052F490A405A60A023F7
:10157000DB051B682D4A1A40A023DB058021890565
:101580000A431A60A023DB055A6AA023DB058021E9
:10159000C9040A435A62A023DB051B689B009A0812
:1015A000A023DB05802109060A431A60A023DB057E
:1015B0005A6AA023DB058021C9050A435A62184BE9
:1015C0009A6B174B802189020A439A63184B1A6859
:1015D000174B6C210A431A60154B00225A60144BBA
:1015E00000229A60124BFA68DA60114B1A68104BAD
:1015F00001210A431A600F4B1A680E4B80214905DE
:101600000A431A6062B6C046C046BD4604B080BDFB
:1016100078020020C40200201003002014030020E0
:10162000001002400048E801FFBFFFFFFFFFFFCFAF
:101630000044004000E100E080B500AF084BDB69EA
:101640008022134001D000F025F8054BDB692022F1
:10165000134001D000F006F8C046BD4680BDC0462C
:101660000044004080B500AF074B5B6ADAB2074B1D
:101670001100180000F042F8031E02D0044B0122B2
:101680001A60C046BD4680BD00440040780200207C
:101690001403002080B500AF164B180000F08AF844
:1016A000031E08D0134B180000F059F803001A006D
:1016B000114B9A621BE0104B1A680F4B08218A43AA
:1016C0001A600D4BDB694022134005D00A4B1A6AA1
:1016D000094B40210A431A62074BDB698022134001
:1016E00005D0054B9A69044B10210A439A61C04604
:1016F000BD4680BDC40200200044004080B582B0D9
:1017000000AF78600A00FB1C1A707B681A6C7B685B
:101710005B6C9A4205D17B689B6C002B01D0012346
:1017200019E072B6C0467B681B6C591C7A6811645C
:101730007A68F91C0978D1547B689B6C5A1C7B68C9
:101740009A647B681B6C402B02D17B6800221A6470
:1017500062B6C04600231800BD4602B080BD80B509
:1017600084B000AF78607B689B6C002B01D10023B4
:101770001CE072B6C0467B685B6C591C7A68516489
:101780000F22BA187968CB5C13707B685B6C402BB6
:1017900002D17B6800225A647B689B6C5A1E7B686E
:1017A0009A6462B6C0460F23FB181B781800BD462A
:1017B00004B080BD80B582B000AF78607B689B6C60
:1017C0001800BD4602B080BD80B582B000AF786021
:1017D0000B4B1B68002B09D101235B420BE07B689C
:1017E0005A1C7A6019000120FFF730FE7B681B78D5
:1017F000002BF4D100231800BD4602B080BDC046C6
:101800001003002080B582B000AF0200FB1D1A70EB
:10181000FB1D19000120FFF719FEC046BD4602B0AE
:1018200080BD80B500AF044B1800FFF798FF0300A0
:101830001800BD4680BDC04678020020B0B584B017
:1018400000AF786039601E4B1B68002B02D101236A
:101850005B4231E00023FB600B23FB1800221A706F
:1018600017E0C046174B1800FFF7A4FF031EF9D07E
:101870000B257C19134B1800FFF771FF0300237031
:10188000FB685A1CFA601A007B689B187A19127858
:101890001A703B68013BFA689A4204DA0B23FB1882
:1018A0001B780A2BDDD1FB68002B04DDFB687A680E
:1018B000D31800221A70FB681800BD4604B0B0BDF2
:1018C000100300207802002080B500AF034B180001
:1018D000FFF770FF03001800BD4680BD78020020AE
:1018E00090B583B000AFFC1DFFF79BFF0300237092
:1018F000FB1D1B781800FFF785FFFB1D1B781800E8
:10190000BD4603B090BDB0B584B000AF786039601B
:10191000214B1B68002B02D101235B4237E00023DF
:10192000FB600B23FB1800221A701DE0C0461B4B06
:101930001800FFF73FFF031EF9D00B257C19174B4A
:101940001800FFF70CFF030023702C003B191B78D5
:101950001800FFF757FFFB685A1CFA601A007B68F3
:101960009B183A1912781A703B68013BFA689A4240
:1019700004DA0B23FB181B780D2BD7D1FB68002B47
:1019800004DDFB687A68D31800221A70FB6818001F
:10199000BD4604B0B0BDC046100300207802002050
:1019A00080B582B000AF164B7B60164B3B6007E002
:1019B0007A68131D7B603B68191D396012681A60D4
:1019C0003A68114B9A42F3D304E03B681A1D3A601F
:1019D00000221A603A680D4B9A42F6D30C4B3B60DA
:1019E00004E03B681A1D3A601B6898473A68094B47
:1019F0009A42F6D3C046C046BD4602B080BDC0463E
:101A0000747D000800000020D40100204003002065
:101A1000747D0008747D000880B500AF3B4B1A68E8
:101A20003A4B01210A431A60C046384B1B68042216
:101A30001340FAD0354B0122DA60C046334BDB68E5
:101A40000C221340042BF9D1314B1A68304B022180
:101A50000A431A602E4B1A682D4B01210A431A6063
:101A60002A4B9A6B294B802149050A439A63294BDB
:101A7000802212011A60C046264B5B681022134078
:101A8000FAD1224BDA68214B23490A40DA601F4B16
:101A9000DA681E4B8821C9030A43DA601B4A1B4BD4
:101AA000D268DA60194A194BD268DA60174A174BC4
:101AB000D268DA60154B1A68144B18490A401A604C
:101AC000124B1A68114B802149040A431A60C04620
:101AD0000E4B1A6880239B041340F9D00B4BDA6835
:101AE0000A4B03218A43DA60084BDA68074B03216B
:101AF0000A43DA60C046054BDB680C2213400C2B0E
:101B0000F9D1C046C046BD4680BDC0460010024067
:101B10000020024000700040FFFF02FFFFFFFFFEB9
:101B200080B500AF024B1800FFF776FBFEE7C0461A
:101B30005478000880B500AF024B1800FFF76CFB2B
:101B4000FEE7C0468478000880B582B000AF7860B8
:101B5000FEE780B582B000AF786001235B421800D9
:101B6000BD4602B080BD80B584B000AFF860B960FA
:101B70007A60044B0C221A6001235B421800BD46B8
:101B800004B080BD2403002080B500AF034B0B22BE
:101B90001A6001235B421800BD4680BD240300206B
:101BA00080B582B000AF786039603B6880229201D6
:101BB0005A6000231800BD4602B080BD80B500AF5A
:101BC00001231800BD4680BD80B582B000AF7860AB
:101BD0003960044B16221A6001235B421800BD468F
:101BE00002B080BD2403002080B582B000AF7860D1
:101BF0003960044B1F221A6001235B421800BD4666
:101C000002B080BD2403002080B584B000AFF8602E
:101C1000B9607A6000231800BD4604B080BD80B56D
:101C200082B000AF786039603B68802292015A60D0
:101C300000231800BD4602B080BD80B582B000AF61
:101C4000786001235B421800BD4602B080BD80B5BC
:101C500082B000AF7860044B02221A6001235B421D
:101C60001800BD4602B080BD2403002080B582B0BC
:101C700000AF7860044B0A221A6001235B4218000F
:101C8000BD4602B080BDC0462403002080B582B0AE
:101C900000AF78607B68022B01D8012303E0044B7E
:101CA00009221A6000231800BD4602B080BDC0465C
:101CB0002403002080B586B000AF7860124B7B61B2
:101CC000124B3B61124B1B68002B02D1104B7A69FF
:101CD0001A600F4B1B68FB600D4B1A687B68D318AA
:101CE0003A699A4205D20B4B0C221A6001235B42DF
:101CF00006E0074B1A687B68D218054B1A60FB6830
:101D00001800BD4606B080BD400300200010002032
:101D1000200300202403002080B588B000AFF860C5
:101D2000B9607A600023BB61FB68002B22D10023DD
:101D3000FB611AE0FFF79DFA03001A0017217B18D8
:101D40001A70BB685A1CBA607A181278D2B21A702C
:101D5000BB690133BB617B181B78DBB20A2B01D155
:101D6000BB690EE0FB690133FB61FA697B689A424B
:101D7000E0DB05E0054B09221A6001235B4200E02D
:101D8000BB691800BD4608B080BDC04624030020D2
:101D900080B586B000AFF860B9607A60FB68013B3F
:101DA000012B11D800237B6109E0BB685A1CBA6083
:101DB0001B781800FFF74EFA7B6901337B617A6963
:101DC0007B689A42F1DB05E0054B09221A6001238A
:101DD0005B4200E07B681800BD4606B080BDC0468F
:101DE0002403002003460B437FD4002243088B4288
:101DF00074D303098B425FD3030A8B4244D3030B92
:101E00008B4228D3030C8B420DD3FF22090212BA56
:101E1000030C8B4202D31212090265D0030B8B42D2
:101E200019D300E0090AC30B8B4201D3CB03C01ABC
:101E30005241830B8B4201D38B03C01A5241430B97
:101E40008B4201D34B03C01A5241030B8B4201D387
:101E50000B03C01A5241C30A8B4201D3CB02C01AF2
:101E60005241830A8B4201D38B02C01A5241430A6A
:101E70008B4201D34B02C01A5241030A8B4201D359
:101E80000B02C01A5241CDD2C3098B4201D3CB0100
:101E9000C01A524183098B4201D38B01C01A5241AF
:101EA00043098B4201D34B01C01A524103098B42B3
:101EB00001D30B01C01A5241C3088B4201D3CB009E
:101EC000C01A524183088B4201D38B00C01A524181
:101ED00043088B4201D34B00C01A5241411A00D231
:101EE00001465241104670475DE0CA0F00D049429A
:101EF000031000D34042534000229C4603098B420A
:101F00002DD3030A8B4212D3FC22890112BA030A91
:101F10008B420CD3890192118B4208D38901921113
:101F20008B4204D389013AD0921100E08909C30998
:101F30008B4201D3CB01C01A524183098B4201D39A
:101F40008B01C01A524143098B4201D34B01C01A85
:101F5000524103098B4201D30B01C01A5241C308FD
:101F60008B4201D3CB00C01A524183088B4201D36C
:101F70008B00C01A5241D9D243088B4201D34B0087
:101F8000C01A5241411A00D20146634652415B10C9
:101F9000104601D34042002B00D5494270476346AA
:101FA0005B1000D3404201B5002000F005F802BDEF
:101FB0000029F8D016E770477047C046F0B557467D
:101FC0004E464546DE46E0B5814605000C03480016
:101FD00092461F0085B0240B400DCE0F002800D183
:101FE00056E1D44B984200D172E16B0FE4001C43E0
:101FF00080231B0423439846CF4BED009B460023D0
:102000009946834400933C037B005046240B5B0DB0
:10201000FF0F002B00D11FE1C64A934200D162E1BD
:10202000C549420F8C46E40059461443802263445C
:102030001204CB1A14439B46C200002033007B409D
:102040009A464B460F2B27D8BC499B00CB589F463E
:10205000B246009B022B16D0032B00D18EE2012B3F
:1020600000D0D9E000230024002552461B0523435D
:10207000D20713432800190005B0F0BCBB46B24696
:10208000A946A046F0BD00240025AA4BEDE7BA46BC
:10209000A04615000090DCE7444500D2C7E100D11E
:1020A000C2E101235B429C462E0040460025E344EA
:1020B0002302140E1C431B0C994623041F0C12020E
:1020C00049460092019700F0C7FD02007A430B04D5
:1020D000310C804619438A4207D901235B429C4652
:1020E0000919E0448C4200D807E2881A494600F0FA
:1020F000B3FD09048C4631046646019A090C42433B
:10210000030031438A4204D90919013B8C4200D8AB
:10211000EDE1881A424612041A4390464146009B5C
:102120000E041B0C1F000293009B360C1B04190CA1
:102130000B007343120C7E43039151437A431F0CEF
:10214000BC4676186644B14203D9802149028C46C8
:102150006244310C8A1831041E04360C8E199042E8
:1021600002D312D1B54210D24346591E009B9C4661
:1021700065441F009D429B415B421B19C01884426D
:1021800000D2A0E100D19BE18846AE1BB542AD4133
:10219000801A6D42401B844200D1D5E1494600F0CF
:1021A0005BFD019A0B044243310C050019438A423E
:1021B00000D96CE1881A494600F04EFD019A3604B8
:1021C00042430904360C03000E43B24200D953E1E6
:1021D0000398B61A02002D041D43029F2B041B0C0A
:1021E0005A437B439C46290C4843130C8444634464
:1021F0007943984203D98020400284466144180CF8
:1022000012041B04120C41189B188E4200D2FFE0EE
:1022100000D1FAE001231D43494A5A44002A00DC58
:10222000AAE06B0700D03DE1ED084346DB0106D58F
:102230004246444B1A4090468022D2005A44424BB8
:102240009A4200DD1FE743465B071D4343465205A4
:102250005C02240B530D08E75246224300D17BE079
:10226000002C00D1FAE0200000F0FAFC02000B3A4A
:102270001D2301009B1A52460839DA408C40144352
:1022800052468A40314B58449B4683440020D5E651
:102290004B462343984644D0002C00D1CEE020008A
:1022A00000F0DEFC010002000B391D235B1A4946D9
:1022B0001000D940083884400B004D46234398460F
:1022C00085402348831A9B460023994600939AE64B
:1022D0004B46234398461DD108239946063B0025CB
:1022E000834600938FE65246224309D10223494692
:1022F0001943184B89469C4600240220E3449DE67E
:1023000003234A461A43134B91469C4652460320E8
:10231000E34493E60C239946093BA0468346009389
:1023200071E60423994600239B4601330025009360
:1023300069E6C046FF07000001FCFFFFA87800081F
:10234000FF030000FFFFFFFEFE070000F303000095
:102350000DFCFFFF01F8FFFF4946012319438946A1
:10236000002401206AE6002380249A4600258A4B37
:1023700024037AE601256D4201239B1A382B00DDE8
:1023800070E61F2B00DCBFE01F2149428A1A41463C
:10239000D1400A00202B04D04146804B5B44994039
:1023A0000D436B1E9D4107232A431D000024154049
:1023B000134200D1D4E00F2100231140042900D1A1
:1023C000CBE0111D9142924152429B180A00190222
:1023D00000D4C2E001230024002546E680234146C4
:1023E0001B03194208D01C4206D11C432403BA46E1
:1023F0001500694B240B38E68024434624031C4314
:102400002403B246644B240B2FE6002B00D103E7D4
:10241000A619681EA64200D28DE08E4200D2A3E02B
:1024200000D1B3E00500F5E6AA4200D939E64346FB
:10243000DE0758086B081E43ED0739E6484600F0F2
:102440000FFC01000200153120321C2900DC2CE7B2
:102450004B46083883400025984632E700F000FCE0
:1024600003001A00153220301C2A00DC00E7544615
:10247000083B00229C4005E73619013BB44200D9D5
:10248000A6E6B24200D8A3E6831E3619A0E60919D3
:10249000013D8C4200D98DE68A4200D88AE6851E2D
:1024A000091987E60F232B40042B00D1BCE6052336
:1024B0005B42AB429B4104355B42ED089844B4E675
:1024C000AF4200D960E6824204D800D05CE6AE425A
:1024D00000D859E602235B429C46009BE0449C46A0
:1024E00065449D429B415B421B19C0184DE68A42E0
:1024F00000D80EE6831E09190BE68A4200D8F4E5DF
:10250000831E98460919F0E52549280059448D4055
:1025100042468A40691E8D414146D840D940024317
:102520002A430B00510700D151E70F211140042924
:1025300000D046E74BE705008E4200D06AE6009ADD
:10254000934200D066E667E6164A5A44002A00DC49
:1025500010E701230025984467E65D075B021C0B2A
:10256000D2080023154380E50098023D42008242D4
:10257000BF417F423C1936190092DDE78024434673
:1025800024031C432403044B240B6EE5009A9A4257
:10259000EAD30500D3E7C046FF0700003E04000071
:1025A0001E040000FF030000F0B557464E464546A6
:1025B000DE46E0B598460C034B000600924687B015
:1025C000240B5B0DCF0F002B00D15CE1D94A934265
:1025D00000D175E1420FE400144380221204144339
:1025E000D54AC500944663440093002399469B4610
:1025F000434642461E03D20F5B0050469046360BC0
:102600005B0D00D120E1CB4A934200D162E1CA497F
:10261000420F8C4600996344F6008C461643802294
:102620009C44120463461643C200002000930099A4
:10263000434601318C4649467B4001930F2926D8F9
:10264000BE4B890059588F4643460193340015000C
:1026500083465B46022B16D0032B00D103E2012BED
:1026600000D0CDE0002200240025019B120522436A
:10267000DB071A432800110007B0F0BCBB46B24686
:10268000A946A046F0BD00240025AA4AEDE7280C83
:102690002D042D0C2B00110C1204120C53439846E0
:1026A00013002F00434399464F434F44BB464746D0
:1026B0000B003F0CBA464343DA440293D14504D998
:1026C00080277F02B9464B44029353461B0C9B461E
:1026D00053461F0443461B041B0C98463B004344CF
:1026E0000493330C3604360C984633004343994622
:1026F000434643432F009A46434677435D43380C95
:102700004D444519A94503D980235B029946CA4423
:102710003F04280C3F0C2D04ED19270C2404240C35
:102720000300200050437A4391463A0053440593F6
:10273000030C9A464A43614349445144AB4489459A
:1027400003D980235B0299464A4400040B0C000C19
:102750000904091820009946434670435C437E43B0
:102760005F43030C9846A41944444A440397A64285
:1027700004D980235B029846474403972304029EB2
:102780009A46059B5E449846AE42AD4176188E420D
:1027900089410004000C504440446D424719B8463A
:1027A000934649428946C344D94498428041A8454A
:1027B000AD4193459241894589416D42404228434C
:1027C000240C524249420A43039B00198018C7183F
:1027D0004B46DC0D049B75021D436A1E95414B461A
:1027E000F60D7F0235435A023C431543FB0100D4EA
:1027F0001CE101216A080D401543E20715436408F6
:102800004F496144002900DCB0E06B0709D00F227A
:102810002A40042A05D02A1DAA42AD416D426419FE
:102820001500E30104D58021464AC90014406144E3
:10283000454A914200DD26E76207ED08640249053A
:102840001543240B4A0D10E75246324300D17FE076
:10285000002E00D1DCE0300000F002FA02000B3A5A
:102860001D2301009B1A52460839DA408E40164358
:1028700052468A40009B3549181A03008C4663442F
:1028800000200093D3E6250005434AD0002C00D158
:10289000B0E0200000F0E4F9010002000B391D2334
:1028A00010005B1A3100350008388440D94085405B
:1028B0000C432648831A0093002399469B4697E6CB
:1028C0000500254326D108220093022300249146C7
:1028D0009B468DE65246009B324310D11549002697
:1028E0008C466344494600930223194389460220DB
:1028F0009DE65B460197022B00D0ADE6C3E60D4A8C
:102900000320944663444A46009303231A439146A6
:1029100052468CE60C2200930323050091469B4609
:1029200066E60423994600230093013300249B4666
:102930005EE6C046FF07000001FCFFFFE8780008E4
:10294000FF030000FFFFFFFEFE0700000DFCFFFF7E
:1029500049460123194389460026012067E60023E2
:1029600080240025434A019324037EE60120401A77
:10297000382800DD76E61F285BDD1F222300524247
:10298000511ACB401900202803D03B4A624494409E
:1029900025436A1E95412A000A4307210D000024A1
:1029A000154011425BD00F2100241140042953D05F
:1029B000111D914292415242A4180A0023024BD5A4
:1029C00001220024002550E680231B031C4209D06D
:1029D0001E4207D133431C0343461500240B254AEE
:1029E000019342E68022120314432403214A240B5C
:1029F00001973AE600F034F9010002001531203267
:102A00001C2900DC4BE7340008380025844050E7DF
:102A100000F026F903001A00153220301C2A00DCD1
:102A20001EE75646083B00229E4023E7009B9C463B
:102A3000E6E61249220061442E008D408A40C640DD
:102A4000691E8D4132432A43C4405307B6D00F213B
:102A500011400429ACD1B1E765076402240BD20808
:102A60001543002201E68022120314432403014A85
:102A7000240BFAE5FF0700003E0400001E040000DE
:102A80000A0030B5134C530009030500090B002060
:102A90005B0DD20FA34204DD0F48834202DD0F4BD2
:102AA000D01830BD8020400301430D48C01A1F28B4
:102AB00008DD0C48C31AD9400B005842002AF0D157
:102AC0001800EEE7084CC540A446634499400B004B
:102AD0002B43F2E7FE0300001D040000FFFFFF7F11
:102AE0003304000013040000EDFBFFFF70B5002865
:102AF00016D0C317C5185D40C40F280000F0B0F809
:102B0000114A121A0A2816DC03002E0015339E40C3
:102B10000B23181AC54052052D032D0B530D03E04E
:102B200000240023002500261B052B43E407234334
:102B30003000190070BD0B38854052052D0300266A
:102B40002D0B530DF0E7C0461E0400000022430881
:102B50008B4274D303098B425FD3030A8B4244D365
:102B6000030B8B4228D3030C8B420DD3FF220902A7
:102B700012BA030C8B4202D31212090265D0030B66
:102B80008B4219D300E0090AC30B8B4201D3CB035C
:102B9000C01A5241830B8B4201D38B03C01A52419E
:102BA000430B8B4201D34B03C01A5241030B8B42A0
:102BB00001D30B03C01A5241C30A8B4201D3CB028B
:102BC000C01A5241830A8B4201D38B02C01A524170
:102BD000430A8B4201D34B02C01A5241030A8B4273
:102BE00001D30B02C01A5241CDD2C3098B4201D38B
:102BF000CB01C01A524183098B4201D38B01C01A09
:102C0000524143098B4201D34B01C01A524103097F
:102C10008B4201D30B01C01A5241C3088B4201D32E
:102C2000CB00C01A524183088B4201D38B00C01ADB
:102C3000524143088B4201D34B00C01A5241411A02
:102C400000D20146524110467047FFE701B500200F
:102C5000FFF7B2F902BDC0460029F7D076E770470A
:102C60001C2101231B04984201D3000C10391B0ABC
:102C7000984201D3000A08391B09984201D3000980
:102C8000043902A2105C40187047C04604030202D7
:102C9000010101010000000000000000F0B51E006D
:102CA000002314008BB09E4204DA802109067318B9
:102CB0001E002D23129A149F1370202303229F437A
:102CC000462F07D03B00453B59424B411099013AF2
:102CD000CB18109309AB049308AB0393139B00929A
:102CE0000293109B22000193330000F041FD050088
:102CF000472F02D1119BDB0728D5109BEB180793B8
:102D0000462F14D12B78302B0CD100220023200029
:102D1000310003F083FC002804D10123109A9B1A90
:102D2000139A1360139B079A1B68D318079300220A
:102D300000232000310003F071FC002801D0079B24
:102D400009933022099B07998B4206D32800099BDF
:102D5000159A5B1B13600BB0F0BD591C09911A70DA
:102D6000F0E7F0B5831C87B0039305000C002B231C
:102D70000270002901DA4C4202336B70092C31DDFC
:102D80000A2704ABDE1D200039000196FFF710F979
:102D9000013E30312000317039000294FFF722F8F3
:102DA000029B0400632BEEDC019B30349A1E13005F
:102DB0000399147004A8073098420ED804AB073367
:102DC00000209A4204D804AB0930C018019BC01AF5
:102DD000039B1818401B07B0F0BD1878013308702A
:102DE0000131E7E73023E418AB70281DEC70F1E700
:102DF000F0B595B00C0009921E001A9D070001F075
:102E00002DFC036818000C9300F020FC00231293A3
:102E1000237E07220A9323680E900D930D992B6849
:102E2000C90547D59B1893431A0008322A601A68CF
:102E30005B68A264E3640122A36CE56C0B936B00F6
:102E40005B080F930B98A74B0F99524204F0EEFBCF
:102E5000002831D10122A34B0B980F99524203F065
:102E6000EDFB002828D10022002329000B9803F055
:102E7000DBFB002803D023002D2243331A700A9B6A
:102E8000994D472B00D9994D03230D9A23610133A6
:102E90009A43002322600B93099B2100380000967F
:102EA00013AA00F0E7F9431C00D0A2E00120404241
:102EB00015B0F0BD0733B6E70B9A2B0010002900C0
:102EC00004F0B4FB00280BD0002D03DA23002D22E0
:102ED00043331A700A9B864D472BD5D9854DD3E7CE
:102EE00020220A99636891430F915A1C49D10733F4
:102EF000636080230D9ADB0013430022069212AA1E
:102F000005920A9A08A9049211AA03922322236027
:102F10000193636852180292009338002B000B9AB9
:102F2000FFF7BCFE0F9B05001199472B08D1CB1C66
:102F300002DB6368994248DD0A9B023BDBB20A93DD
:102F40000A9B652B24D820001A00013950301191BA
:102F5000FFF707FF129A0B9013182361012A02DC76
:102F60002268D20701D501332361232308AA9B18C5
:102F70001B78002B00D18FE723002D2243331A70DA
:102F80008AE70F9A472AB4D1002BB2D10133AFE7B9
:102F90000A9B662B1BD1636800290DDD2161002B84
:102FA00002D12268D20702D5013359182161119B41
:102FB000A36500230B93D8E7002B03D101222168DE
:102FC000114200D09A1C2261F1E767230A93119BFA
:102FD000129A934206DB22682361D207E7D50133B8
:102FE0002361E4E70121002B01DC4918C91A5218BA
:102FF000E9E72268530507D423692A0038000999B4
:10300000B047431C28D151E70A9B652B00D8E1E06B
:10301000A06CE16C0022002303F000FB002831D0FB
:1030200001233800344A0999B047431C00D13DE7D9
:10303000119B129A934202DB2368DB070CD5380000
:103040000E9B0C9A0999B0470025431C00D12DE72F
:10305000129B013BAB420ADC23689B0700D506E1CB
:10306000139BE068984200DB22E7180020E722006B
:103070000123380009991A32B047431C00D115E7E3
:103080000135E5E7119B002B38DC012338001A4A93
:103090000999B047431C00D108E7119B129A1343CA
:1030A00002D12368DB07D7D50E9B38000C9A09990B
:1030B000B047431C00D1F9E600230A93119B0A9AFA
:1030C0005B42934201DC129B97E722000123380008
:1030D00009991A32B047431C00D1E7E60A9B013335
:1030E000EBE7C046FFFFEF7F287900082C79000846
:1030F000307900083479000838790008129AA36DF5
:103100000A929A4200DD0A930A9B002B3CDC0023C2
:103110000D930A9BDB43DB170F93A36D0F9A0B9361
:103120000A9B13400B9AD31A0D9A934234DC119BDD
:10313000129A93423DDB2368DB073AD4129A0B9B29
:103140001199D31A521A0A929A4200DD0A930A9BE5
:10315000002B36DC0A9B0025DB43DB170B93119A0F
:10316000129B0B999B1A0A9A0A409B1AAB4200DCED
:1031700072E722000123380009991A32B047431C34
:1031800000D193E60135EAE70A9B2A003800099945
:10319000B047431CBBD189E62200012338000999BE
:1031A0001A32B047431C00D180E60D9B01330D93CA
:1031B000B3E70E9B38000C9A0999B047431CBDD168
:1031C00074E60B9B3800EA1809990A9BB047431C28
:1031D000C0D16BE6129B012B02DC01231A4234D0D2
:1031E00001232A0038000999B047431C00D15DE64D
:1031F0000E9B38000C9A0999B047431C00D155E644
:10320000A06CE16C0022002303F008FA00281AD118
:10321000129B6A1C013B38000999B047431C0ED130
:1032200044E622000123380009991A32B047431CB2
:1032300000D13BE60135129B013BAB42F1DC2200A1
:103240000B9B5032DAE60025F5E72A00E3E722007F
:103250000123380009991932B047431C00D125E6F3
:103260000135E368139A9B1AAB42F0DCF8E60025BF
:10327000F7E7C046F7B5150001938A680B690C00A3
:103280000090934200DA130022002B604332127840
:10329000002A01D001332B6023689B0602D52B68DE
:1032A00002332B602268062317001F401A4227D0E2
:1032B000230043331B785A1E93412268920630D470
:1032C000220001990098089E4332B047431C25D044
:1032D000062320682A68E16800250340042B03D1F7
:1032E0008D1AEB43DB171D40A3682269934201DD71
:1032F0009B1AED180027BD4220D1002010E00137B5
:10330000E3682A689B1ABB42D2DD2200012301999F
:103310000098089E1932B047431CF0D1012040426A
:10332000FEBD3020E1184331087021005A1C4531A0
:103330000978A218433202331170C1E72200012339
:1033400001990098089E1A32B047431CE6D0013715
:10335000D1E70000F0B58BB006920A004332079324
:10336000059004920A7E0C00109B782A07D8622AE6
:1033700009D8002A00D1C1E0582A00D18CE02600EB
:103380004236327022E0100063381528F7D803F077
:103390002BF916001F00F6FFF6FFF6FFF6FF1F00E1
:1033A000F6FFF6FFF6FFF6FFA80036009A00F6FFDC
:1033B000F6FFB900F6FF3600F6FFF6FF9E00260086
:1033C0001A684236111D1960136833700123A7E093
:1033D000086819680A1D05060BD50D681A60002DCE
:1033E00003DA2D23049A6D421370614B0A2703936D
:1033F0001BE00D681A604106F1D52DB2EFE70D68AC
:103400001968081D18602E0601D50D6803E06D06C9
:10341000FBD50D68ADB2564B082703936F2A00D039
:1034200002372300002243331A706368A360002B25
:1034300003DB0422216891432160002D02D1049E08
:10344000002B0CD0049E28003900FFF705FC039BDD
:10345000013E5B5C33702B0005009F42F3D9082FBF
:1034600009D12368DB0706D563682269934202DC31
:103470003023013E3370049B9B1B2361079B21007B
:1034800000930598069B09AAFFF7F4FE431C4CD154
:10349000012040420BB0F0BD45310A70344A03921E
:1034A0001A68216820CA1A60080616D5CB0702D50B
:1034B0002023194321601027002DB2D12023226838
:1034C0009A432260ADE7202209680A432260220065
:1034D000782145321170274AE1E74806E6D5ADB2BA
:1034E000E4E71A680D68101D4969186013682E0614
:1034F00001D5196002E06D06FBD519800023049EFA
:103500002361BBE71A68111D19601668002130009D
:10351000626801F0CBF8002801D0801B606063680E
:1035200023610023049A1370A8E7236932000699E7
:103530000598079DA847431CAAD023689B0715D46C
:10354000099BE0689842A5DA1800A3E7220001234E
:1035500006990598079E1932B047431C98D001354B
:10356000E368099A9B1AAB42F0DCE9E70025F7E72C
:103570003A7900084B7900080EB417B5041E04D040
:103580008369002B01D100F08FFF06AB2000059A64
:10359000A168019302F0B0F81EBC08BC03B0184744
:1035A0000FB40B4B13B51C68002C05D0A369002B7E
:1035B00002D1200000F078FF05AB2000049AA1683A
:1035C000019302F099F816BC08BC04B01847C04635
:1035D000040000200CB400B59DB002910691094989
:1035E0001EAB07910491084904CB059102A90193F0
:1035F00001F04CFF0023029A13701DB008BC02B00A
:103600001847C046FFFFFF7F0802FFFF0EB400B55A
:103610000B499CB01DAB029006900791049109489C
:10362000094904CB0591006802A9019301F02EFF1E
:103630000023029A13701CB008BC03B01847C046A0
:10364000FFFFFF7F040000200802FFFF0023C25C91
:103650000133002AFBD1581E7047F0B506000B69F4
:10366000326987B0002003919A4265DB013B9C00E0
:1036700000930B00143305931B1904933300143388
:1036800002931C19049B27681B6838005D1C2900E5
:103690000193FFF75BFA0190AF4224D30025AC46BB
:1036A0000298059F08CF019A99B251431B0C5343CE
:1036B00049190A0C9B18026889B292B26244521AE4
:1036C00001681D0C090C9BB2CB1A11145B1819145C
:1036D00092B21B041A43049B8C4604C0BB42E1D245
:1036E0002368002B30D03000039901F0CBFA00287A
:1036F00021DB30000024019B039901330193143036
:103700001431036820C99AB21419AAB2A21A1B0C68
:103710002D0C14145B1B1B191C1492B21B041343B5
:1037200008C0049B8B42ECD2009B029A9B00D318EA
:103730001A68002A15D0019807B0F0BD2368002B45
:1037400006D1009B013B0093029B043CA342F5D3AE
:10375000009B3361C7E71A68002A06D1009A013A34
:103760000092029A043B9A42F5D3009B3361E2E750
:10377000F0B59DB002920393029B039C08930994B9
:10378000446A0700259D002C0ED1102000F07AFF1E
:10379000021E786204D1EA21C74BC84802F03EFA03
:1037A000446084600460C4607B6A196800290AD0A0
:1037B0005A68012393404A608B60380000F0D6FFBE
:1037C00000227B6A1A60039B002B20DA01232B6006
:1037D000039B5B005B080993099DB94BB84A2B40DA
:1037E000934217D1B74B249A28031360029B000B16
:1037F000184301D100F0BFFDB348269B0690002B73
:1038000002D0B24B269A136006981DB0F0BD00237B
:103810002B60E1E7089B099C12931394129813996B
:103820000022002302F0FAFE041E09D00123249A8C
:103830001360A74B0693269B002BE5D0A54BE1E731
:103840001AAB01931BAB00933800129A139B01F043
:1038500041FB6E000590760D00D17CE01298139923
:10386000139B9D4A1B031B0B1A4311009B4B18947F
:10387000F61800229A4B03F047FB9A4A9A4BFEF740
:1038800093FE9A4A9A4B02F0F7FE040030000D00B6
:10389000FFF72CF9974A984BFEF786FE02000B00C3
:1038A0002000290002F0E8FE04000D00FFF7E8F810
:1038B0000022029000232000290002F0B5FE00281B
:1038C0000BD00298FFF712F92B00220002F0A6FE9F
:1038D00043425841029B1B1A029301231693029BF9
:1038E000162B0FD812981399DA00844B9B181A687C
:1038F0005B6802F099FE002849D0029B013B0293CD
:10390000002316931A9B9E1B00230A933300013B4E
:103910000D9304D501239B1B0A9300230D93029B57
:10392000002B36DB029A0D9B944663440D930023D3
:1039300015920E93229B0124092B64D8052B02DDDE
:103940000024043B2293229B981E032864D802F093
:1039500041FE293836581A9B1B9A9E18684BF2185C
:10396000202A0FDD40239B1A9D40664B0298F318D6
:10397000D840284303F078FE0123634C013E091927
:10398000189376E7202302989B1A9840F2E7169046
:10399000B8E70A9B029A9B1A0A9353420E9300239C
:1039A0001593C7E700230F93239B0C930793002BDA
:1039B00013DC01231A000C93079323920DE00123DB
:1039C000F1E70023239A0F939446029B63440C93E0
:1039D00001330793002B00DC01230022786A426048
:1039E00004321500143541689D4219D9380000F0A1
:1039F00079FE0690002817D1D5210200434B4900DB
:103A0000CBE60123DEE700230F942293013B0C93C6
:103A1000079300221333D0E701230F93023BF6E70D
:103A2000013141605200DCE77B6A069A1A60079B0D
:103A30000E2B00D9EBE0002C00D1E8E0029B002B1C
:103A400068DD1A000F212D4B0A40D2009B181D681B
:103A50005E68029B1C1102231093029BDB050BD5B1
:103A60002B4B0C401A6A5B6A12981399FEF7A6FA60
:103A70000323089009911093254B1493002C08D12F
:103A8000089809992A003300FEF798FA08900991DE
:103A90005CE001231C420BD0109B280001331093E3
:103AA000149B31001A685B68FEF77EFD05000E006E
:103AB000149B64100833E0E76979000880790008F6
:103AC0000000F07F0F270000657900086879000882
:103AD00038790008397900080000F03F01FCFFFF49
:103AE0000000F83F61436F63A787D23FB3C8608B84
:103AF000288AC63FFB799F501344D33F207B0008A0
:103B00003204000012040000000010FEFE790008DC
:103B1000F87A000802231093029B002B16D012980B
:103B200013995C420F23B64A2340DB00D3181A686E
:103B30005B68FEF739FD0126002308900991B14D1D
:103B40002411002C00D094E0002B9FD1169B002B59
:103B500000D19BE0089C099D002220002900AA4B6F
:103B600002F062FD002800D190E0079B002B00D1FD
:103B70008CE00C9B002B46DD029B002220002900DC
:103B80005E1EA24BFEF710FD109B089009910133B9
:103B900010930C9B1098089C099D1493FEF7A6FFA8
:103BA00022002B00FEF700FD0022994B02F064FD7D
:103BB00010901191109A119B08920993954A119BAC
:103BC0009446634417930993149B002B61D1002200
:103BD00020002900904B03F097F9089A179B0400E6
:103BE0000D0002F035FD002800D0AFE28B4811999E
:103BF000844661440B0020002900089A02F014FD5D
:103C0000002800D09FE2129B139C089309941B9BF1
:103C1000002B00DA72E1029A0E2A00DD6EE1784B89
:103C2000D2009B185C681B680A930B94239B002BA3
:103C300000DBF7E0079B002B00DDF3E000D082E221
:103C40000A980B990022744BFEF7AEFC089A099B68
:103C500002F008FD079E3500002800D059E2069BBF
:103C6000069A0133089331231370029B01330293A8
:103C700054E2344207D0109B013310932A686B68DA
:103C8000FEF792FC3300641008355AE7029E079B4A
:103C900080E7149B0F995A1E594BD2009B181A6843
:103CA0005B68002951D000205D49FEF787F9089A2A
:103CB000099B03F029F9069A069B94461793149BD7
:103CC000109011916344199329002000FEF7D8FE4B
:103CD0001490FEF70BFF02000B002000290003F0F8
:103CE00013F9179B179A01330893149B0400303380
:103CF0001370109A119B0D0002F096FC002875D1EC
:103D000022002B000020404903F0FEF8109A119B7E
:103D100002F08AFC002800D0D2E0199B089A934256
:103D200000D170E7109811990022384BFEF73CFC47
:103D3000364B10901191002220002900FEF734FC30
:103D4000089B04000D001793BEE708980999FEF739
:103D50002BFC069A069B94460893149B1090119195
:103D60006344199329002000FEF78AFE1790FEF79E
:103D7000BDFE02000B002000290003F0C5F8179BD0
:103D8000089A303313701300199A013304000D00A0
:103D9000089393422CD110981199069A149B94463B
:103DA0006344002208931E4B02F066FC02000B00E5
:103DB0002000290002F04CFC002800D080E0109A7E
:103DC000119B0020164903F09FF802000B00200011
:103DD000290002F029FC002800D114E7089B1A00F2
:103DE000013A08921278302AF8D00893029655E0EA
:103DF0000022064BFEF7D8FB04000D00B2E7C046D8
:103E0000207B0008F87A00080000F03F0000244002
:103E100000001C400000C0FC000014400000C07CFA
:103E20000000E03F079B069E013B9B190C93089CFA
:103E3000099D0A9A0B9B20002900FEF7BFF8FEF7A8
:103E40001FFE0790FEF752FE0A9A0B9BFEF7ACFB93
:103E500002000B002000290003F056F83300079AF7
:103E6000013630321A700C9A08969A4239D1020003
:103E70000B0002F001FC0A9A0B9B04000D0002F0FB
:103E8000E7FB00281BD10A9A0B9B2000290002F0B7
:103E9000C5FB002802D0079BDB0710D4380005992A
:103EA00000F064FC0023089A02981370249B0130F0
:103EB0001860269B002B00D1A6E41A60A4E4029EA1
:103EC000089B0893013B1A78392A06D1069A9A4230
:103ED000F7D13022069901360A701A7801321A7029
:103EE00084E70022AA4BFEF75FFB002200230400B8
:103EF0000D0002F093FB00289BD0CFE70F9D0E9E94
:103F00000A9C002D12D0229A012A66DC189A002AF7
:103F10005DD0A04A9B180A9A0121D2180A920D9AE4
:103F20003800D3180D9300F01DFD0500002C0EDDA8
:103F30000D9B002B0BDD0D9A2300944200DD130036
:103F40000A9AE41AD21A0A920D9AD31A0D930E9B6A
:103F5000002B1FD00F9B002B54D0002E11DD290009
:103F60003200380000F0C4FD059A01000500380059
:103F700000F00EFD05991490380000F0F7FB149B3B
:103F800005930E9B9A1BB34204D03800059900F0AC
:103F9000AFFD05900121380000F0E4FC159B060000
:103FA000002B31DD1A000100380000F0A1FD229B3A
:103FB0000600012B2DDD00230E93336903339B0094
:103FC000F318586800F086FC2023181A39E03623CD
:103FD0001A9A0E9E0A9C9B1A9DE7079B5E1E0E9BDB
:103FE000B34207DB9E1B079B0A9C002B93DAE41A63
:103FF000002390E70E9B159AF31AD3180E9615938B
:104000000026F0E70E9AC0E700230E93229B012BB7
:1040100013DC00230E93089B002B0ED1099B1B037E
:104020000BD15D4B099A134207D00A9B01330A93C7
:104030000D9B01330D9301230E93159B0120002B43
:10404000BBD10D9B1F22181803001340104246D00D
:104050000132D21A042A3FDD1C22D31A0A9AE4182C
:10406000D2180A920D9AD3180D930A9B002B05DDE6
:104070001A003800059900F097FD05900D9B002B64
:1040800005DD31001A00380000F08EFD0600169B99
:10409000002B26D03100059800F0F4FD002820DA2E
:1040A000029B0A22013B029338000023059900F08D
:1040B00081FB0F9B0590002B00D166E100232900B6
:1040C0000A22380000F076FB0C9B0500002B47DC31
:1040D000229B022B0DDC43E0042AC6D013001C33C4
:1040E000BCE7079B002B35DC229B022B32DD079BB4
:1040F0000C930C9B002B0CD131000522380000F0F2
:1041000059FB06000100059800F0BCFD002800DD09
:10411000A5E5239BDB430293069B08930024310013
:10412000380000F023FB002D00D1B7E6002C05D0AD
:10413000AC4203D02100380000F018FB2900380001
:1041400000F014FBAAE600263500E2E70296149E72
:10415000350084E50F9B002B00D1CEE0079B0C932C
:10416000002C05DD29002200380000F01DFD0500AF
:104170000E9B2800002B22D03800696800F0B2FAAC
:10418000041E0FD10200054B0549FFF706FBC04690
:1041900000002440330400000000F07FFE79000896
:1041A000EA02000029002B690C319A1C92000C30A5
:1041B00000F087FA01222100380000F0F5FC069B90
:1041C0000C9A0A93013B9B1801222C0005001493C2
:1041D000089B13400F9331000598FFF73EFA030048
:1041E000210030330D900598079300F04BFD2A0015
:1041F0000E903100380000F061FDC3680890109304
:1042000001230C93109B002B04D10100059800F0B2
:1042100039FD0C903800089900F0A8FA0A9B0C9A16
:1042200001330893229B13430F9A13430CD1079B2E
:10423000392B26D00E9B002B02DD0D9B31330793CB
:104240000A9B079A1A706AE70E9B002B04DB229ADE
:1042500013430F9A13431FD10C9B002BF0DD0599DC
:104260000122380000F0A0FC3100059000F00AFDAA
:10427000002803DCE4D1079BDB07E1D5079B392B42
:10428000DBD139230A9A1370089B0893013B1A78F3
:10429000392A68D00132D5E70C9B002B07DD079B3C
:1042A000392BEED0079B0A9A0133137037E70A9B2C
:1042B000079A1A70149B0A9A93423ED000230A224E
:1042C0000599380000F076FA002305900A222100B3
:1042D0003800AC4206D100F06DFA04000500089BDE
:1042E0000A9378E700F066FA2900040000230A2206
:1042F000380000F05FFA0500F1E7079B0C930024FB
:1043000031000598FFF7A9F9069B303018550C9B32
:1043100001340790A34207DD00230A2238000599E3
:1043200000F048FA0590EBE70C9B0120002B00DD24
:1043300018000024069B1B180893059901223800D9
:1043400000F032FC3100059000F09CFC00289BDC62
:1043500002D1079BDB0797D4089B0893013B1A788F
:10436000302AFAD0DBE6069A9A428ED1029B0133BC
:104370000293312399E7094B269A0693084B002AAA
:1043800001D0FFF73FFAFFF73FFA0C9B002BB6DC9A
:10439000229B022B00DDACE6B1E7C0465C79000849
:1043A00064790008002310B5040003604360836053
:1043B000818143661900C2810361436183610822E0
:1043C0005C3000F087F9054B24626362044BA36202
:1043D000044BE362044B236310BDC046A959000897
:1043E000D55900080D5A0008395A000810B502497D
:1043F00000F011F910BDC046A15D0008436E10B574
:10440000DB0705D483899B0502D4806D00F033F966
:10441000002010BD436E10B5DB0705D483899B05D2
:1044200002D4806D00F02DF9002010BD70B5682514
:104430004A1E55430E002900743100F0CFFE041EC1
:1044400008D000212A00016046600C30A06068326C
:1044500000F040F9200070BD10B5024B1868FFF75E
:10446000C5FF10BD707A000810B5024800F003F9CE
:1044700010BDC0462E03002010B5024800F001F91F
:1044800010BDC0462E03002010B5024800F0F3F81E
:1044900010BDC0462F03002010B5024800F0F1F80F
:1044A00010BDC0462F03002013B50400FFF7ECFF3A
:1044B000A369002B02D0FFF7EFFF13BDA364E364F1
:1044C0002365134B134A1B68A2620193A34201D1D7
:1044D0000123A361200000F01FF86060200000F0BD
:1044E0001BF8A060200000F017F800220421E06013
:1044F0006068FFF757FF01220921A068FFF752FF0C
:1045000002221221E068FFF74DFF0123A361D2E7E9
:10451000707A0008ED430008F8B50700FFF7A4FF24
:104520001F4B1E68B369002B02D13000FFF7BCFFA0
:104530004836B4687368013B04D53368002B22D039
:104540003668F6E70C22A55E002D1AD12000154B27
:104550005830E360656600F08AF8FFF78DFF2000B1
:10456000082229002560A560656025616561A56157
:104570005C3000F0AFF86563A563A564E5642000D6
:10458000F8BD6834D7E704213800FFF74FFF041E59
:104590003060D5D1FFF770FF0C233B60EFE7C046DA
:1045A000707A00080100FFFF10B5FFF75DFF034BB5
:1045B0000349186800F014F810BDC046040000203C
:1045C000FD43000810B5044B0449186800F008F8D2
:1045D000FFF752FF10BDC04604000020154400083C
:1045E000F7B54830040000260191A5686768013FCF
:1045F00004D52468002CF8D13000FEBDAB89012B16
:1046000007D90E22AB5E013303D02800019B9847E7
:1046100006436835EBE7F7B5040006000027019173
:1046200048346368A5680093009B013B009304D560
:104630002468002CF5D13800FEBDAB89012B08D9C8
:104640000E22AB5E013304D029003000019B984755
:1046500007436835E8E7F0307047000000487047CE
:1046600058010020004870475801002070477047EB
:1046700070477047704770470120704701207047AE
:104680007047704710B5034B0100186800F0A6FD95
:1046900010BDC0460400002010B5034B010018688F
:1046A00000F030FD10BDC04604000020C9B28218E1
:1046B000904201D10020704703788B42FBD001303B
:1046C000F6E7002310B59A4200D110BDCC5CC4546B
:1046D0000133F8E703008218934200D17047197044
:1046E0000133F9E770B5456A06000C00002D0ED1C4
:1046F0001020FFF7C7FF021E706204D16621194B1C
:10470000194801F08BFA456085600560C560756ADF
:10471000EB68002B13D0736AA200DB689B18186843
:10472000002818D101210D00A5406A1D300092001B
:1047300000F0BCFC00280CD0446085600DE0212214
:104740000421300000F0B2FC736AE860DB68002BE3
:10475000E1D1002070BD02681A6000230361C360CC
:10476000F8E7C04669790008747A000870B5466AAF
:1047700005000C00002E0ED11020FFF783FF021E53
:10478000686204D18A21094B094801F047FA466062
:1047900086600660C660002C07D06B6A6268DB68C2
:1047A00092009B181A6822601C6070BD697900082D
:1047B000747A0008F7B50E0001900C001D0000206F
:1047C0000F6914363368013099B251431B0C5343BF
:1047D00049190D0C5B191D0C89B21B045B1808C626
:1047E0008742EFDC002D22D0A368BB4219DC63684E
:1047F0000198591CFFF776FF061E05D10200B5216E
:104800000C4B0D4801F00AFA210023690C319A1C67
:1048100092000C30FFF755FF21000198FFF7A6FF2B
:1048200034003B1D9B00E3185D607B1C236120006E
:10483000FEBDC046FE790008747A0008F7B5060090
:1048400018000C000830092101931500FDF7CAFA81
:104850000123002183420ADB3000FFF743FF011EE2
:1048600008D10200194B1A48CE3101F0D7F95B008C
:104870000131EFE7089B436101230361092D18DD36
:10488000230009331F00009364193B780A2230008B
:10489000303BFFF78FFF01370100A742F5D12C0015
:1048A000009B083C1C192F00019B9F4204DB080061
:1048B000FEBD09250A34F6E7631BDB5D0A223000E2
:1048C000303BFFF777FF01370100EDE7FE79000885
:1048D000747A00080300020C0020824201D11B04FC
:1048E00010301A0E01D108301B021A0F01D104300A
:1048F0001B019A0F01D102309B00002B03DB01301A
:104900005B0000D4202070470368020007211800D4
:1049100008400B420DD0063900200B4205D1023071
:10492000034203D0CB400800136070479B0813601C
:10493000FBE799B2002901D110201B0CD9B2002944
:1049400001D108301B0A190701D104301B0999074E
:1049500001D102309B08D907E9D401305B08E6D1C8
:104960002020E2E710B50C000121FFF7BBFE002874
:1049700006D1A0210200044B0448490001F04EF981
:1049800001234461036110BDFE790008747A0008B8
:10499000F0B50B69140012690D0089B0934201DA79
:1049A00025000C002F6926696968BB190293AB6862
:1049B000BA19934200DA0131FFF794FE0190002802
:1049C00006D15E210200484B4848FF3101F026F92C
:1049D000019B002214339C46BB199B006344039344
:1049E000634603998B422CD32B0022001433BF0063
:1049F00014320693B600DB1904939319079304232A
:104A000005932B00049915330092994205D34B1B53
:104A1000153B9B0801339B000593079B009A9A4224
:104A200011D3029B002B06DD039B043B03931B6801
:104A30000093002B53D0019B029A18001A6109B011
:104A4000F0BD04C3CDE7009B1B6898B200281BD0C3
:104A500067460024069E02CE3A688BB2434392B268
:104A60009B181B190C0C44433A68110C61181C0C60
:104A700009190C0C9BB209040B4308C7049BB342F1
:104A8000E9D86346059A9C50009B1B681E0C20D0F9
:104A900063462C00604600271B68143422689BB2D2
:104AA00091B271430268120C8918CF1939040B4373
:104AB000036002CC4368090C71439BB23F0CCB18D6
:104AC000049ADB191F0C0430A242E7D8624605990C
:104AD0005350009B0433009304239C449DE7029BA6
:104AE000013B02939DE7C046FE790008747A0008F6
:104AF000F7B50323150007000E001A401D4208D029
:104B00002549013A9200525800233100FFF752FE26
:104B10000600AD103DD07C6A002C0FD11020FFF7AD
:104B2000B1FD021E786205D1D7211C4B1C484900FB
:104B300001F074F8446084600460C4607B6A9C681F
:104B40000193002C08D138001649FFF70BFF019B99
:104B5000040098600023036001231D420AD0310045
:104B600022003800FFF714FF310001903800FFF7F2
:104B7000FDFD019E6D100CD02068002807D1220099
:104B800021003800FFF704FF0023206003600400C9
:104B9000E2E73000FEBDC046107C000869790008DD
:104BA000747A000871020000F0B50C001700236948
:104BB000551187B0EB180293013301934968A3683C
:104BC0000490019A934210DB0498FFF78BFD0023B9
:104BD000020006001900143298420CD1DA210200BA
:104BE000264B2748FF3101F019F801315B00E8E757
:104BF000980011500133AB42FADBEB43DB171D4049
:104C00001F2123003800AD0055192269143392008A
:104C1000084084469A180F422AD00131091A05919A
:104C20000021039567461868B8400143039802C005
:104C300002CB03900598C1409A42F3D8200015306A
:104C40000423824204D3131B153B9B0801339B00B2
:104C5000E950002902D0029B02330193019B049882
:104C6000013B21003361FFF781FD300007B0F0BD4B
:104C700002CB02C59A42FBD8F0E7C046FE79000895
:104C8000747A000802690B6930B50400D01A9A42A0
:104C90000DD19B0014341431E218C918043A0439B8
:104CA00015680B689D4203D001209D4203D330BD9F
:104CB0009442F3D3FBE74042F9E70000F0B50E0061
:104CC00007001100300087B01400FFF7DBFF051E5E
:104CD00010D101003800FFF705FD021E04D1404B42
:104CE0004049414800F09AFF0123456103611000EB
:104CF00007B0F0BD01230193002804DB230034003A
:104D00001E000023019338006168FFF7EBFC021ED0
:104D100003D19021324B8900E3E7019B0027C36058
:104D2000206914340194019B84001B193400029300
:104D300033691434990063180393130014339C46A9
:104D40000593019B0493049B02CC20CB0493ABB24C
:104D5000DF198BB2FB1A090C2D0C6D1A19146D1882
:104D600061462F149BB22D042B4308C1039B8C4634
:104D7000A342E8D83100039C153104238C4204D3AC
:104D8000A31B153B9B0801339B000199CC18059987
:104D90002600CB189C4602998E4210D3029EE11E3B
:104DA00000258E4204D3310003310C1BA408A5005A
:104DB0005B19043B196800290FD0106197E702CEF8
:104DC0008DB2ED190F0C291479180F14ADB2090426
:104DD0000D43614620C18C46DDE70138E9E7C04656
:104DE000FE79000832020000747A00080F4B194067
:104DF0000F4BC918002904DD00220B001000190018
:104E000070474942002200230915132904DC802041
:104E1000000308410300F1E7143901201E2902DCD8
:104E200080200006C8400200E8E7C0460000F07F8E
:104E30000000C0FCF7B50600036914369B00F318A8
:104E40001D1F2C680F0020000193FFF743FD202356
:104E50001B1A1F493B600A2816DC0B2327001B1A6C
:104E6000DF4039439C460B000021AE4202D201993B
:104E700008390968153084406046C1400C4322005F
:104E80001000190003B0F0BD0027AE4202D2019D10
:104E9000083D2F680B235B429C4684440B2813D0AB
:104EA000634620209C40C01A3B00C3401C43214362
:104EB0000B000021B54201D9043D29686446C14078
:104EC000A7400F433A00DBE721430B00FAE7C04657
:104ED0000000F03FF7B5012114001E00089FFFF706
:104EE00001FC051E05D10200264B2749274800F08A
:104EF00095FE330376001B0B760D24D10193002C15
:104F000027D068460094FFF7FFFC009C00281ED0C5
:104F1000019B20211A00091A8A40C34022436A617A
:104F20000193019CAC61631E9C4101342C61002EF5
:104F300018D0174BF61835233618181A099B3E60FF
:104F400018602800FEBD802252031343D6E76C612F
:104F5000E7E701A8FFF7D8FC0124019B2C616B61F6
:104F60002030E4E70B4BC0180B4B3860E3189B0074
:104F7000EB185869FFF7AEFC6401099B241A1C600A
:104F8000DFE7C046FE7900080A030000747A0008D3
:104F9000CDFBFFFFCEFBFFFFFFFFFF3FF0B587B06C
:104FA0000F0004A90600FFF745FF00900191009C47
:104FB000019D380005A9FFF73DFF02900391029A79
:104FC000039B31693869059E081A04994001891BC1
:104FD00041180805002907DD01994518200029001E
:104FE000FCF7ECFF07B0F0BD03990B1AF6E70000E1
:104FF00010B50400172805DC074CC00024182068F1
:10500000616810BD002005490022054B013CFDF7F9
:10501000CBFA002CF8D1F4E7207B00080000F03F29
:105020000000244070B514000500013913694911CE
:105030000131890014349B004118E318A3420DD8B4
:105040001400113400259C4203D89B1A113B9B0885
:105050009D0000234019814203D870BD40CC40C55B
:10506000ECE708C0F7E70200006910B514324B11F5
:10507000984213DB0CDD1F2408002040214207D09A
:1050800099008C582100C140814001208C4204D1FC
:105090009B00D318934203D8002010BD0300F7E70C
:1050A000043B19680029F5D00120F6E770B5130C10
:1050B0000D0C1ED1002B0CD189B294B24C432100AF
:1050C00000F08CF8051E1BD022000021FFF702FB28
:1050D00016E01D1C0B1C92B289B29CB25143ABB2BC
:1050E00063430C0C1C19220C07D1240489B20C4315
:1050F000E5E7002B01D1131CEDE70C23002503602D
:10510000280070BD70B50500002910D00C1F236861
:10511000002B00DAE418280001F0FEF81D4A13689D
:10512000002B05D163601460280001F0FDF870BD0C
:10513000A34208D9216860188342F3D118685B68DC
:1051400041182160EEE71A005B68002B01D0A342F2
:10515000F9D911685018A0420BD1206809185018CD
:1051600011608342E0D118685B6841181160536098
:10517000DAE7A04202D90C232B60D5E7216860183A
:10518000834203D118685B684118216063605460F2
:10519000CAE7C0463403002070B50F4E0D003168D9
:1051A0000400002902D100F0EDFB3060290020004E
:1051B00000F0E8FB431C0AD00323C51C9D43A84212
:1051C00007D0291A200000F0DDFB431C01D1012586
:1051D0006D42280070BDC04638030020F7B5032299
:1051E000CB1C9343083306001F000C2B32D20C2734
:1051F000B94231D8300001F08FF8324D2B681C00D5
:10520000002C2ED139003000FFF7C6FF0400431CEC
:105210001ED12C682500002D4AD123682900E318EF
:105220003000019300F0AEFB019B834243D1236821
:105230000337FF1A03239F4308370C2F00D20C2794
:1052400039003000FFF7A8FF431C34D02368DF1972
:10525000276013E0002BCBDA0C23002533602800F5
:10526000FEBD2268D11B20D40B2917D9E219276073
:10527000A34211D12A606368116053603000250099
:1052800001F052F807220B35231D9543EA1A9D427F
:10529000E5D05B1BA350E2E75A60ECE76268A342EB
:1052A00001D12A60EAE75A60E8E723006468A7E7CB
:1052B0002C006D68AFE70C233000336001F034F848
:1052C000CDE7C04634030020F0B58E6885B00700F6
:1052D0000C00039201939E423CD890238A89DB0004
:1052E0001A4234D00969236860695B1A0293032368
:1052F0004343DD0FED18019B029801331B186D101D
:10530000AB4200D91D00530532D529003800FFF704
:1053100065FF061E09D10C233B6040230120A289B2
:1053200040421343A38105B0F0BD029A2169FFF703
:10533000C8F9A389144A1A4080231343A381029B0E
:105340002661F61826606561019EED1AA560019B35
:105350009E4200D9019E32000399206800F0C8FFE8
:10536000A36800209B1BA36023689E192660DAE7D0
:105370002A00380000F0E0FF061EE0D13800216965
:10538000FFF7C0FEC7E7C0467FFBFFFFF0B593689D
:1053900087B00C0017000290002B65D013680393B0
:1053A000002305930193019B002B2DD0A6689E42FC
:1053B00049D89023A289DB001A4241D003202169F9
:1053C00023685B1A049363694343DD0FED18049B64
:1053D000019801331B186D10AB4200D91D00530515
:1053E00046D529000298FFF7F9FE061E16D10C23B8
:1053F000029A012013604023A28940421343A381F3
:105400000023BB607B6031E0039B1B680593039B1B
:105410005B680193039B08330393C4E7049A2169F3
:10542000FFF74FF9A389184A1A4080231343A38139
:10543000049B2661F61826606561019EED1AA56041
:10544000019B9E4200D9019E32000599206800F020
:105450004FFFA368019A9B1BA36023689E19BB683A
:1054600026609B1ABB60CFD10020786007B0F0BDEA
:105470002A00029800F060FF061ED9D12169029827
:10548000FFF740FEB3E7C0467FFBFFFFF0B5A1B0DA
:1054900003901D008B890F0016001B0611D50B69A8
:1054A000002B0ED14021FFF799FE386038610028AB
:1054B00005D10C23039A0138136021B0F0BD4023BD
:1054C0007B61002308AC6361203363761033A376DD
:1054D000079535002B78002B01D0252B47D1AB1B2E
:1054E0000593B5420CD0320039000398FFF7ECFE6B
:1054F000431C00D1AEE06269059B9446634463613E
:105500002B78002B00D1A5E00122002352426260DB
:1055100004A9543252186E1C2360E360A360137018
:10552000A365052231785448FFF7C0F8751C0028A0
:105530001FD12268D30604D5532304A95B18202168
:105540001970130704D5532304A95B182B21197074
:1055500033782A2B16D0350000210A20E3682A78F8
:105560006E1C303A092A4ED9002911D117E00135B5
:10557000B0E7414B2268C01A0123834013432E0039
:105580002360CEE7079B191D1B680791002B01DBE9
:105590000B9304E05B42E3600223134323602B7808
:1055A0002E2B0AD16B782A2B35D1079B02351A1D79
:1055B0001B680792002B2BDB0993304E032230002F
:1055C0002978FFF773F8002806D04023801B83401A
:1055D00022680135134323602978062228486E1C6F
:1055E0002176FFF763F800283CD0264B002B25D10D
:1055F0000722079B07339343083307936369049A91
:105600009B18636165E74343350001219B18A6E7BA
:1056100001235B42D0E700230A201A0001356360B2
:1056200029786E1C3039092903D9002BC5D009927D
:10563000C3E74243350001235218F1E707AB00935B
:105640003A002100104B0398FDF7D2FB0490049B15
:105650000133D3D1BB890D985B0600D42DE701201F
:1056600040422AE707AB00933A002100064B03981B
:10567000FDF770FEEAE7C0461C7C0008227C0008AB
:10568000267C0008F12D0008C9520008936810B567
:10569000013B9360002B04DA9469A34207DB0A29DB
:1056A00005D01368581C10601970080010BD00F078
:1056B000C9F90100F9E7F8B506000F001400D51884
:1056C000AC4201D1002007E021783A003000FFF71A
:1056D000DDFF0134431CF3D1F8BD936810B514000D
:1056E000002B02D11800536010BD00F0CBFB00234B
:1056F000A3606360F8E70000F0B5A1B006000C00FD
:105700001F000392002804D08369002B01D1FEF70B
:10571000CBFE8E4B9C421CD17468636EDB0705D4B4
:10572000A3899B0502D4A06DFEF7A5FFA3891B07E3
:1057300002D52369002B1DD12100300000F0F6F9BD
:10574000002817D0636EDB070DD50120404221B041
:10575000F0BD7F4B9C4201D1B468DEE77D4B9C429B
:10576000DBD1F468D9E7A3899B05EED4A06DFEF7E1
:1057700088FFEAE7002308AD6B6120336B761033B6
:10578000AB760797039F3B78002B01D0252B4ED19A
:10579000039BFB1A0593039B9F420DD0059B2100A1
:1057A0003000039AFFF787FF431C00D1B5E06A6918
:1057B000059B944663446B613B78002B00D1ACE0C1
:1057C00001227B1C0393002352426A6004A95432D5
:1057D00052182B60EB60AB601370AB65039B052226
:1057E00019785D48FEF762FF039B5F1C002820D1FB
:1057F0002A68D30604D5532304A95B182021197005
:10580000130704D5532304A95B182B211970039B9C
:105810001B782A2B16D00021EB68039F3A78781C5E
:10582000303A8446092A4FD9002911D117E00137AF
:10583000A9E7494B2A68C01A0123834013432B6010
:105840000397CBE7079B191D1B680791002B01DB12
:105850000B9304E05B42EB60022313432B603B7825
:105860002E2B0AD17B782A2B37D1079B02371A1DA2
:105870001B680792002B2DDB0993032239783748E8
:10588000FEF714FF002807D0344B2A68C01A4023C3
:105890008340134301372B6039787B1C0622304844
:1058A00003932976FEF702FF002845D02D4B002BED
:1058B00027D10722079B07339343083307936B696C
:1058C000049A9B186B615DE70A214B4367469B185E
:1058D0000939A3E701235B42CEE700231A00013711
:1058E0006B603978781C30398446092903D9002B3C
:1058F000C3D00992C1E70A235A4367465218093BAD
:10590000EFE707AB0093220029003000164BFDF7AC
:105910006FFA0490049B0133D1D1636EDB0705D489
:10592000A3899B0502D4A06DFEF7ABFEA3895B069D
:1059300000D50AE70D980AE707AB0093220029007B
:105940003000094BFDF706FDE3E7C046307A00085A
:10595000507A0008107A00081C7C0008227C00089D
:10596000267C0008F12D0008B756000810B513007A
:105970000A00010002480068FFF7BEFE10BDC046E5
:1059800004000020002370B5064D040008002B60C1
:10599000FCF790F9431C03D12B68002B00D0236047
:1059A00070BDC0462403002070B50C000E25495F71
:1059B00000F0F2FC002803DB636D1B18636570BD0B
:1059C000A389024A1340A381F9E7C046FFEFFFFF16
:1059D00000207047F8B51F008B8905000C001600E9
:1059E000DB0505D50E23C95E0022022300F0E4FB8F
:1059F000A389054A28001340A38132000E23E15EEB
:105A00003B0000F07FF8F8BDFFEFFFFF70B50C0022
:105A10000E25495F00F0D0FBA389421C03D1054A43
:105A20001340A38170BD802252011343A38160659E
:105A3000F8E7C046FFEFFFFF10B50E23C95E00F088
:105A400011F910BDF8B505000E001400002804D0AF
:105A50008369002B01D1FEF727FD224B9C422ED1FA
:105A60006C68A369A360A3891B0732D52369002B47
:105A70002FD023682269F7B2981A6369F6B283427D
:105A800005DC2100280000F08BF9002827D1A3684D
:105A90000130013BA36023685A1C22601F706369B8
:105AA000834204D0A389DB0707D50A2E05D1210044
:105AB000280000F075F9002811D13000F8BD0A4B1C
:105AC0009C4201D1AC68CCE7084B9C42C9D1EC6840
:105AD000C7E72100280000F029F80028C9D00126D6
