:020000040800F2
:1000000000200020B9000008152400082924000859
:1000100000000000000000000000000000000000E0
:10002000000000000000000000000000152400088F
:10003000000000000000000015240008152400083E
:1000400015240008152400081524000815240008AC
:10005000152400081524000815240008152400089C
:1000600000000000152400081524000815240008CD
:1000700015240008152400080000000015240008BD
:10008000000000001524000800000000000000002F
:100090006906000800000000950600081524000805
:1000A000152400081524000815240008A9180008C4
:1000B0002D1F00081524000802F028F902F0EAF8C4
:1000C000E1235B02180001F047FB62B6C04600F076
:1000D000D2FC024B180001F0AFFCFEE780AA00083A
:1000E00080B584B000AF786039607B685B00013315
:1000F00001229A401300FB607B685B0001229A405A
:100100001300BB60A023DB051A68B968FB680B43CA
:10011000D943A023DB050A401A603B68002B12D1AB
:10012000A023DB05DA68BB68D943A023DB050A40BE
:10013000DA60A023DB05DA68FB68D943A023DB057E
:100140000A40DA6027E03B68012B11D1A023DB05D0
:10015000D968A023DB05BA680A43DA60A023DB056F
:10016000DA68FB68D943A023DB050A40DA6012E0B5
:100170003B68022B0FD1A023DB05D968A023DB0548
:10018000BA680A43DA60A023DB05D968A023DB053F
:10019000FA680A43DA60C046BD4604B080BD80B547
:1001A00088B000AFF860B9607A600122BB689A40FD
:1001B0001E203B181A80BB685B00013301229A4065
:1001C0001300BB61BB685B0001229A4013007B6196
:1001D000FB68002B1CD1A023DB051B68B9697A6979
:1001E0000A43D2431A401100A023DB057A690A436F
:1001F0001A607B68002B27D1A023DB055A683B18C7
:100200001B88DB431900A023DB050A405A601BE072
:10021000FB68012B18D10E4B1B68B9697A690A4338
:10022000D2431A4011000A4B7A690A431A607B686C
:10023000002B09D1064B5A681E23FB181B88DB4391
:100240001900034B0A405A60C046BD4608B080BD45
:100250000004005080B500AF694BDA6A684B012199
:100260000A43DA62664BDA6A654B02210A43DA62B4
:10027000002200210020FFF792FF00220121002030
:10028000FFF78DFF002202210020FFF788FF0022E8
:1002900003210020FFF783FF002204210020FFF745
:1002A0007EFF002205210020FFF779FF00220721B1
:1002B0000020FFF774FF002203210120FFF76FFFEA
:1002C000002204210120FFF76AFFA023DB055A6901
:1002D000A023DB0580210A435A614A4B5A69494BE6
:1002E00010210A435A6101210820FFF7F9FE01217C
:1002F0000B20FFF7F5FE01210C20FFF7F1FEA023F4
:10030000DB05414A9A60A023DB051B683F4A1A407F
:10031000A023DB058021C9040A431A60A023DB0562
:100320005A69A023DB05802189010A435A61A02371
:10033000DB051A68A023DB0535490A401A60A023B3
:10034000DB05DA68A023DB05802149020A43DA6075
:10035000A023DB05DA68A023DB052E490A40DA601A
:10036000284B1A68274B0C210A431A60254B1A6840
:10037000244B03210A431A60A023DB051A68A0233B
:10038000DB05C02189010A431A601D4B5A6B1C4BC7
:1003900004210A435A63204B1A681F4B80214903EA
:1003A0000A431A601D4B1A681C4B10210A431A603D
:1003B0001A4BDA68194B01210A43DA60104B5A6B69
:1003C0000F4B20210A435A63134B1A68124B8021AA
:1003D000C9030A431A60124BFA22D201DA62104BA7
:1003E0001A680F4B10210A431A600D4BDA680C4B48
:1003F00001210A43DA6062B6C046C046BD4680BDF0
:1004000000100240000400500000FFFFFFFFFFF358
:10041000FFFFFCFFFFFFFDFF00E100E000080140DF
:100420000014014080B582B000AF7860796805485B
:1004300002F0DCF903001A00034BDA62C046BD4645
:1004400002B080BD0048E8010008014080B582B0DC
:1004500000AF0200FB1D1A70FB1D1B78022B05D09C
:1004600026DC002B16D0012B0DD021E0124B1A6890
:10047000114B01214A401A60104B5A690F4B082159
:100480008A435A6113E00C4B1A680B4B01210A4353
:100490001A600CE0084B1A68074B01218A431A6066
:1004A000064B5A69054B08218A435A61C046C0462B
:1004B000C046BD4602B080BD0008014000040050A7
:1004C00090B583B000AF78607B68134A934206DC36
:1004D0006420FFF7A7FF114B114A1A6017E07B68F1
:1004E000104C1A1913001B019B1A5B002D33FF33AC
:1004F0001800FFF797FF7B681A1913001B079B1A58
:100500009B009B1A9B00064A9A18044B1A60C0462F
:10051000BD4603B090BDC0468B1400000000002013
:10052000B80B000074EBFFFF80B58CB000AF7860B3
:10053000A023DB055A69A023DB0510490A405A6154
:100540000A2000F063FE7B68180001F0B7FD082365
:10055000FB182721180001F0EBFDA023DB055A69E9
:10056000A023DB05802189010A435A610A2000F09B
:100570004DFEC046BD460CB080BDC046FFDFFFFF4C
:1005800080B500AFA023DB055A69A023DB05104925
:100590000A405A610A2000F039FE0E4B180001F0A3
:1005A0008DFD0A2000F032FEA023DB055A69A0234E
:1005B000DB05802189010A435A6101E001F0ABFDAE
:1005C00001F0FCFD031EF9DCC046C046BD4680BDFF
:1005D000FFDFFFFF8CA8000880B584B000AF0200E9
:1005E0003960FB1D1A70FB1D1B78072B18D8FB1DEB
:1005F0001B780833DBB2DB00DBB2180000F01FFF12
:100600000023FB6009E0FB683A68D3181B781800E8
:1006100000F0FBFEFB680133FB60FB68072BF2DD9B
:10062000C046BD4604B080BD80B500AF0C4B012272
:100630000121180000F042FF96235B00180000F033
:10064000E5FD084B01220221180000F037FF962338
:100650009B00180000F0DAFDC046BD4680BDC046D4
:100660009CA80008A8A8000880B500AF074B1A692D
:10067000064B01218A431A61054B5A69044B082134
:100680004A405A61C046BD4680BDC0460008014090
:100690000004005080B500AF1C4B1A691B4B0121B0
:1006A0008A431A611A4B1B685A1C194B1A60194B62
:1006B0001B685A1C174B1A60174B1B685A1C164BA9
:1006C0001A60154B1B68154A934206D1144B1B68E0
:1006D000002B02D0124B00221A600D4B1B68642BBA
:1006E00003DC0120FFF7B2FE0CE0094B1A680D4B4A
:1006F0001B689A4203DA0020FFF7A8FE02E0044BD1
:1007000000221A60C046BD4680BDC04600140140AC
:10071000D8010020DC010020E001002010270000AB
:10072000380200200000002080B582B000AF786061
:100730007B68294A93420ADD7B68284A934206DC9B
:10074000274B1B780133DAB2254B1A703FE07A68E9
:10075000B9235B009A420ADD7B681F4A934206DC9C
:100760001F4B5B780133DAB21D4B5A702FE07A6869
:10077000AD235B009A420BDB7A68B9235B009A4297
:1007800006DC174B9B780133DAB2154B9A701EE0EA
:100790007A6896235B009A420BDB7A68AC235B0095
:1007A0009A4206DC0E4B1B790133DAB20C4B1A71FC
:1007B0000DE07B68692B0BDD7A6896235B009A421B
:1007C00006DA074BDB780133DAB2054BDA70C04644
:1007D000C046BD4602B080BD26020000ED0200000A
:1007E0006402002090B583B000AFFB1D00221A7098
:1007F000BB1D00221A7088E0A023DB051A69802344
:100800005B0113400AD1C046A023DB051A6980238F
:100810005B011340F8D0FB1D01221A70A023DB05F9
:100820001A6980231B01134015D1C046A023DB05A4
:100830001A6980231B011340F8D0BB1D1A78BB1D19
:1008400001321A70BC1DBB1D1B780321180001F07A
:10085000C9FF0B002370BB1D1B78022B3FD053DC5C
:10086000002B02D0012B1DD04EE02C4B1B781A0020
:100870002B492C4B180004F0E5FC2A4B01220121E6
:10088000180000F01BFE254B5B781A002649254B0B
:10089000180004F0D7FC234B01220221180000F0BD
:1008A0000DFE32E01D4B9B781A0020491D4B1800AD
:1008B00004F0C8FC1B4B01220121180000F0FEFDD2
:1008C000164BDB781A001A49164B180004F0BAFCD4
:1008D000144B01220221180000F0F0FD15E00F4B2F
:1008E0001B791A0013490F4B180004F0ABFC0D4B99
:1008F00001220121180000F0E1FD0F4B012202212D
:10090000180000F0DBFD00E0C046FB1D1B78002B4B
:1009100000D171E7C046BD4603B090BD640200201F
:10092000B8A8000840020020C4A80008D0A8000809
:10093000DCA80008E8A80008F4A80008B0B588B052
:1009400000AF786039600023FB610023BB610023A6
:100950007B6111E07B699B007A68D3181B681800E3
:1009600002F09EFD031C191CF86902F065F8031CD7
:10097000FB617B6901337B617A693B689A42E9DB01
:10098000386802F08DFD031C191CF86902F0F2F9B9
:10099000031CFB6000233B612BE03B699B007A68F2
:1009A000D3181B68180002F07BFD031CF968181CA3
:1009B00002F0A8FB031C181C03F0C4FE00228023D5
:1009C000DB0508F01FFA04000D00B86903F0BAFE59
:1009D00002000B002000290002F0B0FD02000B0015
:1009E0001000190003F0F6FE031CBB613B690133E4
:1009F0003B613A693B689A42CFDB386802F050FDB0
:100A0000031C191CB86902F0B5F9031C181CBD467B
:100A100008B0B0BD80B584B000AF78603960002305
:100A2000FB600023BB6011E0BB689B007A68D318B1
:100A30001B68180002F034FD031C191CF86801F053
:100A4000FBFF031CFB60BB680133BB60BA683B68FB
:100A50009A42E9DB386802F023FD031C191CF86890
:100A600002F088F9031C181C02F0FAFC03001800BD
:100A7000BD4604B080BDF0B5DE4657464E464546FD
:100A8000E0B5B5B00AAF0023A422BA181360002362
:100A90008022BA1813600023FB670023BB67002382
:100AA0007B671023FB18180064231A00002103F051
:100AB00037FF0023FB60A323FB1800221A700023DA
:100AC0009822BA18136000239C22BA1813603B1DA9
:100AD000D54A03CA03C3FFF7BDFB00F0CAFC00F010
:100AE0002BFD3B1D19000020FFF776FD96239B018F
:100AF000180001F075F901F07FF8CC4B01220121BB
:100B0000180000F0DBFCCA4B01220221180000F0A3
:100B1000D5FCFA239B00180000F078FBFFF730FDAE
:100B2000C44B1800FFF700FDC34B1800FFF7FCFC97
:100B3000C24B1800FFF7F8FCC14B1800FFF7F4FC9C
:100B4000C04B1800FFF7F0FCBF4B1800FFF7ECFCA0
:100B5000BE4B1800FFF7E8FCBD4B1800FFF7E4FCA4
:100B6000BC4B1B68002B00D18DE0BA4B1B68BA4907
:100B7000BA4800930023002204F064FBB84B1A68C3
:100B8000B74B01218A431A60B64B0122012118009C
:100B900000F094FCBA6FB449B44B180004F052FB57
:100BA000B24B01220221180000F088FCA023DB05D3
:100BB0001A6980235B0013401DD1AD49A748A623C5
:100BC000A12204F03FFB0FE0A24B00221A6021207B
:100BD00001F092FA052000F019FBA04B180001F07B
:100BE0006DFA322000F012FBA023DB051A69802386
:100BF0005B001340E8D0FB6F002B27D1BB6F052BA8
:100C000024D1944B00221A609A4B5A69994B1021B7
:100C10008A435A61642000F0F9FA964B5A69954B61
:100C200010210A435A61944B01220121180000F05F
:100C300045FC924B01220221180000F03FFC904B32
:100C400000221A608F4B180000F0E0FA8C4B1A68F3
:100C5000BB6F9A4200DBABE1A023DB055A69A023FE
:100C6000DB0580218A435A61642000F0CFFAA0237B
:100C7000DB055A69A023DB0580210A435A61BA6F5C
:100C80007F4B1A6094E1764B1A68754B01210A4339
:100C90001A6080235B00180000F09EFC030094247F
:100CA0003A1913603B19186803F01CFD764A774B1C
:100CB00003F076FA02000B00100019000022744BBA
:100CC00003F06EFA02000B00100019000022714BB5
:100CD00002F070FF02000B001000190003F0CCFCC2
:100CE000030090257A19136080239B00180000F000
:100CF00073FC03003A1913603B19186803F0F2FC07
:100D0000614A624B03F04CFA02000B00100019001C
:100D100000225F4B03F044FA02000B0010001900A0
:100D200000225C4B02F046FF02000B00100019008D
:100D300003F0A2FC03008C22BA181360402000F0DC
:100D40004BFC03003A1913603B19186803F0CAFC06
:100D50004D4A4E4B03F024FA02000B00100019001C
:100D600000224B4B03F01CFA02000B00100019008C
:100D70000022484B02F01EFF02000B001000190079
:100D800003F07AFC030088243A1913603B191B68AE
:100D9000A73B642253438521180001F027FD03007F
:100DA0003A1913603B191B68002B1DDC7B1918686E
:100DB00003F098FC0022364B02F0FCFE02000B0010
:100DC00035492A4804F03EFA284B01220121180037
:100DD00000F074FB8C2000F032FB002000F015FBCB
:100DE000002000F012FB75E088257B191B68642B3E
:100DF00056DD9023FB18186803F074FC0022244B86
:100E000002F0D8FE02000B00244C1848791909683A
:100E10000091210004F016FA144B01220121180060
:100E200000F04CFB56E0C04678AA0008F8A800087D
:100E30000CA9000820A900082CA9000838A900085E
:100E400044A9000850A900085CA9000868A9000886
:100E500074A900083C02002084A90008E4010020D5
:100E60000014014094A90008A8A90008400200202D
:100E7000BCA90008000400509CA80008CCA90008E8
:100E800058020020701700006666666666660A40B3
:100E9000000059400000B040D8A90008E8A90008A7
:100EA0009023FB18186803F01DFC0022AE4B02F0E3
:100EB00081FE02000B00AD4CAD488821791809680D
:100EC0000091210004F0BEF9A94B01220121180074
:100ED00000F0F4FA8C23FB18186803F003FC0022DE
:100EE000A14B02F067FE02000B00A249A04804F0EB
:100EF000A9F99F4B01220221180000F0DFFAA0237C
:100F0000DB051A6980235B0013401FD19A4B002236
:100F10001A60C046A023DB051A6980235B001340DA
:100F2000F8D0954B1A68FA239B009A4206DA934B45
:100F300001221A60924B00221A6007E0FFF774FB4F
:100F4000904B01221A60904B00221A60A023DB050F
:100F50001A6980235B01134009D1C046A023DB0539
:100F60001A6980235B011340F8D0FFF73BFCA023F4
:100F7000DB051A6980231B01134007D1C046A0235B
:100F8000DB051A6980231B011340F8D07B4B1A68DC
:100F90007C4B1B688C2179180D68902179180C689E
:100FA0007A497B48019300922B00220004F04AF911
:100FB000212001F0A1F80A2000F028F9744B180054
:100FC00001F07CF8402001F097F80023A422BA1821
:100FD000136001F0F3F80300132B0FDCA422BB18FD
:100FE0001B680133B9180B60BB181A68FA239B0001
:100FF0009A4205DC642000F0D9F8EAE7C04600E038
:10100000C04601F0DBF80300132B66DD604B4F2177
:10101000180001F08DF85E4B180004F0D1F90300C0
:10102000142B53D17823FC187C23FA1859495848BB
:10103000594B0493594B03930C23FB1802937423CD
:10104000FB1801938023FB180093230004F01AF986
:10105000A3243B191B781921180001F0C3FB0B00D6
:10106000DBB21A00796F10203B189200D1503B1967
:101070001A783B1901321A7004003B181921180024
:10108000FFF75CFC031C8422B9180B604449BB18B1
:10109000186801F0A9FC031E26D09C257B191B684B
:1010A0009826BA1913603B1919211800FFF7B2FCF2
:1010B00003007A1913607B191A68BB191B68D31ACD
:1010C0001800FFF731FB0FE001F025F801F076F88A
:1010D000031EF9D108E001F01EF801F06FF8031EBD
:1010E000F9D1264B00221A608023FA181668FB6893
:1010F000181C03F027FB02000B002A4909788C46D4
:101100002849497888462749897889462549C978F0
:101110008A46244909798B46204908681E4909688E
:10112000214D1B4C08910790594606915146059157
:101130004946049141460391614602910092019310
:1011400032002900200004F07DF8114B180000F057
:10115000A7FD8023FB181B681800FFF7B1F91E20BC
:1011600000F054F8FCE4C04600005940FCA9000817
:101170004002002010AA0008DC01002038020020F4
:10118000E00100203C0200205802002018AA0008BC
:10119000E401002030AA0008700200206C02002048
:1011A00000803B456402002054AA000880B582B04C
:1011B00000AF0200FB1D1A70FB1D1B7819001048C0
:1011C00001F014FB030019000E4801F00FFB0300AF
:1011D0005A1E0D4B5A600C4B00229A600A4B052296
:1011E0001A60C046084B1A6880235B021340F9D08E
:1011F000054B00221A60C046BD4602B080BDC04605
:1012000040420F000048E80110E000E080B584B0E3
:1012100000AF78600023FB6015E00B23FB18002271
:101220001A7008E0FA20FFF7C1FF0B217B181A782B
:101230007B1801321A700B23FB181B78032BF1D992
:10124000FB680133FB60FA687B689A42E5D3C046CD
:10125000C046BD4604B080BD80B500AFA023DB050D
:101260005A69A023DB0502210A435A612820FFF7AF
:101270009DFFA023DB055A69A023DB0502218A43D9
:101280005A61C046BD4680BD80B582B000AF020045
:10129000FB1D1A70FB1D1B785BB2002B08DAA02324
:1012A000DB055A69A023DB0520210A435A6107E0C8
:1012B000A023DB055A69A023DB0520218A435A615C
:1012C000FB1D1B784022134008D0A023DB055A6980
:1012D000A023DB0510210A435A6107E0A023DB05A8
:1012E0005A69A023DB0510218A435A61FB1D1B7834
:1012F0002022134008D0A023DB055A69A023DB0578
:1013000008210A435A6107E0A023DB055A69A0239C
:10131000DB0508218A435A61FB1D1B78102213400C
:1013200008D0A023DB055A69A023DB0504210A436A
:101330005A6107E0A023DB055A69A023DB050421DD
:101340008A435A61FFF788FF2820FFF72FFFFB1D14
:101350001B780822134008D0A023DB055A69A0237C
:10136000DB0520210A435A6107E0A023DB055A6907
:10137000A023DB0520218A435A61FB1D1B78042230
:10138000134008D0A023DB055A69A023DB051021F8
:101390000A435A6107E0A023DB055A69A023DB0555
:1013A00010218A435A61FB1D1B780222134008D08A
:1013B000A023DB055A69A023DB0508210A435A61F3
:1013C00007E0A023DB055A69A023DB0508218A4337
:1013D0005A61FB1D1B780122134008D0A023DB05B6
:1013E0005A69A023DB0504210A435A6107E0A023C0
:1013F000DB055A69A023DB0504218A435A61FFF704
:101400002BFFC046BD4602B080BD80B582B000AFA4
:101410000200FB1D1A70A023DB055A69A023DB051F
:1014200001210A435A61FB1D1B781800FFF72CFFAE
:101430000220FFF7EBFEC046BD4602B080BD80B57E
:1014400082B000AF0200FB1D1A70A023DB055A69B1
:10145000A023DB0501218A435A61FB1D1B7818007C
:10146000FFF712FF0520FFF7D1FEC046BD4602B0D0
:1014700080BD80B500AFA023DB055A69A023DB0542
:1014800002218A435A611420FFF7C0FE3320FFF780
:10149000D6FF3320FFF7D3FF3220FFF7D0FF2820FD
:1014A000FFF7CDFF0C20FFF7CAFF0120FFF7C7FFB2
:1014B0001420FFF7ABFEC046BD4680BD80B584B0AA
:1014C00000AF786008001100FB1C021C1A70BB1CE6
:1014D0000A1C1A70FB1C1B78022B01D1C02300E0F0
:1014E00080231800FFF7ABFF0520FFF78FFE0023D6
:1014F000FB6009E0FB687A68D3181B781800FFF7D7
:1015000084FFFB680133FB60FB687A68D3181B78A3
:10151000002BEFD1BB1C1B78002B09D005E020204D
:10152000FFF773FFFB680133FB60FB680F2BF6DDF1
:10153000C046BD4604B080BD80B500AF244B5A6B99
:10154000234B802189000A435A63224B1A69214B9D
:10155000C02109060A431A611E4B1A681D4B01215E
:101560000A431A601B4B9A681A4B01210A439A607E
:10157000184BDA6880231B02134005D1C046154B77
:101580001B6801221340FAD0124B9B6801221340C2
:1015900005D0104B9A680F4B02210A439A600D4BFD
:1015A0009A680C4B802109060A439A60C046094B91
:1015B0001A6880231B011340F9D0064B1A68054BAB
:1015C000802109010A431A60C046BD4680BDC0465D
:1015D000001002400024014080B582B000AF786066
:1015E000164BDA68154B802109020A43DA60134B67
:1015F0007A689A62114B5A69104B07210A435A6163
:101600007A6880239B029A4206D10D4B1A680C4BD4
:101610008021C9030A431A60084B9A68074B0421CA
:101620000A439A60C046054B1B6804221340FAD057
:10163000024B1B6C1800BD4602B080BD0024014067
:101640000827014090B585B000AF78603960184B2D
:101650001B68002B02D101235B4224E00023FB60C6
:101660000AE0FB685A1CFA603A68D418114B18005B
:1016700000F0ADF9030023707B68013B1A00FB68A2
:10168000934205D20B4B180000F0CCF9031EE8D1B1
:10169000FB68002B06D03A68FB68D31800221A704A
:1016A000FB6800E000231800BD4605B090BDC046B1
:1016B0000C0300207402002080B584B000AF786075
:1016C0003960224B1B68002B02D101235B4238E0BA
:1016D0007B683F2B0BDCC0461D4B180000F0A2F9C5
:1016E00003004022D21A7B689A42F5D302E002231B
:1016F0005B4226E00023FB600BE03A68FB68D318EE
:101700001A78134B1100180000F030F9FB68013310
:10171000FB607B68FA689A42EFD30E4B1B68082285
:1017200013400DD10B4B1A680A4B08210A431A606B
:10173000074B180000F04BF903001A00054B9A62A2
:1017400000231800BD4604B080BDC0460C03002035
:10175000C00200200038014080B584B000AF78603E
:1017600072B6C046454B00229A64444B9A6C434B78
:101770005A64424B5A6C414B1A64414B00229A64A2
:101780003F4B9A6C3E4B5A643D4B5A6C3C4B1A642F
:101790003C4B01221A603C4B00221A603B4BDA6A38
:1017A0003A4B01210A43DA62394BFB607968F868E9
:1017B00001F01CF80300FB60A023DB059A68A0235E
:1017C000DB058021C9020A439A60A023DB055A6821
:1017D000A023DB052F490A405A60A023DB051B68C4
:1017E0002D4A1A40A023DB05802109030A431A6011
:1017F000A023DB055A6AA023DB0540210A435A6275
:10180000A023DB051B68254A1A40A023DB058021A5
:1018100089030A431A60A023DB055A6AA023DB056B
:101820008021C9000A435A62184B5A6B174B80211A
:10183000C9010A435A631A4B1A68194B6C210A43AF
:101840001A60174B00225A60154B00229A60144B05
:10185000FA68DA60124B1A68114B01210A431A60C8
:10186000104B1A680F4B802109050A431A6062B6B3
:10187000C046C046BD4604B080BDC04674020020CC
:10188000C00200200C0300201003002000100240C2
:101890000048E801FFFDFFFFFFFFF3FFFFFFCFFF61
:1018A0000038014000E100E080B500AF084BDB6983
:1018B0008022134001D000F025F8054BDB6920227F
:1018C000134001D000F006F8C046BD4680BDC046BA
:1018D0000038014080B500AF074B5B6ADAB2074BB6
:1018E0001100180000F042F8031E02D0044B012240
:1018F0001A60C046BD4680BD003801407402002019
:101900001003002080B500AF164B180000F08AF8D5
:10191000031E08D0134B180000F059F803001A00FA
:10192000114B9A621BE0104B1A680F4B08218A4337
:101930001A600D4BDB694022134005D00A4B1A6A2E
:10194000094B40210A431A62074BDB69802213408E
:1019500005D0054B9A69044B10210A439A61C04691
:10196000BD4680BDC00200200038014080B582B075
:1019700000AF78600A00FB1C1A707B681A6C7B68E9
:101980005B6C9A4205D17B689B6C002B01D00123D4
:1019900019E072B6C0467B681B6C591C7A681164EA
:1019A0007A68F91C0978D1547B689B6C5A1C7B6857
:1019B0009A647B681B6C402B02D17B6800221A64FE
:1019C00062B6C04600231800BD4602B080BD80B597
:1019D00084B000AF78607B689B6C002B01D1002342
:1019E0001CE072B6C0467B685B6C591C7A68516417
:1019F0000F22BA187968CB5C13707B685B6C402B44
:101A000002D17B6800225A647B689B6C5A1E7B68FB
:101A10009A6462B6C0460F23FB181B781800BD46B7
:101A200004B080BD80B582B000AF78607B689B6CED
:101A30001800BD4602B080BD80B582B000AF7860AE
:101A40000B4B1B68002B09D101235B420BE07B6829
:101A50005A1C7A6019000120FFF72EFE7B681B7864
:101A6000002BF4D100231800BD4602B080BDC04653
:101A70000C03002080B582B000AF0200FB1D1A707D
:101A8000FB1D19000120FFF717FEC046BD4602B03E
:101A900080BD80B500AF044B1800FFF798FF03002E
:101AA0001800BD4680BDC04674020020B0B584B0A9
:101AB00000AF786039601E4B1B68002B02D10123F8
:101AC0005B4231E00023FB600B23FB1800221A70FD
:101AD00017E0C046174B1800FFF7A4FF031EF9D00C
:101AE0000B257C19134B1800FFF771FF03002370BF
:101AF000FB685A1CFA601A007B689B187A191278E6
:101B00001A703B68013BFA689A4204DA0B23FB180F
:101B10001B780D2BDDD1FB68002B04DDFB687A6898
:101B2000D31800221A70FB681800BD4604B0B0BD7F
:101B30000C0300207402002090B583B000AFFC1DA0
:101B4000FFF7A7FF03002370FB1D1B781800FFF7AA
:101B500091FFFB1D1B781800BD4603B090BDB0B5CA
:101B600084B000AF78603960214B1B68002B02D134
:101B700001235B4237E00023FB600B23FB180022AC
:101B80001A701DE0C0461B4B1800FFF74BFF031EE9
:101B9000F9D00B257C19174B1800FFF718FF03002D
:101BA00023702C003B191B781800FFF763FFFB68BC
:101BB0005A1CFA601A007B689B183A1912781A703E
:101BC0003B68013BFA689A4204DA0B23FB181B7846
:101BD0000D2BD7D1FB68002B04DDFB687A68D31886
:101BE00000221A70FB681800BD4604B0B0BDC046A4
:101BF0000C0300207402002080B500AF144B1A685B
:101C0000134B02210A431A60124B1A68114B8021B0
:101C1000C9010A431A60104B1A680F4B0F490A405A
:101C20001A600D4B1A680C4BA02109020A431A6076
:101C30000B4B1A680A4B1202120A1A60094B0A4A25
:101C40001A600A4B0D221A60C046BD4680BDC046D0
:101C50002C1002403410024000040050FF0FFFFF20
:101C6000200400500C380140050D000000380140F0
:101C700080B582B000AF0200FB1D1A70C046064B53
:101C80001B6880221340FAD0044BFA1D12781A60A8
:101C9000C046BD4602B080BD1C3801402838014016
:101CA00080B582B000AF786006E07B685A1C7A602D
:101CB0001B781800FFF7DCFF7B681B78002BF4D142
:101CC000C046C046BD4602B080BDC04690B585B096
:101CD00000AF78603960184B1B68002B02D10123DC
:101CE0005B4224E00023FB600AE0FB685A1CFA60B8
:101CF0003A68D418114B180000F0ABF903002370B8
:101D00007B68013B1A00FB68934205D20B4B18001D
:101D100000F0CAF9031EE8D1FB68002B06D03A6830
:101D2000FB68D31800221A70FB6800E0002318003B
:101D3000BD4605B090BDC046B0030020180300208A
:101D400080B584B000AF78603960224B1B68002BEF
:101D500002D101235B4238E07B683F2B0BDCC0469D
:101D60001D4B180000F0A0F903004022D21A7B6836
:101D70009A42F5D302E002235B4226E00023FB6097
:101D80000BE03A68FB68D3181A78134B110018005F
:101D900000F02EF9FB680133FB607B68FA689A4219
:101DA000EFD30E4B1B68082213400DD10B4B1A6862
:101DB0000A4B08210A431A60074B180000F049F942
:101DC00003001A00054B9A6200231800BD4604B0B8
:101DD00080BDC046B00300206403002000440040E2
:101DE00080B584B000AF786072B6C046454B002223
:101DF0009A64444B9A6C434B5A64424B5A6C414B25
:101E00001A64414B00229A643F4B9A6C3E4B5A64D1
:101E10003D4B5A6C3C4B1A643C4B01221A603C4BC4
:101E200000221A603B4BDA6A3A4B01210A43DA621C
:101E3000394BFB607968F86800F0D8FC0300FB6060
:101E4000A023DB059A68A023DB05802149050A430E
:101E50009A60A023DB055A68A023DB052F490A40BE
:101E60005A60A023DB051B682D4A1A40A023DB051E
:101E7000802189050A431A60A023DB055A6AA02342
:101E8000DB058021C9040A435A62A023DB051B68D5
:101E90009B009A08A023DB05802109060A431A60EB
:101EA000A023DB055A6AA023DB058021C9050A436C
:101EB0005A62184B9A6B174B802189020A439A6326
:101EC000184B1A68174B6C210A431A60154B0022F5
:101ED0005A60144B00229A60124BFA68DA60114B78
:101EE0001A68104B01210A431A600F4B1A680E4BF7
:101EF000802149050A431A6062B6C046C046BD4605
:101F000004B080BD1803002064030020B00300204B
:101F1000B4030020001002400048E801FFBFFFFFAB
:101F2000FFFFFFCF0044004000E100E080B500AFBC
:101F3000084BDB698022134001D000F025F8054BE7
:101F4000DB692022134001D000F006F8C046BD46F0
:101F500080BDC0460044004080B500AF074B5B6ABF
:101F6000DAB2074B1100180000F042F8031E02D04D
:101F7000044B01221A60C046BD4680BD00440040AB
:101F800018030020B403002080B500AF164B1800E2
:101F900000F08AF8031E08D0134B180000F059F81F
:101FA00003001A00114B9A621BE0104B1A680F4B8A
:101FB00008218A431A600D4BDB694022134005D08B
:101FC0000A4B1A6A094B40210A431A62074BDB6924
:101FD0008022134005D0054B9A69044B10210A4317
:101FE0009A61C046BD4680BD6403002000440040A5
:101FF00080B582B000AF78600A00FB1C1A707B6865
:102000001A6C7B685B6C9A4205D17B689B6C002BD9
:1020100001D0012319E072B6C0467B681B6C591CC5
:102020007A6811647A68F91C0978D1547B689B6CD2
:102030005A1C7B689A647B681B6C402B02D17B68BE
:1020400000221A6462B6C04600231800BD4602B0E2
:1020500080BD80B584B000AF78607B689B6C002B3E
:1020600001D100231CE072B6C0467B685B6C591C32
:102070007A6851640F22BA187968CB5C13707B6858
:102080005B6C402B02D17B6800225A647B689B6C9E
:102090005A1E7B689A6462B6C0460F23FB181B78F1
:1020A0001800BD4604B080BD80B582B000AF786036
:1020B0007B689B6C1800BD4602B080BD80B582B0C5
:1020C00000AF78600B4B1B68002B09D101235B42EA
:1020D0000BE07B685A1C7A6019000120FFF730FE84
:1020E0007B681B78002BF4D100231800BD4602B09A
:1020F00080BDC046B003002080B582B000AF0200B2
:10210000FB1D1A70FB1D19000120FFF719FEC046C8
:10211000BD4602B080BD80B500AF044B1800FFF78C
:1021200098FF03001800BD4680BDC046180300207C
:10213000B0B584B000AF786039601E4B1B68002BCF
:1021400002D101235B4231E00023FB600B23FB182B
:1021500000221A7017E0C046174B1800FFF7A4FFC3
:10216000031EF9D00B257C19134B1800FFF771FFE4
:1021700003002370FB685A1CFA601A007B689B18E6
:102180007A1912781A703B68013BFA689A4204DAAD
:102190000B23FB181B780A2BDDD1FB68002B04DD19
:1021A000FB687A68D31800221A70FB681800BD46D5
:1021B00004B0B0BDB00300201803002080B500AF0C
:1021C000034B1800FFF770FF03001800BD4680BDE9
:1021D0001803002090B583B000AFFC1DFFF79BFFF4
:1021E00003002370FB1D1B781800FFF785FFFB1D04
:1021F0001B781800BD4603B090BDB0B584B000AFE9
:1022000078603960214B1B68002B02D101235B42AF
:1022100037E00023FB600B23FB1800221A701DE03F
:10222000C0461B4B1800FFF73FFF031EF9D00B25DC
:102230007C19174B1800FFF70CFF030023702C00CC
:102240003B191B781800FFF757FFFB685A1CFA6010
:102250001A007B689B183A1912781A703B68013B88
:10226000FA689A4204DA0B23FB181B780D2BD7D19E
:10227000FB68002B04DDFB687A68D31800221A7013
:10228000FB681800BD4604B0B0BDC046B0030020D6
:102290001803002080B582B000AF164B7B60164B50
:1022A0003B6007E07A68131D7B603B68191D39604D
:1022B00012681A603A68114B9A42F3D304E03B6803
:1022C0001A1D3A6000221A603A680D4B9A42F6D302
:1022D0000C4B3B6004E03B681A1D3A601B68984752
:1022E0003A68094B9A42F6D3C046C046BD4602B092
:1022F00080BDC04670B0000800000020D80100205A
:10230000E003002070B0000870B0000880B500AF96
:102310003B4B1A683A4B01210A431A60C046384BBE
:102320001B6804221340FAD0354B0122DA60C04604
:10233000334BDB680C221340042BF9D1314B1A6864
:10234000304B02210A431A602E4B1A682D4B012193
:102350000A431A602A4B9A6B294B802149050A438C
:102360009A63294B802212011A60C046264B5B6893
:1023700010221340FAD1224BDA68214B23490A403C
:10238000DA601F4BDA681E4B8821C9030A43DA6002
:102390001B4A1B4BD268DA60194A194BD268DA60C3
:1023A000174A174BD268DA60154B1A68144B184954
:1023B0000A401A60124B1A68114B802149040A43E3
:1023C0001A60C0460E4B1A6880239B041340F9D054
:1023D0000B4BDA680A4B03218A43DA60084BDA6850
:1023E000074B03210A43DA60C046054BDB680C2229
:1023F00013400C2BF9D1C046C046BD4680BDC04637
:10240000001002400020024000700040FFFF02FF69
:10241000FFFFFFFE80B500AF024B1800FFF70CFB7B
:10242000FEE7C046A8AA000880B500AF024B18001E
:10243000FFF702FBFEE7C046D8AA000880B582B0CD
:1024400000AF7860FEE780B582B000AF786001230E
:102450005B421800BD4602B080BD80B584B000AFBD
:10246000F860B9607A60044B0C221A6001235B4269
:102470001800BD4604B080BDC403002080B500AF85
:10248000034B0B221A6001235B421800BD4680BD3E
:10249000C403002080B582B000AF786039603B682B
:1024A000802292015A6000231800BD4602B080BD10
:1024B00080B500AF01231800BD4680BD80B582B055
:1024C00000AF78603960044B16221A6001235B422A
:1024D0001800BD4602B080BDC403002080B582B0A4
:1024E00000AF78603960044B1F221A6001235B4201
:1024F0001800BD4602B080BDC403002080B584B082
:1025000000AFF860B9607A6000231800BD4604B0DF
:1025100080BD80B582B000AF786039603B688022B2
:1025200092015A6000231800BD4602B080BD80B5FC
:1025300082B000AF786001235B421800BD4602B054
:1025400080BD80B582B000AF7860044B02221A6073
:1025500001235B421800BD4602B080BDC4030020C9
:1025600080B582B000AF7860044B0A221A60012364
:102570005B421800BD4602B080BDC046C4030020C7
:1025800080B582B000AF78607B68022B01D8012350
:1025900003E0044B09221A6000231800BD4602B074
:1025A00080BDC046C403002080B586B000AF78600F
:1025B000124B7B61124B3B61124B1B68002B02D10B
:1025C000104B7A691A600F4B1B68FB600D4B1A6841
:1025D0007B68D3183A699A4205D20B4B0C221A60D9
:1025E00001235B4206E0074B1A687B68D218054B53
:1025F0001A60FB681800BD4606B080BDE0030020ED
:1026000000100020C0030020C403002080B588B063
:1026100000AFF860B9607A600023BB61FB68002BF3
:1026200022D10023FB611AE0FFF733FA03001A00FE
:1026300017217B181A70BB685A1CBA607A18127876
:10264000D2B21A70BB690133BB617B181B78DBB255
:102650000A2B01D1BB690EE0FB690133FB61FA690A
:102660007B689A42E0DB05E0054B09221A600123F2
:102670005B4200E0BB691800BD4608B080BDC046A3
:10268000C403002080B586B000AFF860B9607A60FE
:10269000FB68013B012B11D800237B6109E0BB687B
:1026A0005A1CBA601B781800FFF7E4F97B69013304
:1026B0007B617A697B689A42F1DB05E0054B092270
:1026C0001A6001235B4200E07B681800BD4606B03B
:1026D00080BDC046C4030020002243088B4274D34F
:1026E00003098B425FD3030A8B4244D3030B8B4213
:1026F00028D3030C8B420DD3FF22090212BA030C1C
:102700008B4202D31212090265D0030B8B4219D3FC
:1027100000E0090AC30B8B4201D3CB03C01A52411C
:10272000830B8B4201D38B03C01A5241430B8B4264
:1027300001D34B03C01A5241030B8B4201D30B034D
:10274000C01A5241C30A8B4201D3CB02C01A524174
:10275000830A8B4201D38B02C01A5241430A8B4237
:1027600001D34B02C01A5241030A8B4201D30B0220
:10277000C01A5241CDD2C3098B4201D3CB01C01A3A
:10278000524183098B4201D38B01C01A5241430944
:102790008B4201D34B01C01A524103098B4201D332
:1027A0000B01C01A5241C3088B4201D3CB00C01A9F
:1027B000524183088B4201D38B00C01A5241430817
:1027C0008B4201D34B00C01A5241411A00D201463C
:1027D000524110467047FFE701B5002000F0F0F8C5
:1027E00002BDC0460029F7D076E7704703460B4389
:1027F0007FD4002243088B4274D303098B425FD3FA
:10280000030A8B4244D3030B8B4228D3030C8B4225
:102810000DD3FF22090212BA030C8B4202D312120B
:10282000090265D0030B8B4219D300E0090AC30BE0
:102830008B4201D3CB03C01A5241830B8B4201D38D
:102840008B03C01A5241430B8B4201D34B03C01A76
:102850005241030B8B4201D30B03C01A5241C30AEE
:102860008B4201D3CB02C01A5241830A8B4201D35F
:102870008B02C01A5241430A8B4201D34B02C01A49
:102880005241030A8B4201D30B02C01A5241CDD2EE
:10289000C3098B4201D3CB01C01A524183098B4239
:1028A00001D38B01C01A524143098B4201D34B0122
:1028B000C01A524103098B4201D30B01C01A524185
:1028C000C3088B4201D3CB00C01A524183088B420C
:1028D00001D38B00C01A524143088B4201D34B00F5
:1028E000C01A5241411A00D2014652411046704767
:1028F0005DE0CA0F00D04942031000D3404253406C
:1029000000229C4603098B422DD3030A8B4212D32B
:10291000FC22890112BA030A8B420CD3890192115D
:102920008B4208D3890192118B4204D389013AD09A
:10293000921100E08909C3098B4201D3CB01C01A6F
:10294000524183098B4201D38B01C01A5241430982
:102950008B4201D34B01C01A524103098B4201D370
:102960000B01C01A5241C3088B4201D3CB00C01ADD
:10297000524183088B4201D38B00C01A5241D9D2F5
:1029800043088B4201D34B00C01A5241411A00D276
:102990000146634652415B10104601D34042002B72
:1029A00000D54942704763465B1000D3404201B5F1
:1029B000002000F005F802BD0029F8D016E77047A6
:1029C0007047C046844608006146FFE71FB500F027
:1029D00055FB002801D40021C8421FBD10B500F0EE
:1029E000E1FA4042013010BD10B500F047FB00286D
:1029F00001DB002010BD012010BDC04610B500F065
:102A00003DFB002801DD002010BD012010BDC046A7
:102A100010B500F0EDFA002801DC002010BD012007
:102A200010BDC04610B500F0E3FA002801DA00201E
:102A300010BD012010BDC046F0B5C64643025B0A7A
:102A40004E0245004F00DA00C40F9C46700A9046C3
:102A500000B52D0E3F0EC90FB6098C424BD0EA1BB4
:102A6000002A36DD002F61D0FF2D00D1ADE080239C
:102A7000DB041E431B2A00DCD3E001204346181A66
:102A8000430100D48CE080018709380001F02AFF5F
:102A900005388740854200DCB6E02D1AB34838403F
:102AA000430704D00F230340042B00D0043043011C
:102AB00000D478E06A1CFE2D65D08001430A9C4654
:102AC000D2B26346D0051843E407204380BCB84621
:102AD000F0BD002A35D07A1B002D00D0AFE0434670
:102AE000002B00D1A7E0531E012A00D12FE1FF2ABD
:102AF00069D01A00AAE0E91B002970DD002F37D049
:102B0000FF2D62D08023DB041E431B2900DCB0E0D4
:102B100001204044430143D50135FF2D33D001232B
:102B2000934A0340400810401843B9E7002E00D1F3
:102B300083E0511E012A00D1D8E0FF2A45D00A00C7
:102B400098E7FE276A1C174200D086E0002D00D0CF
:102B5000B7E04346002B00D1F3E00022002EB0D0B6
:102B6000981B430100D4FAE043460C00F01A97E7A3
:102B7000002E00D1C8E04A1E012900D1AEE0FF2995
:102B800023D01100C1E70023FF229C4699E7FE21D4
:102B90006A1C114277D0FF2AF5D015004644700810
:102BA000430700D07EE7C308FF2D0ED05B025B0A0F
:102BB0009C46EAB285E7002E07D08022D20313425A
:102BC00003D0104201D10C000300002BDBD0802089
:102BD000C00318434002430A9C46FF2271E70029C4
:102BE000D5D07A1B002D60D14346002B24D0531E34
:102BF000012A73D0FF2AE7D01A001B2A00DC85E0E7
:102C000001203D00801985E720233A00451B38004C
:102C10000135EA405D1BA840431E98410025104342
:102C20003EE7202330009B1A31009840D140431EDC
:102C30009841084322E70C0003001500B4E7FF2F7A
:102C4000C1D080234046DB04184380461B2A51DD57
:102C500001200C003D00301A12E743469F1B7B0108
:102C60002BD4002F00D010E70023002400229C4624
:102C700027E7202332003000CA40591A8840431EFB
:102C80009841104345E7002D4AD14346002B63D0BD
:102C90000022002E00D114E730004044430100D44C
:102CA0007EE7324B013518407AE7FF2F8CD0802326
:102CB0004146DB04194388469FE743460C00F71A58
:102CC000E3E64246002A00D075E7002E00D07AE7FE
:102CD0008023DB0300249C46FF22F2E630004044C0
:102CE0000125430100D45BE7022518E7434601258F
:102CF000981BC5E6202344464046D4409A1A90408B
:102D0000431E98412043A4E70D004DE72023414690
:102D10004046D1409A1A9040431E9841084370E7BC
:102D20004246002A00D14FE7002E00D14DE7802215
:102D3000D203134200D148E7104200D045E7030018
:102D400043E7002E90D00C0084460022B9E64346AB
:102D50000C00F01A013593E684460022B1E6002803
:102D600000D01DE7002300249C46AAE6FFFFFFFBDE
:102D7000FFFFFF7DF0B54F464646D6464502C0B53B
:102D800047000C1C6D0A3F0EC60F002F00D170E0EB
:102D9000FF2F00D175E0EB008025ED041D430023DB
:102DA00099469A467F3F6002430A984663001B0E8D
:102DB000E40F002B4ED0FF2B46D04246D00080229D
:102DC000D2040243904600227F3B3100FF1A4B465B
:102DD0006140C9B213430F2B00D9B5E06E489B0088
:102DE000C3589F46002398462600454692465346C0
:102DF000022B00D189E0032B00D19EE0012B18D0DB
:102E00003B007F33002B69DD6A0704D00F222A4084
:102E1000042A00D004352A0103D5604B1D403B0035
:102E20008033FE2B00DD70E0AD016D0AD8B202E008
:102E30000E0000200025C0052843F6073043E0BC03
:102E4000BA46B146A846F0BD4346002B3FD1022208
:102E5000FF3F03E04346002B2DD1012231004B46BA
:102E60006140C9B213430F2B34D84D489B00C3585F
:102E70009F46002D13D104239946033B00279A4611
:102E800091E7002D05D108239946063BFF279A4676
:102E900089E70C239946093BFF279A4683E72800D8
:102EA00001F020FD7627431F9D4000237F42994675
:102EB0009A463F1A77E7404601F014FD4246431F09
:102EC0009A4076235B4290461B1A00227DE7FF233F
:102ED00003227AE70E00FF200025ACE70120C01A8C
:102EE0001B28A6DC9E372A00BD40C2406B1E9D41B8
:102EF00015436B0704D00F232B40042B00D004355F
:102F00006B0144D50120002595E7FF20002592E7BD
:102F100080250026FF20ED038DE7002398468020C2
:102F2000C003054209D04346034206D14546054346
:102F30006D022600FF206D0A7DE78020C003054357
:102F40006D02FF206D0A76E742466B015001834215
:102F500019D21B220025013F01261C006D005B00D9
:102F6000002C01DB984201D81B1A3543013A002A94
:102F7000F3D15A1E93411D433B007F330E00002BBB
:102F800000DD41E7AAE71A2201251B1AE4E7AD019B
:102F900000206D0A4FE7C046FCAA0008FFFFFFF7BC
:102FA0003CAB000870B5420045024E024C00C30F16
:102FB0006D0A0120120E760A240EC90FFF2A06D0D0
:102FC000FF2C03D0A24201D1B54206D070BD002D26
:102FD000FCD1FF2CFAD1002EF8D18B4206D0012073
:102FE000002AF3D12800431E9841EFE70020EDE7C7
:102FF00070B5420045024E024C00C30F6D0A120E1E
:10300000760A240EC80FFF2A1BD0FF2C0ED0002AF0
:103010001BD1002C01D1002E1CD0002D0CD08342DE
:103020001CD00221581E0840013870BD002E22D14C
:10303000002AF4D1002DF2D10028F6D1012040421F
:10304000F3E7002D17D1FF2CF0D0002CE7D1002E94
:10305000E5D1E6E70020002DE7D0E2E7A24205DC5B
:10306000EADBB54202D8E7D30020DEE7434258410D
:1030700040000138D9E702204042D6E770B542004F
:1030800045024E024C00C30F6D0A120E760A240E42
:10309000C80FFF2A0BD0FF2C0DD0002A1FD1002C07
:1030A00016D1002E14D10020002D10D009E0002DE3
:1030B0000CD1FF2C13D1002E08D1002A08D0834256
:1030C00012D00221581E0840013800E0022070BDD5
:1030D000002DF4D10028FAD101204042F7E7002C5E
:1030E000EDD1002EEBD1ECE7A24205DCF2DBB542DC
:1030F00002D8EFD30020EAE74342584140000138AC
:10310000E5E7C046F8B5CE46474643025B0A4E02A5
:10311000DA009446720A914645004A0080B52D0EA9
:103120001F00C40F120EC90FB609FF2A5BD0012081
:1031300041408C4239D0A81A00285ADD002A6AD0B2
:10314000FF2D00D1D9E08022D20416431B2800DCD9
:10315000E9E001206346181A430100D4B4E080017D
:103160008709380001F0BEFB05388740854200DC46
:10317000CCE02D1AB5483840430704D00F23034054
:10318000042B00D00430430100D4A0E06A1CFE2DC3
:1031900000D18DE08001470AD2B2D0053843E40760
:1031A0002043C0BCB946B046F8BDA81A80460028E6
:1031B00045DD002A70D0FF2D00D19EE08023DB0486
:1031C0001E4343461B2B00DCD2E001206044430138
:1031D0007AD50135FF2D6BD001239D4A034040086D
:1031E00010401843C8E7002E20D08C4223D028007E
:1031F000FF38002839D0571B002D00D09DE06346D2
:10320000002B00D1DBE07B1E012F00D10DE1FF2F51
:1032100071D01F0098E0002E00D1A7E0421E0128C7
:1032200000D1E6E0FF2868D010008FE70120414080
:10323000A14200D07FE7FF2040428046A84440469C
:10324000002838D0511B002D00D1AEE0FF2A00D15C
:10325000DFE080236046DB04184384461B2900DC42
:10326000D9E0012015008019B1E7FE206A1C104248
:1032700071D1002D00D0A6E06346002B00D1D9E02B
:103280000022002E00D188E7981B430100D4E1E022
:1032900063460C00F01A6FE7002E00D1B7E0020081
:1032A000013A012800D19CE0FF2826D0904688E70B
:1032B000FF22002771E7FE206A1C104264D0FF2A1B
:1032C000F6D0150066447008430700D056E7C308DF
:1032D000FF2D12D05B025F0AEAB25EE76246002A67
:1032E00000D196E0002E08D08022D203134204D0F1
:1032F0004846104201D10C004B46002BD8D0802705
:10330000FF031F437F02FF227F0A46E720233A0084
:10331000451B38000135EA405D1BA840431E98411B
:103320000025104328E720231B1A32009E40C2408C
:103330003000431E984110430CE7FF2ADBD0802366
:103340006046DB04184384461B2F56DD01200C0029
:103350001500301A00E763469F1B7B013DD4002F08
:1033600000D0FEE600240022002716E70500AFE7A4
:10337000320043464146DA4020235B1A9E4030002B
:10338000431E9841104321E7002DA7D16346002B2F
:1033900059D00022002E00D1FFE6300060444301E6
:1033A00092D52A4B013518408EE76346002B47D053
:1033B0004B1E012915D0FF292BD019004EE70C0018
:1033C0004B463D0084E76246002A8BD1002E92D105
:1033D00080270024FF22FF03DFE663460C00F71A74
:1033E000BFE6300060440125430100D46CE70225AC
:1033F000F2E663460125981BAEE62023644660464C
:10340000FC40DF1BB840431E984120439FE7050066
:103410005EE74B4671E7202365466046CD40591A6A
:103420008840431E984128431CE763460C00012551
:10343000F01A91E6002E95D00C004F460022ACE623
:103440004B460D0044E74F460022A6E6FFFFFFFB78
:10345000FFFFFF7D002800D036E7002400279CE610
:1034600041024200C30F490A0020120E7E2A03DDEA
:103470009D2A02DD094A9818704780200004014304
:10348000952A07DC9620821AD1404842002BF3D1BE
:103490000800F1E7963A9140F7E7C046FFFFFF7F4B
:1034A000F8B5002813D0C317C6185E40C40F30000B
:1034B00001F018FA9E2305001B1A962B0FDC082832
:1034C00001DD083DAE407602760AD8B202E0002463
:1034D00000200026C0053043E4072043F8BD992BA7
:1034E0000CDD05223100121AD1400A000100300023
:1034F0001B318840411E884102431600052D12DC15
:1035000031000D4F3940720709D00F203040042898
:1035100005D004314A0102D59F2339405B1B890144
:103520004E0AD8B2D6E76A1F96403100024F3940A2
:103530007207F4D0E9E7C046FFFFFFFBF0B54F4646
:103540004646D6460D000400C0B51F0011002803F2
:10355000620F400A10437A00520DE3003C0391468B
:10356000640AFA0F4F0F6E0027439246B846760D55
:10357000ED0FC900954200D199E04C46341BA4469A
:10358000002C00DC7CE04A46002A00D1B8E0C54AA5
:10359000964200D11CE180223C0012041443A04654
:1035A0006246382A00DD61E11F2A00DDCCE1644675
:1035B0002022121B444694400F00A14664469140CD
:1035C000E7404C464A1E91413C43424621436446F3
:1035D000E240801A5C1AA3429B415F42C71B3B0238
:1035E00000D4D0E07F027F0A002F00D1FFE0380036
:1035F00001F078F901000839202322005B1A8F407E
:10360000DA408C401743B14200DAFFE0891B4B1CC3
:103610001F2B00DDA8E020223900D21A20009440A0
:103620009140D840621E9441DF40002601430C4384
:10363000630709D00F232340042B05D0231DA34289
:10364000A44164423F191C003B0200D49EE0954B0C
:1036500001369E4200D1B7E0934AE40817407B0749
:1036600071057F0223433F0B4A0D12053A43ED07D4
:103670002A4318001100E0BCBA46B146A846F0BD86
:10368000002C4BD04C46A41BA446002E00D023E1B6
:1036900004001C4300D1AFE16246541E012A00D150
:1036A00015E2804DAC4500D1C8E1A4461BE14A4675
:1036B000B21A9446002A00DCACE04A46002A43D005
:1036C000784A964200D1AFE180223C0012041443B4
:1036D000A0466246382A67DC1F2A00DC5FE14746C5
:1036E000203AD7406246202A05D064464022121B69
:1036F0004446944021434A1E91410C003C4357E00C
:103700003A000A4300D105E12200013A012C00D120
:1037100082E1644CA4455BD0944641E7634C771C3E
:10372000274200D0C4E004001C43002E00D069E111
:10373000002C00D1BFE144460C4300D0D0E1420749
:10374000DB081343C00829E03A000A4300D170E1C6
:1037500062466446013A012C00D1E0E0514CA44598
:1037600000D161E19446B4E73A001F39CA40110024
:10377000202B03D04022D31A9F403C43631E9C4120
:10378000002700260C43630700D053E7B446E40843
:103790007B072343F808434A94451DD0624607033C
:1037A00052053F0B520D60E744460C43621E9441A4
:1037B000E4189C429B415F423F183B02E3D5394BE2
:1037C00001369E4200D0B5E03200002700234CE7CE
:1037D0004207DB081343C0081A00024300D1E1E1AD
:1037E00080273F0307433F032E4A3F0B3DE720005E
:1037F00001F078F8010018311F2900DCFCE60838D8
:10380000844027000024B14200DBFFE6264A761AF6
:1038100017400DE7002A2FD04A46921B9446002EEF
:1038200000D1ADE01F4A914500D10FE18022120482
:1038300010436246382A00DD0FE11F2A00DD80E1D7
:10384000644620221E00121B6746040093409440E9
:10385000FE405A1E9341F84034431C438044641890
:103860008C42BF417F424E464744A6E742460A4348
:1038700011004A1E9141ADE60C4C721C224200D050
:10388000A1E002001A43002E00D0FAE0002A00D185
:1038900045E13A000A4300D046E14207DB08134302
:1038A000C0087BE7FF070000FFFF7FFFFE07000067
:1038B00047465C1AC21BA342BF417F42B94617006C
:1038C0004A46BF1A3A0200D58DE023003B4300D0A0
:1038D0008AE60020002561E7B44CA14500D1ADE0A7
:1038E0008024240420436446382C3DDC62461F2C8F
:1038F00000DDB7E020251E002D1B0400AB40AC40CE
:10390000D640D04042465D1EAB413443121A904629
:1039100023432CE04207DB081343C0083BE75C1855
:103920009C429B4140445B42C71801263B0200D4A5
:1039300029E702269E4A63081740012214401C43CF
:10394000FB071C437F0873E64446203AD440624696
:10395000202A05D067464022D21B4746974039436C
:103960004A1E9141214335E60343581E8341CC1A38
:10397000A142BF4143467F4255464E46DF1B2EE6DD
:1039800002001A4300D1BDE062466446013A012CB0
:1039900000D1E5E0854CA44558D0944649E76446FB
:1039A0002022121B444694400F00A14664469140D9
:1039B000E7404C464A1E91413C4342460C43614617
:1039C000CA408018F4E6794CA24200D1FDE65918AD
:1039D00099429B4140445F42C719FC0749081600C1
:1039E0000C437F08CFE6CC1AA142BF4143467F4239
:1039F000181A5546C71BF7E5C9087B0755460B4300
:103A0000F808C8E6002C00D081E043460B4315D1EE
:103A1000802000250003E3E65C1AA3429B41C71BFC
:103A20005B420126FF1ADAE54207DB081343C008B0
:103A3000D2E64207DB081343C008ACE643464246E1
:103A4000C9085B0755460B43D008C5E643464246C6
:103A50005B07C9080B43D008BEE603431C00631E86
:103A60009C41FCE60200203CE24014006246202A11
:103A700003D04025AD1AA8400343581E8341234379
:103A800075E7002AE2D03A000A43CDD04207DB08AE
:103A900013438022C0081203104206D0FC081442CF
:103AA00003D12000CB087A0713435A0FDB005207DB
:103AB000DB08134390E643460B4300D109E7434636
:103AC0004246C9085B0755460B43D00866E6CC1A48
:103AD000A14289413F1A4942554601267F1A7EE597
:103AE00042465C1A871AA34292415242BF1A3A02D6
:103AF0003DD5CC1AA1428941434649421F1A554639
:103B00007F1A95E57B07C9080B43F80843E644464E
:103B1000DB080C4330D142071343C0085CE67B0747
:103B2000C9080B43F80839E65C189C429B414044A5
:103B30005B42C7183B0200D425E61D4B01261F40FF
:103B400021E60400203AD4406246202A04D04022D4
:103B50006646921B904003435A1E93411C437EE6E7
:103B60005C188C428941404449424718DDE62300F5
:103B70003B4300D1ADE606E6440723438024C0085A
:103B80002403204208D04246D608264204D1554696
:103B90003000CB0851070B435A0FDB00DB085207FC
:103BA000134319E60023014A1F005EE5FF070000EA
:103BB000FFFF7FFFF0B557464E464546DE46E0B56F
:103BC000814605000C03480092461F0085B0240B77
:103BD000400DCE0F002800D156E1D44B984200D1C1
:103BE00072E16B0FE4001C4380231B0423439846BF
:103BF000CF4BED009B4600239946834400933C0342
:103C00007B005046240B5B0DFF0F002B00D11FE102
:103C1000C64A934200D162E1C549420F8C46E40096
:103C200059461443802263441204CB1A14439B4622
:103C3000C200002033007B409A464B460F2B27D80A
:103C4000BC499B00CB589F46B246009B022B16D026
:103C5000032B00D18EE2012B00D0D9E000230024F9
:103C6000002552461B052343D207134328001900A1
:103C700005B0F0BCBB46B246A946A046F0BD002444
:103C80000025AA4BEDE7BA46A04615000090DCE7F8
:103C9000444500D2C7E100D1C2E101235B429C460A
:103CA0002E0040460025E3442302140E1C431B0C47
:103CB000994623041F0C1202494600920197FEF711
:103CC00091FD02007A430B04310C804619438A426D
:103CD00007D901235B429C460919E0448C4200D875
:103CE00007E2881A4946FEF77DFD09048C46310437
:103CF0006646019A090C4243030031438A4204D9C3
:103D00000919013B8C4200D8EDE1881A42461204A1
:103D10001A4390464146009B0E041B0C1F00029361
:103D2000009B360C1B04190C0B007343120C7E43D2
:103D3000039151437A431F0CBC4676186644B14246
:103D400003D9802149028C466244310C8A1831041F
:103D50001E04360C8E19904202D312D1B54210D2F5
:103D60004346591E009B9C4665441F009D429B4153
:103D70005B421B19C018844200D2A0E100D19BE134
:103D80008846AE1BB542AD41801A6D42401B84424D
:103D900000D1D5E14946FEF725FD019A0B044243C7
:103DA000310C050019438A4200D96CE1881A494652
:103DB000FEF718FD019A360442430904360C03004D
:103DC0000E43B24200D953E10398B61A02002D0403
:103DD0001D43029F2B041B0C5A437B439C46290C1A
:103DE0004843130C844463447943984203D98020A8
:103DF000400284466144180C12041B04120C411842
:103E00009B188E4200D2FFE000D1FAE001231D434F
:103E1000494A5A44002A00DCAAE06B0700D03DE181
:103E2000ED084346DB0106D54246444B1A40904616
:103E30008022D2005A44424B9A4200DD1FE743469B
:103E40005B071D43434652055C02240B530D08E7F4
:103E50005246224300D17BE0002C00D1FAE0200042
:103E600000F040FD02000B3A1D2301009B1A524650
:103E70000839DA408C40144352468A40314B58444A
:103E80009B4683440020D5E64B462343984644D0C6
:103E9000002C00D1CEE0200000F024FD0100020043
:103EA0000B391D235B1A49461000D940083884405D
:103EB0000B004D462343984685402348831A9B4672
:103EC0000023994600939AE64B46234398461DD11A
:103ED00008239946063B0025834600938FE6524609
:103EE000224309D1022349461943184B89469C466F
:103EF00000240220E3449DE603234A461A43134B61
:103F000091469C4652460320E34493E60C2399468F
:103F1000093BA0468346009371E60423994600239B
:103F20009B4601330025009369E6C046FF07000069
:103F300001FCFFFF7CAB0008FF030000FFFFFFFE5A
:103F4000FE070000F30300000DFCFFFF01F8FFFF78
:103F50004946012319438946002401206AE60023CB
:103F600080249A4600258A4B24037AE601256D4277
:103F700001239B1A382B00DD70E61F2B00DCBFE00D
:103F80001F2149428A1A4146D1400A00202B04D001
:103F90004146804B5B4499400D436B1E9D41072376
:103FA0002A431D0000241540134200D1D4E00F2104
:103FB00000231140042900D1CBE0111D9142924110
:103FC00052429B180A00190200D4C2E001230024C7
:103FD000002546E6802341461B03194208D01C42B7
:103FE00006D11C432403BA461500694B240B38E65E
:103FF0008024434624031C432403B246644B240B11
:104000002FE6002B00D103E7A619681EA64200D2B6
:104010008DE08E4200D2A3E000D1B3E00500F5E6CA
:10402000AA4200D939E64346DE0758086B081E430A
:10403000ED0739E6484600F055FC01000200153155
:1040400020321C2900DC2CE74B4608388340002531
:10405000984632E700F046FC03001A001532203083
:104060001C2A00DC00E75446083B00229C4005E780
:104070003619013BB44200D9A6E6B24200D8A3E605
:10408000831E3619A0E60919013D8C4200D98DE640
:104090008A4200D88AE6851E091987E60F232B403D
:1040A000042B00D1BCE605235B42AB429B410435A7
:1040B0005B42ED089844B4E6AF4200D960E6824224
:1040C00004D800D05CE6AE4200D859E602235B4239
:1040D0009C46009BE0449C4665449D429B415B425C
:1040E0001B19C0184DE68A4200D80EE6831E091936
:1040F0000BE68A4200D8F4E5831E98460919F0E5DC
:104100002549280059448D4042468A40691E8D4108
:104110004146D840D94002432A430B00510700D101
:1041200051E70F211140042900D046E74BE7050075
:104130008E4200D06AE6009A934200D066E667E6B7
:10414000164A5A44002A00DC10E70123002598444F
:1041500067E65D075B021C0BD2080023154380E570
:104160000098023D42008242BF417F423C1936190D
:104170000092DDE78024434624031C432403044BC0
:10418000240B6EE5009A9A42EAD30500D3E7C046B5
:10419000FF0700003E0400001E040000FF030000B3
:1041A000F0B557464E464546DE46E0B598460C0308
:1041B0004B000600924687B0240B5B0DCF0F002BFF
:1041C00000D15CE1D94A934200D175E1420FE4008D
:1041D0001443802212041443D54AC5009446634414
:1041E0000093002399469B46434642461E03D20F46
:1041F0005B0050469046360B5B0D00D120E1CB4A68
:10420000934200D162E1CA49420F8C46009963444F
:10421000F6008C46164380229C44120463461643E3
:10422000C200002000930099434601318C46494664
:104230007B4001930F2926D8BE4B890059588F46E1
:10424000434601933400150083465B46022B16D08B
:10425000032B00D103E2012B00D0CDE0002200248B
:104260000025019B12052243DB071A432800110099
:1042700007B0F0BCBB46B246A946A046F0BD00243C
:104280000025AA4AEDE7280C2D042D0C2B00110C5B
:104290001204120C5343984613002F0043439946CF
:1042A0004F434F44BB4647460B003F0CBA4643437F
:1042B000DA440293D14504D980277F02B9464B44A2
:1042C000029353461B0C9B4653461F0443461B0454
:1042D0001B0C98463B0043440493330C3604360CC5
:1042E0009846330043439946434643432F009A463A
:1042F000434677435D43380C4D444519A94503D9DE
:1043000080235B029946CA443F04280C3F0C2D04CD
:10431000ED19270C2404240C0300200050437A4399
:1043200091463A0053440593030C9A464A4361432D
:1043300049445144AB44894503D980235B029946E3
:104340004A4400040B0C000C09040918200099468B
:10435000434670435C437E435F43030C9846A41975
:1043600044444A440397A64204D980235B029846FA
:10437000474403972304029E9A46059B5E44984651
:10438000AE42AD4176188E4289410004000C504483
:1043900040446D424719B846934649428946C34452
:1043A000D94498428041A845AD4193459241894501
:1043B00089416D4240422843240C524249420A43FB
:1043C000039B00198018C7184B46DC0D049B75022F
:1043D0001D436A1E95414B46F60D7F0235435A0236
:1043E0003C431543FB0100D41CE101216A080D4048
:1043F0001543E207154364084F496144002900DC76
:10440000B0E06B0709D00F222A40042A05D02A1DEC
:10441000AA42AD416D4264191500E30104D5802123
:10442000464AC90014406144454A914200DD26E7EE
:104430006207ED08640249051543240B4A0D10E795
:104440005246324300D17FE0002E00D1DCE0300044
:1044500000F048FA02000B3A1D2301009B1A524655
:104460000839DA408E40164352468A40009B35494F
:10447000181A03008C46634400200093D3E62500FD
:1044800005434AD0002C00D1B0E0200000F02AFA09
:10449000010002000B391D2310005B1A31003500AA
:1044A00008388440D94085400C432648831A00933D
:1044B000002399469B4697E60500254326D108220E
:1044C00000930223002491469B468DE65246009BB2
:1044D000324310D1154900268C4663444946009367
:1044E00002231943894602209DE65B460197022B71
:1044F00000D0ADE6C3E60D4A0320944663444A4625
:10450000009303231A43914652468CE60C220093F3
:104510000323050091469B4666E604239946002343
:104520000093013300249B465EE6C046FF0700006F
:1045300001FCFFFFBCAB0008FF030000FFFFFFFE14
:10454000FE0700000DFCFFFF494601231943894681
:104550000026012067E6002380240025434A0193BA
:1045600024037EE60120401A382800DD76E61F2865
:104570005BDD1F2223005242511ACB401900202834
:1045800003D03B4A6244944025436A1E95412A0069
:104590000A4307210D000024154011425BD00F2172
:1045A00000241140042953D0111D914292415242DE
:1045B000A4180A0023024BD501220024002550E64E
:1045C00080231B031C4209D01E4207D133431C0326
:1045D00043461500240B254A019342E6802212032C
:1045E00014432403214A240B01973AE600F07AF998
:1045F00001000200153120321C2900DC4BE7340099
:1046000008380025844050E700F06CF903001A00D8
:10461000153220301C2A00DC1EE75646083B0022DB
:104620009E4023E7009B9C46E6E612492200614437
:104630002E008D408A40C640691E8D4132432A4378
:10464000C4405307B6D00F2111400429ACD1B1E7C3
:1046500065076402240BD2081543002201E680227C
:10466000120314432403014A240BFAE5FF07000058
:104670003E0400001E0400000A0030B5134C530035
:1046800009030500090B00205B0DD20FA34204DDD6
:104690000F48834202DD0F4BD01830BD802040030D
:1046A00001430D48C01A1F2808DD0C48C31AD94021
:1046B0000B005842002AF0D11800EEE7084CC54024
:1046C000A446634499400B002B43F2E7FE0300002D
:1046D0001D040000FFFFFF7F3304000013040000EF
:1046E000EDFBFFFF70B5002816D0C317C5185D405D
:1046F000C40F280000F0F6F8114A121A0A2816DC36
:1047000003002E0015339E400B23181AC540520596
:104710002D032D0B530D03E000240023002500265C
:104720001B052B43E40723433000190070BD0B38F1
:10473000854052052D0300262D0B530DF0E7C04692
:104740001E04000070B543004602C40FFE201B0E7D
:10475000591C750A08420CD0E022920094466D075D
:10476000360B63441B053343E40723432800190039
:1047700070BD002B14D1002D1BD0280000F0B2F822
:104780000A281CDC0B232E001B1ADE400300153305
:104790009D400E4A3603121A5205360B530DE1E7BF
:1047A000002D09D08022360B1203094B6D071643EA
:1047B000D8E700230026D5E70026054BD2E7030003
:1047C0000B3B9D402E000025E3E7C0468903000017
:1047D000FF07000002004B00F0B55B0D0C033D4EDF
:1047E000640A400F5F1CC90F0443D50037420AD04A
:1047F00039481E18FE2E16DDFF200024C005204378
:10480000C9070843F0BD002B06D12C4326D0052252
:104810009201540AD8B2F1E72543EDD08020C003BD
:104820000443FF20EAE7002E1BDD9201531E9A414C
:10483000E4006D0F22432A43530748D00F2313404F
:10484000042B00D004328023DB0413403FD0701CC3
:10485000FE2ED1D09201540AC0B2CFE7002000242E
:10486000CCE73200173222DB8020000420431E24D4
:10487000A41B1F2C1DDD02225242961B0200F24097
:104880001600202C04D0154A9446634498400543F2
:104890002A00531E9A41324300265307CED180246A
:1048A0001300E404012023402242D3D1B0E70023C7
:1048B000ADE70B4A94462A00E24014002A00634404
:1048C0009A409840551EAA4102432243E4E7330030
:1048D0009EE7C046FE07000080FCFFFFA2FCFFFF32
:1048E00082FCFFFF1C2101231B04984201D3000C12
:1048F00010391B0A984201D3000A08391B09984253
:1049000001D30009043902A2105C40187047C04668
:104910000403020201010101000000000000000088
:1049200003008218934200D1704719700133F9E7F0
:10493000F0B51E00002314008BB09E4204DA8021E3
:10494000090673181E002D23129A149F137020233A
:1049500003229F43462F07D03B00453B59424B4122
:104960001099013ACB18109309AB049308AB039349
:10497000139B00920293109B22000193330000F0DE
:10498000D9FD0500472F02D1119BDB0728D5109BCD
:10499000EB180793462F14D12B78302B0CD1002223
:1049A00000232000310005F061FA002804D1012322
:1049B000109A9B1A139A1360139B079A1B68D318BB
:1049C0000793002200232000310005F04FFA002851
:1049D00001D0079B09933022099B07998B4206D38C
:1049E0002800099B159A5B1B13600BB0F0BD591C86
:1049F00009911A70F0E7F0B5831C87B003930500A6
:104A00000C002B230270002901DA4C4202336B7038
:104A1000092C31DD0A2704ABDE1D20003900019688
:104A2000FDF7CAFF013E3031200031703900029499
:104A3000FDF7DCFE029B0400632BEEDC019B3034AF
:104A40009A1E13000399147004A8073098420ED8D8
:104A500004AB073300209A4204D804AB0930C018D5
:104A6000019BC01A039B1818401B07B0F0BD1878B3
:104A7000013308700131E7E73023E418AB70281DDB
:104A8000EC70F1E7F0B595B00C0009921E001A9D8C
:104A9000070001F06BFB036818000C9300F090FC1A
:104AA00000231293237E07220A9323680E900D930E
:104AB0000D992B68C90547D59B1893431A000832F6
:104AC0002A601A685B68A264E3640122A36CE56C47
:104AD0000B936B005B080F930B98A74B0F995242F7
:104AE00005F090FE002831D10122A34B0B980F99BD
:104AF000524205F0CBF9002828D1002200232900DA
:104B00000B9805F0B9F9002803D023002D22433378
:104B10001A700A9B994D472B00D9994D03230D9A82
:104B2000236101339A43002322600B93099B2100E8
:104B30003800009613AA00F0E7F9431C00D0A2E069
:104B40000120404215B0F0BD0733B6E70B9A2B00A9
:104B50001000290005F056FE00280BD0002D03DAC6
:104B600023002D2243331A700A9B864D472BD5D93B
:104B7000854DD3E720220A99636891430F915A1C0F
:104B800049D10733636080230D9ADB001343002271
:104B9000069212AA05920A9A08A9049211AA0392EF
:104BA0002322236001936368521802920093380015
:104BB0002B000B9AFFF7BCFE0F9B05001199472BAA
:104BC00008D1CB1C02DB6368994248DD0A9B023B9B
:104BD000DBB20A930A9B652B24D820001A00013906
:104BE00050301191FFF707FF129A0B9013182361B1
:104BF000012A02DC2268D20701D501332361232375
:104C000008AA9B181B78002B00D18FE723002D22C8
:104C100043331A708AE70F9A472AB4D1002BB2D1D6
:104C20000133AFE70A9B662B1BD1636800290DDDBA
:104C30002161002B02D12268D20702D50133591815
:104C40002161119BA36500230B93D8E7002B03D1AF
:104C500001222168114200D09A1C2261F1E76723EA
:104C60000A93119B129A934206DB22682361D207B2
:104C7000E7D501332361E4E70121002B01DC49186A
:104C8000C91A5218E9E72268530507D423692A0094
:104C900038000999B047431C28D151E70A9B652B7E
:104CA00000D8E1E0A06CE16C0022002305F0DEF802
:104CB000002831D001233800344A0999B047431CF9
:104CC00000D13DE7119B129A934202DB2368DB0778
:104CD0000CD538000E9B0C9A0999B0470025431C4F
:104CE00000D12DE7129B013BAB420ADC23689B07F6
:104CF00000D506E1139BE068984200DB22E718002C
:104D000020E722000123380009991A32B047431CDA
:104D100000D115E70135E5E7119B002B38DC0123B5
:104D200038001A4A0999B047431C00D108E7119B83
:104D3000129A134302D12368DB07D7D50E9B3800A4
:104D40000C9A0999B047431C00D1F9E600230A9355
:104D5000119B0A9A5B42934201DC129B97E7220067
:104D60000123380009991A32B047431C00D1E7E605
:104D70000A9B0133EBE7C046FFFFEF7FFCAB000867
:104D800000AC000804AC000808AC0008A1AE0008A4
:104D9000129AA36D0A929A4200DD0A930A9B002B95
:104DA0003CDC00230D930A9BDB43DB170F93A36DC1
:104DB0000F9A0B930A9B13400B9AD31A0D9A9342A6
:104DC00034DC119B129A93423DDB2368DB073AD413
:104DD000129A0B9B1199D31A521A0A929A4200DD29
:104DE0000A930A9B002B36DC0A9B0025DB43DB176A
:104DF0000B93119A129B0B999B1A0A9A0A409B1AC1
:104E0000AB4200DC72E722000123380009991A3214
:104E1000B047431C00D193E60135EAE70A9B2A001C
:104E200038000999B047431CBBD189E62200012311
:104E3000380009991A32B047431C00D180E60D9B17
:104E400001330D93B3E70E9B38000C9A0999B047D4
:104E5000431CBDD174E60B9B3800EA1809990A9BE4
:104E6000B047431CC0D16BE6129B012B02DC01232F
:104E70001A4234D001232A0038000999B047431C54
:104E800000D15DE60E9B38000C9A0999B047431C8F
:104E900000D155E6A06CE16C0022002304F0E6FF8F
:104EA00000281AD1129B6A1C013B38000999B047AF
:104EB000431C0ED144E622000123380009991A321E
:104EC000B047431C00D13BE60135129B013BAB428E
:104ED000F1DC22000B9B5032DAE60025F5E72A00D0
:104EE000E3E722000123380009991932B047431C37
:104EF00000D125E60135E368139A9B1AAB42F0DC3A
:104F0000F8E60025F7E7C046F7B5150001938A6873
:104F10000B690C000090934200DA130022002B6012
:104F200043321278002A01D001332B6023689B069C
:104F300002D52B6802332B602268062317001F401E
:104F40001A4227D0230043331B785A1E934122680C
:104F5000920630D4220001990098089E4332B0474F
:104F6000431C25D0062320682A68E16800250340F9
:104F7000042B03D18D1AEB43DB171D40A368226974
:104F8000934201DD9B1AED180027BD4220D100207D
:104F900010E00137E3682A689B1ABB42D2DD220089
:104FA000012301990098089E1932B047431CF0D1A3
:104FB00001204042FEBD3020E1184331087021003D
:104FC0005A1C45310978A218433202331170C1E7E7
:104FD0002200012301990098089E1A32B047431C11
:104FE000E6D00137D1E70000F0B58BB006920A0099
:104FF00043320793059004920A7E0C00109B782A96
:1050000007D8622A09D8002A00D1C1E0582A00D165
:105010008CE026004236327022E0100063381528FA
:10502000F7D804F009FF16001F00F6FFF6FFF6FFA1
:10503000F6FF1F00F6FFF6FFF6FFF6FFA8003600AA
:105040009A00F6FFF6FFB900F6FF3600F6FFF6FF0E
:105050009E0026001A684236111D196013683370CD
:105060000123A7E0086819680A1D05060BD50D681D
:105070001A60002D03DA2D23049A6D421370614BE0
:105080000A2703931BE00D681A604106F1D52DB283
:10509000EFE70D681968081D18602E0601D50D6828
:1050A00003E06D06FBD50D68ADB2564B08270393A0
:1050B0006F2A00D002372300002243331A7063683E
:1050C000A360002B03DB0422216891432160002DA3
:1050D00002D1049E002B0CD0049E28003900FDF75D
:1050E00081FB039B013E5B5C33702B0005009F42FC
:1050F000F3D9082F09D12368DB0706D56368226935
:10510000934202DC3023013E3370049B9B1B2361DE
:10511000079B210000930598069B09AAFFF7F4FE60
:10512000431C4CD1012040420BB0F0BD45310A7008
:10513000344A03921A68216820CA1A60080616D5F4
:10514000CB0702D52023194321601027002DB2D1AF
:10515000202322689A432260ADE7202209680A438F
:1051600022602200782145321170274AE1E7480683
:10517000E6D5ADB2E4E71A680D68101D49691860FC
:1051800013682E0601D5196002E06D06FBD5198063
:105190000023049E2361BBE71A68111D196016687D
:1051A00000213000626801F011F8002801D0801B56
:1051B0006060636823610023049A1370A8E7236981
:1051C000320006990598079DA847431CAAD023687A
:1051D0009B0715D4099BE0689842A5DA1800A3E75D
:1051E0002200012306990598079E1932B047431CF7
:1051F00098D00135E368099A9B1AAB42F0DCE9E7E5
:105200000025F7E70CAC00081DAC00080CB400B595
:105210009DB00291069109491EAB0791049108497E
:1052200004CB059102A9019301F0B8FE0023029A74
:1052300013701DB008BC02B01847C046FFFFFF7FC7
:105240000802FFFF0EB400B50B499CB01DAB0290E5
:105250000690079104910948094904CB059100681B
:1052600002A9019301F09AFE0023029A13701CB068
:1052700008BC03B01847C046FFFFFF7F08000020AE
:105280000802FFFF0EB430B581239CB06A461FAC04
:105290009B0020CC93820290069000F091F80B4B7B
:1052A0006A460B9300230390079009480F931493C9
:1052B000013BD38202A923002A000068019401F077
:1052C000C9FF1CB030BC08BC03B018474D530008E0
:1052D000080000200CB470B581239CB06A4620AC55
:1052E00005009B00080040CC93820291069100F0DB
:1052F00067F80B4B6A460B9300230F931493013B03
:1053000003900790D38228002300320002A9019461
:1053100001F0A0FF1CB070BC08BC02B01847C0462A
:105320004D53000870B50C000E25495F02F072FA6B
:10533000002803DB636D1B18636570BDA389024AF7
:105340001340A381F9E7C046FFEFFFFF002070473D
:10535000F8B51F008B8905000C001600DB0505D58C
:105360000E23C95E0022022300F008FFA389054A2C
:1053700028001340A38132000E23E15E3B0000F0C1
:1053800027F8F8BDFFEFFFFF70B50C000E25495F51
:1053900000F0F4FEA389421C03D1054A1340A38107
:1053A00070BD802252011343A3816065F8E7C046B7
:1053B000FFEFFFFF10B50E23C95E00F01DF810BD12
:1053C0000023C25C0133002AFBD1581E7047000045
:1053D00070B50400080011001A000023054D2B6071
:1053E000FDF750F9431C03D12B68002B00D023603C
:1053F00070BDC046C4030020002370B5064D0400F4
:1054000008002B60FDF71FF8431C03D12B68002B0D
:1054100000D0236070BDC046C4030020F0B5060074
:105420000B69326987B0002003919A4265DB013B2A
:105430009C0000930B00143305931B190493330055
:10544000143302931C19049B27681B6838005D1CE9
:1054500029000193FDF740F90190AF4224D30025C4
:10546000AC460298059F08CF019A99B251431B0C94
:10547000534349190A0C9B18026889B292B26244DC
:10548000521A01681D0C090C9BB2CB1A11145B183F
:10549000191492B21B041A43049B8C4604C0BB42ED
:1054A000E1D22368002B30D03000039901F072F96B
:1054B000002821DB30000024019B03990133019374
:1054C00014301431036820C99AB21419AAB2A21A6E
:1054D0001B0C2D0C14145B1B1B191C1492B21B0407
:1054E000134308C0049B8B42ECD2009B029A9B00A2
:1054F000D3181A68002A15D0019807B0F0BD2368A8
:10550000002B06D1009B013B0093029B043CA3426D
:10551000F5D3009B3361C7E71A68002A06D1009AC9
:10552000013A0092029A043B9A42F5D3009B336100
:10553000E2E70000F0B59DB002920393029B039C4A
:1055400008930994446A0700259D002C0ED1102071
:1055500000F028FE021E786204D1EA21C74BC84839
:1055600002F0EEFB446084600460C4607B6A1968EA
:1055700000290AD05A68012393404A608B603800A2
:1055800000F07CFE00227B6A1A60039B002B20DA6D
:1055900001232B60039B5B005B080993099DB94BBA
:1055A000B84A2B40934217D1B74B249A2803136073
:1055B000029B000B184301D100F0BFFDB348269BAE
:1055C0000690002B02D0B24B269A136006981DB0AD
:1055D000F0BD00232B60E1E7089B099C1293139414
:1055E000129813990022002304F040FC041E09D0F5
:1055F0000123249A1360A74B0693269B002BE5D02A
:10560000A54BE1E71AAB01931BAB00933800129A4C
:10561000139B01F0E7F96E000590760D00D17CE058
:1056200012981399139B9D4A1B031B0B1A431100DD
:105630009B4B1894F61800229A4B04F051FD9A4A9D
:105640009A4BFEF7ADFD9A4A9A4BFDF777FF04009F
:1056500030000D00FFF746F8974A984BFEF7A0FD83
:1056600002000B0020002900FDF768FF04000D0078
:10567000FFF702F80022029000232000290004F026
:10568000FBFB00280BD00298FFF72CF82B00220020
:1056900004F0ECFB43425841029B1B1A0293012386
:1056A0001693029B162B0FD812981399DA00844B8D
:1056B0009B181A685B6804F0DFFB002849D0029B46
:1056C000013B0293002316931A9B9E1B00230A930F
:1056D0003300013B0D9304D501239B1B0A93002348
:1056E0000D93029B002B36DB029A0D9B944663447C
:1056F0000D93002315920E93229B0124092B64D84D
:10570000052B02DD0024043B2293229B981E0328D4
:1057100064D804F087FB293836581A9B1B9A9E18C8
:10572000684BF218202A0FDD40239B1A9D40664BE0
:105730000298F318D840284305F082F80123634CFF
:10574000013E0919189376E7202302989B1A984086
:10575000F2E71690B8E70A9B029A9B1A0A93534203
:105760000E9300231593C7E700230F93239B0C93FD
:105770000793002B13DC01231A000C930793239249
:105780000DE00123F1E70023239A0F939446029B37
:1057900063440C9301330793002B00DC01230022A8
:1057A000786A426004321500143541689D4219D967
:1057B000380000F01FFD0690002817D1D521020007
:1057C000434B4900CBE60123DEE700230F942293ED
:1057D000013B0C93079300221333D0E701230F936F
:1057E000023BF6E7013141605200DCE77B6A069A32
:1057F0001A60079B0E2B00D9EBE0002C00D1E8E0EB
:10580000029B002B68DD1A000F212D4B0A40D200AD
:105810009B181D685E68029B1C1102231093029B5B
:10582000DB050BD52B4B0C401A6A5B6A1298139957
:10583000FEF7C0F90323089009911093254B1493A8
:10584000002C08D1089809992A003300FEF7B2F914
:10585000089009915CE001231C420BD0109B2800AA
:1058600001331093149B31001A685B68FEF798FCB3
:1058700005000E00149B64100833E0E73BAC000801
:1058800052AC00080000F07F0F27000037AC000882
:105890003AAC0008A1AE0008A2AE00080000F03F3C
:1058A00001FCFFFF0000F83F61436F63A787D23F11
:1058B000B3C8608B288AC63FFB799F501344D33FFF
:1058C00090AD00083204000012040000000010FE39
:1058D000D0AC000868AD000802231093029B002B97
:1058E00016D0129813995C420F23B64A2340DB006E
:1058F000D3181A685B68FEF753FC01260023089052
:105900000991B14D2411002C00D094E0002B9FD1BF
:10591000169B002B00D19BE0089C099D00222000D3
:105920002900AA4B04F0A8FA002800D190E0079BB8
:10593000002B00D18CE00C9B002B46DD029B00224B
:10594000200029005E1EA24BFEF72AFC109B089047
:105950000991013310930C9B1098089C099D149396
:10596000FEF7C0FE22002B00FEF71AFC0022994B26
:10597000FDF7E4FD10901191109A119B0892099384
:10598000954A119B9446634417930993149B002BEB
:1059900061D1002220002900904B04F0A1FB089A5D
:1059A000179B04000D0004F07BFA002800D0AFE242
:1059B0008B481199844661440B0020002900089A05
:1059C00004F05AFA002800D09FE2129B139C08931F
:1059D00009941B9B002B00DA72E1029A0E2A00DD6B
:1059E0006EE1784BD2009B185C681B680A930B949D
:1059F000239B002B00DBF7E0079B002B00DDF3E08F
:105A000000D082E20A980B990022744BFEF7C8FB83
:105A1000089A099B04F04EFA079E3500002800D032
:105A200059E2069B069A0133089331231370029BB7
:105A30000133029354E2344207D0109B0133109398
:105A40002A686B68FEF7ACFB3300641008355AE730
:105A5000029E079B80E7149B0F995A1E594BD20058
:105A60009B181A685B68002951D000205D49FEF739
:105A7000A1F8089A099B04F033FB069A069B94460A
:105A80001793149B109011916344199329002000DF
:105A9000FEF7F2FD1490FEF725FE02000B00200039
:105AA000290004F01DFB179B179A01330893149BE0
:105AB000040030331370109A119B0D0004F0DCF9D0
:105AC000002875D122002B000020404904F008FB7B
:105AD000109A119B04F0D0F9002800D0D2E0199B55
